{
  "_format": "hh-sol-artifact-1",
  "contractName": "EventLogger",
  "sourceName": "contracts/EventLogger.sol",
  "abi": [
    {
      "inputs": [
        {
          "internalType": "address",
          "name": "_deviceRegistry",
          "type": "address"
        }
      ],
      "stateMutability": "nonpayable",
      "type": "constructor"
    },
    {
      "anonymous": false,
      "inputs": [
        {
          "indexed": true,
          "internalType": "string",
          "name": "deviceId",
          "type": "string"
        },
        {
          "indexed": true,
          "internalType": "address",
          "name": "guardian",
          "type": "address"
        },
        {
          "indexed": false,
          "internalType": "bytes32",
          "name": "dataHash",
          "type": "bytes32"
        },
        {
          "indexed": false,
          "internalType": "string",
          "name": "eventType",
          "type": "string"
        },
        {
          "indexed": false,
          "internalType": "uint256",
          "name": "timestamp",
          "type": "uint256"
        }
      ],
      "name": "EventLogged",
      "type": "event"
    },
    {
      "inputs": [],
      "name": "deviceRegistry",
      "outputs": [
        {
          "internalType": "contract IDeviceRegistry",
          "name": "",
          "type": "address"
        }
      ],
      "stateMutability": "view",
      "type": "function"
    },
    {
      "inputs": [
        {
          "internalType": "uint256",
          "name": "offset",
          "type": "uint256"
        },
        {
          "internalType": "uint256",
          "name": "limit",
          "type": "uint256"
        }
      ],
      "name": "getAllEvents",
      "outputs": [
        {
          "components": [
            {
              "internalType": "string",
              "name": "deviceId",
              "type": "string"
            },
            {
              "internalType": "bytes32",
              "name": "dataHash",
              "type": "bytes32"
            },
            {
              "internalType": "address",
              "name": "guardian",
              "type": "address"
            },
            {
              "internalType": "string",
              "name": "eventType",
              "type": "string"
            },
            {
              "internalType": "uint256",
              "name": "timestamp",
              "type": "uint256"
            }
          ],
          "internalType": "struct IEventLogger.EventLog[]",
          "name": "",
          "type": "tuple[]"
        }
      ],
      "stateMutability": "view",
      "type": "function"
    },
    {
      "inputs": [
        {
          "internalType": "string",
          "name": "deviceId",
          "type": "string"
        }
      ],
      "name": "getDeviceEventCount",
      "outputs": [
        {
          "internalType": "uint256",
          "name": "",
          "type": "uint256"
        }
      ],
      "stateMutability": "view",
      "type": "function"
    },
    {
      "inputs": [
        {
          "internalType": "string",
          "name": "deviceId",
          "type": "string"
        }
      ],
      "name": "getDeviceEventIndices",
      "outputs": [
        {
          "internalType": "uint256[]",
          "name": "",
          "type": "uint256[]"
        }
      ],
      "stateMutability": "view",
      "type": "function"
    },
    {
      "inputs": [
        {
          "internalType": "string",
          "name": "deviceId",
          "type": "string"
        },
        {
          "internalType": "uint256",
          "name": "limit",
          "type": "uint256"
        }
      ],
      "name": "getDeviceEvents",
      "outputs": [
        {
          "components": [
            {
              "internalType": "string",
              "name": "deviceId",
              "type": "string"
            },
            {
              "internalType": "bytes32",
              "name": "dataHash",
              "type": "bytes32"
            },
            {
              "internalType": "address",
              "name": "guardian",
              "type": "address"
            },
            {
              "internalType": "string",
              "name": "eventType",
              "type": "string"
            },
            {
              "internalType": "uint256",
              "name": "timestamp",
              "type": "uint256"
            }
          ],
          "internalType": "struct IEventLogger.EventLog[]",
          "name": "",
          "type": "tuple[]"
        }
      ],
      "stateMutability": "view",
      "type": "function"
    },
    {
      "inputs": [
        {
          "internalType": "uint256",
          "name": "index",
          "type": "uint256"
        }
      ],
      "name": "getEvent",
      "outputs": [
        {
          "components": [
            {
              "internalType": "string",
              "name": "deviceId",
              "type": "string"
            },
            {
              "internalType": "bytes32",
              "name": "dataHash",
              "type": "bytes32"
            },
            {
              "internalType": "address",
              "name": "guardian",
              "type": "address"
            },
            {
              "internalType": "string",
              "name": "eventType",
              "type": "string"
            },
            {
              "internalType": "uint256",
              "name": "timestamp",
              "type": "uint256"
            }
          ],
          "internalType": "struct IEventLogger.EventLog",
          "name": "",
          "type": "tuple"
        }
      ],
      "stateMutability": "view",
      "type": "function"
    },
    {
      "inputs": [
        {
          "internalType": "string",
          "name": "deviceId",
          "type": "string"
        },
        {
          "internalType": "bytes32",
          "name": "dataHash",
          "type": "bytes32"
        },
        {
          "internalType": "string",
          "name": "eventType",
          "type": "string"
        }
      ],
      "name": "logEvent",
      "outputs": [],
      "stateMutability": "nonpayable",
      "type": "function"
    },
    {
      "inputs": [
        {
          "internalType": "address",
          "name": "caller",
          "type": "address"
        },
        {
          "internalType": "string",
          "name": "deviceId",
          "type": "string"
        },
        {
          "internalType": "bytes32",
          "name": "dataHash",
          "type": "bytes32"
        },
        {
          "internalType": "string",
          "name": "eventType",
          "type": "string"
        }
      ],
      "name": "logEventFrom",
      "outputs": [],
      "stateMutability": "nonpayable",
      "type": "function"
    },
    {
      "inputs": [],
      "name": "totalEvents",
      "outputs": [
        {
          "internalType": "uint256",
          "name": "",
          "type": "uint256"
        }
      ],
      "stateMutability": "view",
      "type": "function"
    },
    {
      "inputs": [
        {
          "internalType": "uint256",
          "name": "index",
          "type": "uint256"
        },
        {
          "internalType": "bytes32",
          "name": "dataHash",
          "type": "bytes32"
        }
      ],
      "name": "verifyEventHash",
      "outputs": [
        {
          "internalType": "bool",
          "name": "",
          "type": "bool"
        }
      ],
      "stateMutability": "view",
      "type": "function"
    },
    {
      "stateMutability": "payable",
      "type": "receive"
    }
  ],
  "bytecode": "0x60806040523480156200001157600080fd5b5060405162002c2d38038062002c2d83398181016040528101906200003791906200015b565b600073ffffffffffffffffffffffffffffffffffffffff168173ffffffffffffffffffffffffffffffffffffffff1603620000a9576040517f08c379a0000000000000000000000000000000000000000000000000000000008152600401620000a09062000214565b60405180910390fd5b80600260006101000a81548173ffffffffffffffffffffffffffffffffffffffff021916908373ffffffffffffffffffffffffffffffffffffffff1602179055505062000236565b600080fd5b600073ffffffffffffffffffffffffffffffffffffffff82169050919050565b60006200012382620000f6565b9050919050565b620001358162000116565b81146200014157600080fd5b50565b60008151905062000155816200012a565b92915050565b600060208284031215620001745762000173620000f1565b5b6000620001848482850162000144565b91505092915050565b600082825260208201905092915050565b7f4576656e744c6f676765723a20496e76616c696420726567697374727920616460008201527f6472657373000000000000000000000000000000000000000000000000000000602082015250565b6000620001fc6025836200018d565b915062000209826200019e565b604082019050919050565b600060208201905081810360008301526200022f81620001ed565b9050919050565b6129e780620002466000396000f3fe6080604052600436106100955760003560e01c8063810ef11a11610059578063810ef11a146101e5578063aa7f79e714610222578063ba8706861461025f578063d35482461461028a578063d590786a146102b3576100d5565b8063156ca235146100da5780634ace288e1461010357806353361502146101405780635efb870a1461017d5780636d1884e0146101a8576100d5565b366100d5576040517f08c379a00000000000000000000000000000000000000000000000000000000081526004016100cc9061156e565b60405180910390fd5b600080fd5b3480156100e657600080fd5b5061010160048036038101906100fc919061177c565b6102f0565b005b34801561010f57600080fd5b5061012a60048036038101906101259190611851565b6104bc565b6040516101379190611a98565b60405180910390f35b34801561014c57600080fd5b5061016760048036038101906101629190611aba565b610828565b6040516101749190611b12565b60405180910390f35b34801561018957600080fd5b50610192610853565b60405161019f9190611b8c565b60405180910390f35b3480156101b457600080fd5b506101cf60048036038101906101ca9190611ba7565b610879565b6040516101dc9190611c51565b60405180910390f35b3480156101f157600080fd5b5061020c60048036038101906102079190611aba565b610a8a565b6040516102199190611d22565b60405180910390f35b34801561022e57600080fd5b5061024960048036038101906102449190611d44565b610b00565b6040516102569190611a98565b60405180910390f35b34801561026b57600080fd5b50610274610e36565b6040516102819190611b12565b60405180910390f35b34801561029657600080fd5b506102b160048036038101906102ac9190611d84565b610e3c565b005b3480156102bf57600080fd5b506102da60048036038101906102d59190611e0f565b611007565b6040516102e79190611e6a565b60405180910390f35b82600260009054906101000a900473ffffffffffffffffffffffffffffffffffffffff1673ffffffffffffffffffffffffffffffffffffffff166368ba4eaf826040518263ffffffff1660e01b815260040161034c9190611ebe565b602060405180830381865afa158015610369573d6000803e3d6000fd5b505050506040513d601f19601f8201168201806040525081019061038d9190611f0c565b6103cc576040517f08c379a00000000000000000000000000000000000000000000000000000000081526004016103c390611fab565b60405180910390fd5b83600260009054906101000a900473ffffffffffffffffffffffffffffffffffffffff1673ffffffffffffffffffffffffffffffffffffffff16635cd10dc1826040518263ffffffff1660e01b81526004016104289190611ebe565b602060405180830381865afa158015610445573d6000803e3d6000fd5b505050506040513d601f19601f820116820180604052508101906104699190611f0c565b6104a8576040517f08c379a000000000000000000000000000000000000000000000000000000000815260040161049f9061203d565b60405180910390fd5b6104b48686868661107f565b505050505050565b60606000821180156104cf575060648211155b61050e576040517f08c379a0000000000000000000000000000000000000000000000000000000008152600401610505906120a9565b60405180910390fd5b60006001846040516105209190612105565b908152602001604051809103902080548060200260200160405190810160405280929190818152602001828054801561057857602002820191906000526020600020905b815481526020019060010190808311610564575b50505050509050600083825111610590578151610592565b835b905060008167ffffffffffffffff8111156105b0576105af61161b565b5b6040519080825280602002602001820160405280156105e957816020015b6105d66114c9565b8152602001906001900390816105ce5790505b50905060005b8281101561081b576000848260018751610609919061214b565b610613919061214b565b815181106106245761062361217f565b5b60200260200101519050600081815481106106425761064161217f565b5b90600052602060002090600502016040518060a001604052908160008201805461066b906121dd565b80601f0160208091040260200160405190810160405280929190818152602001828054610697906121dd565b80156106e45780601f106106b9576101008083540402835291602001916106e4565b820191906000526020600020905b8154815290600101906020018083116106c757829003601f168201915b50505050508152602001600182015481526020016002820160009054906101000a900473ffffffffffffffffffffffffffffffffffffffff1673ffffffffffffffffffffffffffffffffffffffff1673ffffffffffffffffffffffffffffffffffffffff16815260200160038201805461075d906121dd565b80601f0160208091040260200160405190810160405280929190818152602001828054610789906121dd565b80156107d65780601f106107ab576101008083540402835291602001916107d6565b820191906000526020600020905b8154815290600101906020018083116107b957829003601f168201915b505050505081526020016004820154815250508383815181106107fc576107fb61217f565b5b60200260200101819052505080806108139061220e565b9150506105ef565b5080935050505092915050565b600060018260405161083a9190612105565b9081526020016040518091039020805490509050919050565b600260009054906101000a900473ffffffffffffffffffffffffffffffffffffffff1681565b6108816114c9565b60008054905082106108c8576040517f08c379a00000000000000000000000000000000000000000000000000000000081526004016108bf906122c8565b60405180910390fd5b600082815481106108dc576108db61217f565b5b90600052602060002090600502016040518060a0016040529081600082018054610905906121dd565b80601f0160208091040260200160405190810160405280929190818152602001828054610931906121dd565b801561097e5780601f106109535761010080835404028352916020019161097e565b820191906000526020600020905b81548152906001019060200180831161096157829003601f168201915b50505050508152602001600182015481526020016002820160009054906101000a900473ffffffffffffffffffffffffffffffffffffffff1673ffffffffffffffffffffffffffffffffffffffff1673ffffffffffffffffffffffffffffffffffffffff1681526020016003820180546109f7906121dd565b80601f0160208091040260200160405190810160405280929190818152602001828054610a23906121dd565b8015610a705780601f10610a4557610100808354040283529160200191610a70565b820191906000526020600020905b815481529060010190602001808311610a5357829003601f168201915b505050505081526020016004820154815250509050919050565b6060600182604051610a9c9190612105565b9081526020016040518091039020805480602002602001604051908101604052809291908181526020018280548015610af457602002820191906000526020600020905b815481526020019060010190808311610ae0575b50505050509050919050565b60606000805490508310610b49576040517f08c379a0000000000000000000000000000000000000000000000000000000008152600401610b409061235a565b60405180910390fd5b600082118015610b5a575060648211155b610b99576040517f08c379a0000000000000000000000000000000000000000000000000000000008152600401610b90906120a9565b60405180910390fd5b60008284610ba7919061237a565b9050600080549050811115610bbf5760008054905090505b60008482610bcd919061214b565b905060008167ffffffffffffffff811115610beb57610bea61161b565b5b604051908082528060200260200182016040528015610c2457816020015b610c116114c9565b815260200190600190039081610c095790505b50905060005b82811015610e295760008188610c40919061237a565b81548110610c5157610c5061217f565b5b90600052602060002090600502016040518060a0016040529081600082018054610c7a906121dd565b80601f0160208091040260200160405190810160405280929190818152602001828054610ca6906121dd565b8015610cf35780601f10610cc857610100808354040283529160200191610cf3565b820191906000526020600020905b815481529060010190602001808311610cd657829003601f168201915b50505050508152602001600182015481526020016002820160009054906101000a900473ffffffffffffffffffffffffffffffffffffffff1673ffffffffffffffffffffffffffffffffffffffff1673ffffffffffffffffffffffffffffffffffffffff168152602001600382018054610d6c906121dd565b80601f0160208091040260200160405190810160405280929190818152602001828054610d98906121dd565b8015610de55780601f10610dba57610100808354040283529160200191610de5565b820191906000526020600020905b815481529060010190602001808311610dc857829003601f168201915b50505050508152602001600482015481525050828281518110610e0b57610e0a61217f565b5b60200260200101819052508080610e219061220e565b915050610c2a565b5080935050505092915050565b60035481565b82600260009054906101000a900473ffffffffffffffffffffffffffffffffffffffff1673ffffffffffffffffffffffffffffffffffffffff166368ba4eaf826040518263ffffffff1660e01b8152600401610e989190611ebe565b602060405180830381865afa158015610eb5573d6000803e3d6000fd5b505050506040513d601f19601f82011682018060405250810190610ed99190611f0c565b610f18576040517f08c379a0000000000000000000000000000000000000000000000000000000008152600401610f0f90611fab565b60405180910390fd5b83600260009054906101000a900473ffffffffffffffffffffffffffffffffffffffff1673ffffffffffffffffffffffffffffffffffffffff16635cd10dc1826040518263ffffffff1660e01b8152600401610f749190611ebe565b602060405180830381865afa158015610f91573d6000803e3d6000fd5b505050506040513d601f19601f82011682018060405250810190610fb59190611f0c565b610ff4576040517f08c379a0000000000000000000000000000000000000000000000000000000008152600401610feb9061203d565b60405180910390fd5b6110003386868661107f565b5050505050565b60008080549050831061104f576040517f08c379a0000000000000000000000000000000000000000000000000000000008152600401611046906122c8565b60405180910390fd5b81600084815481106110645761106361217f565b5b90600052602060002090600502016001015414905092915050565b6000600260009054906101000a900473ffffffffffffffffffffffffffffffffffffffff1673ffffffffffffffffffffffffffffffffffffffff1663b71a0346856040518263ffffffff1660e01b81526004016110dc9190611ebe565b600060405180830381865afa1580156110f9573d6000803e3d6000fd5b505050506040513d6000823e3d601f19601f8201168201806040525081019061112291906125a9565b9050806020015173ffffffffffffffffffffffffffffffffffffffff168573ffffffffffffffffffffffffffffffffffffffff1614806111915750806040015173ffffffffffffffffffffffffffffffffffffffff168573ffffffffffffffffffffffffffffffffffffffff16145b6111d0576040517f08c379a00000000000000000000000000000000000000000000000000000000081526004016111c790612664565b60405180910390fd5b6000828051906020012090506040518060400160405280600681526020017f6e6f726d616c00000000000000000000000000000000000000000000000000008152508051906020012081148061126157506040518060400160405280600581526020017f616c6572740000000000000000000000000000000000000000000000000000008152508051906020012081145b806112a757506040518060400160405280600881526020017f637269746963616c0000000000000000000000000000000000000000000000008152508051906020012081145b6112e6576040517f08c379a00000000000000000000000000000000000000000000000000000000081526004016112dd906126d0565b60405180910390fd5b60006040518060a00160405280878152602001868152602001846040015173ffffffffffffffffffffffffffffffffffffffff1681526020018581526020014281525090506000819080600181540180825580915050600190039060005260206000209060050201600090919091909150600082015181600001908161136c9190612892565b506020820151816001015560408201518160020160006101000a81548173ffffffffffffffffffffffffffffffffffffffff021916908373ffffffffffffffffffffffffffffffffffffffff16021790555060608201518160030190816113d39190612892565b50608082015181600401555050600060016000805490506113f4919061214b565b90506001876040516114069190612105565b90815260200160405180910390208190806001815401808255809150506001900390600052602060002001600090919091909150556003600081548092919061144e9061220e565b9190505550836040015173ffffffffffffffffffffffffffffffffffffffff168760405161147c9190612105565b60405180910390207f3826f73ae69b3a7d4560d320a6c29c90bd452990ac0c9c559e6587286830d59d8888426040516114b793929190612973565b60405180910390a35050505050505050565b6040518060a001604052806060815260200160008019168152602001600073ffffffffffffffffffffffffffffffffffffffff16815260200160608152602001600081525090565b600082825260208201905092915050565b7f4576656e744c6f676765723a20455448206e6f74206163636570746564000000600082015250565b6000611558601d83611511565b915061156382611522565b602082019050919050565b600060208201905081810360008301526115878161154b565b9050919050565b6000604051905090565b600080fd5b600080fd5b600073ffffffffffffffffffffffffffffffffffffffff82169050919050565b60006115cd826115a2565b9050919050565b6115dd816115c2565b81146115e857600080fd5b50565b6000813590506115fa816115d4565b92915050565b600080fd5b600080fd5b6000601f19601f8301169050919050565b7f4e487b7100000000000000000000000000000000000000000000000000000000600052604160045260246000fd5b6116538261160a565b810181811067ffffffffffffffff821117156116725761167161161b565b5b80604052505050565b600061168561158e565b9050611691828261164a565b919050565b600067ffffffffffffffff8211156116b1576116b061161b565b5b6116ba8261160a565b9050602081019050919050565b82818337600083830152505050565b60006116e96116e484611696565b61167b565b90508281526020810184848401111561170557611704611605565b5b6117108482856116c7565b509392505050565b600082601f83011261172d5761172c611600565b5b813561173d8482602086016116d6565b91505092915050565b6000819050919050565b61175981611746565b811461176457600080fd5b50565b60008135905061177681611750565b92915050565b6000806000806080858703121561179657611795611598565b5b60006117a4878288016115eb565b945050602085013567ffffffffffffffff8111156117c5576117c461159d565b5b6117d187828801611718565b93505060406117e287828801611767565b925050606085013567ffffffffffffffff8111156118035761180261159d565b5b61180f87828801611718565b91505092959194509250565b6000819050919050565b61182e8161181b565b811461183957600080fd5b50565b60008135905061184b81611825565b92915050565b6000806040838503121561186857611867611598565b5b600083013567ffffffffffffffff8111156118865761188561159d565b5b61189285828601611718565b92505060206118a38582860161183c565b9150509250929050565b600081519050919050565b600082825260208201905092915050565b6000819050602082019050919050565b600081519050919050565b600082825260208201905092915050565b60005b838110156119135780820151818401526020810190506118f8565b60008484015250505050565b600061192a826118d9565b61193481856118e4565b93506119448185602086016118f5565b61194d8161160a565b840191505092915050565b61196181611746565b82525050565b611970816115c2565b82525050565b61197f8161181b565b82525050565b600060a08301600083015184820360008601526119a2828261191f565b91505060208301516119b76020860182611958565b5060408301516119ca6040860182611967565b50606083015184820360608601526119e2828261191f565b91505060808301516119f76080860182611976565b508091505092915050565b6000611a0e8383611985565b905092915050565b6000602082019050919050565b6000611a2e826118ad565b611a3881856118b8565b935083602082028501611a4a856118c9565b8060005b85811015611a865784840389528151611a678582611a02565b9450611a7283611a16565b925060208a01995050600181019050611a4e565b50829750879550505050505092915050565b60006020820190508181036000830152611ab28184611a23565b905092915050565b600060208284031215611ad057611acf611598565b5b600082013567ffffffffffffffff811115611aee57611aed61159d565b5b611afa84828501611718565b91505092915050565b611b0c8161181b565b82525050565b6000602082019050611b276000830184611b03565b92915050565b6000819050919050565b6000611b52611b4d611b48846115a2565b611b2d565b6115a2565b9050919050565b6000611b6482611b37565b9050919050565b6000611b7682611b59565b9050919050565b611b8681611b6b565b82525050565b6000602082019050611ba16000830184611b7d565b92915050565b600060208284031215611bbd57611bbc611598565b5b6000611bcb8482850161183c565b91505092915050565b600060a0830160008301518482036000860152611bf1828261191f565b9150506020830151611c066020860182611958565b506040830151611c196040860182611967565b5060608301518482036060860152611c31828261191f565b9150506080830151611c466080860182611976565b508091505092915050565b60006020820190508181036000830152611c6b8184611bd4565b905092915050565b600081519050919050565b600082825260208201905092915050565b6000819050602082019050919050565b6000611cab8383611976565b60208301905092915050565b6000602082019050919050565b6000611ccf82611c73565b611cd98185611c7e565b9350611ce483611c8f565b8060005b83811015611d15578151611cfc8882611c9f565b9750611d0783611cb7565b925050600181019050611ce8565b5085935050505092915050565b60006020820190508181036000830152611d3c8184611cc4565b905092915050565b60008060408385031215611d5b57611d5a611598565b5b6000611d698582860161183c565b9250506020611d7a8582860161183c565b9150509250929050565b600080600060608486031215611d9d57611d9c611598565b5b600084013567ffffffffffffffff811115611dbb57611dba61159d565b5b611dc786828701611718565b9350506020611dd886828701611767565b925050604084013567ffffffffffffffff811115611df957611df861159d565b5b611e0586828701611718565b9150509250925092565b60008060408385031215611e2657611e25611598565b5b6000611e348582860161183c565b9250506020611e4585828601611767565b9150509250929050565b60008115159050919050565b611e6481611e4f565b82525050565b6000602082019050611e7f6000830184611e5b565b92915050565b6000611e90826118d9565b611e9a8185611511565b9350611eaa8185602086016118f5565b611eb38161160a565b840191505092915050565b60006020820190508181036000830152611ed88184611e85565b905092915050565b611ee981611e4f565b8114611ef457600080fd5b50565b600081519050611f0681611ee0565b92915050565b600060208284031215611f2257611f21611598565b5b6000611f3084828501611ef7565b91505092915050565b7f4576656e744c6f676765723a20446576696365206e6f7420726567697374657260008201527f6564000000000000000000000000000000000000000000000000000000000000602082015250565b6000611f95602283611511565b9150611fa082611f39565b604082019050919050565b60006020820190508181036000830152611fc481611f88565b9050919050565b7f4576656e744c6f676765723a20446576696365206973206e6f7420616374697660008201527f6500000000000000000000000000000000000000000000000000000000000000602082015250565b6000612027602183611511565b915061203282611fcb565b604082019050919050565b600060208201905081810360008301526120568161201a565b9050919050565b7f4576656e744c6f676765723a204c696d6974206d75737420626520312d313030600082015250565b6000612093602083611511565b915061209e8261205d565b602082019050919050565b600060208201905081810360008301526120c281612086565b9050919050565b600081905092915050565b60006120df826118d9565b6120e981856120c9565b93506120f98185602086016118f5565b80840191505092915050565b600061211182846120d4565b915081905092915050565b7f4e487b7100000000000000000000000000000000000000000000000000000000600052601160045260246000fd5b60006121568261181b565b91506121618361181b565b92508282039050818111156121795761217861211c565b5b92915050565b7f4e487b7100000000000000000000000000000000000000000000000000000000600052603260045260246000fd5b7f4e487b7100000000000000000000000000000000000000000000000000000000600052602260045260246000fd5b600060028204905060018216806121f557607f821691505b602082108103612208576122076121ae565b5b50919050565b60006122198261181b565b91507fffffffffffffffffffffffffffffffffffffffffffffffffffffffffffffffff820361224b5761224a61211c565b5b600182019050919050565b7f4576656e744c6f676765723a204576656e7420696e646578206f7574206f662060008201527f626f756e64730000000000000000000000000000000000000000000000000000602082015250565b60006122b2602683611511565b91506122bd82612256565b604082019050919050565b600060208201905081810360008301526122e1816122a5565b9050919050565b7f4576656e744c6f676765723a204f6666736574206f7574206f6620626f756e6460008201527f7300000000000000000000000000000000000000000000000000000000000000602082015250565b6000612344602183611511565b915061234f826122e8565b604082019050919050565b6000602082019050818103600083015261237381612337565b9050919050565b60006123858261181b565b91506123908361181b565b92508282019050808211156123a8576123a761211c565b5b92915050565b600080fd5b600080fd5b60006123cb6123c684611696565b61167b565b9050828152602081018484840111156123e7576123e6611605565b5b6123f28482856118f5565b509392505050565b600082601f83011261240f5761240e611600565b5b815161241f8482602086016123b8565b91505092915050565b600081519050612437816115d4565b92915050565b600060ff82169050919050565b6124538161243d565b811461245e57600080fd5b50565b6000815190506124708161244a565b92915050565b60008151905061248581611825565b92915050565b600061010082840312156124a2576124a16123ae565b5b6124ad61010061167b565b9050600082015167ffffffffffffffff8111156124cd576124cc6123b3565b5b6124d9848285016123fa565b60008301525060206124ed84828501612428565b602083015250604061250184828501612428565b604083015250606082015167ffffffffffffffff811115612525576125246123b3565b5b612531848285016123fa565b606083015250608061254584828501612461565b60808301525060a082015167ffffffffffffffff811115612569576125686123b3565b5b612575848285016123fa565b60a08301525060c061258984828501611ef7565b60c08301525060e061259d84828501612476565b60e08301525092915050565b6000602082840312156125bf576125be611598565b5b600082015167ffffffffffffffff8111156125dd576125dc61159d565b5b6125e98482850161248b565b91505092915050565b7f4576656e744c6f676765723a204f6e6c792070617469656e74206f722067756160008201527f726469616e2063616e206c6f67206576656e7473000000000000000000000000602082015250565b600061264e603483611511565b9150612659826125f2565b604082019050919050565b6000602082019050818103600083015261267d81612641565b9050919050565b7f4576656e744c6f676765723a20496e76616c6964206576656e74207479706500600082015250565b60006126ba601f83611511565b91506126c582612684565b602082019050919050565b600060208201905081810360008301526126e9816126ad565b9050919050565b60008190508160005260206000209050919050565b60006020601f8301049050919050565b600082821b905092915050565b6000600883026127527fffffffffffffffffffffffffffffffffffffffffffffffffffffffffffffffff82612715565b61275c8683612715565b95508019841693508086168417925050509392505050565b600061278f61278a6127858461181b565b611b2d565b61181b565b9050919050565b6000819050919050565b6127a983612774565b6127bd6127b582612796565b848454612722565b825550505050565b600090565b6127d26127c5565b6127dd8184846127a0565b505050565b5b81811015612801576127f66000826127ca565b6001810190506127e3565b5050565b601f82111561284657612817816126f0565b61282084612705565b8101602085101561282f578190505b61284361283b85612705565b8301826127e2565b50505b505050565b600082821c905092915050565b60006128696000198460080261284b565b1980831691505092915050565b60006128828383612858565b9150826002028217905092915050565b61289b826118d9565b67ffffffffffffffff8111156128b4576128b361161b565b5b6128be82546121dd565b6128c9828285612805565b600060209050601f8311600181146128fc57600084156128ea578287015190505b6128f48582612876565b86555061295c565b601f19841661290a866126f0565b60005b828110156129325784890151825560018201915060208501945060208101905061290d565b8683101561294f578489015161294b601f891682612858565b8355505b6001600288020188555050505b505050505050565b61296d81611746565b82525050565b60006060820190506129886000830186612964565b818103602083015261299a8185611e85565b90506129a96040830184611b03565b94935050505056fea2646970667358221220f3be993112847636c10fe7b4978eb38bf944859c827de44d56e713354b7d038e64736f6c63430008140033",
  "linkReferences": {},
  "deployedLinkReferences": {}
}