{
  "_format": "hh-sol-artifact-1",
  "contractName": "EventLogger",
  "sourceName": "contracts/EventLogger.sol",
  "abi": [
    {
      "inputs": [
        {
          "internalType": "address",
          "name": "_deviceRegistry",
          "type": "address"
        }
      ],
      "stateMutability": "nonpayable",
      "type": "constructor"
    },
    {
      "anonymous": false,
      "inputs": [
        {
          "indexed": true,
          "internalType": "string",
          "name": "deviceId",
          "type": "string"
        },
        {
          "indexed": true,
          "internalType": "address",
          "name": "guardian",
          "type": "address"
        },
        {
          "indexed": false,
          "internalType": "bytes32",
          "name": "dataHash",
          "type": "bytes32"
        },
        {
          "indexed": false,
          "internalType": "string",
          "name": "eventType",
          "type": "string"
        },
        {
          "indexed": false,
          "internalType": "uint256",
          "name": "timestamp",
          "type": "uint256"
        }
      ],
      "name": "EventLogged",
      "type": "event"
    },
    {
      "inputs": [],
      "name": "deviceRegistry",
      "outputs": [
        {
          "internalType": "contract IDeviceRegistry",
          "name": "",
          "type": "address"
        }
      ],
      "stateMutability": "view",
      "type": "function"
    },
    {
      "inputs": [
        {
          "internalType": "uint256",
          "name": "offset",
          "type": "uint256"
        },
        {
          "internalType": "uint256",
          "name": "limit",
          "type": "uint256"
        }
      ],
      "name": "getAllEvents",
      "outputs": [
        {
          "components": [
            {
              "internalType": "string",
              "name": "deviceId",
              "type": "string"
            },
            {
              "internalType": "bytes32",
              "name": "dataHash",
              "type": "bytes32"
            },
            {
              "internalType": "address",
              "name": "guardian",
              "type": "address"
            },
            {
              "internalType": "string",
              "name": "eventType",
              "type": "string"
            },
            {
              "internalType": "uint256",
              "name": "timestamp",
              "type": "uint256"
            }
          ],
          "internalType": "struct IEventLogger.EventLog[]",
          "name": "",
          "type": "tuple[]"
        }
      ],
      "stateMutability": "view",
      "type": "function"
    },
    {
      "inputs": [
        {
          "internalType": "string",
          "name": "deviceId",
          "type": "string"
        }
      ],
      "name": "getDeviceEventCount",
      "outputs": [
        {
          "internalType": "uint256",
          "name": "",
          "type": "uint256"
        }
      ],
      "stateMutability": "view",
      "type": "function"
    },
    {
      "inputs": [
        {
          "internalType": "string",
          "name": "deviceId",
          "type": "string"
        }
      ],
      "name": "getDeviceEventIndices",
      "outputs": [
        {
          "internalType": "uint256[]",
          "name": "",
          "type": "uint256[]"
        }
      ],
      "stateMutability": "view",
      "type": "function"
    },
    {
      "inputs": [
        {
          "internalType": "string",
          "name": "deviceId",
          "type": "string"
        },
        {
          "internalType": "uint256",
          "name": "limit",
          "type": "uint256"
        }
      ],
      "name": "getDeviceEvents",
      "outputs": [
        {
          "components": [
            {
              "internalType": "string",
              "name": "deviceId",
              "type": "string"
            },
            {
              "internalType": "bytes32",
              "name": "dataHash",
              "type": "bytes32"
            },
            {
              "internalType": "address",
              "name": "guardian",
              "type": "address"
            },
            {
              "internalType": "string",
              "name": "eventType",
              "type": "string"
            },
            {
              "internalType": "uint256",
              "name": "timestamp",
              "type": "uint256"
            }
          ],
          "internalType": "struct IEventLogger.EventLog[]",
          "name": "",
          "type": "tuple[]"
        }
      ],
      "stateMutability": "view",
      "type": "function"
    },
    {
      "inputs": [
        {
          "internalType": "uint256",
          "name": "index",
          "type": "uint256"
        }
      ],
      "name": "getEvent",
      "outputs": [
        {
          "components": [
            {
              "internalType": "string",
              "name": "deviceId",
              "type": "string"
            },
            {
              "internalType": "bytes32",
              "name": "dataHash",
              "type": "bytes32"
            },
            {
              "internalType": "address",
              "name": "guardian",
              "type": "address"
            },
            {
              "internalType": "string",
              "name": "eventType",
              "type": "string"
            },
            {
              "internalType": "uint256",
              "name": "timestamp",
              "type": "uint256"
            }
          ],
          "internalType": "struct IEventLogger.EventLog",
          "name": "",
          "type": "tuple"
        }
      ],
      "stateMutability": "view",
      "type": "function"
    },
    {
      "inputs": [
        {
          "internalType": "string",
          "name": "deviceId",
          "type": "string"
        },
        {
          "internalType": "bytes32",
          "name": "dataHash",
          "type": "bytes32"
        },
        {
          "internalType": "string",
          "name": "eventType",
          "type": "string"
        }
      ],
      "name": "logEvent",
      "outputs": [],
      "stateMutability": "nonpayable",
      "type": "function"
    },
    {
      "inputs": [],
      "name": "totalEvents",
      "outputs": [
        {
          "internalType": "uint256",
          "name": "",
          "type": "uint256"
        }
      ],
      "stateMutability": "view",
      "type": "function"
    },
    {
      "inputs": [
        {
          "internalType": "uint256",
          "name": "index",
          "type": "uint256"
        },
        {
          "internalType": "bytes32",
          "name": "dataHash",
          "type": "bytes32"
        }
      ],
      "name": "verifyEventHash",
      "outputs": [
        {
          "internalType": "bool",
          "name": "",
          "type": "bool"
        }
      ],
      "stateMutability": "view",
      "type": "function"
    },
    {
      "stateMutability": "payable",
      "type": "receive"
    }
  ],
  "bytecode": "0x60806040523480156200001157600080fd5b50604051620029673803806200296783398181016040528101906200003791906200015b565b600073ffffffffffffffffffffffffffffffffffffffff168173ffffffffffffffffffffffffffffffffffffffff1603620000a9576040517f08c379a0000000000000000000000000000000000000000000000000000000008152600401620000a09062000214565b60405180910390fd5b80600260006101000a81548173ffffffffffffffffffffffffffffffffffffffff021916908373ffffffffffffffffffffffffffffffffffffffff1602179055505062000236565b600080fd5b600073ffffffffffffffffffffffffffffffffffffffff82169050919050565b60006200012382620000f6565b9050919050565b620001358162000116565b81146200014157600080fd5b50565b60008151905062000155816200012a565b92915050565b600060208284031215620001745762000173620000f1565b5b6000620001848482850162000144565b91505092915050565b600082825260208201905092915050565b7f4576656e744c6f676765723a20496e76616c696420726567697374727920616460008201527f6472657373000000000000000000000000000000000000000000000000000000602082015250565b6000620001fc6025836200018d565b915062000209826200019e565b604082019050919050565b600060208201905081810360008301526200022f81620001ed565b9050919050565b61272180620002466000396000f3fe60806040526004361061008a5760003560e01c8063810ef11a11610059578063810ef11a146101b1578063aa7f79e7146101ee578063ba8706861461022b578063d354824614610256578063d590786a1461027f576100ca565b80634ace288e146100cf578063533615021461010c5780635efb870a146101495780636d1884e014610174576100ca565b366100ca576040517f08c379a00000000000000000000000000000000000000000000000000000000081526004016100c19061135c565b60405180910390fd5b600080fd5b3480156100db57600080fd5b506100f660048036038101906100f1919061150c565b6102bc565b604051610103919061178f565b60405180910390f35b34801561011857600080fd5b50610133600480360381019061012e91906117b1565b610628565b6040516101409190611809565b60405180910390f35b34801561015557600080fd5b5061015e610653565b60405161016b9190611883565b60405180910390f35b34801561018057600080fd5b5061019b6004803603810190610196919061189e565b610679565b6040516101a89190611948565b60405180910390f35b3480156101bd57600080fd5b506101d860048036038101906101d391906117b1565b61088a565b6040516101e59190611a19565b60405180910390f35b3480156101fa57600080fd5b5061021560048036038101906102109190611a3b565b610900565b604051610222919061178f565b60405180910390f35b34801561023757600080fd5b50610240610c36565b60405161024d9190611809565b60405180910390f35b34801561026257600080fd5b5061027d60048036038101906102789190611aa7565b610c3c565b005b34801561028b57600080fd5b506102a660048036038101906102a19190611b32565b61123f565b6040516102b39190611b8d565b60405180910390f35b60606000821180156102cf575060648211155b61030e576040517f08c379a000000000000000000000000000000000000000000000000000000000815260040161030590611bf4565b60405180910390fd5b60006001846040516103209190611c50565b908152602001604051809103902080548060200260200160405190810160405280929190818152602001828054801561037857602002820191906000526020600020905b815481526020019060010190808311610364575b50505050509050600083825111610390578151610392565b835b905060008167ffffffffffffffff8111156103b0576103af6113ab565b5b6040519080825280602002602001820160405280156103e957816020015b6103d66112b7565b8152602001906001900390816103ce5790505b50905060005b8281101561061b5760008482600187516104099190611c96565b6104139190611c96565b8151811061042457610423611cca565b5b602002602001015190506000818154811061044257610441611cca565b5b90600052602060002090600502016040518060a001604052908160008201805461046b90611d28565b80601f016020809104026020016040519081016040528092919081815260200182805461049790611d28565b80156104e45780601f106104b9576101008083540402835291602001916104e4565b820191906000526020600020905b8154815290600101906020018083116104c757829003601f168201915b50505050508152602001600182015481526020016002820160009054906101000a900473ffffffffffffffffffffffffffffffffffffffff1673ffffffffffffffffffffffffffffffffffffffff1673ffffffffffffffffffffffffffffffffffffffff16815260200160038201805461055d90611d28565b80601f016020809104026020016040519081016040528092919081815260200182805461058990611d28565b80156105d65780601f106105ab576101008083540402835291602001916105d6565b820191906000526020600020905b8154815290600101906020018083116105b957829003601f168201915b505050505081526020016004820154815250508383815181106105fc576105fb611cca565b5b602002602001018190525050808061061390611d59565b9150506103ef565b5080935050505092915050565b600060018260405161063a9190611c50565b9081526020016040518091039020805490509050919050565b600260009054906101000a900473ffffffffffffffffffffffffffffffffffffffff1681565b6106816112b7565b60008054905082106106c8576040517f08c379a00000000000000000000000000000000000000000000000000000000081526004016106bf90611e13565b60405180910390fd5b600082815481106106dc576106db611cca565b5b90600052602060002090600502016040518060a001604052908160008201805461070590611d28565b80601f016020809104026020016040519081016040528092919081815260200182805461073190611d28565b801561077e5780601f106107535761010080835404028352916020019161077e565b820191906000526020600020905b81548152906001019060200180831161076157829003601f168201915b50505050508152602001600182015481526020016002820160009054906101000a900473ffffffffffffffffffffffffffffffffffffffff1673ffffffffffffffffffffffffffffffffffffffff1673ffffffffffffffffffffffffffffffffffffffff1681526020016003820180546107f790611d28565b80601f016020809104026020016040519081016040528092919081815260200182805461082390611d28565b80156108705780601f1061084557610100808354040283529160200191610870565b820191906000526020600020905b81548152906001019060200180831161085357829003601f168201915b505050505081526020016004820154815250509050919050565b606060018260405161089c9190611c50565b90815260200160405180910390208054806020026020016040519081016040528092919081815260200182805480156108f457602002820191906000526020600020905b8154815260200190600101908083116108e0575b50505050509050919050565b60606000805490508310610949576040517f08c379a000000000000000000000000000000000000000000000000000000000815260040161094090611ea5565b60405180910390fd5b60008211801561095a575060648211155b610999576040517f08c379a000000000000000000000000000000000000000000000000000000000815260040161099090611bf4565b60405180910390fd5b600082846109a79190611ec5565b90506000805490508111156109bf5760008054905090505b600084826109cd9190611c96565b905060008167ffffffffffffffff8111156109eb576109ea6113ab565b5b604051908082528060200260200182016040528015610a2457816020015b610a116112b7565b815260200190600190039081610a095790505b50905060005b82811015610c295760008188610a409190611ec5565b81548110610a5157610a50611cca565b5b90600052602060002090600502016040518060a0016040529081600082018054610a7a90611d28565b80601f0160208091040260200160405190810160405280929190818152602001828054610aa690611d28565b8015610af35780601f10610ac857610100808354040283529160200191610af3565b820191906000526020600020905b815481529060010190602001808311610ad657829003601f168201915b50505050508152602001600182015481526020016002820160009054906101000a900473ffffffffffffffffffffffffffffffffffffffff1673ffffffffffffffffffffffffffffffffffffffff1673ffffffffffffffffffffffffffffffffffffffff168152602001600382018054610b6c90611d28565b80601f0160208091040260200160405190810160405280929190818152602001828054610b9890611d28565b8015610be55780601f10610bba57610100808354040283529160200191610be5565b820191906000526020600020905b815481529060010190602001808311610bc857829003601f168201915b50505050508152602001600482015481525050828281518110610c0b57610c0a611cca565b5b60200260200101819052508080610c2190611d59565b915050610a2a565b5080935050505092915050565b60035481565b82600260009054906101000a900473ffffffffffffffffffffffffffffffffffffffff1673ffffffffffffffffffffffffffffffffffffffff166368ba4eaf826040518263ffffffff1660e01b8152600401610c989190611f32565b602060405180830381865afa158015610cb5573d6000803e3d6000fd5b505050506040513d601f19601f82011682018060405250810190610cd99190611f80565b610d18576040517f08c379a0000000000000000000000000000000000000000000000000000000008152600401610d0f9061201f565b60405180910390fd5b83600260009054906101000a900473ffffffffffffffffffffffffffffffffffffffff1673ffffffffffffffffffffffffffffffffffffffff16635cd10dc1826040518263ffffffff1660e01b8152600401610d749190611f32565b602060405180830381865afa158015610d91573d6000803e3d6000fd5b505050506040513d601f19601f82011682018060405250810190610db59190611f80565b610df4576040517f08c379a0000000000000000000000000000000000000000000000000000000008152600401610deb906120b1565b60405180910390fd5b6000600260009054906101000a900473ffffffffffffffffffffffffffffffffffffffff1673ffffffffffffffffffffffffffffffffffffffff1663b71a0346876040518263ffffffff1660e01b8152600401610e519190611f32565b600060405180830381865afa158015610e6e573d6000803e3d6000fd5b505050506040513d6000823e3d601f19601f82011682018060405250810190610e9791906122e3565b9050806020015173ffffffffffffffffffffffffffffffffffffffff163373ffffffffffffffffffffffffffffffffffffffff161480610f065750806040015173ffffffffffffffffffffffffffffffffffffffff163373ffffffffffffffffffffffffffffffffffffffff16145b610f45576040517f08c379a0000000000000000000000000000000000000000000000000000000008152600401610f3c9061239e565b60405180910390fd5b6000848051906020012090506040518060400160405280600681526020017f6e6f726d616c000000000000000000000000000000000000000000000000000081525080519060200120811480610fd657506040518060400160405280600581526020017f616c6572740000000000000000000000000000000000000000000000000000008152508051906020012081145b8061101c57506040518060400160405280600881526020017f637269746963616c0000000000000000000000000000000000000000000000008152508051906020012081145b61105b576040517f08c379a00000000000000000000000000000000000000000000000000000000081526004016110529061240a565b60405180910390fd5b60006040518060a00160405280898152602001888152602001846040015173ffffffffffffffffffffffffffffffffffffffff168152602001878152602001428152509050600081908060018154018082558091505060019003906000526020600020906005020160009091909190915060008201518160000190816110e191906125cc565b506020820151816001015560408201518160020160006101000a81548173ffffffffffffffffffffffffffffffffffffffff021916908373ffffffffffffffffffffffffffffffffffffffff160217905550606082015181600301908161114891906125cc565b50608082015181600401555050600060016000805490506111699190611c96565b905060018960405161117b9190611c50565b9081526020016040518091039020819080600181540180825580915050600190039060005260206000200160009091909190915055600360008154809291906111c390611d59565b9190505550836040015173ffffffffffffffffffffffffffffffffffffffff16896040516111f19190611c50565b60405180910390207f3826f73ae69b3a7d4560d320a6c29c90bd452990ac0c9c559e6587286830d59d8a8a4260405161122c939291906126ad565b60405180910390a3505050505050505050565b600080805490508310611287576040517f08c379a000000000000000000000000000000000000000000000000000000000815260040161127e90611e13565b60405180910390fd5b816000848154811061129c5761129b611cca565b5b90600052602060002090600502016001015414905092915050565b6040518060a001604052806060815260200160008019168152602001600073ffffffffffffffffffffffffffffffffffffffff16815260200160608152602001600081525090565b600082825260208201905092915050565b7f4576656e744c6f676765723a20455448206e6f74206163636570746564000000600082015250565b6000611346601d836112ff565b915061135182611310565b602082019050919050565b6000602082019050818103600083015261137581611339565b9050919050565b6000604051905090565b600080fd5b600080fd5b600080fd5b600080fd5b6000601f19601f8301169050919050565b7f4e487b7100000000000000000000000000000000000000000000000000000000600052604160045260246000fd5b6113e38261139a565b810181811067ffffffffffffffff82111715611402576114016113ab565b5b80604052505050565b600061141561137c565b905061142182826113da565b919050565b600067ffffffffffffffff821115611441576114406113ab565b5b61144a8261139a565b9050602081019050919050565b82818337600083830152505050565b600061147961147484611426565b61140b565b90508281526020810184848401111561149557611494611395565b5b6114a0848285611457565b509392505050565b600082601f8301126114bd576114bc611390565b5b81356114cd848260208601611466565b91505092915050565b6000819050919050565b6114e9816114d6565b81146114f457600080fd5b50565b600081359050611506816114e0565b92915050565b6000806040838503121561152357611522611386565b5b600083013567ffffffffffffffff8111156115415761154061138b565b5b61154d858286016114a8565b925050602061155e858286016114f7565b9150509250929050565b600081519050919050565b600082825260208201905092915050565b6000819050602082019050919050565b600081519050919050565b600082825260208201905092915050565b60005b838110156115ce5780820151818401526020810190506115b3565b60008484015250505050565b60006115e582611594565b6115ef818561159f565b93506115ff8185602086016115b0565b6116088161139a565b840191505092915050565b6000819050919050565b61162681611613565b82525050565b600073ffffffffffffffffffffffffffffffffffffffff82169050919050565b60006116578261162c565b9050919050565b6116678161164c565b82525050565b611676816114d6565b82525050565b600060a083016000830151848203600086015261169982826115da565b91505060208301516116ae602086018261161d565b5060408301516116c1604086018261165e565b50606083015184820360608601526116d982826115da565b91505060808301516116ee608086018261166d565b508091505092915050565b6000611705838361167c565b905092915050565b6000602082019050919050565b600061172582611568565b61172f8185611573565b93508360208202850161174185611584565b8060005b8581101561177d578484038952815161175e85826116f9565b94506117698361170d565b925060208a01995050600181019050611745565b50829750879550505050505092915050565b600060208201905081810360008301526117a9818461171a565b905092915050565b6000602082840312156117c7576117c6611386565b5b600082013567ffffffffffffffff8111156117e5576117e461138b565b5b6117f1848285016114a8565b91505092915050565b611803816114d6565b82525050565b600060208201905061181e60008301846117fa565b92915050565b6000819050919050565b600061184961184461183f8461162c565b611824565b61162c565b9050919050565b600061185b8261182e565b9050919050565b600061186d82611850565b9050919050565b61187d81611862565b82525050565b60006020820190506118986000830184611874565b92915050565b6000602082840312156118b4576118b3611386565b5b60006118c2848285016114f7565b91505092915050565b600060a08301600083015184820360008601526118e882826115da565b91505060208301516118fd602086018261161d565b506040830151611910604086018261165e565b506060830151848203606086015261192882826115da565b915050608083015161193d608086018261166d565b508091505092915050565b6000602082019050818103600083015261196281846118cb565b905092915050565b600081519050919050565b600082825260208201905092915050565b6000819050602082019050919050565b60006119a2838361166d565b60208301905092915050565b6000602082019050919050565b60006119c68261196a565b6119d08185611975565b93506119db83611986565b8060005b83811015611a0c5781516119f38882611996565b97506119fe836119ae565b9250506001810190506119df565b5085935050505092915050565b60006020820190508181036000830152611a3381846119bb565b905092915050565b60008060408385031215611a5257611a51611386565b5b6000611a60858286016114f7565b9250506020611a71858286016114f7565b9150509250929050565b611a8481611613565b8114611a8f57600080fd5b50565b600081359050611aa181611a7b565b92915050565b600080600060608486031215611ac057611abf611386565b5b600084013567ffffffffffffffff811115611ade57611add61138b565b5b611aea868287016114a8565b9350506020611afb86828701611a92565b925050604084013567ffffffffffffffff811115611b1c57611b1b61138b565b5b611b28868287016114a8565b9150509250925092565b60008060408385031215611b4957611b48611386565b5b6000611b57858286016114f7565b9250506020611b6885828601611a92565b9150509250929050565b60008115159050919050565b611b8781611b72565b82525050565b6000602082019050611ba26000830184611b7e565b92915050565b7f4576656e744c6f676765723a204c696d6974206d75737420626520312d313030600082015250565b6000611bde6020836112ff565b9150611be982611ba8565b602082019050919050565b60006020820190508181036000830152611c0d81611bd1565b9050919050565b600081905092915050565b6000611c2a82611594565b611c348185611c14565b9350611c448185602086016115b0565b80840191505092915050565b6000611c5c8284611c1f565b915081905092915050565b7f4e487b7100000000000000000000000000000000000000000000000000000000600052601160045260246000fd5b6000611ca1826114d6565b9150611cac836114d6565b9250828203905081811115611cc457611cc3611c67565b5b92915050565b7f4e487b7100000000000000000000000000000000000000000000000000000000600052603260045260246000fd5b7f4e487b7100000000000000000000000000000000000000000000000000000000600052602260045260246000fd5b60006002820490506001821680611d4057607f821691505b602082108103611d5357611d52611cf9565b5b50919050565b6000611d64826114d6565b91507fffffffffffffffffffffffffffffffffffffffffffffffffffffffffffffffff8203611d9657611d95611c67565b5b600182019050919050565b7f4576656e744c6f676765723a204576656e7420696e646578206f7574206f662060008201527f626f756e64730000000000000000000000000000000000000000000000000000602082015250565b6000611dfd6026836112ff565b9150611e0882611da1565b604082019050919050565b60006020820190508181036000830152611e2c81611df0565b9050919050565b7f4576656e744c6f676765723a204f6666736574206f7574206f6620626f756e6460008201527f7300000000000000000000000000000000000000000000000000000000000000602082015250565b6000611e8f6021836112ff565b9150611e9a82611e33565b604082019050919050565b60006020820190508181036000830152611ebe81611e82565b9050919050565b6000611ed0826114d6565b9150611edb836114d6565b9250828201905080821115611ef357611ef2611c67565b5b92915050565b6000611f0482611594565b611f0e81856112ff565b9350611f1e8185602086016115b0565b611f278161139a565b840191505092915050565b60006020820190508181036000830152611f4c8184611ef9565b905092915050565b611f5d81611b72565b8114611f6857600080fd5b50565b600081519050611f7a81611f54565b92915050565b600060208284031215611f9657611f95611386565b5b6000611fa484828501611f6b565b91505092915050565b7f4576656e744c6f676765723a20446576696365206e6f7420726567697374657260008201527f6564000000000000000000000000000000000000000000000000000000000000602082015250565b60006120096022836112ff565b915061201482611fad565b604082019050919050565b6000602082019050818103600083015261203881611ffc565b9050919050565b7f4576656e744c6f676765723a20446576696365206973206e6f7420616374697660008201527f6500000000000000000000000000000000000000000000000000000000000000602082015250565b600061209b6021836112ff565b91506120a68261203f565b604082019050919050565b600060208201905081810360008301526120ca8161208e565b9050919050565b600080fd5b600080fd5b60006120ee6120e984611426565b61140b565b90508281526020810184848401111561210a57612109611395565b5b6121158482856115b0565b509392505050565b600082601f83011261213257612131611390565b5b81516121428482602086016120db565b91505092915050565b6121548161164c565b811461215f57600080fd5b50565b6000815190506121718161214b565b92915050565b600060ff82169050919050565b61218d81612177565b811461219857600080fd5b50565b6000815190506121aa81612184565b92915050565b6000815190506121bf816114e0565b92915050565b600061010082840312156121dc576121db6120d1565b5b6121e761010061140b565b9050600082015167ffffffffffffffff811115612207576122066120d6565b5b6122138482850161211d565b600083015250602061222784828501612162565b602083015250604061223b84828501612162565b604083015250606082015167ffffffffffffffff81111561225f5761225e6120d6565b5b61226b8482850161211d565b606083015250608061227f8482850161219b565b60808301525060a082015167ffffffffffffffff8111156122a3576122a26120d6565b5b6122af8482850161211d565b60a08301525060c06122c384828501611f6b565b60c08301525060e06122d7848285016121b0565b60e08301525092915050565b6000602082840312156122f9576122f8611386565b5b600082015167ffffffffffffffff8111156123175761231661138b565b5b612323848285016121c5565b91505092915050565b7f4576656e744c6f676765723a204f6e6c792070617469656e74206f722067756160008201527f726469616e2063616e206c6f67206576656e7473000000000000000000000000602082015250565b60006123886034836112ff565b91506123938261232c565b604082019050919050565b600060208201905081810360008301526123b78161237b565b9050919050565b7f4576656e744c6f676765723a20496e76616c6964206576656e74207479706500600082015250565b60006123f4601f836112ff565b91506123ff826123be565b602082019050919050565b60006020820190508181036000830152612423816123e7565b9050919050565b60008190508160005260206000209050919050565b60006020601f8301049050919050565b600082821b905092915050565b60006008830261248c7fffffffffffffffffffffffffffffffffffffffffffffffffffffffffffffffff8261244f565b612496868361244f565b95508019841693508086168417925050509392505050565b60006124c96124c46124bf846114d6565b611824565b6114d6565b9050919050565b6000819050919050565b6124e3836124ae565b6124f76124ef826124d0565b84845461245c565b825550505050565b600090565b61250c6124ff565b6125178184846124da565b505050565b5b8181101561253b57612530600082612504565b60018101905061251d565b5050565b601f821115612580576125518161242a565b61255a8461243f565b81016020851015612569578190505b61257d6125758561243f565b83018261251c565b50505b505050565b600082821c905092915050565b60006125a360001984600802612585565b1980831691505092915050565b60006125bc8383612592565b9150826002028217905092915050565b6125d582611594565b67ffffffffffffffff8111156125ee576125ed6113ab565b5b6125f88254611d28565b61260382828561253f565b600060209050601f8311600181146126365760008415612624578287015190505b61262e85826125b0565b865550612696565b601f1984166126448661242a565b60005b8281101561266c57848901518255600182019150602085019450602081019050612647565b868310156126895784890151612685601f891682612592565b8355505b6001600288020188555050505b505050505050565b6126a781611613565b82525050565b60006060820190506126c2600083018661269e565b81810360208301526126d48185611ef9565b90506126e360408301846117fa565b94935050505056fea264697066735822122044325ab896759075d8cd7b9d2799903af55c7986f5d225dbef5dcbb92ef3331b64736f6c63430008140033",
  "linkReferences": {},
  "deployedLinkReferences": {}
}