{
  "_format": "hh-sol-artifact-1",
  "contractName": "PatientMonitor",
  "sourceName": "contracts/PatientMonitor.sol",
  "abi": [
    {
      "inputs": [],
      "stateMutability": "nonpayable",
      "type": "constructor"
    },
    {
      "anonymous": false,
      "inputs": [
        {
          "indexed": false,
          "internalType": "address",
          "name": "deviceRegistry",
          "type": "address"
        },
        {
          "indexed": false,
          "internalType": "address",
          "name": "eventLogger",
          "type": "address"
        },
        {
          "indexed": false,
          "internalType": "uint256",
          "name": "timestamp",
          "type": "uint256"
        }
      ],
      "name": "ContractsDeployed",
      "type": "event"
    },
    {
      "anonymous": false,
      "inputs": [
        {
          "indexed": true,
          "internalType": "address",
          "name": "previousOwner",
          "type": "address"
        },
        {
          "indexed": true,
          "internalType": "address",
          "name": "newOwner",
          "type": "address"
        },
        {
          "indexed": false,
          "internalType": "uint256",
          "name": "timestamp",
          "type": "uint256"
        }
      ],
      "name": "OwnershipTransferred",
      "type": "event"
    },
    {
      "inputs": [
        {
          "internalType": "string",
          "name": "deviceId",
          "type": "string"
        },
        {
          "internalType": "address",
          "name": "newGuardian",
          "type": "address"
        }
      ],
      "name": "changeGuardian",
      "outputs": [],
      "stateMutability": "nonpayable",
      "type": "function"
    },
    {
      "inputs": [
        {
          "internalType": "string",
          "name": "deviceId",
          "type": "string"
        }
      ],
      "name": "deactivateDevice",
      "outputs": [],
      "stateMutability": "nonpayable",
      "type": "function"
    },
    {
      "inputs": [],
      "name": "deviceRegistry",
      "outputs": [
        {
          "internalType": "contract DeviceRegistry",
          "name": "",
          "type": "address"
        }
      ],
      "stateMutability": "view",
      "type": "function"
    },
    {
      "inputs": [],
      "name": "eventLogger",
      "outputs": [
        {
          "internalType": "contract EventLogger",
          "name": "",
          "type": "address"
        }
      ],
      "stateMutability": "view",
      "type": "function"
    },
    {
      "inputs": [
        {
          "internalType": "uint256",
          "name": "offset",
          "type": "uint256"
        },
        {
          "internalType": "uint256",
          "name": "limit",
          "type": "uint256"
        }
      ],
      "name": "getAllEvents",
      "outputs": [
        {
          "components": [
            {
              "internalType": "string",
              "name": "deviceId",
              "type": "string"
            },
            {
              "internalType": "bytes32",
              "name": "dataHash",
              "type": "bytes32"
            },
            {
              "internalType": "address",
              "name": "guardian",
              "type": "address"
            },
            {
              "internalType": "string",
              "name": "eventType",
              "type": "string"
            },
            {
              "internalType": "uint256",
              "name": "timestamp",
              "type": "uint256"
            }
          ],
          "internalType": "struct IEventLogger.EventLog[]",
          "name": "",
          "type": "tuple[]"
        }
      ],
      "stateMutability": "view",
      "type": "function"
    },
    {
      "inputs": [],
      "name": "getContractAddresses",
      "outputs": [
        {
          "internalType": "address",
          "name": "",
          "type": "address"
        },
        {
          "internalType": "address",
          "name": "",
          "type": "address"
        }
      ],
      "stateMutability": "view",
      "type": "function"
    },
    {
      "inputs": [
        {
          "internalType": "string",
          "name": "deviceId",
          "type": "string"
        }
      ],
      "name": "getDevice",
      "outputs": [
        {
          "components": [
            {
              "internalType": "string",
              "name": "deviceId",
              "type": "string"
            },
            {
              "internalType": "address",
              "name": "patient",
              "type": "address"
            },
            {
              "internalType": "address",
              "name": "guardian",
              "type": "address"
            },
            {
              "internalType": "string",
              "name": "fullName",
              "type": "string"
            },
            {
              "internalType": "uint8",
              "name": "age",
              "type": "uint8"
            },
            {
              "internalType": "string",
              "name": "homeLocation",
              "type": "string"
            },
            {
              "internalType": "bool",
              "name": "isActive",
              "type": "bool"
            },
            {
              "internalType": "uint256",
              "name": "registeredAt",
              "type": "uint256"
            }
          ],
          "internalType": "struct IDeviceRegistry.Device",
          "name": "",
          "type": "tuple"
        }
      ],
      "stateMutability": "view",
      "type": "function"
    },
    {
      "inputs": [
        {
          "internalType": "string",
          "name": "deviceId",
          "type": "string"
        }
      ],
      "name": "getDeviceEventCount",
      "outputs": [
        {
          "internalType": "uint256",
          "name": "",
          "type": "uint256"
        }
      ],
      "stateMutability": "view",
      "type": "function"
    },
    {
      "inputs": [
        {
          "internalType": "string",
          "name": "deviceId",
          "type": "string"
        },
        {
          "internalType": "uint256",
          "name": "limit",
          "type": "uint256"
        }
      ],
      "name": "getDeviceEvents",
      "outputs": [
        {
          "components": [
            {
              "internalType": "string",
              "name": "deviceId",
              "type": "string"
            },
            {
              "internalType": "bytes32",
              "name": "dataHash",
              "type": "bytes32"
            },
            {
              "internalType": "address",
              "name": "guardian",
              "type": "address"
            },
            {
              "internalType": "string",
              "name": "eventType",
              "type": "string"
            },
            {
              "internalType": "uint256",
              "name": "timestamp",
              "type": "uint256"
            }
          ],
          "internalType": "struct IEventLogger.EventLog[]",
          "name": "",
          "type": "tuple[]"
        }
      ],
      "stateMutability": "view",
      "type": "function"
    },
    {
      "inputs": [
        {
          "internalType": "uint256",
          "name": "index",
          "type": "uint256"
        }
      ],
      "name": "getEvent",
      "outputs": [
        {
          "components": [
            {
              "internalType": "string",
              "name": "deviceId",
              "type": "string"
            },
            {
              "internalType": "bytes32",
              "name": "dataHash",
              "type": "bytes32"
            },
            {
              "internalType": "address",
              "name": "guardian",
              "type": "address"
            },
            {
              "internalType": "string",
              "name": "eventType",
              "type": "string"
            },
            {
              "internalType": "uint256",
              "name": "timestamp",
              "type": "uint256"
            }
          ],
          "internalType": "struct IEventLogger.EventLog",
          "name": "",
          "type": "tuple"
        }
      ],
      "stateMutability": "view",
      "type": "function"
    },
    {
      "inputs": [
        {
          "internalType": "address",
          "name": "guardian",
          "type": "address"
        }
      ],
      "name": "getGuardianDevices",
      "outputs": [
        {
          "internalType": "string[]",
          "name": "",
          "type": "string[]"
        }
      ],
      "stateMutability": "view",
      "type": "function"
    },
    {
      "inputs": [
        {
          "internalType": "address",
          "name": "patient",
          "type": "address"
        }
      ],
      "name": "getPatientDevices",
      "outputs": [
        {
          "internalType": "string[]",
          "name": "",
          "type": "string[]"
        }
      ],
      "stateMutability": "view",
      "type": "function"
    },
    {
      "inputs": [],
      "name": "getTotalDevices",
      "outputs": [
        {
          "internalType": "uint256",
          "name": "",
          "type": "uint256"
        }
      ],
      "stateMutability": "view",
      "type": "function"
    },
    {
      "inputs": [],
      "name": "getTotalEvents",
      "outputs": [
        {
          "internalType": "uint256",
          "name": "",
          "type": "uint256"
        }
      ],
      "stateMutability": "view",
      "type": "function"
    },
    {
      "inputs": [
        {
          "internalType": "string",
          "name": "deviceId",
          "type": "string"
        }
      ],
      "name": "isDeviceActive",
      "outputs": [
        {
          "internalType": "bool",
          "name": "",
          "type": "bool"
        }
      ],
      "stateMutability": "view",
      "type": "function"
    },
    {
      "inputs": [
        {
          "internalType": "string",
          "name": "deviceId",
          "type": "string"
        }
      ],
      "name": "isDeviceRegistered",
      "outputs": [
        {
          "internalType": "bool",
          "name": "",
          "type": "bool"
        }
      ],
      "stateMutability": "view",
      "type": "function"
    },
    {
      "inputs": [
        {
          "internalType": "string",
          "name": "deviceId",
          "type": "string"
        },
        {
          "internalType": "bytes32",
          "name": "dataHash",
          "type": "bytes32"
        },
        {
          "internalType": "string",
          "name": "eventType",
          "type": "string"
        }
      ],
      "name": "logEvent",
      "outputs": [],
      "stateMutability": "nonpayable",
      "type": "function"
    },
    {
      "inputs": [],
      "name": "owner",
      "outputs": [
        {
          "internalType": "address",
          "name": "",
          "type": "address"
        }
      ],
      "stateMutability": "view",
      "type": "function"
    },
    {
      "inputs": [
        {
          "internalType": "string",
          "name": "deviceId",
          "type": "string"
        },
        {
          "internalType": "address",
          "name": "guardian",
          "type": "address"
        },
        {
          "internalType": "string",
          "name": "fullName",
          "type": "string"
        },
        {
          "internalType": "uint8",
          "name": "age",
          "type": "uint8"
        },
        {
          "internalType": "string",
          "name": "homeLocation",
          "type": "string"
        }
      ],
      "name": "registerDevice",
      "outputs": [],
      "stateMutability": "nonpayable",
      "type": "function"
    },
    {
      "inputs": [
        {
          "internalType": "address",
          "name": "newOwner",
          "type": "address"
        }
      ],
      "name": "transferOwnership",
      "outputs": [],
      "stateMutability": "nonpayable",
      "type": "function"
    },
    {
      "stateMutability": "payable",
      "type": "receive"
    }
  ],
  "bytecode": "0x60806040523480156200001157600080fd5b5033600260006101000a81548173ffffffffffffffffffffffffffffffffffffffff021916908373ffffffffffffffffffffffffffffffffffffffff160217905550604051620000619062000302565b604051809103906000f0801580156200007e573d6000803e3d6000fd5b506000806101000a81548173ffffffffffffffffffffffffffffffffffffffff021916908373ffffffffffffffffffffffffffffffffffffffff160217905550600073ffffffffffffffffffffffffffffffffffffffff1660008054906101000a900473ffffffffffffffffffffffffffffffffffffffff1673ffffffffffffffffffffffffffffffffffffffff160362000150576040517f08c379a00000000000000000000000000000000000000000000000000000000081526004016200014790620003a5565b60405180910390fd5b60008054906101000a900473ffffffffffffffffffffffffffffffffffffffff166040516200017f9062000310565b6200018b91906200040c565b604051809103906000f080158015620001a8573d6000803e3d6000fd5b50600160006101000a81548173ffffffffffffffffffffffffffffffffffffffff021916908373ffffffffffffffffffffffffffffffffffffffff160217905550600073ffffffffffffffffffffffffffffffffffffffff16600160009054906101000a900473ffffffffffffffffffffffffffffffffffffffff1673ffffffffffffffffffffffffffffffffffffffff16036200027d576040517f08c379a000000000000000000000000000000000000000000000000000000000815260040162000274906200049f565b60405180910390fd5b7f80dee901bbda9b184c96364252d87d89a4d3ea81668162c18bbb306b9cd44a2160008054906101000a900473ffffffffffffffffffffffffffffffffffffffff16600160009054906101000a900473ffffffffffffffffffffffffffffffffffffffff1642604051620002f493929190620004dc565b60405180910390a162000519565b6127648062002c5483390190565b612c2d80620053b883390190565b600082825260208201905092915050565b7f50617469656e744d6f6e69746f723a204465766963655265676973747279206460008201527f65706c6f796d656e74206661696c656400000000000000000000000000000000602082015250565b60006200038d6030836200031e565b91506200039a826200032f565b604082019050919050565b60006020820190508181036000830152620003c0816200037e565b9050919050565b600073ffffffffffffffffffffffffffffffffffffffff82169050919050565b6000620003f482620003c7565b9050919050565b6200040681620003e7565b82525050565b6000602082019050620004236000830184620003fb565b92915050565b7f50617469656e744d6f6e69746f723a204576656e744c6f67676572206465706c60008201527f6f796d656e74206661696c656400000000000000000000000000000000000000602082015250565b600062000487602d836200031e565b9150620004948262000429565b604082019050919050565b60006020820190508181036000830152620004ba8162000478565b9050919050565b6000819050919050565b620004d681620004c1565b82525050565b6000606082019050620004f36000830186620003fb565b620005026020830185620003fb565b620005116040830184620004cb565b949350505050565b61272b80620005296000396000f3fe6080604052600436106101225760003560e01c806370094067116100a0578063b71a034611610064578063b71a034614610479578063d3548246146104b6578063dc61d161146104df578063f2fde38b1461050a578063fb2c6f221461053357610162565b806370094067146103935780638da5cb5b146103bc578063953874d2146103e7578063aa7f79e714610413578063b0337fe71461045057610162565b80635cd10dc1116100e75780635cd10dc1146102865780635efb870a146102c357806361606940146102ee57806368ba4eaf146103195780636d1884e01461035657610162565b8062dec0e41461016757806329991184146101a45780633209d3c1146101cf5780634ace288e1461020c578063533615021461024957610162565b36610162576040517f08c379a00000000000000000000000000000000000000000000000000000000081526004016101599061127c565b60405180910390fd5b600080fd5b34801561017357600080fd5b5061018e6004803603810190610189919061130e565b61055c565b60405161019b919061148d565b60405180910390f35b3480156101b057600080fd5b506101b9610603565b6040516101c6919061150e565b60405180910390f35b3480156101db57600080fd5b506101f660048036038101906101f1919061130e565b610629565b604051610203919061148d565b60405180910390f35b34801561021857600080fd5b50610233600480360381019061022e9190611694565b6106d1565b6040516102409190611866565b60405180910390f35b34801561025557600080fd5b50610270600480360381019061026b9190611888565b61077e565b60405161027d91906118e0565b60405180910390f35b34801561029257600080fd5b506102ad60048036038101906102a89190611888565b610823565b6040516102ba9190611916565b60405180910390f35b3480156102cf57600080fd5b506102d86108c7565b6040516102e59190611952565b60405180910390f35b3480156102fa57600080fd5b506103036108eb565b60405161031091906118e0565b60405180910390f35b34801561032557600080fd5b50610340600480360381019061033b9190611888565b610983565b60405161034d9190611916565b60405180910390f35b34801561036257600080fd5b5061037d6004803603810190610378919061196d565b610a27565b60405161038a9190611a17565b60405180910390f35b34801561039f57600080fd5b506103ba60048036038101906103b59190611888565b610ad7565b005b3480156103c857600080fd5b506103d1610b65565b6040516103de9190611a48565b60405180910390f35b3480156103f357600080fd5b506103fc610b8b565b60405161040a929190611a63565b60405180910390f35b34801561041f57600080fd5b5061043a60048036038101906104359190611a8c565b610bda565b6040516104479190611866565b60405180910390f35b34801561045c57600080fd5b5061047760048036038101906104729190611acc565b610c87565b005b34801561048557600080fd5b506104a0600480360381019061049b9190611888565b610d18565b6040516104ad9190611c11565b60405180910390f35b3480156104c257600080fd5b506104dd60048036038101906104d89190611c5f565b610dc6565b005b3480156104eb57600080fd5b506104f4610e5e565b60405161050191906118e0565b60405180910390f35b34801561051657600080fd5b50610531600480360381019061052c919061130e565b610ef5565b005b34801561053f57600080fd5b5061055a60048036038101906105559190611d16565b6110c5565b005b606060008054906101000a900473ffffffffffffffffffffffffffffffffffffffff1673ffffffffffffffffffffffffffffffffffffffff1662dec0e4836040518263ffffffff1660e01b81526004016105b69190611a48565b600060405180830381865afa1580156105d3573d6000803e3d6000fd5b505050506040513d6000823e3d601f19601f820116820180604052508101906105fc9190611f3b565b9050919050565b600160009054906101000a900473ffffffffffffffffffffffffffffffffffffffff1681565b606060008054906101000a900473ffffffffffffffffffffffffffffffffffffffff1673ffffffffffffffffffffffffffffffffffffffff16633209d3c1836040518263ffffffff1660e01b81526004016106849190611a48565b600060405180830381865afa1580156106a1573d6000803e3d6000fd5b505050506040513d6000823e3d601f19601f820116820180604052508101906106ca9190611f3b565b9050919050565b6060600160009054906101000a900473ffffffffffffffffffffffffffffffffffffffff1673ffffffffffffffffffffffffffffffffffffffff16634ace288e84846040518363ffffffff1660e01b8152600401610730929190611fbd565b600060405180830381865afa15801561074d573d6000803e3d6000fd5b505050506040513d6000823e3d601f19601f8201168201806040525081019061077691906121db565b905092915050565b6000600160009054906101000a900473ffffffffffffffffffffffffffffffffffffffff1673ffffffffffffffffffffffffffffffffffffffff166353361502836040518263ffffffff1660e01b81526004016107db9190612224565b602060405180830381865afa1580156107f8573d6000803e3d6000fd5b505050506040513d601f19601f8201168201806040525081019061081c9190612246565b9050919050565b60008060009054906101000a900473ffffffffffffffffffffffffffffffffffffffff1673ffffffffffffffffffffffffffffffffffffffff16635cd10dc1836040518263ffffffff1660e01b815260040161087f9190612224565b602060405180830381865afa15801561089c573d6000803e3d6000fd5b505050506040513d601f19601f820116820180604052508101906108c0919061229f565b9050919050565b60008054906101000a900473ffffffffffffffffffffffffffffffffffffffff1681565b6000600160009054906101000a900473ffffffffffffffffffffffffffffffffffffffff1673ffffffffffffffffffffffffffffffffffffffff1663ba8706866040518163ffffffff1660e01b8152600401602060405180830381865afa15801561095a573d6000803e3d6000fd5b505050506040513d601f19601f8201168201806040525081019061097e9190612246565b905090565b60008060009054906101000a900473ffffffffffffffffffffffffffffffffffffffff1673ffffffffffffffffffffffffffffffffffffffff166368ba4eaf836040518263ffffffff1660e01b81526004016109df9190612224565b602060405180830381865afa1580156109fc573d6000803e3d6000fd5b505050506040513d601f19601f82011682018060405250810190610a20919061229f565b9050919050565b610a2f611161565b600160009054906101000a900473ffffffffffffffffffffffffffffffffffffffff1673ffffffffffffffffffffffffffffffffffffffff16636d1884e0836040518263ffffffff1660e01b8152600401610a8a91906118e0565b600060405180830381865afa158015610aa7573d6000803e3d6000fd5b505050506040513d6000823e3d601f19601f82011682018060405250810190610ad091906122cc565b9050919050565b60008054906101000a900473ffffffffffffffffffffffffffffffffffffffff1673ffffffffffffffffffffffffffffffffffffffff166370094067826040518263ffffffff1660e01b8152600401610b309190612224565b600060405180830381600087803b158015610b4a57600080fd5b505af1158015610b5e573d6000803e3d6000fd5b5050505050565b600260009054906101000a900473ffffffffffffffffffffffffffffffffffffffff1681565b60008060008054906101000a900473ffffffffffffffffffffffffffffffffffffffff16600160009054906101000a900473ffffffffffffffffffffffffffffffffffffffff16915091509091565b6060600160009054906101000a900473ffffffffffffffffffffffffffffffffffffffff1673ffffffffffffffffffffffffffffffffffffffff1663aa7f79e784846040518363ffffffff1660e01b8152600401610c39929190612315565b600060405180830381865afa158015610c56573d6000803e3d6000fd5b505050506040513d6000823e3d601f19601f82011682018060405250810190610c7f91906121db565b905092915050565b60008054906101000a900473ffffffffffffffffffffffffffffffffffffffff1673ffffffffffffffffffffffffffffffffffffffff1663b0337fe783836040518363ffffffff1660e01b8152600401610ce292919061233e565b600060405180830381600087803b158015610cfc57600080fd5b505af1158015610d10573d6000803e3d6000fd5b505050505050565b610d206111a9565b60008054906101000a900473ffffffffffffffffffffffffffffffffffffffff1673ffffffffffffffffffffffffffffffffffffffff1663b71a0346836040518263ffffffff1660e01b8152600401610d799190612224565b600060405180830381865afa158015610d96573d6000803e3d6000fd5b505050506040513d6000823e3d601f19601f82011682018060405250810190610dbf91906124a1565b9050919050565b600160009054906101000a900473ffffffffffffffffffffffffffffffffffffffff1673ffffffffffffffffffffffffffffffffffffffff1663156ca235338585856040518563ffffffff1660e01b8152600401610e2794939291906124f9565b600060405180830381600087803b158015610e4157600080fd5b505af1158015610e55573d6000803e3d6000fd5b50505050505050565b60008060009054906101000a900473ffffffffffffffffffffffffffffffffffffffff1673ffffffffffffffffffffffffffffffffffffffff16636121898e6040518163ffffffff1660e01b8152600401602060405180830381865afa158015610ecc573d6000803e3d6000fd5b505050506040513d601f19601f82011682018060405250810190610ef09190612246565b905090565b600260009054906101000a900473ffffffffffffffffffffffffffffffffffffffff1673ffffffffffffffffffffffffffffffffffffffff163373ffffffffffffffffffffffffffffffffffffffff1614610f85576040517f08c379a0000000000000000000000000000000000000000000000000000000008152600401610f7c906125be565b60405180910390fd5b600073ffffffffffffffffffffffffffffffffffffffff168173ffffffffffffffffffffffffffffffffffffffff1603610ff4576040517f08c379a0000000000000000000000000000000000000000000000000000000008152600401610feb90612650565b60405180910390fd5b6000600260009054906101000a900473ffffffffffffffffffffffffffffffffffffffff16905081600260006101000a81548173ffffffffffffffffffffffffffffffffffffffff021916908373ffffffffffffffffffffffffffffffffffffffff1602179055508173ffffffffffffffffffffffffffffffffffffffff168173ffffffffffffffffffffffffffffffffffffffff167fc13a1166d81cd3b0b352a367aebab95f3a6f6bc695fdab8e9a9d335239c3861b426040516110b991906118e0565b60405180910390a35050565b60008054906101000a900473ffffffffffffffffffffffffffffffffffffffff1673ffffffffffffffffffffffffffffffffffffffff166375d5a1748633878787876040518763ffffffff1660e01b81526004016111289695949392919061267f565b600060405180830381600087803b15801561114257600080fd5b505af1158015611156573d6000803e3d6000fd5b505050505050505050565b6040518060a001604052806060815260200160008019168152602001600073ffffffffffffffffffffffffffffffffffffffff16815260200160608152602001600081525090565b60405180610100016040528060608152602001600073ffffffffffffffffffffffffffffffffffffffff168152602001600073ffffffffffffffffffffffffffffffffffffffff16815260200160608152602001600060ff16815260200160608152602001600015158152602001600081525090565b600082825260208201905092915050565b7f50617469656e744d6f6e69746f723a20455448206e6f74206163636570746564600082015250565b600061126660208361121f565b915061127182611230565b602082019050919050565b6000602082019050818103600083015261129581611259565b9050919050565b6000604051905090565b600080fd5b600080fd5b600073ffffffffffffffffffffffffffffffffffffffff82169050919050565b60006112db826112b0565b9050919050565b6112eb816112d0565b81146112f657600080fd5b50565b600081359050611308816112e2565b92915050565b600060208284031215611324576113236112a6565b5b6000611332848285016112f9565b91505092915050565b600081519050919050565b600082825260208201905092915050565b6000819050602082019050919050565b600081519050919050565b600082825260208201905092915050565b60005b838110156113a1578082015181840152602081019050611386565b60008484015250505050565b6000601f19601f8301169050919050565b60006113c982611367565b6113d38185611372565b93506113e3818560208601611383565b6113ec816113ad565b840191505092915050565b600061140383836113be565b905092915050565b6000602082019050919050565b60006114238261133b565b61142d8185611346565b93508360208202850161143f85611357565b8060005b8581101561147b578484038952815161145c85826113f7565b94506114678361140b565b925060208a01995050600181019050611443565b50829750879550505050505092915050565b600060208201905081810360008301526114a78184611418565b905092915050565b6000819050919050565b60006114d46114cf6114ca846112b0565b6114af565b6112b0565b9050919050565b60006114e6826114b9565b9050919050565b60006114f8826114db565b9050919050565b611508816114ed565b82525050565b600060208201905061152360008301846114ff565b92915050565b600080fd5b600080fd5b7f4e487b7100000000000000000000000000000000000000000000000000000000600052604160045260246000fd5b61156b826113ad565b810181811067ffffffffffffffff8211171561158a57611589611533565b5b80604052505050565b600061159d61129c565b90506115a98282611562565b919050565b600067ffffffffffffffff8211156115c9576115c8611533565b5b6115d2826113ad565b9050602081019050919050565b82818337600083830152505050565b60006116016115fc846115ae565b611593565b90508281526020810184848401111561161d5761161c61152e565b5b6116288482856115df565b509392505050565b600082601f83011261164557611644611529565b5b81356116558482602086016115ee565b91505092915050565b6000819050919050565b6116718161165e565b811461167c57600080fd5b50565b60008135905061168e81611668565b92915050565b600080604083850312156116ab576116aa6112a6565b5b600083013567ffffffffffffffff8111156116c9576116c86112ab565b5b6116d585828601611630565b92505060206116e68582860161167f565b9150509250929050565b600081519050919050565b600082825260208201905092915050565b6000819050602082019050919050565b6000819050919050565b61172f8161171c565b82525050565b61173e816112d0565b82525050565b61174d8161165e565b82525050565b600060a083016000830151848203600086015261177082826113be565b91505060208301516117856020860182611726565b5060408301516117986040860182611735565b50606083015184820360608601526117b082826113be565b91505060808301516117c56080860182611744565b508091505092915050565b60006117dc8383611753565b905092915050565b6000602082019050919050565b60006117fc826116f0565b61180681856116fb565b9350836020820285016118188561170c565b8060005b85811015611854578484038952815161183585826117d0565b9450611840836117e4565b925060208a0199505060018101905061181c565b50829750879550505050505092915050565b6000602082019050818103600083015261188081846117f1565b905092915050565b60006020828403121561189e5761189d6112a6565b5b600082013567ffffffffffffffff8111156118bc576118bb6112ab565b5b6118c884828501611630565b91505092915050565b6118da8161165e565b82525050565b60006020820190506118f560008301846118d1565b92915050565b60008115159050919050565b611910816118fb565b82525050565b600060208201905061192b6000830184611907565b92915050565b600061193c826114db565b9050919050565b61194c81611931565b82525050565b60006020820190506119676000830184611943565b92915050565b600060208284031215611983576119826112a6565b5b60006119918482850161167f565b91505092915050565b600060a08301600083015184820360008601526119b782826113be565b91505060208301516119cc6020860182611726565b5060408301516119df6040860182611735565b50606083015184820360608601526119f782826113be565b9150506080830151611a0c6080860182611744565b508091505092915050565b60006020820190508181036000830152611a31818461199a565b905092915050565b611a42816112d0565b82525050565b6000602082019050611a5d6000830184611a39565b92915050565b6000604082019050611a786000830185611a39565b611a856020830184611a39565b9392505050565b60008060408385031215611aa357611aa26112a6565b5b6000611ab18582860161167f565b9250506020611ac28582860161167f565b9150509250929050565b60008060408385031215611ae357611ae26112a6565b5b600083013567ffffffffffffffff811115611b0157611b006112ab565b5b611b0d85828601611630565b9250506020611b1e858286016112f9565b9150509250929050565b600060ff82169050919050565b611b3e81611b28565b82525050565b611b4d816118fb565b82525050565b6000610100830160008301518482036000860152611b7182826113be565b9150506020830151611b866020860182611735565b506040830151611b996040860182611735565b5060608301518482036060860152611bb182826113be565b9150506080830151611bc66080860182611b35565b5060a083015184820360a0860152611bde82826113be565b91505060c0830151611bf360c0860182611b44565b5060e0830151611c0660e0860182611744565b508091505092915050565b60006020820190508181036000830152611c2b8184611b53565b905092915050565b611c3c8161171c565b8114611c4757600080fd5b50565b600081359050611c5981611c33565b92915050565b600080600060608486031215611c7857611c776112a6565b5b600084013567ffffffffffffffff811115611c9657611c956112ab565b5b611ca286828701611630565b9350506020611cb386828701611c4a565b925050604084013567ffffffffffffffff811115611cd457611cd36112ab565b5b611ce086828701611630565b9150509250925092565b611cf381611b28565b8114611cfe57600080fd5b50565b600081359050611d1081611cea565b92915050565b600080600080600060a08688031215611d3257611d316112a6565b5b600086013567ffffffffffffffff811115611d5057611d4f6112ab565b5b611d5c88828901611630565b9550506020611d6d888289016112f9565b945050604086013567ffffffffffffffff811115611d8e57611d8d6112ab565b5b611d9a88828901611630565b9350506060611dab88828901611d01565b925050608086013567ffffffffffffffff811115611dcc57611dcb6112ab565b5b611dd888828901611630565b9150509295509295909350565b600067ffffffffffffffff821115611e0057611dff611533565b5b602082029050602081019050919050565b600080fd5b6000611e29611e24846115ae565b611593565b905082815260208101848484011115611e4557611e4461152e565b5b611e50848285611383565b509392505050565b600082601f830112611e6d57611e6c611529565b5b8151611e7d848260208601611e16565b91505092915050565b6000611e99611e9484611de5565b611593565b90508083825260208201905060208402830185811115611ebc57611ebb611e11565b5b835b81811015611f0357805167ffffffffffffffff811115611ee157611ee0611529565b5b808601611eee8982611e58565b85526020850194505050602081019050611ebe565b5050509392505050565b600082601f830112611f2257611f21611529565b5b8151611f32848260208601611e86565b91505092915050565b600060208284031215611f5157611f506112a6565b5b600082015167ffffffffffffffff811115611f6f57611f6e6112ab565b5b611f7b84828501611f0d565b91505092915050565b6000611f8f82611367565b611f99818561121f565b9350611fa9818560208601611383565b611fb2816113ad565b840191505092915050565b60006040820190508181036000830152611fd78185611f84565b9050611fe660208301846118d1565b9392505050565b600067ffffffffffffffff82111561200857612007611533565b5b602082029050602081019050919050565b600080fd5b600080fd5b60008151905061203281611c33565b92915050565b600081519050612047816112e2565b92915050565b60008151905061205c81611668565b92915050565b600060a0828403121561207857612077612019565b5b61208260a0611593565b9050600082015167ffffffffffffffff8111156120a2576120a161201e565b5b6120ae84828501611e58565b60008301525060206120c284828501612023565b60208301525060406120d684828501612038565b604083015250606082015167ffffffffffffffff8111156120fa576120f961201e565b5b61210684828501611e58565b606083015250608061211a8482850161204d565b60808301525092915050565b600061213961213484611fed565b611593565b9050808382526020820190506020840283018581111561215c5761215b611e11565b5b835b818110156121a357805167ffffffffffffffff81111561218157612180611529565b5b80860161218e8982612062565b8552602085019450505060208101905061215e565b5050509392505050565b600082601f8301126121c2576121c1611529565b5b81516121d2848260208601612126565b91505092915050565b6000602082840312156121f1576121f06112a6565b5b600082015167ffffffffffffffff81111561220f5761220e6112ab565b5b61221b848285016121ad565b91505092915050565b6000602082019050818103600083015261223e8184611f84565b905092915050565b60006020828403121561225c5761225b6112a6565b5b600061226a8482850161204d565b91505092915050565b61227c816118fb565b811461228757600080fd5b50565b60008151905061229981612273565b92915050565b6000602082840312156122b5576122b46112a6565b5b60006122c38482850161228a565b91505092915050565b6000602082840312156122e2576122e16112a6565b5b600082015167ffffffffffffffff811115612300576122ff6112ab565b5b61230c84828501612062565b91505092915050565b600060408201905061232a60008301856118d1565b61233760208301846118d1565b9392505050565b600060408201905081810360008301526123588185611f84565b90506123676020830184611a39565b9392505050565b60008151905061237d81611cea565b92915050565b6000610100828403121561239a57612399612019565b5b6123a5610100611593565b9050600082015167ffffffffffffffff8111156123c5576123c461201e565b5b6123d184828501611e58565b60008301525060206123e584828501612038565b60208301525060406123f984828501612038565b604083015250606082015167ffffffffffffffff81111561241d5761241c61201e565b5b61242984828501611e58565b606083015250608061243d8482850161236e565b60808301525060a082015167ffffffffffffffff8111156124615761246061201e565b5b61246d84828501611e58565b60a08301525060c06124818482850161228a565b60c08301525060e06124958482850161204d565b60e08301525092915050565b6000602082840312156124b7576124b66112a6565b5b600082015167ffffffffffffffff8111156124d5576124d46112ab565b5b6124e184828501612383565b91505092915050565b6124f38161171c565b82525050565b600060808201905061250e6000830187611a39565b81810360208301526125208186611f84565b905061252f60408301856124ea565b81810360608301526125418184611f84565b905095945050505050565b7f50617469656e744d6f6e69746f723a2043616c6c6572206973206e6f74206f7760008201527f6e65720000000000000000000000000000000000000000000000000000000000602082015250565b60006125a860238361121f565b91506125b38261254c565b604082019050919050565b600060208201905081810360008301526125d78161259b565b9050919050565b7f50617469656e744d6f6e69746f723a20496e76616c6964206e6577206f776e6560008201527f7200000000000000000000000000000000000000000000000000000000000000602082015250565b600061263a60218361121f565b9150612645826125de565b604082019050919050565b600060208201905081810360008301526126698161262d565b9050919050565b61267981611b28565b82525050565b600060c08201905081810360008301526126998189611f84565b90506126a86020830188611a39565b6126b56040830187611a39565b81810360608301526126c78186611f84565b90506126d66080830185612670565b81810360a08301526126e88184611f84565b905097965050505050505056fea264697066735822122045800e8a8b3fee8904c3b61e101bf8231b96e4078bf148576acd72b915d1d84164736f6c63430008140033608060405234801561001057600080fd5b50612744806100206000396000f3fe6080604052600436106100aa5760003560e01c80637009406711610064578063700940671461024b57806375d5a17414610274578063b0337fe71461029d578063b71a0346146102c6578063e2ec6e4d14610303578063fb2c6f2214610340576100ea565b8062dec0e4146100ef5780633209d3c11461012c578063577d3ff6146101695780635cd10dc1146101a65780636121898e146101e357806368ba4eaf1461020e576100ea565b366100ea576040517f08c379a00000000000000000000000000000000000000000000000000000000081526004016100e1906117b1565b60405180910390fd5b600080fd5b3480156100fb57600080fd5b5061011660048036038101906101119190611843565b610369565b60405161012391906119c2565b60405180910390f35b34801561013857600080fd5b50610153600480360381019061014e9190611843565b610481565b60405161016091906119c2565b60405180910390f35b34801561017557600080fd5b50610190600480360381019061018b9190611b19565b610599565b60405161019d9190611b71565b60405180910390f35b3480156101b257600080fd5b506101cd60048036038101906101c89190611b19565b6105e3565b6040516101da9190611ba7565b60405180910390f35b3480156101ef57600080fd5b506101f861061a565b6040516102059190611bdb565b60405180910390f35b34801561021a57600080fd5b5061023560048036038101906102309190611b19565b610620565b6040516102429190611ba7565b60405180910390f35b34801561025757600080fd5b50610272600480360381019061026d9190611b19565b61069a565b005b34801561028057600080fd5b5061029b60048036038101906102969190611c2f565b610b53565b005b3480156102a957600080fd5b506102c460048036038101906102bf9190611d10565b610b69565b005b3480156102d257600080fd5b506102ed60048036038101906102e89190611b19565b610ea8565b6040516102fa9190611e66565b60405180910390f35b34801561030f57600080fd5b5061032a60048036038101906103259190611b19565b611185565b6040516103379190611b71565b60405180910390f35b34801561034c57600080fd5b5061036760048036038101906103629190611e88565b6111cf565b005b6060600160008373ffffffffffffffffffffffffffffffffffffffff1673ffffffffffffffffffffffffffffffffffffffff168152602001908152602001600020805480602002602001604051908101604052809291908181526020016000905b828210156104765783829060005260206000200180546103e990611f86565b80601f016020809104026020016040519081016040528092919081815260200182805461041590611f86565b80156104625780601f1061043757610100808354040283529160200191610462565b820191906000526020600020905b81548152906001019060200180831161044557829003601f168201915b5050505050815260200190600101906103ca565b505050509050919050565b6060600260008373ffffffffffffffffffffffffffffffffffffffff1673ffffffffffffffffffffffffffffffffffffffff168152602001908152602001600020805480602002602001604051908101604052809291908181526020016000905b8282101561058e57838290600052602060002001805461050190611f86565b80601f016020809104026020016040519081016040528092919081815260200182805461052d90611f86565b801561057a5780601f1061054f5761010080835404028352916020019161057a565b820191906000526020600020905b81548152906001019060200180831161055d57829003601f168201915b5050505050815260200190600101906104e2565b505050509050919050565b600080826040516105aa9190611ff3565b908152602001604051809103902060020160009054906101000a900473ffffffffffffffffffffffffffffffffffffffff169050919050565b600080826040516105f49190611ff3565b908152602001604051809103902060060160009054906101000a900460ff169050919050565b60035481565b60008073ffffffffffffffffffffffffffffffffffffffff166000836040516106499190611ff3565b908152602001604051809103902060010160009054906101000a900473ffffffffffffffffffffffffffffffffffffffff1673ffffffffffffffffffffffffffffffffffffffff1614159050919050565b80600073ffffffffffffffffffffffffffffffffffffffff166000826040516106c39190611ff3565b908152602001604051809103902060010160009054906101000a900473ffffffffffffffffffffffffffffffffffffffff1673ffffffffffffffffffffffffffffffffffffffff160361074b576040517f08c379a00000000000000000000000000000000000000000000000000000000081526004016107429061207c565b60405180910390fd5b6000808360405161075c9190611ff3565b90815260200160405180910390206040518061010001604052908160008201805461078690611f86565b80601f01602080910402602001604051908101604052809291908181526020018280546107b290611f86565b80156107ff5780601f106107d4576101008083540402835291602001916107ff565b820191906000526020600020905b8154815290600101906020018083116107e257829003601f168201915b505050505081526020016001820160009054906101000a900473ffffffffffffffffffffffffffffffffffffffff1673ffffffffffffffffffffffffffffffffffffffff1673ffffffffffffffffffffffffffffffffffffffff1681526020016002820160009054906101000a900473ffffffffffffffffffffffffffffffffffffffff1673ffffffffffffffffffffffffffffffffffffffff1673ffffffffffffffffffffffffffffffffffffffff1681526020016003820180546108c490611f86565b80601f01602080910402602001604051908101604052809291908181526020018280546108f090611f86565b801561093d5780601f106109125761010080835404028352916020019161093d565b820191906000526020600020905b81548152906001019060200180831161092057829003601f168201915b505050505081526020016004820160009054906101000a900460ff1660ff1660ff16815260200160058201805461097390611f86565b80601f016020809104026020016040519081016040528092919081815260200182805461099f90611f86565b80156109ec5780601f106109c1576101008083540402835291602001916109ec565b820191906000526020600020905b8154815290600101906020018083116109cf57829003601f168201915b505050505081526020016006820160009054906101000a900460ff1615151515815260200160078201548152505090503373ffffffffffffffffffffffffffffffffffffffff16816020015173ffffffffffffffffffffffffffffffffffffffff161480610a8957503373ffffffffffffffffffffffffffffffffffffffff16816040015173ffffffffffffffffffffffffffffffffffffffff16145b610ac8576040517f08c379a0000000000000000000000000000000000000000000000000000000008152600401610abf906120e8565b60405180910390fd5b60008084604051610ad99190611ff3565b908152602001604051809103902060060160006101000a81548160ff02191690831515021790555082604051610b0f9190611ff3565b60405180910390207f44741574c6d9100819aa13fd0926c49ceed3605e75f0854d17de2516bc14e2c842604051610b469190611bdb565b60405180910390a2505050565b610b618686868686866111e4565b505050505050565b813373ffffffffffffffffffffffffffffffffffffffff16600082604051610b919190611ff3565b908152602001604051809103902060010160009054906101000a900473ffffffffffffffffffffffffffffffffffffffff1673ffffffffffffffffffffffffffffffffffffffff1614610c19576040517f08c379a0000000000000000000000000000000000000000000000000000000008152600401610c109061217a565b60405180910390fd5b82600073ffffffffffffffffffffffffffffffffffffffff16600082604051610c429190611ff3565b908152602001604051809103902060010160009054906101000a900473ffffffffffffffffffffffffffffffffffffffff1673ffffffffffffffffffffffffffffffffffffffff1603610cca576040517f08c379a0000000000000000000000000000000000000000000000000000000008152600401610cc19061207c565b60405180910390fd5b600073ffffffffffffffffffffffffffffffffffffffff168373ffffffffffffffffffffffffffffffffffffffff1603610d39576040517f08c379a0000000000000000000000000000000000000000000000000000000008152600401610d309061220c565b60405180910390fd5b60008085604051610d4a9190611ff3565b908152602001604051809103902060020160009054906101000a900473ffffffffffffffffffffffffffffffffffffffff16905083600086604051610d8f9190611ff3565b908152602001604051809103902060020160006101000a81548173ffffffffffffffffffffffffffffffffffffffff021916908373ffffffffffffffffffffffffffffffffffffffff160217905550600160008573ffffffffffffffffffffffffffffffffffffffff1673ffffffffffffffffffffffffffffffffffffffff16815260200190815260200160002085908060018154018082558091505060019003906000526020600020016000909190919091509081610e4f91906123d8565b5084604051610e5e9190611ff3565b60405180910390207f8cf963b51c748320b05a970a2676e6ccfec208283664afabc9ded8022d19cbe2828642604051610e99939291906124aa565b60405180910390a25050505050565b610eb06116de565b600082604051610ec09190611ff3565b908152602001604051809103902060405180610100016040529081600082018054610eea90611f86565b80601f0160208091040260200160405190810160405280929190818152602001828054610f1690611f86565b8015610f635780601f10610f3857610100808354040283529160200191610f63565b820191906000526020600020905b815481529060010190602001808311610f4657829003601f168201915b505050505081526020016001820160009054906101000a900473ffffffffffffffffffffffffffffffffffffffff1673ffffffffffffffffffffffffffffffffffffffff1673ffffffffffffffffffffffffffffffffffffffff1681526020016002820160009054906101000a900473ffffffffffffffffffffffffffffffffffffffff1673ffffffffffffffffffffffffffffffffffffffff1673ffffffffffffffffffffffffffffffffffffffff16815260200160038201805461102890611f86565b80601f016020809104026020016040519081016040528092919081815260200182805461105490611f86565b80156110a15780601f10611076576101008083540402835291602001916110a1565b820191906000526020600020905b81548152906001019060200180831161108457829003601f168201915b505050505081526020016004820160009054906101000a900460ff1660ff1660ff1681526020016005820180546110d790611f86565b80601f016020809104026020016040519081016040528092919081815260200182805461110390611f86565b80156111505780601f1061112557610100808354040283529160200191611150565b820191906000526020600020905b81548152906001019060200180831161113357829003601f168201915b505050505081526020016006820160009054906101000a900460ff161515151581526020016007820154815250509050919050565b600080826040516111969190611ff3565b908152602001604051809103902060010160009054906101000a900473ffffffffffffffffffffffffffffffffffffffff169050919050565b6111dd8533868686866111e4565b5050505050565b600073ffffffffffffffffffffffffffffffffffffffff1660008760405161120c9190611ff3565b908152602001604051809103902060010160009054906101000a900473ffffffffffffffffffffffffffffffffffffffff1673ffffffffffffffffffffffffffffffffffffffff1614611294576040517f08c379a000000000000000000000000000000000000000000000000000000000815260040161128b90612553565b60405180910390fd5b600073ffffffffffffffffffffffffffffffffffffffff168473ffffffffffffffffffffffffffffffffffffffff1603611303576040517f08c379a00000000000000000000000000000000000000000000000000000000081526004016112fa9061220c565b60405180910390fd5b600073ffffffffffffffffffffffffffffffffffffffff168573ffffffffffffffffffffffffffffffffffffffff1603611372576040517f08c379a0000000000000000000000000000000000000000000000000000000008152600401611369906125e5565b60405180910390fd5b6008865110156113b7576040517f08c379a00000000000000000000000000000000000000000000000000000000081526004016113ae90612677565b60405180910390fd5b6040518061010001604052808781526020018673ffffffffffffffffffffffffffffffffffffffff1681526020018573ffffffffffffffffffffffffffffffffffffffff1681526020018481526020018360ff168152602001828152602001600115158152602001428152506000876040516114339190611ff3565b9081526020016040518091039020600082015181600001908161145691906123d8565b5060208201518160010160006101000a81548173ffffffffffffffffffffffffffffffffffffffff021916908373ffffffffffffffffffffffffffffffffffffffff16021790555060408201518160020160006101000a81548173ffffffffffffffffffffffffffffffffffffffff021916908373ffffffffffffffffffffffffffffffffffffffff16021790555060608201518160030190816114fa91906123d8565b5060808201518160040160006101000a81548160ff021916908360ff16021790555060a082015181600501908161153191906123d8565b5060c08201518160060160006101000a81548160ff02191690831515021790555060e08201518160070155905050600160008573ffffffffffffffffffffffffffffffffffffffff1673ffffffffffffffffffffffffffffffffffffffff168152602001908152602001600020869080600181540180825580915050600190039060005260206000200160009091909190915090816115d091906123d8565b50600260008673ffffffffffffffffffffffffffffffffffffffff1673ffffffffffffffffffffffffffffffffffffffff1681526020019081526020016000208690806001815401808255809150506001900390600052602060002001600090919091909150908161164291906123d8565b5060036000815480929190611656906126c6565b91905055508373ffffffffffffffffffffffffffffffffffffffff168573ffffffffffffffffffffffffffffffffffffffff16876040516116979190611ff3565b60405180910390207ff3ac2d70bb40c5c557b819df1497dd19d865383d3821b4c26e5729f63cc96307426040516116ce9190611bdb565b60405180910390a4505050505050565b60405180610100016040528060608152602001600073ffffffffffffffffffffffffffffffffffffffff168152602001600073ffffffffffffffffffffffffffffffffffffffff16815260200160608152602001600060ff16815260200160608152602001600015158152602001600081525090565b600082825260208201905092915050565b7f44657669636552656769737472793a20455448206e6f74206163636570746564600082015250565b600061179b602083611754565b91506117a682611765565b602082019050919050565b600060208201905081810360008301526117ca8161178e565b9050919050565b6000604051905090565b600080fd5b600080fd5b600073ffffffffffffffffffffffffffffffffffffffff82169050919050565b6000611810826117e5565b9050919050565b61182081611805565b811461182b57600080fd5b50565b60008135905061183d81611817565b92915050565b600060208284031215611859576118586117db565b5b60006118678482850161182e565b91505092915050565b600081519050919050565b600082825260208201905092915050565b6000819050602082019050919050565b600081519050919050565b600082825260208201905092915050565b60005b838110156118d65780820151818401526020810190506118bb565b60008484015250505050565b6000601f19601f8301169050919050565b60006118fe8261189c565b61190881856118a7565b93506119188185602086016118b8565b611921816118e2565b840191505092915050565b600061193883836118f3565b905092915050565b6000602082019050919050565b600061195882611870565b611962818561187b565b9350836020820285016119748561188c565b8060005b858110156119b05784840389528151611991858261192c565b945061199c83611940565b925060208a01995050600181019050611978565b50829750879550505050505092915050565b600060208201905081810360008301526119dc818461194d565b905092915050565b600080fd5b600080fd5b7f4e487b7100000000000000000000000000000000000000000000000000000000600052604160045260246000fd5b611a26826118e2565b810181811067ffffffffffffffff82111715611a4557611a446119ee565b5b80604052505050565b6000611a586117d1565b9050611a648282611a1d565b919050565b600067ffffffffffffffff821115611a8457611a836119ee565b5b611a8d826118e2565b9050602081019050919050565b82818337600083830152505050565b6000611abc611ab784611a69565b611a4e565b905082815260208101848484011115611ad857611ad76119e9565b5b611ae3848285611a9a565b509392505050565b600082601f830112611b0057611aff6119e4565b5b8135611b10848260208601611aa9565b91505092915050565b600060208284031215611b2f57611b2e6117db565b5b600082013567ffffffffffffffff811115611b4d57611b4c6117e0565b5b611b5984828501611aeb565b91505092915050565b611b6b81611805565b82525050565b6000602082019050611b866000830184611b62565b92915050565b60008115159050919050565b611ba181611b8c565b82525050565b6000602082019050611bbc6000830184611b98565b92915050565b6000819050919050565b611bd581611bc2565b82525050565b6000602082019050611bf06000830184611bcc565b92915050565b600060ff82169050919050565b611c0c81611bf6565b8114611c1757600080fd5b50565b600081359050611c2981611c03565b92915050565b60008060008060008060c08789031215611c4c57611c4b6117db565b5b600087013567ffffffffffffffff811115611c6a57611c696117e0565b5b611c7689828a01611aeb565b9650506020611c8789828a0161182e565b9550506040611c9889828a0161182e565b945050606087013567ffffffffffffffff811115611cb957611cb86117e0565b5b611cc589828a01611aeb565b9350506080611cd689828a01611c1a565b92505060a087013567ffffffffffffffff811115611cf757611cf66117e0565b5b611d0389828a01611aeb565b9150509295509295509295565b60008060408385031215611d2757611d266117db565b5b600083013567ffffffffffffffff811115611d4557611d446117e0565b5b611d5185828601611aeb565b9250506020611d628582860161182e565b9150509250929050565b611d7581611805565b82525050565b611d8481611bf6565b82525050565b611d9381611b8c565b82525050565b611da281611bc2565b82525050565b6000610100830160008301518482036000860152611dc682826118f3565b9150506020830151611ddb6020860182611d6c565b506040830151611dee6040860182611d6c565b5060608301518482036060860152611e0682826118f3565b9150506080830151611e1b6080860182611d7b565b5060a083015184820360a0860152611e3382826118f3565b91505060c0830151611e4860c0860182611d8a565b5060e0830151611e5b60e0860182611d99565b508091505092915050565b60006020820190508181036000830152611e808184611da8565b905092915050565b600080600080600060a08688031215611ea457611ea36117db565b5b600086013567ffffffffffffffff811115611ec257611ec16117e0565b5b611ece88828901611aeb565b9550506020611edf8882890161182e565b945050604086013567ffffffffffffffff811115611f0057611eff6117e0565b5b611f0c88828901611aeb565b9350506060611f1d88828901611c1a565b925050608086013567ffffffffffffffff811115611f3e57611f3d6117e0565b5b611f4a88828901611aeb565b9150509295509295909350565b7f4e487b7100000000000000000000000000000000000000000000000000000000600052602260045260246000fd5b60006002820490506001821680611f9e57607f821691505b602082108103611fb157611fb0611f57565b5b50919050565b600081905092915050565b6000611fcd8261189c565b611fd78185611fb7565b9350611fe78185602086016118b8565b80840191505092915050565b6000611fff8284611fc2565b915081905092915050565b7f44657669636552656769737472793a20446576696365206e6f7420726567697360008201527f7465726564000000000000000000000000000000000000000000000000000000602082015250565b6000612066602583611754565b91506120718261200a565b604082019050919050565b6000602082019050818103600083015261209581612059565b9050919050565b7f44657669636552656769737472793a204e6f7420617574686f72697a65640000600082015250565b60006120d2601e83611754565b91506120dd8261209c565b602082019050919050565b60006020820190508181036000830152612101816120c5565b9050919050565b7f44657669636552656769737472793a204f6e6c792070617469656e742063616e60008201527f20706572666f726d207468697320616374696f6e000000000000000000000000602082015250565b6000612164603483611754565b915061216f82612108565b604082019050919050565b6000602082019050818103600083015261219381612157565b9050919050565b7f44657669636552656769737472793a20496e76616c696420677561726469616e60008201527f2061646472657373000000000000000000000000000000000000000000000000602082015250565b60006121f6602883611754565b91506122018261219a565b604082019050919050565b60006020820190508181036000830152612225816121e9565b9050919050565b60008190508160005260206000209050919050565b60006020601f8301049050919050565b600082821b905092915050565b60006008830261228e7fffffffffffffffffffffffffffffffffffffffffffffffffffffffffffffffff82612251565b6122988683612251565b95508019841693508086168417925050509392505050565b6000819050919050565b60006122d56122d06122cb84611bc2565b6122b0565b611bc2565b9050919050565b6000819050919050565b6122ef836122ba565b6123036122fb826122dc565b84845461225e565b825550505050565b600090565b61231861230b565b6123238184846122e6565b505050565b5b818110156123475761233c600082612310565b600181019050612329565b5050565b601f82111561238c5761235d8161222c565b61236684612241565b81016020851015612375578190505b61238961238185612241565b830182612328565b50505b505050565b600082821c905092915050565b60006123af60001984600802612391565b1980831691505092915050565b60006123c8838361239e565b9150826002028217905092915050565b6123e18261189c565b67ffffffffffffffff8111156123fa576123f96119ee565b5b6124048254611f86565b61240f82828561234b565b600060209050601f8311600181146124425760008415612430578287015190505b61243a85826123bc565b8655506124a2565b601f1984166124508661222c565b60005b8281101561247857848901518255600182019150602085019450602081019050612453565b868310156124955784890151612491601f89168261239e565b8355505b6001600288020188555050505b505050505050565b60006060820190506124bf6000830186611b62565b6124cc6020830185611b62565b6124d96040830184611bcc565b949350505050565b7f44657669636552656769737472793a2044657669636520616c7265616479207260008201527f6567697374657265640000000000000000000000000000000000000000000000602082015250565b600061253d602983611754565b9150612548826124e1565b604082019050919050565b6000602082019050818103600083015261256c81612530565b9050919050565b7f44657669636552656769737472793a20496e76616c69642070617469656e742060008201527f6164647265737300000000000000000000000000000000000000000000000000602082015250565b60006125cf602783611754565b91506125da82612573565b604082019050919050565b600060208201905081810360008301526125fe816125c2565b9050919050565b7f44657669636552656769737472793a2044657669636520494420746f6f20736860008201527f6f727420286d696e203820636861727329000000000000000000000000000000602082015250565b6000612661603183611754565b915061266c82612605565b604082019050919050565b6000602082019050818103600083015261269081612654565b9050919050565b7f4e487b7100000000000000000000000000000000000000000000000000000000600052601160045260246000fd5b60006126d182611bc2565b91507fffffffffffffffffffffffffffffffffffffffffffffffffffffffffffffffff820361270357612702612697565b5b60018201905091905056fea264697066735822122042396352326454fc3d3e2cacefb8a22c0c62eb1159c9dae385952e406d1acf6464736f6c6343000814003360806040523480156200001157600080fd5b5060405162002c2d38038062002c2d83398181016040528101906200003791906200015b565b600073ffffffffffffffffffffffffffffffffffffffff168173ffffffffffffffffffffffffffffffffffffffff1603620000a9576040517f08c379a0000000000000000000000000000000000000000000000000000000008152600401620000a09062000214565b60405180910390fd5b80600260006101000a81548173ffffffffffffffffffffffffffffffffffffffff021916908373ffffffffffffffffffffffffffffffffffffffff1602179055505062000236565b600080fd5b600073ffffffffffffffffffffffffffffffffffffffff82169050919050565b60006200012382620000f6565b9050919050565b620001358162000116565b81146200014157600080fd5b50565b60008151905062000155816200012a565b92915050565b600060208284031215620001745762000173620000f1565b5b6000620001848482850162000144565b91505092915050565b600082825260208201905092915050565b7f4576656e744c6f676765723a20496e76616c696420726567697374727920616460008201527f6472657373000000000000000000000000000000000000000000000000000000602082015250565b6000620001fc6025836200018d565b915062000209826200019e565b604082019050919050565b600060208201905081810360008301526200022f81620001ed565b9050919050565b6129e780620002466000396000f3fe6080604052600436106100955760003560e01c8063810ef11a11610059578063810ef11a146101e5578063aa7f79e714610222578063ba8706861461025f578063d35482461461028a578063d590786a146102b3576100d5565b8063156ca235146100da5780634ace288e1461010357806353361502146101405780635efb870a1461017d5780636d1884e0146101a8576100d5565b366100d5576040517f08c379a00000000000000000000000000000000000000000000000000000000081526004016100cc9061156e565b60405180910390fd5b600080fd5b3480156100e657600080fd5b5061010160048036038101906100fc919061177c565b6102f0565b005b34801561010f57600080fd5b5061012a60048036038101906101259190611851565b6104bc565b6040516101379190611a98565b60405180910390f35b34801561014c57600080fd5b5061016760048036038101906101629190611aba565b610828565b6040516101749190611b12565b60405180910390f35b34801561018957600080fd5b50610192610853565b60405161019f9190611b8c565b60405180910390f35b3480156101b457600080fd5b506101cf60048036038101906101ca9190611ba7565b610879565b6040516101dc9190611c51565b60405180910390f35b3480156101f157600080fd5b5061020c60048036038101906102079190611aba565b610a8a565b6040516102199190611d22565b60405180910390f35b34801561022e57600080fd5b5061024960048036038101906102449190611d44565b610b00565b6040516102569190611a98565b60405180910390f35b34801561026b57600080fd5b50610274610e36565b6040516102819190611b12565b60405180910390f35b34801561029657600080fd5b506102b160048036038101906102ac9190611d84565b610e3c565b005b3480156102bf57600080fd5b506102da60048036038101906102d59190611e0f565b611007565b6040516102e79190611e6a565b60405180910390f35b82600260009054906101000a900473ffffffffffffffffffffffffffffffffffffffff1673ffffffffffffffffffffffffffffffffffffffff166368ba4eaf826040518263ffffffff1660e01b815260040161034c9190611ebe565b602060405180830381865afa158015610369573d6000803e3d6000fd5b505050506040513d601f19601f8201168201806040525081019061038d9190611f0c565b6103cc576040517f08c379a00000000000000000000000000000000000000000000000000000000081526004016103c390611fab565b60405180910390fd5b83600260009054906101000a900473ffffffffffffffffffffffffffffffffffffffff1673ffffffffffffffffffffffffffffffffffffffff16635cd10dc1826040518263ffffffff1660e01b81526004016104289190611ebe565b602060405180830381865afa158015610445573d6000803e3d6000fd5b505050506040513d601f19601f820116820180604052508101906104699190611f0c565b6104a8576040517f08c379a000000000000000000000000000000000000000000000000000000000815260040161049f9061203d565b60405180910390fd5b6104b48686868661107f565b505050505050565b60606000821180156104cf575060648211155b61050e576040517f08c379a0000000000000000000000000000000000000000000000000000000008152600401610505906120a9565b60405180910390fd5b60006001846040516105209190612105565b908152602001604051809103902080548060200260200160405190810160405280929190818152602001828054801561057857602002820191906000526020600020905b815481526020019060010190808311610564575b50505050509050600083825111610590578151610592565b835b905060008167ffffffffffffffff8111156105b0576105af61161b565b5b6040519080825280602002602001820160405280156105e957816020015b6105d66114c9565b8152602001906001900390816105ce5790505b50905060005b8281101561081b576000848260018751610609919061214b565b610613919061214b565b815181106106245761062361217f565b5b60200260200101519050600081815481106106425761064161217f565b5b90600052602060002090600502016040518060a001604052908160008201805461066b906121dd565b80601f0160208091040260200160405190810160405280929190818152602001828054610697906121dd565b80156106e45780601f106106b9576101008083540402835291602001916106e4565b820191906000526020600020905b8154815290600101906020018083116106c757829003601f168201915b50505050508152602001600182015481526020016002820160009054906101000a900473ffffffffffffffffffffffffffffffffffffffff1673ffffffffffffffffffffffffffffffffffffffff1673ffffffffffffffffffffffffffffffffffffffff16815260200160038201805461075d906121dd565b80601f0160208091040260200160405190810160405280929190818152602001828054610789906121dd565b80156107d65780601f106107ab576101008083540402835291602001916107d6565b820191906000526020600020905b8154815290600101906020018083116107b957829003601f168201915b505050505081526020016004820154815250508383815181106107fc576107fb61217f565b5b60200260200101819052505080806108139061220e565b9150506105ef565b5080935050505092915050565b600060018260405161083a9190612105565b9081526020016040518091039020805490509050919050565b600260009054906101000a900473ffffffffffffffffffffffffffffffffffffffff1681565b6108816114c9565b60008054905082106108c8576040517f08c379a00000000000000000000000000000000000000000000000000000000081526004016108bf906122c8565b60405180910390fd5b600082815481106108dc576108db61217f565b5b90600052602060002090600502016040518060a0016040529081600082018054610905906121dd565b80601f0160208091040260200160405190810160405280929190818152602001828054610931906121dd565b801561097e5780601f106109535761010080835404028352916020019161097e565b820191906000526020600020905b81548152906001019060200180831161096157829003601f168201915b50505050508152602001600182015481526020016002820160009054906101000a900473ffffffffffffffffffffffffffffffffffffffff1673ffffffffffffffffffffffffffffffffffffffff1673ffffffffffffffffffffffffffffffffffffffff1681526020016003820180546109f7906121dd565b80601f0160208091040260200160405190810160405280929190818152602001828054610a23906121dd565b8015610a705780601f10610a4557610100808354040283529160200191610a70565b820191906000526020600020905b815481529060010190602001808311610a5357829003601f168201915b505050505081526020016004820154815250509050919050565b6060600182604051610a9c9190612105565b9081526020016040518091039020805480602002602001604051908101604052809291908181526020018280548015610af457602002820191906000526020600020905b815481526020019060010190808311610ae0575b50505050509050919050565b60606000805490508310610b49576040517f08c379a0000000000000000000000000000000000000000000000000000000008152600401610b409061235a565b60405180910390fd5b600082118015610b5a575060648211155b610b99576040517f08c379a0000000000000000000000000000000000000000000000000000000008152600401610b90906120a9565b60405180910390fd5b60008284610ba7919061237a565b9050600080549050811115610bbf5760008054905090505b60008482610bcd919061214b565b905060008167ffffffffffffffff811115610beb57610bea61161b565b5b604051908082528060200260200182016040528015610c2457816020015b610c116114c9565b815260200190600190039081610c095790505b50905060005b82811015610e295760008188610c40919061237a565b81548110610c5157610c5061217f565b5b90600052602060002090600502016040518060a0016040529081600082018054610c7a906121dd565b80601f0160208091040260200160405190810160405280929190818152602001828054610ca6906121dd565b8015610cf35780601f10610cc857610100808354040283529160200191610cf3565b820191906000526020600020905b815481529060010190602001808311610cd657829003601f168201915b50505050508152602001600182015481526020016002820160009054906101000a900473ffffffffffffffffffffffffffffffffffffffff1673ffffffffffffffffffffffffffffffffffffffff1673ffffffffffffffffffffffffffffffffffffffff168152602001600382018054610d6c906121dd565b80601f0160208091040260200160405190810160405280929190818152602001828054610d98906121dd565b8015610de55780601f10610dba57610100808354040283529160200191610de5565b820191906000526020600020905b815481529060010190602001808311610dc857829003601f168201915b50505050508152602001600482015481525050828281518110610e0b57610e0a61217f565b5b60200260200101819052508080610e219061220e565b915050610c2a565b5080935050505092915050565b60035481565b82600260009054906101000a900473ffffffffffffffffffffffffffffffffffffffff1673ffffffffffffffffffffffffffffffffffffffff166368ba4eaf826040518263ffffffff1660e01b8152600401610e989190611ebe565b602060405180830381865afa158015610eb5573d6000803e3d6000fd5b505050506040513d601f19601f82011682018060405250810190610ed99190611f0c565b610f18576040517f08c379a0000000000000000000000000000000000000000000000000000000008152600401610f0f90611fab565b60405180910390fd5b83600260009054906101000a900473ffffffffffffffffffffffffffffffffffffffff1673ffffffffffffffffffffffffffffffffffffffff16635cd10dc1826040518263ffffffff1660e01b8152600401610f749190611ebe565b602060405180830381865afa158015610f91573d6000803e3d6000fd5b505050506040513d601f19601f82011682018060405250810190610fb59190611f0c565b610ff4576040517f08c379a0000000000000000000000000000000000000000000000000000000008152600401610feb9061203d565b60405180910390fd5b6110003386868661107f565b5050505050565b60008080549050831061104f576040517f08c379a0000000000000000000000000000000000000000000000000000000008152600401611046906122c8565b60405180910390fd5b81600084815481106110645761106361217f565b5b90600052602060002090600502016001015414905092915050565b6000600260009054906101000a900473ffffffffffffffffffffffffffffffffffffffff1673ffffffffffffffffffffffffffffffffffffffff1663b71a0346856040518263ffffffff1660e01b81526004016110dc9190611ebe565b600060405180830381865afa1580156110f9573d6000803e3d6000fd5b505050506040513d6000823e3d601f19601f8201168201806040525081019061112291906125a9565b9050806020015173ffffffffffffffffffffffffffffffffffffffff168573ffffffffffffffffffffffffffffffffffffffff1614806111915750806040015173ffffffffffffffffffffffffffffffffffffffff168573ffffffffffffffffffffffffffffffffffffffff16145b6111d0576040517f08c379a00000000000000000000000000000000000000000000000000000000081526004016111c790612664565b60405180910390fd5b6000828051906020012090506040518060400160405280600681526020017f6e6f726d616c00000000000000000000000000000000000000000000000000008152508051906020012081148061126157506040518060400160405280600581526020017f616c6572740000000000000000000000000000000000000000000000000000008152508051906020012081145b806112a757506040518060400160405280600881526020017f637269746963616c0000000000000000000000000000000000000000000000008152508051906020012081145b6112e6576040517f08c379a00000000000000000000000000000000000000000000000000000000081526004016112dd906126d0565b60405180910390fd5b60006040518060a00160405280878152602001868152602001846040015173ffffffffffffffffffffffffffffffffffffffff1681526020018581526020014281525090506000819080600181540180825580915050600190039060005260206000209060050201600090919091909150600082015181600001908161136c9190612892565b506020820151816001015560408201518160020160006101000a81548173ffffffffffffffffffffffffffffffffffffffff021916908373ffffffffffffffffffffffffffffffffffffffff16021790555060608201518160030190816113d39190612892565b50608082015181600401555050600060016000805490506113f4919061214b565b90506001876040516114069190612105565b90815260200160405180910390208190806001815401808255809150506001900390600052602060002001600090919091909150556003600081548092919061144e9061220e565b9190505550836040015173ffffffffffffffffffffffffffffffffffffffff168760405161147c9190612105565b60405180910390207f3826f73ae69b3a7d4560d320a6c29c90bd452990ac0c9c559e6587286830d59d8888426040516114b793929190612973565b60405180910390a35050505050505050565b6040518060a001604052806060815260200160008019168152602001600073ffffffffffffffffffffffffffffffffffffffff16815260200160608152602001600081525090565b600082825260208201905092915050565b7f4576656e744c6f676765723a20455448206e6f74206163636570746564000000600082015250565b6000611558601d83611511565b915061156382611522565b602082019050919050565b600060208201905081810360008301526115878161154b565b9050919050565b6000604051905090565b600080fd5b600080fd5b600073ffffffffffffffffffffffffffffffffffffffff82169050919050565b60006115cd826115a2565b9050919050565b6115dd816115c2565b81146115e857600080fd5b50565b6000813590506115fa816115d4565b92915050565b600080fd5b600080fd5b6000601f19601f8301169050919050565b7f4e487b7100000000000000000000000000000000000000000000000000000000600052604160045260246000fd5b6116538261160a565b810181811067ffffffffffffffff821117156116725761167161161b565b5b80604052505050565b600061168561158e565b9050611691828261164a565b919050565b600067ffffffffffffffff8211156116b1576116b061161b565b5b6116ba8261160a565b9050602081019050919050565b82818337600083830152505050565b60006116e96116e484611696565b61167b565b90508281526020810184848401111561170557611704611605565b5b6117108482856116c7565b509392505050565b600082601f83011261172d5761172c611600565b5b813561173d8482602086016116d6565b91505092915050565b6000819050919050565b61175981611746565b811461176457600080fd5b50565b60008135905061177681611750565b92915050565b6000806000806080858703121561179657611795611598565b5b60006117a4878288016115eb565b945050602085013567ffffffffffffffff8111156117c5576117c461159d565b5b6117d187828801611718565b93505060406117e287828801611767565b925050606085013567ffffffffffffffff8111156118035761180261159d565b5b61180f87828801611718565b91505092959194509250565b6000819050919050565b61182e8161181b565b811461183957600080fd5b50565b60008135905061184b81611825565b92915050565b6000806040838503121561186857611867611598565b5b600083013567ffffffffffffffff8111156118865761188561159d565b5b61189285828601611718565b92505060206118a38582860161183c565b9150509250929050565b600081519050919050565b600082825260208201905092915050565b6000819050602082019050919050565b600081519050919050565b600082825260208201905092915050565b60005b838110156119135780820151818401526020810190506118f8565b60008484015250505050565b600061192a826118d9565b61193481856118e4565b93506119448185602086016118f5565b61194d8161160a565b840191505092915050565b61196181611746565b82525050565b611970816115c2565b82525050565b61197f8161181b565b82525050565b600060a08301600083015184820360008601526119a2828261191f565b91505060208301516119b76020860182611958565b5060408301516119ca6040860182611967565b50606083015184820360608601526119e2828261191f565b91505060808301516119f76080860182611976565b508091505092915050565b6000611a0e8383611985565b905092915050565b6000602082019050919050565b6000611a2e826118ad565b611a3881856118b8565b935083602082028501611a4a856118c9565b8060005b85811015611a865784840389528151611a678582611a02565b9450611a7283611a16565b925060208a01995050600181019050611a4e565b50829750879550505050505092915050565b60006020820190508181036000830152611ab28184611a23565b905092915050565b600060208284031215611ad057611acf611598565b5b600082013567ffffffffffffffff811115611aee57611aed61159d565b5b611afa84828501611718565b91505092915050565b611b0c8161181b565b82525050565b6000602082019050611b276000830184611b03565b92915050565b6000819050919050565b6000611b52611b4d611b48846115a2565b611b2d565b6115a2565b9050919050565b6000611b6482611b37565b9050919050565b6000611b7682611b59565b9050919050565b611b8681611b6b565b82525050565b6000602082019050611ba16000830184611b7d565b92915050565b600060208284031215611bbd57611bbc611598565b5b6000611bcb8482850161183c565b91505092915050565b600060a0830160008301518482036000860152611bf1828261191f565b9150506020830151611c066020860182611958565b506040830151611c196040860182611967565b5060608301518482036060860152611c31828261191f565b9150506080830151611c466080860182611976565b508091505092915050565b60006020820190508181036000830152611c6b8184611bd4565b905092915050565b600081519050919050565b600082825260208201905092915050565b6000819050602082019050919050565b6000611cab8383611976565b60208301905092915050565b6000602082019050919050565b6000611ccf82611c73565b611cd98185611c7e565b9350611ce483611c8f565b8060005b83811015611d15578151611cfc8882611c9f565b9750611d0783611cb7565b925050600181019050611ce8565b5085935050505092915050565b60006020820190508181036000830152611d3c8184611cc4565b905092915050565b60008060408385031215611d5b57611d5a611598565b5b6000611d698582860161183c565b9250506020611d7a8582860161183c565b9150509250929050565b600080600060608486031215611d9d57611d9c611598565b5b600084013567ffffffffffffffff811115611dbb57611dba61159d565b5b611dc786828701611718565b9350506020611dd886828701611767565b925050604084013567ffffffffffffffff811115611df957611df861159d565b5b611e0586828701611718565b9150509250925092565b60008060408385031215611e2657611e25611598565b5b6000611e348582860161183c565b9250506020611e4585828601611767565b9150509250929050565b60008115159050919050565b611e6481611e4f565b82525050565b6000602082019050611e7f6000830184611e5b565b92915050565b6000611e90826118d9565b611e9a8185611511565b9350611eaa8185602086016118f5565b611eb38161160a565b840191505092915050565b60006020820190508181036000830152611ed88184611e85565b905092915050565b611ee981611e4f565b8114611ef457600080fd5b50565b600081519050611f0681611ee0565b92915050565b600060208284031215611f2257611f21611598565b5b6000611f3084828501611ef7565b91505092915050565b7f4576656e744c6f676765723a20446576696365206e6f7420726567697374657260008201527f6564000000000000000000000000000000000000000000000000000000000000602082015250565b6000611f95602283611511565b9150611fa082611f39565b604082019050919050565b60006020820190508181036000830152611fc481611f88565b9050919050565b7f4576656e744c6f676765723a20446576696365206973206e6f7420616374697660008201527f6500000000000000000000000000000000000000000000000000000000000000602082015250565b6000612027602183611511565b915061203282611fcb565b604082019050919050565b600060208201905081810360008301526120568161201a565b9050919050565b7f4576656e744c6f676765723a204c696d6974206d75737420626520312d313030600082015250565b6000612093602083611511565b915061209e8261205d565b602082019050919050565b600060208201905081810360008301526120c281612086565b9050919050565b600081905092915050565b60006120df826118d9565b6120e981856120c9565b93506120f98185602086016118f5565b80840191505092915050565b600061211182846120d4565b915081905092915050565b7f4e487b7100000000000000000000000000000000000000000000000000000000600052601160045260246000fd5b60006121568261181b565b91506121618361181b565b92508282039050818111156121795761217861211c565b5b92915050565b7f4e487b7100000000000000000000000000000000000000000000000000000000600052603260045260246000fd5b7f4e487b7100000000000000000000000000000000000000000000000000000000600052602260045260246000fd5b600060028204905060018216806121f557607f821691505b602082108103612208576122076121ae565b5b50919050565b60006122198261181b565b91507fffffffffffffffffffffffffffffffffffffffffffffffffffffffffffffffff820361224b5761224a61211c565b5b600182019050919050565b7f4576656e744c6f676765723a204576656e7420696e646578206f7574206f662060008201527f626f756e64730000000000000000000000000000000000000000000000000000602082015250565b60006122b2602683611511565b91506122bd82612256565b604082019050919050565b600060208201905081810360008301526122e1816122a5565b9050919050565b7f4576656e744c6f676765723a204f6666736574206f7574206f6620626f756e6460008201527f7300000000000000000000000000000000000000000000000000000000000000602082015250565b6000612344602183611511565b915061234f826122e8565b604082019050919050565b6000602082019050818103600083015261237381612337565b9050919050565b60006123858261181b565b91506123908361181b565b92508282019050808211156123a8576123a761211c565b5b92915050565b600080fd5b600080fd5b60006123cb6123c684611696565b61167b565b9050828152602081018484840111156123e7576123e6611605565b5b6123f28482856118f5565b509392505050565b600082601f83011261240f5761240e611600565b5b815161241f8482602086016123b8565b91505092915050565b600081519050612437816115d4565b92915050565b600060ff82169050919050565b6124538161243d565b811461245e57600080fd5b50565b6000815190506124708161244a565b92915050565b60008151905061248581611825565b92915050565b600061010082840312156124a2576124a16123ae565b5b6124ad61010061167b565b9050600082015167ffffffffffffffff8111156124cd576124cc6123b3565b5b6124d9848285016123fa565b60008301525060206124ed84828501612428565b602083015250604061250184828501612428565b604083015250606082015167ffffffffffffffff811115612525576125246123b3565b5b612531848285016123fa565b606083015250608061254584828501612461565b60808301525060a082015167ffffffffffffffff811115612569576125686123b3565b5b612575848285016123fa565b60a08301525060c061258984828501611ef7565b60c08301525060e061259d84828501612476565b60e08301525092915050565b6000602082840312156125bf576125be611598565b5b600082015167ffffffffffffffff8111156125dd576125dc61159d565b5b6125e98482850161248b565b91505092915050565b7f4576656e744c6f676765723a204f6e6c792070617469656e74206f722067756160008201527f726469616e2063616e206c6f67206576656e7473000000000000000000000000602082015250565b600061264e603483611511565b9150612659826125f2565b604082019050919050565b6000602082019050818103600083015261267d81612641565b9050919050565b7f4576656e744c6f676765723a20496e76616c6964206576656e74207479706500600082015250565b60006126ba601f83611511565b91506126c582612684565b602082019050919050565b600060208201905081810360008301526126e9816126ad565b9050919050565b60008190508160005260206000209050919050565b60006020601f8301049050919050565b600082821b905092915050565b6000600883026127527fffffffffffffffffffffffffffffffffffffffffffffffffffffffffffffffff82612715565b61275c8683612715565b95508019841693508086168417925050509392505050565b600061278f61278a6127858461181b565b611b2d565b61181b565b9050919050565b6000819050919050565b6127a983612774565b6127bd6127b582612796565b848454612722565b825550505050565b600090565b6127d26127c5565b6127dd8184846127a0565b505050565b5b81811015612801576127f66000826127ca565b6001810190506127e3565b5050565b601f82111561284657612817816126f0565b61282084612705565b8101602085101561282f578190505b61284361283b85612705565b8301826127e2565b50505b505050565b600082821c905092915050565b60006128696000198460080261284b565b1980831691505092915050565b60006128828383612858565b9150826002028217905092915050565b61289b826118d9565b67ffffffffffffffff8111156128b4576128b361161b565b5b6128be82546121dd565b6128c9828285612805565b600060209050601f8311600181146128fc57600084156128ea578287015190505b6128f48582612876565b86555061295c565b601f19841661290a866126f0565b60005b828110156129325784890151825560018201915060208501945060208101905061290d565b8683101561294f578489015161294b601f891682612858565b8355505b6001600288020188555050505b505050505050565b61296d81611746565b82525050565b60006060820190506129886000830186612964565b818103602083015261299a8185611e85565b90506129a96040830184611b03565b94935050505056fea2646970667358221220f3be993112847636c10fe7b4978eb38bf944859c827de44d56e713354b7d038e64736f6c63430008140033",
  "linkReferences": {},
  "deployedLinkReferences": {}
}