{
  "_format": "hh-sol-artifact-1",
  "contractName": "DeviceRegistry",
  "sourceName": "contracts/DeviceRegistry.sol",
  "abi": [
    {
      "anonymous": false,
      "inputs": [
        {
          "indexed": true,
          "internalType": "string",
          "name": "deviceId",
          "type": "string"
        },
        {
          "indexed": false,
          "internalType": "uint256",
          "name": "timestamp",
          "type": "uint256"
        }
      ],
      "name": "DeviceDeactivated",
      "type": "event"
    },
    {
      "anonymous": false,
      "inputs": [
        {
          "indexed": true,
          "internalType": "string",
          "name": "deviceId",
          "type": "string"
        },
        {
          "indexed": true,
          "internalType": "address",
          "name": "patient",
          "type": "address"
        },
        {
          "indexed": true,
          "internalType": "address",
          "name": "guardian",
          "type": "address"
        },
        {
          "indexed": false,
          "internalType": "uint256",
          "name": "timestamp",
          "type": "uint256"
        }
      ],
      "name": "DeviceRegistered",
      "type": "event"
    },
    {
      "anonymous": false,
      "inputs": [
        {
          "indexed": true,
          "internalType": "string",
          "name": "deviceId",
          "type": "string"
        },
        {
          "indexed": false,
          "internalType": "address",
          "name": "oldGuardian",
          "type": "address"
        },
        {
          "indexed": false,
          "internalType": "address",
          "name": "newGuardian",
          "type": "address"
        },
        {
          "indexed": false,
          "internalType": "uint256",
          "name": "timestamp",
          "type": "uint256"
        }
      ],
      "name": "GuardianChanged",
      "type": "event"
    },
    {
      "anonymous": false,
      "inputs": [
        {
          "indexed": true,
          "internalType": "address",
          "name": "guardian",
          "type": "address"
        },
        {
          "indexed": false,
          "internalType": "string",
          "name": "name",
          "type": "string"
        },
        {
          "indexed": false,
          "internalType": "uint256",
          "name": "timestamp",
          "type": "uint256"
        }
      ],
      "name": "GuardianNameSet",
      "type": "event"
    },
    {
      "inputs": [
        {
          "internalType": "string",
          "name": "deviceId",
          "type": "string"
        },
        {
          "internalType": "address",
          "name": "newGuardian",
          "type": "address"
        }
      ],
      "name": "changeGuardian",
      "outputs": [],
      "stateMutability": "nonpayable",
      "type": "function"
    },
    {
      "inputs": [
        {
          "internalType": "string",
          "name": "deviceId",
          "type": "string"
        },
        {
          "internalType": "address",
          "name": "newGuardian",
          "type": "address"
        },
        {
          "internalType": "address",
          "name": "patient",
          "type": "address"
        }
      ],
      "name": "changeGuardianFor",
      "outputs": [],
      "stateMutability": "nonpayable",
      "type": "function"
    },
    {
      "inputs": [
        {
          "internalType": "string",
          "name": "deviceId",
          "type": "string"
        }
      ],
      "name": "deactivateDevice",
      "outputs": [],
      "stateMutability": "nonpayable",
      "type": "function"
    },
    {
      "inputs": [
        {
          "internalType": "string",
          "name": "deviceId",
          "type": "string"
        }
      ],
      "name": "getDevice",
      "outputs": [
        {
          "components": [
            {
              "internalType": "string",
              "name": "deviceId",
              "type": "string"
            },
            {
              "internalType": "address",
              "name": "patient",
              "type": "address"
            },
            {
              "internalType": "address",
              "name": "guardian",
              "type": "address"
            },
            {
              "internalType": "string",
              "name": "fullName",
              "type": "string"
            },
            {
              "internalType": "uint8",
              "name": "age",
              "type": "uint8"
            },
            {
              "internalType": "string",
              "name": "homeLocation",
              "type": "string"
            },
            {
              "internalType": "bool",
              "name": "isActive",
              "type": "bool"
            },
            {
              "internalType": "uint256",
              "name": "registeredAt",
              "type": "uint256"
            }
          ],
          "internalType": "struct IDeviceRegistry.Device",
          "name": "",
          "type": "tuple"
        }
      ],
      "stateMutability": "view",
      "type": "function"
    },
    {
      "inputs": [
        {
          "internalType": "string",
          "name": "deviceId",
          "type": "string"
        }
      ],
      "name": "getDeviceGuardian",
      "outputs": [
        {
          "internalType": "address",
          "name": "",
          "type": "address"
        }
      ],
      "stateMutability": "view",
      "type": "function"
    },
    {
      "inputs": [
        {
          "internalType": "string",
          "name": "deviceId",
          "type": "string"
        }
      ],
      "name": "getDevicePatient",
      "outputs": [
        {
          "internalType": "address",
          "name": "",
          "type": "address"
        }
      ],
      "stateMutability": "view",
      "type": "function"
    },
    {
      "inputs": [
        {
          "internalType": "address",
          "name": "guardian",
          "type": "address"
        }
      ],
      "name": "getGuardianDevices",
      "outputs": [
        {
          "internalType": "string[]",
          "name": "",
          "type": "string[]"
        }
      ],
      "stateMutability": "view",
      "type": "function"
    },
    {
      "inputs": [
        {
          "internalType": "address",
          "name": "guardian",
          "type": "address"
        }
      ],
      "name": "getGuardianName",
      "outputs": [
        {
          "internalType": "string",
          "name": "",
          "type": "string"
        }
      ],
      "stateMutability": "view",
      "type": "function"
    },
    {
      "inputs": [
        {
          "internalType": "address",
          "name": "patient",
          "type": "address"
        }
      ],
      "name": "getPatientDevices",
      "outputs": [
        {
          "internalType": "string[]",
          "name": "",
          "type": "string[]"
        }
      ],
      "stateMutability": "view",
      "type": "function"
    },
    {
      "inputs": [
        {
          "internalType": "address",
          "name": "",
          "type": "address"
        }
      ],
      "name": "guardianNames",
      "outputs": [
        {
          "internalType": "string",
          "name": "",
          "type": "string"
        }
      ],
      "stateMutability": "view",
      "type": "function"
    },
    {
      "inputs": [
        {
          "internalType": "string",
          "name": "deviceId",
          "type": "string"
        }
      ],
      "name": "isDeviceActive",
      "outputs": [
        {
          "internalType": "bool",
          "name": "",
          "type": "bool"
        }
      ],
      "stateMutability": "view",
      "type": "function"
    },
    {
      "inputs": [
        {
          "internalType": "string",
          "name": "deviceId",
          "type": "string"
        }
      ],
      "name": "isDeviceRegistered",
      "outputs": [
        {
          "internalType": "bool",
          "name": "",
          "type": "bool"
        }
      ],
      "stateMutability": "view",
      "type": "function"
    },
    {
      "inputs": [
        {
          "internalType": "string",
          "name": "deviceId",
          "type": "string"
        },
        {
          "internalType": "address",
          "name": "guardian",
          "type": "address"
        },
        {
          "internalType": "string",
          "name": "fullName",
          "type": "string"
        },
        {
          "internalType": "uint8",
          "name": "age",
          "type": "uint8"
        },
        {
          "internalType": "string",
          "name": "homeLocation",
          "type": "string"
        }
      ],
      "name": "registerDevice",
      "outputs": [],
      "stateMutability": "nonpayable",
      "type": "function"
    },
    {
      "inputs": [
        {
          "internalType": "string",
          "name": "deviceId",
          "type": "string"
        },
        {
          "internalType": "address",
          "name": "patient",
          "type": "address"
        },
        {
          "internalType": "address",
          "name": "guardian",
          "type": "address"
        },
        {
          "internalType": "string",
          "name": "fullName",
          "type": "string"
        },
        {
          "internalType": "uint8",
          "name": "age",
          "type": "uint8"
        },
        {
          "internalType": "string",
          "name": "homeLocation",
          "type": "string"
        }
      ],
      "name": "registerDeviceFor",
      "outputs": [],
      "stateMutability": "nonpayable",
      "type": "function"
    },
    {
      "inputs": [
        {
          "internalType": "string",
          "name": "name",
          "type": "string"
        }
      ],
      "name": "setGuardianName",
      "outputs": [],
      "stateMutability": "nonpayable",
      "type": "function"
    },
    {
      "inputs": [],
      "name": "totalDevices",
      "outputs": [
        {
          "internalType": "uint256",
          "name": "",
          "type": "uint256"
        }
      ],
      "stateMutability": "view",
      "type": "function"
    },
    {
      "stateMutability": "payable",
      "type": "receive"
    }
  ],
  "bytecode": "0x608060405234801561001057600080fd5b506130e4806100206000396000f3fe6080604052600436106100f65760003560e01c8063700940671161008a578063b0337fe711610059578063b0337fe7146103b5578063b71a0346146103de578063e2ec6e4d1461041b578063fb2c6f221461045857610136565b806370094067146102fd57806375d5a174146103265780639ada42f91461034f5780639ec98e601461037857610136565b80635cd10dc1116100c65780635cd10dc11461022f5780636121898e1461026c57806366b20a231461029757806368ba4eaf146102c057610136565b8062dec0e41461013b5780633209d3c114610178578063577d3ff6146101b55780635baa3f25146101f257610136565b36610136576040517f08c379a000000000000000000000000000000000000000000000000000000000815260040161012d90611ea1565b60405180910390fd5b600080fd5b34801561014757600080fd5b50610162600480360381019061015d9190611f33565b610481565b60405161016f91906120b2565b60405180910390f35b34801561018457600080fd5b5061019f600480360381019061019a9190611f33565b610599565b6040516101ac91906120b2565b60405180910390f35b3480156101c157600080fd5b506101dc60048036038101906101d79190612209565b6106b1565b6040516101e99190612261565b60405180910390f35b3480156101fe57600080fd5b5061021960048036038101906102149190611f33565b6106fb565b60405161022691906122b5565b60405180910390f35b34801561023b57600080fd5b5061025660048036038101906102519190612209565b61079b565b60405161026391906122f2565b60405180910390f35b34801561027857600080fd5b506102816107d2565b60405161028e9190612326565b60405180910390f35b3480156102a357600080fd5b506102be60048036038101906102b99190612209565b6107d8565b005b3480156102cc57600080fd5b506102e760048036038101906102e29190612209565b610901565b6040516102f491906122f2565b60405180910390f35b34801561030957600080fd5b50610324600480360381019061031f9190612209565b61097b565b005b34801561033257600080fd5b5061034d6004803603810190610348919061237a565b610e34565b005b34801561035b57600080fd5b506103766004803603810190610371919061245b565b610e4a565b005b34801561038457600080fd5b5061039f600480360381019061039a9190611f33565b611188565b6040516103ac91906122b5565b60405180910390f35b3480156103c157600080fd5b506103dc60048036038101906103d791906124ca565b611259565b005b3480156103ea57600080fd5b5061040560048036038101906104009190612209565b611598565b6040516104129190612620565b60405180910390f35b34801561042757600080fd5b50610442600480360381019061043d9190612209565b611875565b60405161044f9190612261565b60405180910390f35b34801561046457600080fd5b5061047f600480360381019061047a9190612642565b6118bf565b005b6060600160008373ffffffffffffffffffffffffffffffffffffffff1673ffffffffffffffffffffffffffffffffffffffff168152602001908152602001600020805480602002602001604051908101604052809291908181526020016000905b8282101561058e57838290600052602060002001805461050190612740565b80601f016020809104026020016040519081016040528092919081815260200182805461052d90612740565b801561057a5780601f1061054f5761010080835404028352916020019161057a565b820191906000526020600020905b81548152906001019060200180831161055d57829003601f168201915b5050505050815260200190600101906104e2565b505050509050919050565b6060600260008373ffffffffffffffffffffffffffffffffffffffff1673ffffffffffffffffffffffffffffffffffffffff168152602001908152602001600020805480602002602001604051908101604052809291908181526020016000905b828210156106a657838290600052602060002001805461061990612740565b80601f016020809104026020016040519081016040528092919081815260200182805461064590612740565b80156106925780601f1061066757610100808354040283529160200191610692565b820191906000526020600020905b81548152906001019060200180831161067557829003601f168201915b5050505050815260200190600101906105fa565b505050509050919050565b600080826040516106c291906127ad565b908152602001604051809103902060020160009054906101000a900473ffffffffffffffffffffffffffffffffffffffff169050919050565b6003602052806000526040600020600091509050805461071a90612740565b80601f016020809104026020016040519081016040528092919081815260200182805461074690612740565b80156107935780601f1061076857610100808354040283529160200191610793565b820191906000526020600020905b81548152906001019060200180831161077657829003601f168201915b505050505081565b600080826040516107ac91906127ad565b908152602001604051809103902060060160009054906101000a900460ff169050919050565b60045481565b600081511161081c576040517f08c379a000000000000000000000000000000000000000000000000000000000815260040161081390612836565b60405180910390fd5b603281511115610861576040517f08c379a0000000000000000000000000000000000000000000000000000000008152600401610858906128c8565b60405180910390fd5b80600360003373ffffffffffffffffffffffffffffffffffffffff1673ffffffffffffffffffffffffffffffffffffffff16815260200190815260200160002090816108ad9190612a94565b503373ffffffffffffffffffffffffffffffffffffffff167f7d7f167d425470ead7c40a566e85046c23f2481bae1aa9d3540824904a3fc48682426040516108f6929190612b66565b60405180910390a250565b60008073ffffffffffffffffffffffffffffffffffffffff1660008360405161092a91906127ad565b908152602001604051809103902060010160009054906101000a900473ffffffffffffffffffffffffffffffffffffffff1673ffffffffffffffffffffffffffffffffffffffff1614159050919050565b80600073ffffffffffffffffffffffffffffffffffffffff166000826040516109a491906127ad565b908152602001604051809103902060010160009054906101000a900473ffffffffffffffffffffffffffffffffffffffff1673ffffffffffffffffffffffffffffffffffffffff1603610a2c576040517f08c379a0000000000000000000000000000000000000000000000000000000008152600401610a2390612c08565b60405180910390fd5b60008083604051610a3d91906127ad565b908152602001604051809103902060405180610100016040529081600082018054610a6790612740565b80601f0160208091040260200160405190810160405280929190818152602001828054610a9390612740565b8015610ae05780601f10610ab557610100808354040283529160200191610ae0565b820191906000526020600020905b815481529060010190602001808311610ac357829003601f168201915b505050505081526020016001820160009054906101000a900473ffffffffffffffffffffffffffffffffffffffff1673ffffffffffffffffffffffffffffffffffffffff1673ffffffffffffffffffffffffffffffffffffffff1681526020016002820160009054906101000a900473ffffffffffffffffffffffffffffffffffffffff1673ffffffffffffffffffffffffffffffffffffffff1673ffffffffffffffffffffffffffffffffffffffff168152602001600382018054610ba590612740565b80601f0160208091040260200160405190810160405280929190818152602001828054610bd190612740565b8015610c1e5780601f10610bf357610100808354040283529160200191610c1e565b820191906000526020600020905b815481529060010190602001808311610c0157829003601f168201915b505050505081526020016004820160009054906101000a900460ff1660ff1660ff168152602001600582018054610c5490612740565b80601f0160208091040260200160405190810160405280929190818152602001828054610c8090612740565b8015610ccd5780601f10610ca257610100808354040283529160200191610ccd565b820191906000526020600020905b815481529060010190602001808311610cb057829003601f168201915b505050505081526020016006820160009054906101000a900460ff1615151515815260200160078201548152505090503373ffffffffffffffffffffffffffffffffffffffff16816020015173ffffffffffffffffffffffffffffffffffffffff161480610d6a57503373ffffffffffffffffffffffffffffffffffffffff16816040015173ffffffffffffffffffffffffffffffffffffffff16145b610da9576040517f08c379a0000000000000000000000000000000000000000000000000000000008152600401610da090612c74565b60405180910390fd5b60008084604051610dba91906127ad565b908152602001604051809103902060060160006101000a81548160ff02191690831515021790555082604051610df091906127ad565b60405180910390207f44741574c6d9100819aa13fd0926c49ceed3605e75f0854d17de2516bc14e2c842604051610e279190612326565b60405180910390a2505050565b610e428686868686866118d4565b505050505050565b82600073ffffffffffffffffffffffffffffffffffffffff16600082604051610e7391906127ad565b908152602001604051809103902060010160009054906101000a900473ffffffffffffffffffffffffffffffffffffffff1673ffffffffffffffffffffffffffffffffffffffff1603610efb576040517f08c379a0000000000000000000000000000000000000000000000000000000008152600401610ef290612c08565b60405180910390fd5b8173ffffffffffffffffffffffffffffffffffffffff16600085604051610f2291906127ad565b908152602001604051809103902060010160009054906101000a900473ffffffffffffffffffffffffffffffffffffffff1673ffffffffffffffffffffffffffffffffffffffff1614610faa576040517f08c379a0000000000000000000000000000000000000000000000000000000008152600401610fa190612d06565b60405180910390fd5b600073ffffffffffffffffffffffffffffffffffffffff168373ffffffffffffffffffffffffffffffffffffffff1603611019576040517f08c379a000000000000000000000000000000000000000000000000000000000815260040161101090612d98565b60405180910390fd5b6000808560405161102a91906127ad565b908152602001604051809103902060020160009054906101000a900473ffffffffffffffffffffffffffffffffffffffff1690508360008660405161106f91906127ad565b908152602001604051809103902060020160006101000a81548173ffffffffffffffffffffffffffffffffffffffff021916908373ffffffffffffffffffffffffffffffffffffffff160217905550600160008573ffffffffffffffffffffffffffffffffffffffff1673ffffffffffffffffffffffffffffffffffffffff1681526020019081526020016000208590806001815401808255809150506001900390600052602060002001600090919091909150908161112f9190612a94565b508460405161113e91906127ad565b60405180910390207f8cf963b51c748320b05a970a2676e6ccfec208283664afabc9ded8022d19cbe282864260405161117993929190612db8565b60405180910390a25050505050565b6060600360008373ffffffffffffffffffffffffffffffffffffffff1673ffffffffffffffffffffffffffffffffffffffff16815260200190815260200160002080546111d490612740565b80601f016020809104026020016040519081016040528092919081815260200182805461120090612740565b801561124d5780601f106112225761010080835404028352916020019161124d565b820191906000526020600020905b81548152906001019060200180831161123057829003601f168201915b50505050509050919050565b813373ffffffffffffffffffffffffffffffffffffffff1660008260405161128191906127ad565b908152602001604051809103902060010160009054906101000a900473ffffffffffffffffffffffffffffffffffffffff1673ffffffffffffffffffffffffffffffffffffffff1614611309576040517f08c379a000000000000000000000000000000000000000000000000000000000815260040161130090612e61565b60405180910390fd5b82600073ffffffffffffffffffffffffffffffffffffffff1660008260405161133291906127ad565b908152602001604051809103902060010160009054906101000a900473ffffffffffffffffffffffffffffffffffffffff1673ffffffffffffffffffffffffffffffffffffffff16036113ba576040517f08c379a00000000000000000000000000000000000000000000000000000000081526004016113b190612c08565b60405180910390fd5b600073ffffffffffffffffffffffffffffffffffffffff168373ffffffffffffffffffffffffffffffffffffffff1603611429576040517f08c379a000000000000000000000000000000000000000000000000000000000815260040161142090612d98565b60405180910390fd5b6000808560405161143a91906127ad565b908152602001604051809103902060020160009054906101000a900473ffffffffffffffffffffffffffffffffffffffff1690508360008660405161147f91906127ad565b908152602001604051809103902060020160006101000a81548173ffffffffffffffffffffffffffffffffffffffff021916908373ffffffffffffffffffffffffffffffffffffffff160217905550600160008573ffffffffffffffffffffffffffffffffffffffff1673ffffffffffffffffffffffffffffffffffffffff1681526020019081526020016000208590806001815401808255809150506001900390600052602060002001600090919091909150908161153f9190612a94565b508460405161154e91906127ad565b60405180910390207f8cf963b51c748320b05a970a2676e6ccfec208283664afabc9ded8022d19cbe282864260405161158993929190612db8565b60405180910390a25050505050565b6115a0611dce565b6000826040516115b091906127ad565b9081526020016040518091039020604051806101000160405290816000820180546115da90612740565b80601f016020809104026020016040519081016040528092919081815260200182805461160690612740565b80156116535780601f1061162857610100808354040283529160200191611653565b820191906000526020600020905b81548152906001019060200180831161163657829003601f168201915b505050505081526020016001820160009054906101000a900473ffffffffffffffffffffffffffffffffffffffff1673ffffffffffffffffffffffffffffffffffffffff1673ffffffffffffffffffffffffffffffffffffffff1681526020016002820160009054906101000a900473ffffffffffffffffffffffffffffffffffffffff1673ffffffffffffffffffffffffffffffffffffffff1673ffffffffffffffffffffffffffffffffffffffff16815260200160038201805461171890612740565b80601f016020809104026020016040519081016040528092919081815260200182805461174490612740565b80156117915780601f1061176657610100808354040283529160200191611791565b820191906000526020600020905b81548152906001019060200180831161177457829003601f168201915b505050505081526020016004820160009054906101000a900460ff1660ff1660ff1681526020016005820180546117c790612740565b80601f01602080910402602001604051908101604052809291908181526020018280546117f390612740565b80156118405780601f1061181557610100808354040283529160200191611840565b820191906000526020600020905b81548152906001019060200180831161182357829003601f168201915b505050505081526020016006820160009054906101000a900460ff161515151581526020016007820154815250509050919050565b6000808260405161188691906127ad565b908152602001604051809103902060010160009054906101000a900473ffffffffffffffffffffffffffffffffffffffff169050919050565b6118cd8533868686866118d4565b5050505050565b600073ffffffffffffffffffffffffffffffffffffffff166000876040516118fc91906127ad565b908152602001604051809103902060010160009054906101000a900473ffffffffffffffffffffffffffffffffffffffff1673ffffffffffffffffffffffffffffffffffffffff1614611984576040517f08c379a000000000000000000000000000000000000000000000000000000000815260040161197b90612ef3565b60405180910390fd5b600073ffffffffffffffffffffffffffffffffffffffff168473ffffffffffffffffffffffffffffffffffffffff16036119f3576040517f08c379a00000000000000000000000000000000000000000000000000000000081526004016119ea90612d98565b60405180910390fd5b600073ffffffffffffffffffffffffffffffffffffffff168573ffffffffffffffffffffffffffffffffffffffff1603611a62576040517f08c379a0000000000000000000000000000000000000000000000000000000008152600401611a5990612f85565b60405180910390fd5b600886511015611aa7576040517f08c379a0000000000000000000000000000000000000000000000000000000008152600401611a9e90613017565b60405180910390fd5b6040518061010001604052808781526020018673ffffffffffffffffffffffffffffffffffffffff1681526020018573ffffffffffffffffffffffffffffffffffffffff1681526020018481526020018360ff16815260200182815260200160011515815260200142815250600087604051611b2391906127ad565b90815260200160405180910390206000820151816000019081611b469190612a94565b5060208201518160010160006101000a81548173ffffffffffffffffffffffffffffffffffffffff021916908373ffffffffffffffffffffffffffffffffffffffff16021790555060408201518160020160006101000a81548173ffffffffffffffffffffffffffffffffffffffff021916908373ffffffffffffffffffffffffffffffffffffffff1602179055506060820151816003019081611bea9190612a94565b5060808201518160040160006101000a81548160ff021916908360ff16021790555060a0820151816005019081611c219190612a94565b5060c08201518160060160006101000a81548160ff02191690831515021790555060e08201518160070155905050600160008573ffffffffffffffffffffffffffffffffffffffff1673ffffffffffffffffffffffffffffffffffffffff16815260200190815260200160002086908060018154018082558091505060019003906000526020600020016000909190919091509081611cc09190612a94565b50600260008673ffffffffffffffffffffffffffffffffffffffff1673ffffffffffffffffffffffffffffffffffffffff16815260200190815260200160002086908060018154018082558091505060019003906000526020600020016000909190919091509081611d329190612a94565b5060046000815480929190611d4690613066565b91905055508373ffffffffffffffffffffffffffffffffffffffff168573ffffffffffffffffffffffffffffffffffffffff1687604051611d8791906127ad565b60405180910390207ff3ac2d70bb40c5c557b819df1497dd19d865383d3821b4c26e5729f63cc9630742604051611dbe9190612326565b60405180910390a4505050505050565b60405180610100016040528060608152602001600073ffffffffffffffffffffffffffffffffffffffff168152602001600073ffffffffffffffffffffffffffffffffffffffff16815260200160608152602001600060ff16815260200160608152602001600015158152602001600081525090565b600082825260208201905092915050565b7f44657669636552656769737472793a20455448206e6f74206163636570746564600082015250565b6000611e8b602083611e44565b9150611e9682611e55565b602082019050919050565b60006020820190508181036000830152611eba81611e7e565b9050919050565b6000604051905090565b600080fd5b600080fd5b600073ffffffffffffffffffffffffffffffffffffffff82169050919050565b6000611f0082611ed5565b9050919050565b611f1081611ef5565b8114611f1b57600080fd5b50565b600081359050611f2d81611f07565b92915050565b600060208284031215611f4957611f48611ecb565b5b6000611f5784828501611f1e565b91505092915050565b600081519050919050565b600082825260208201905092915050565b6000819050602082019050919050565b600081519050919050565b600082825260208201905092915050565b60005b83811015611fc6578082015181840152602081019050611fab565b60008484015250505050565b6000601f19601f8301169050919050565b6000611fee82611f8c565b611ff88185611f97565b9350612008818560208601611fa8565b61201181611fd2565b840191505092915050565b60006120288383611fe3565b905092915050565b6000602082019050919050565b600061204882611f60565b6120528185611f6b565b93508360208202850161206485611f7c565b8060005b858110156120a05784840389528151612081858261201c565b945061208c83612030565b925060208a01995050600181019050612068565b50829750879550505050505092915050565b600060208201905081810360008301526120cc818461203d565b905092915050565b600080fd5b600080fd5b7f4e487b7100000000000000000000000000000000000000000000000000000000600052604160045260246000fd5b61211682611fd2565b810181811067ffffffffffffffff82111715612135576121346120de565b5b80604052505050565b6000612148611ec1565b9050612154828261210d565b919050565b600067ffffffffffffffff821115612174576121736120de565b5b61217d82611fd2565b9050602081019050919050565b82818337600083830152505050565b60006121ac6121a784612159565b61213e565b9050828152602081018484840111156121c8576121c76120d9565b5b6121d384828561218a565b509392505050565b600082601f8301126121f0576121ef6120d4565b5b8135612200848260208601612199565b91505092915050565b60006020828403121561221f5761221e611ecb565b5b600082013567ffffffffffffffff81111561223d5761223c611ed0565b5b612249848285016121db565b91505092915050565b61225b81611ef5565b82525050565b60006020820190506122766000830184612252565b92915050565b600061228782611f8c565b6122918185611e44565b93506122a1818560208601611fa8565b6122aa81611fd2565b840191505092915050565b600060208201905081810360008301526122cf818461227c565b905092915050565b60008115159050919050565b6122ec816122d7565b82525050565b600060208201905061230760008301846122e3565b92915050565b6000819050919050565b6123208161230d565b82525050565b600060208201905061233b6000830184612317565b92915050565b600060ff82169050919050565b61235781612341565b811461236257600080fd5b50565b6000813590506123748161234e565b92915050565b60008060008060008060c0878903121561239757612396611ecb565b5b600087013567ffffffffffffffff8111156123b5576123b4611ed0565b5b6123c189828a016121db565b96505060206123d289828a01611f1e565b95505060406123e389828a01611f1e565b945050606087013567ffffffffffffffff81111561240457612403611ed0565b5b61241089828a016121db565b935050608061242189828a01612365565b92505060a087013567ffffffffffffffff81111561244257612441611ed0565b5b61244e89828a016121db565b9150509295509295509295565b60008060006060848603121561247457612473611ecb565b5b600084013567ffffffffffffffff81111561249257612491611ed0565b5b61249e868287016121db565b93505060206124af86828701611f1e565b92505060406124c086828701611f1e565b9150509250925092565b600080604083850312156124e1576124e0611ecb565b5b600083013567ffffffffffffffff8111156124ff576124fe611ed0565b5b61250b858286016121db565b925050602061251c85828601611f1e565b9150509250929050565b61252f81611ef5565b82525050565b61253e81612341565b82525050565b61254d816122d7565b82525050565b61255c8161230d565b82525050565b60006101008301600083015184820360008601526125808282611fe3565b91505060208301516125956020860182612526565b5060408301516125a86040860182612526565b50606083015184820360608601526125c08282611fe3565b91505060808301516125d56080860182612535565b5060a083015184820360a08601526125ed8282611fe3565b91505060c083015161260260c0860182612544565b5060e083015161261560e0860182612553565b508091505092915050565b6000602082019050818103600083015261263a8184612562565b905092915050565b600080600080600060a0868803121561265e5761265d611ecb565b5b600086013567ffffffffffffffff81111561267c5761267b611ed0565b5b612688888289016121db565b955050602061269988828901611f1e565b945050604086013567ffffffffffffffff8111156126ba576126b9611ed0565b5b6126c6888289016121db565b93505060606126d788828901612365565b925050608086013567ffffffffffffffff8111156126f8576126f7611ed0565b5b612704888289016121db565b9150509295509295909350565b7f4e487b7100000000000000000000000000000000000000000000000000000000600052602260045260246000fd5b6000600282049050600182168061275857607f821691505b60208210810361276b5761276a612711565b5b50919050565b600081905092915050565b600061278782611f8c565b6127918185612771565b93506127a1818560208601611fa8565b80840191505092915050565b60006127b9828461277c565b915081905092915050565b7f44657669636552656769737472793a204e616d652063616e6e6f74206265206560008201527f6d70747900000000000000000000000000000000000000000000000000000000602082015250565b6000612820602483611e44565b915061282b826127c4565b604082019050919050565b6000602082019050818103600083015261284f81612813565b9050919050565b7f44657669636552656769737472793a204e616d6520746f6f206c6f6e6720286d60008201527f6178203530206368617273290000000000000000000000000000000000000000602082015250565b60006128b2602c83611e44565b91506128bd82612856565b604082019050919050565b600060208201905081810360008301526128e1816128a5565b9050919050565b60008190508160005260206000209050919050565b60006020601f8301049050919050565b600082821b905092915050565b60006008830261294a7fffffffffffffffffffffffffffffffffffffffffffffffffffffffffffffffff8261290d565b612954868361290d565b95508019841693508086168417925050509392505050565b6000819050919050565b600061299161298c6129878461230d565b61296c565b61230d565b9050919050565b6000819050919050565b6129ab83612976565b6129bf6129b782612998565b84845461291a565b825550505050565b600090565b6129d46129c7565b6129df8184846129a2565b505050565b5b81811015612a03576129f86000826129cc565b6001810190506129e5565b5050565b601f821115612a4857612a19816128e8565b612a22846128fd565b81016020851015612a31578190505b612a45612a3d856128fd565b8301826129e4565b50505b505050565b600082821c905092915050565b6000612a6b60001984600802612a4d565b1980831691505092915050565b6000612a848383612a5a565b9150826002028217905092915050565b612a9d82611f8c565b67ffffffffffffffff811115612ab657612ab56120de565b5b612ac08254612740565b612acb828285612a07565b600060209050601f831160018114612afe5760008415612aec578287015190505b612af68582612a78565b865550612b5e565b601f198416612b0c866128e8565b60005b82811015612b3457848901518255600182019150602085019450602081019050612b0f565b86831015612b515784890151612b4d601f891682612a5a565b8355505b6001600288020188555050505b505050505050565b60006040820190508181036000830152612b80818561227c565b9050612b8f6020830184612317565b9392505050565b7f44657669636552656769737472793a20446576696365206e6f7420726567697360008201527f7465726564000000000000000000000000000000000000000000000000000000602082015250565b6000612bf2602583611e44565b9150612bfd82612b96565b604082019050919050565b60006020820190508181036000830152612c2181612be5565b9050919050565b7f44657669636552656769737472793a204e6f7420617574686f72697a65640000600082015250565b6000612c5e601e83611e44565b9150612c6982612c28565b602082019050919050565b60006020820190508181036000830152612c8d81612c51565b9050919050565b7f44657669636552656769737472793a204f6e6c792070617469656e742063616e60008201527f206368616e676520677561726469616e00000000000000000000000000000000602082015250565b6000612cf0603083611e44565b9150612cfb82612c94565b604082019050919050565b60006020820190508181036000830152612d1f81612ce3565b9050919050565b7f44657669636552656769737472793a20496e76616c696420677561726469616e60008201527f2061646472657373000000000000000000000000000000000000000000000000602082015250565b6000612d82602883611e44565b9150612d8d82612d26565b604082019050919050565b60006020820190508181036000830152612db181612d75565b9050919050565b6000606082019050612dcd6000830186612252565b612dda6020830185612252565b612de76040830184612317565b949350505050565b7f44657669636552656769737472793a204f6e6c792070617469656e742063616e60008201527f20706572666f726d207468697320616374696f6e000000000000000000000000602082015250565b6000612e4b603483611e44565b9150612e5682612def565b604082019050919050565b60006020820190508181036000830152612e7a81612e3e565b9050919050565b7f44657669636552656769737472793a2044657669636520616c7265616479207260008201527f6567697374657265640000000000000000000000000000000000000000000000602082015250565b6000612edd602983611e44565b9150612ee882612e81565b604082019050919050565b60006020820190508181036000830152612f0c81612ed0565b9050919050565b7f44657669636552656769737472793a20496e76616c69642070617469656e742060008201527f6164647265737300000000000000000000000000000000000000000000000000602082015250565b6000612f6f602783611e44565b9150612f7a82612f13565b604082019050919050565b60006020820190508181036000830152612f9e81612f62565b9050919050565b7f44657669636552656769737472793a2044657669636520494420746f6f20736860008201527f6f727420286d696e203820636861727329000000000000000000000000000000602082015250565b6000613001603183611e44565b915061300c82612fa5565b604082019050919050565b6000602082019050818103600083015261303081612ff4565b9050919050565b7f4e487b7100000000000000000000000000000000000000000000000000000000600052601160045260246000fd5b60006130718261230d565b91507fffffffffffffffffffffffffffffffffffffffffffffffffffffffffffffffff82036130a3576130a2613037565b5b60018201905091905056fea264697066735822122035ad76b00f4be454fb78a9619db4df77b1021b3b7d11dce87653d99fdbbdb17a64736f6c63430008140033",
  "linkReferences": {},
  "deployedLinkReferences": {}
}