{
  "_format": "hh-sol-artifact-1",
  "contractName": "DeviceRegistry",
  "sourceName": "contracts/DeviceRegistry.sol",
  "abi": [
    {
      "anonymous": false,
      "inputs": [
        {
          "indexed": true,
          "internalType": "string",
          "name": "deviceId",
          "type": "string"
        },
        {
          "indexed": false,
          "internalType": "uint256",
          "name": "timestamp",
          "type": "uint256"
        }
      ],
      "name": "DeviceDeactivated",
      "type": "event"
    },
    {
      "anonymous": false,
      "inputs": [
        {
          "indexed": true,
          "internalType": "string",
          "name": "deviceId",
          "type": "string"
        },
        {
          "indexed": true,
          "internalType": "address",
          "name": "patient",
          "type": "address"
        },
        {
          "indexed": true,
          "internalType": "address",
          "name": "guardian",
          "type": "address"
        },
        {
          "indexed": false,
          "internalType": "uint256",
          "name": "timestamp",
          "type": "uint256"
        }
      ],
      "name": "DeviceRegistered",
      "type": "event"
    },
    {
      "anonymous": false,
      "inputs": [
        {
          "indexed": true,
          "internalType": "string",
          "name": "deviceId",
          "type": "string"
        },
        {
          "indexed": false,
          "internalType": "address",
          "name": "oldGuardian",
          "type": "address"
        },
        {
          "indexed": false,
          "internalType": "address",
          "name": "newGuardian",
          "type": "address"
        },
        {
          "indexed": false,
          "internalType": "uint256",
          "name": "timestamp",
          "type": "uint256"
        }
      ],
      "name": "GuardianChanged",
      "type": "event"
    },
    {
      "anonymous": false,
      "inputs": [
        {
          "indexed": true,
          "internalType": "address",
          "name": "guardian",
          "type": "address"
        },
        {
          "indexed": false,
          "internalType": "string",
          "name": "name",
          "type": "string"
        },
        {
          "indexed": false,
          "internalType": "uint256",
          "name": "timestamp",
          "type": "uint256"
        }
      ],
      "name": "GuardianNameSet",
      "type": "event"
    },
    {
      "inputs": [
        {
          "internalType": "string",
          "name": "deviceId",
          "type": "string"
        },
        {
          "internalType": "address",
          "name": "newGuardian",
          "type": "address"
        }
      ],
      "name": "changeGuardian",
      "outputs": [],
      "stateMutability": "nonpayable",
      "type": "function"
    },
    {
      "inputs": [
        {
          "internalType": "string",
          "name": "deviceId",
          "type": "string"
        }
      ],
      "name": "deactivateDevice",
      "outputs": [],
      "stateMutability": "nonpayable",
      "type": "function"
    },
    {
      "inputs": [
        {
          "internalType": "string",
          "name": "deviceId",
          "type": "string"
        }
      ],
      "name": "getDevice",
      "outputs": [
        {
          "components": [
            {
              "internalType": "string",
              "name": "deviceId",
              "type": "string"
            },
            {
              "internalType": "address",
              "name": "patient",
              "type": "address"
            },
            {
              "internalType": "address",
              "name": "guardian",
              "type": "address"
            },
            {
              "internalType": "string",
              "name": "fullName",
              "type": "string"
            },
            {
              "internalType": "uint8",
              "name": "age",
              "type": "uint8"
            },
            {
              "internalType": "string",
              "name": "homeLocation",
              "type": "string"
            },
            {
              "internalType": "bool",
              "name": "isActive",
              "type": "bool"
            },
            {
              "internalType": "uint256",
              "name": "registeredAt",
              "type": "uint256"
            }
          ],
          "internalType": "struct IDeviceRegistry.Device",
          "name": "",
          "type": "tuple"
        }
      ],
      "stateMutability": "view",
      "type": "function"
    },
    {
      "inputs": [
        {
          "internalType": "string",
          "name": "deviceId",
          "type": "string"
        }
      ],
      "name": "getDeviceGuardian",
      "outputs": [
        {
          "internalType": "address",
          "name": "",
          "type": "address"
        }
      ],
      "stateMutability": "view",
      "type": "function"
    },
    {
      "inputs": [
        {
          "internalType": "string",
          "name": "deviceId",
          "type": "string"
        }
      ],
      "name": "getDevicePatient",
      "outputs": [
        {
          "internalType": "address",
          "name": "",
          "type": "address"
        }
      ],
      "stateMutability": "view",
      "type": "function"
    },
    {
      "inputs": [
        {
          "internalType": "address",
          "name": "guardian",
          "type": "address"
        }
      ],
      "name": "getGuardianDevices",
      "outputs": [
        {
          "internalType": "string[]",
          "name": "",
          "type": "string[]"
        }
      ],
      "stateMutability": "view",
      "type": "function"
    },
    {
      "inputs": [
        {
          "internalType": "address",
          "name": "guardian",
          "type": "address"
        }
      ],
      "name": "getGuardianName",
      "outputs": [
        {
          "internalType": "string",
          "name": "",
          "type": "string"
        }
      ],
      "stateMutability": "view",
      "type": "function"
    },
    {
      "inputs": [
        {
          "internalType": "address",
          "name": "patient",
          "type": "address"
        }
      ],
      "name": "getPatientDevices",
      "outputs": [
        {
          "internalType": "string[]",
          "name": "",
          "type": "string[]"
        }
      ],
      "stateMutability": "view",
      "type": "function"
    },
    {
      "inputs": [
        {
          "internalType": "address",
          "name": "",
          "type": "address"
        }
      ],
      "name": "guardianNames",
      "outputs": [
        {
          "internalType": "string",
          "name": "",
          "type": "string"
        }
      ],
      "stateMutability": "view",
      "type": "function"
    },
    {
      "inputs": [
        {
          "internalType": "string",
          "name": "deviceId",
          "type": "string"
        }
      ],
      "name": "isDeviceActive",
      "outputs": [
        {
          "internalType": "bool",
          "name": "",
          "type": "bool"
        }
      ],
      "stateMutability": "view",
      "type": "function"
    },
    {
      "inputs": [
        {
          "internalType": "string",
          "name": "deviceId",
          "type": "string"
        }
      ],
      "name": "isDeviceRegistered",
      "outputs": [
        {
          "internalType": "bool",
          "name": "",
          "type": "bool"
        }
      ],
      "stateMutability": "view",
      "type": "function"
    },
    {
      "inputs": [
        {
          "internalType": "string",
          "name": "deviceId",
          "type": "string"
        },
        {
          "internalType": "address",
          "name": "guardian",
          "type": "address"
        },
        {
          "internalType": "string",
          "name": "fullName",
          "type": "string"
        },
        {
          "internalType": "uint8",
          "name": "age",
          "type": "uint8"
        },
        {
          "internalType": "string",
          "name": "homeLocation",
          "type": "string"
        }
      ],
      "name": "registerDevice",
      "outputs": [],
      "stateMutability": "nonpayable",
      "type": "function"
    },
    {
      "inputs": [
        {
          "internalType": "string",
          "name": "deviceId",
          "type": "string"
        },
        {
          "internalType": "address",
          "name": "patient",
          "type": "address"
        },
        {
          "internalType": "address",
          "name": "guardian",
          "type": "address"
        },
        {
          "internalType": "string",
          "name": "fullName",
          "type": "string"
        },
        {
          "internalType": "uint8",
          "name": "age",
          "type": "uint8"
        },
        {
          "internalType": "string",
          "name": "homeLocation",
          "type": "string"
        }
      ],
      "name": "registerDeviceFor",
      "outputs": [],
      "stateMutability": "nonpayable",
      "type": "function"
    },
    {
      "inputs": [
        {
          "internalType": "string",
          "name": "name",
          "type": "string"
        }
      ],
      "name": "setGuardianName",
      "outputs": [],
      "stateMutability": "nonpayable",
      "type": "function"
    },
    {
      "inputs": [],
      "name": "totalDevices",
      "outputs": [
        {
          "internalType": "uint256",
          "name": "",
          "type": "uint256"
        }
      ],
      "stateMutability": "view",
      "type": "function"
    },
    {
      "stateMutability": "payable",
      "type": "receive"
    }
  ],
  "bytecode": "0x608060405234801561001057600080fd5b50612c71806100206000396000f3fe6080604052600436106100eb5760003560e01c806368ba4eaf1161008a578063b0337fe711610059578063b0337fe714610381578063b71a0346146103aa578063e2ec6e4d146103e7578063fb2c6f22146104245761012b565b806368ba4eaf146102b557806370094067146102f257806375d5a1741461031b5780639ec98e60146103445761012b565b80635baa3f25116100c65780635baa3f25146101e75780635cd10dc1146102245780636121898e1461026157806366b20a231461028c5761012b565b8062dec0e4146101305780633209d3c11461016d578063577d3ff6146101aa5761012b565b3661012b576040517f08c379a000000000000000000000000000000000000000000000000000000000815260040161012290611b2f565b60405180910390fd5b600080fd5b34801561013c57600080fd5b5061015760048036038101906101529190611bc1565b61044d565b6040516101649190611d40565b60405180910390f35b34801561017957600080fd5b50610194600480360381019061018f9190611bc1565b610565565b6040516101a19190611d40565b60405180910390f35b3480156101b657600080fd5b506101d160048036038101906101cc9190611e97565b61067d565b6040516101de9190611eef565b60405180910390f35b3480156101f357600080fd5b5061020e60048036038101906102099190611bc1565b6106c7565b60405161021b9190611f43565b60405180910390f35b34801561023057600080fd5b5061024b60048036038101906102469190611e97565b610767565b6040516102589190611f80565b60405180910390f35b34801561026d57600080fd5b5061027661079e565b6040516102839190611fb4565b60405180910390f35b34801561029857600080fd5b506102b360048036038101906102ae9190611e97565b6107a4565b005b3480156102c157600080fd5b506102dc60048036038101906102d79190611e97565b6108cd565b6040516102e99190611f80565b60405180910390f35b3480156102fe57600080fd5b5061031960048036038101906103149190611e97565b610947565b005b34801561032757600080fd5b50610342600480360381019061033d9190612008565b610e00565b005b34801561035057600080fd5b5061036b60048036038101906103669190611bc1565b610e16565b6040516103789190611f43565b60405180910390f35b34801561038d57600080fd5b506103a860048036038101906103a391906120e9565b610ee7565b005b3480156103b657600080fd5b506103d160048036038101906103cc9190611e97565b611226565b6040516103de919061223f565b60405180910390f35b3480156103f357600080fd5b5061040e60048036038101906104099190611e97565b611503565b60405161041b9190611eef565b60405180910390f35b34801561043057600080fd5b5061044b60048036038101906104469190612261565b61154d565b005b6060600160008373ffffffffffffffffffffffffffffffffffffffff1673ffffffffffffffffffffffffffffffffffffffff168152602001908152602001600020805480602002602001604051908101604052809291908181526020016000905b8282101561055a5783829060005260206000200180546104cd9061235f565b80601f01602080910402602001604051908101604052809291908181526020018280546104f99061235f565b80156105465780601f1061051b57610100808354040283529160200191610546565b820191906000526020600020905b81548152906001019060200180831161052957829003601f168201915b5050505050815260200190600101906104ae565b505050509050919050565b6060600260008373ffffffffffffffffffffffffffffffffffffffff1673ffffffffffffffffffffffffffffffffffffffff168152602001908152602001600020805480602002602001604051908101604052809291908181526020016000905b828210156106725783829060005260206000200180546105e59061235f565b80601f01602080910402602001604051908101604052809291908181526020018280546106119061235f565b801561065e5780601f106106335761010080835404028352916020019161065e565b820191906000526020600020905b81548152906001019060200180831161064157829003601f168201915b5050505050815260200190600101906105c6565b505050509050919050565b6000808260405161068e91906123cc565b908152602001604051809103902060020160009054906101000a900473ffffffffffffffffffffffffffffffffffffffff169050919050565b600360205280600052604060002060009150905080546106e69061235f565b80601f01602080910402602001604051908101604052809291908181526020018280546107129061235f565b801561075f5780601f106107345761010080835404028352916020019161075f565b820191906000526020600020905b81548152906001019060200180831161074257829003601f168201915b505050505081565b6000808260405161077891906123cc565b908152602001604051809103902060060160009054906101000a900460ff169050919050565b60045481565b60008151116107e8576040517f08c379a00000000000000000000000000000000000000000000000000000000081526004016107df90612455565b60405180910390fd5b60328151111561082d576040517f08c379a0000000000000000000000000000000000000000000000000000000008152600401610824906124e7565b60405180910390fd5b80600360003373ffffffffffffffffffffffffffffffffffffffff1673ffffffffffffffffffffffffffffffffffffffff168152602001908152602001600020908161087991906126b3565b503373ffffffffffffffffffffffffffffffffffffffff167f7d7f167d425470ead7c40a566e85046c23f2481bae1aa9d3540824904a3fc48682426040516108c2929190612785565b60405180910390a250565b60008073ffffffffffffffffffffffffffffffffffffffff166000836040516108f691906123cc565b908152602001604051809103902060010160009054906101000a900473ffffffffffffffffffffffffffffffffffffffff1673ffffffffffffffffffffffffffffffffffffffff1614159050919050565b80600073ffffffffffffffffffffffffffffffffffffffff1660008260405161097091906123cc565b908152602001604051809103902060010160009054906101000a900473ffffffffffffffffffffffffffffffffffffffff1673ffffffffffffffffffffffffffffffffffffffff16036109f8576040517f08c379a00000000000000000000000000000000000000000000000000000000081526004016109ef90612827565b60405180910390fd5b60008083604051610a0991906123cc565b908152602001604051809103902060405180610100016040529081600082018054610a339061235f565b80601f0160208091040260200160405190810160405280929190818152602001828054610a5f9061235f565b8015610aac5780601f10610a8157610100808354040283529160200191610aac565b820191906000526020600020905b815481529060010190602001808311610a8f57829003601f168201915b505050505081526020016001820160009054906101000a900473ffffffffffffffffffffffffffffffffffffffff1673ffffffffffffffffffffffffffffffffffffffff1673ffffffffffffffffffffffffffffffffffffffff1681526020016002820160009054906101000a900473ffffffffffffffffffffffffffffffffffffffff1673ffffffffffffffffffffffffffffffffffffffff1673ffffffffffffffffffffffffffffffffffffffff168152602001600382018054610b719061235f565b80601f0160208091040260200160405190810160405280929190818152602001828054610b9d9061235f565b8015610bea5780601f10610bbf57610100808354040283529160200191610bea565b820191906000526020600020905b815481529060010190602001808311610bcd57829003601f168201915b505050505081526020016004820160009054906101000a900460ff1660ff1660ff168152602001600582018054610c209061235f565b80601f0160208091040260200160405190810160405280929190818152602001828054610c4c9061235f565b8015610c995780601f10610c6e57610100808354040283529160200191610c99565b820191906000526020600020905b815481529060010190602001808311610c7c57829003601f168201915b505050505081526020016006820160009054906101000a900460ff1615151515815260200160078201548152505090503373ffffffffffffffffffffffffffffffffffffffff16816020015173ffffffffffffffffffffffffffffffffffffffff161480610d3657503373ffffffffffffffffffffffffffffffffffffffff16816040015173ffffffffffffffffffffffffffffffffffffffff16145b610d75576040517f08c379a0000000000000000000000000000000000000000000000000000000008152600401610d6c90612893565b60405180910390fd5b60008084604051610d8691906123cc565b908152602001604051809103902060060160006101000a81548160ff02191690831515021790555082604051610dbc91906123cc565b60405180910390207f44741574c6d9100819aa13fd0926c49ceed3605e75f0854d17de2516bc14e2c842604051610df39190611fb4565b60405180910390a2505050565b610e0e868686868686611562565b505050505050565b6060600360008373ffffffffffffffffffffffffffffffffffffffff1673ffffffffffffffffffffffffffffffffffffffff1681526020019081526020016000208054610e629061235f565b80601f0160208091040260200160405190810160405280929190818152602001828054610e8e9061235f565b8015610edb5780601f10610eb057610100808354040283529160200191610edb565b820191906000526020600020905b815481529060010190602001808311610ebe57829003601f168201915b50505050509050919050565b813373ffffffffffffffffffffffffffffffffffffffff16600082604051610f0f91906123cc565b908152602001604051809103902060010160009054906101000a900473ffffffffffffffffffffffffffffffffffffffff1673ffffffffffffffffffffffffffffffffffffffff1614610f97576040517f08c379a0000000000000000000000000000000000000000000000000000000008152600401610f8e90612925565b60405180910390fd5b82600073ffffffffffffffffffffffffffffffffffffffff16600082604051610fc091906123cc565b908152602001604051809103902060010160009054906101000a900473ffffffffffffffffffffffffffffffffffffffff1673ffffffffffffffffffffffffffffffffffffffff1603611048576040517f08c379a000000000000000000000000000000000000000000000000000000000815260040161103f90612827565b60405180910390fd5b600073ffffffffffffffffffffffffffffffffffffffff168373ffffffffffffffffffffffffffffffffffffffff16036110b7576040517f08c379a00000000000000000000000000000000000000000000000000000000081526004016110ae906129b7565b60405180910390fd5b600080856040516110c891906123cc565b908152602001604051809103902060020160009054906101000a900473ffffffffffffffffffffffffffffffffffffffff1690508360008660405161110d91906123cc565b908152602001604051809103902060020160006101000a81548173ffffffffffffffffffffffffffffffffffffffff021916908373ffffffffffffffffffffffffffffffffffffffff160217905550600160008573ffffffffffffffffffffffffffffffffffffffff1673ffffffffffffffffffffffffffffffffffffffff168152602001908152602001600020859080600181540180825580915050600190039060005260206000200160009091909190915090816111cd91906126b3565b50846040516111dc91906123cc565b60405180910390207f8cf963b51c748320b05a970a2676e6ccfec208283664afabc9ded8022d19cbe2828642604051611217939291906129d7565b60405180910390a25050505050565b61122e611a5c565b60008260405161123e91906123cc565b9081526020016040518091039020604051806101000160405290816000820180546112689061235f565b80601f01602080910402602001604051908101604052809291908181526020018280546112949061235f565b80156112e15780601f106112b6576101008083540402835291602001916112e1565b820191906000526020600020905b8154815290600101906020018083116112c457829003601f168201915b505050505081526020016001820160009054906101000a900473ffffffffffffffffffffffffffffffffffffffff1673ffffffffffffffffffffffffffffffffffffffff1673ffffffffffffffffffffffffffffffffffffffff1681526020016002820160009054906101000a900473ffffffffffffffffffffffffffffffffffffffff1673ffffffffffffffffffffffffffffffffffffffff1673ffffffffffffffffffffffffffffffffffffffff1681526020016003820180546113a69061235f565b80601f01602080910402602001604051908101604052809291908181526020018280546113d29061235f565b801561141f5780601f106113f45761010080835404028352916020019161141f565b820191906000526020600020905b81548152906001019060200180831161140257829003601f168201915b505050505081526020016004820160009054906101000a900460ff1660ff1660ff1681526020016005820180546114559061235f565b80601f01602080910402602001604051908101604052809291908181526020018280546114819061235f565b80156114ce5780601f106114a3576101008083540402835291602001916114ce565b820191906000526020600020905b8154815290600101906020018083116114b157829003601f168201915b505050505081526020016006820160009054906101000a900460ff161515151581526020016007820154815250509050919050565b6000808260405161151491906123cc565b908152602001604051809103902060010160009054906101000a900473ffffffffffffffffffffffffffffffffffffffff169050919050565b61155b853386868686611562565b5050505050565b600073ffffffffffffffffffffffffffffffffffffffff1660008760405161158a91906123cc565b908152602001604051809103902060010160009054906101000a900473ffffffffffffffffffffffffffffffffffffffff1673ffffffffffffffffffffffffffffffffffffffff1614611612576040517f08c379a000000000000000000000000000000000000000000000000000000000815260040161160990612a80565b60405180910390fd5b600073ffffffffffffffffffffffffffffffffffffffff168473ffffffffffffffffffffffffffffffffffffffff1603611681576040517f08c379a0000000000000000000000000000000000000000000000000000000008152600401611678906129b7565b60405180910390fd5b600073ffffffffffffffffffffffffffffffffffffffff168573ffffffffffffffffffffffffffffffffffffffff16036116f0576040517f08c379a00000000000000000000000000000000000000000000000000000000081526004016116e790612b12565b60405180910390fd5b600886511015611735576040517f08c379a000000000000000000000000000000000000000000000000000000000815260040161172c90612ba4565b60405180910390fd5b6040518061010001604052808781526020018673ffffffffffffffffffffffffffffffffffffffff1681526020018573ffffffffffffffffffffffffffffffffffffffff1681526020018481526020018360ff168152602001828152602001600115158152602001428152506000876040516117b191906123cc565b908152602001604051809103902060008201518160000190816117d491906126b3565b5060208201518160010160006101000a81548173ffffffffffffffffffffffffffffffffffffffff021916908373ffffffffffffffffffffffffffffffffffffffff16021790555060408201518160020160006101000a81548173ffffffffffffffffffffffffffffffffffffffff021916908373ffffffffffffffffffffffffffffffffffffffff160217905550606082015181600301908161187891906126b3565b5060808201518160040160006101000a81548160ff021916908360ff16021790555060a08201518160050190816118af91906126b3565b5060c08201518160060160006101000a81548160ff02191690831515021790555060e08201518160070155905050600160008573ffffffffffffffffffffffffffffffffffffffff1673ffffffffffffffffffffffffffffffffffffffff1681526020019081526020016000208690806001815401808255809150506001900390600052602060002001600090919091909150908161194e91906126b3565b50600260008673ffffffffffffffffffffffffffffffffffffffff1673ffffffffffffffffffffffffffffffffffffffff168152602001908152602001600020869080600181540180825580915050600190039060005260206000200160009091909190915090816119c091906126b3565b50600460008154809291906119d490612bf3565b91905055508373ffffffffffffffffffffffffffffffffffffffff168573ffffffffffffffffffffffffffffffffffffffff1687604051611a1591906123cc565b60405180910390207ff3ac2d70bb40c5c557b819df1497dd19d865383d3821b4c26e5729f63cc9630742604051611a4c9190611fb4565b60405180910390a4505050505050565b60405180610100016040528060608152602001600073ffffffffffffffffffffffffffffffffffffffff168152602001600073ffffffffffffffffffffffffffffffffffffffff16815260200160608152602001600060ff16815260200160608152602001600015158152602001600081525090565b600082825260208201905092915050565b7f44657669636552656769737472793a20455448206e6f74206163636570746564600082015250565b6000611b19602083611ad2565b9150611b2482611ae3565b602082019050919050565b60006020820190508181036000830152611b4881611b0c565b9050919050565b6000604051905090565b600080fd5b600080fd5b600073ffffffffffffffffffffffffffffffffffffffff82169050919050565b6000611b8e82611b63565b9050919050565b611b9e81611b83565b8114611ba957600080fd5b50565b600081359050611bbb81611b95565b92915050565b600060208284031215611bd757611bd6611b59565b5b6000611be584828501611bac565b91505092915050565b600081519050919050565b600082825260208201905092915050565b6000819050602082019050919050565b600081519050919050565b600082825260208201905092915050565b60005b83811015611c54578082015181840152602081019050611c39565b60008484015250505050565b6000601f19601f8301169050919050565b6000611c7c82611c1a565b611c868185611c25565b9350611c96818560208601611c36565b611c9f81611c60565b840191505092915050565b6000611cb68383611c71565b905092915050565b6000602082019050919050565b6000611cd682611bee565b611ce08185611bf9565b935083602082028501611cf285611c0a565b8060005b85811015611d2e5784840389528151611d0f8582611caa565b9450611d1a83611cbe565b925060208a01995050600181019050611cf6565b50829750879550505050505092915050565b60006020820190508181036000830152611d5a8184611ccb565b905092915050565b600080fd5b600080fd5b7f4e487b7100000000000000000000000000000000000000000000000000000000600052604160045260246000fd5b611da482611c60565b810181811067ffffffffffffffff82111715611dc357611dc2611d6c565b5b80604052505050565b6000611dd6611b4f565b9050611de28282611d9b565b919050565b600067ffffffffffffffff821115611e0257611e01611d6c565b5b611e0b82611c60565b9050602081019050919050565b82818337600083830152505050565b6000611e3a611e3584611de7565b611dcc565b905082815260208101848484011115611e5657611e55611d67565b5b611e61848285611e18565b509392505050565b600082601f830112611e7e57611e7d611d62565b5b8135611e8e848260208601611e27565b91505092915050565b600060208284031215611ead57611eac611b59565b5b600082013567ffffffffffffffff811115611ecb57611eca611b5e565b5b611ed784828501611e69565b91505092915050565b611ee981611b83565b82525050565b6000602082019050611f046000830184611ee0565b92915050565b6000611f1582611c1a565b611f1f8185611ad2565b9350611f2f818560208601611c36565b611f3881611c60565b840191505092915050565b60006020820190508181036000830152611f5d8184611f0a565b905092915050565b60008115159050919050565b611f7a81611f65565b82525050565b6000602082019050611f956000830184611f71565b92915050565b6000819050919050565b611fae81611f9b565b82525050565b6000602082019050611fc96000830184611fa5565b92915050565b600060ff82169050919050565b611fe581611fcf565b8114611ff057600080fd5b50565b60008135905061200281611fdc565b92915050565b60008060008060008060c0878903121561202557612024611b59565b5b600087013567ffffffffffffffff81111561204357612042611b5e565b5b61204f89828a01611e69565b965050602061206089828a01611bac565b955050604061207189828a01611bac565b945050606087013567ffffffffffffffff81111561209257612091611b5e565b5b61209e89828a01611e69565b93505060806120af89828a01611ff3565b92505060a087013567ffffffffffffffff8111156120d0576120cf611b5e565b5b6120dc89828a01611e69565b9150509295509295509295565b60008060408385031215612100576120ff611b59565b5b600083013567ffffffffffffffff81111561211e5761211d611b5e565b5b61212a85828601611e69565b925050602061213b85828601611bac565b9150509250929050565b61214e81611b83565b82525050565b61215d81611fcf565b82525050565b61216c81611f65565b82525050565b61217b81611f9b565b82525050565b600061010083016000830151848203600086015261219f8282611c71565b91505060208301516121b46020860182612145565b5060408301516121c76040860182612145565b50606083015184820360608601526121df8282611c71565b91505060808301516121f46080860182612154565b5060a083015184820360a086015261220c8282611c71565b91505060c083015161222160c0860182612163565b5060e083015161223460e0860182612172565b508091505092915050565b600060208201905081810360008301526122598184612181565b905092915050565b600080600080600060a0868803121561227d5761227c611b59565b5b600086013567ffffffffffffffff81111561229b5761229a611b5e565b5b6122a788828901611e69565b95505060206122b888828901611bac565b945050604086013567ffffffffffffffff8111156122d9576122d8611b5e565b5b6122e588828901611e69565b93505060606122f688828901611ff3565b925050608086013567ffffffffffffffff81111561231757612316611b5e565b5b61232388828901611e69565b9150509295509295909350565b7f4e487b7100000000000000000000000000000000000000000000000000000000600052602260045260246000fd5b6000600282049050600182168061237757607f821691505b60208210810361238a57612389612330565b5b50919050565b600081905092915050565b60006123a682611c1a565b6123b08185612390565b93506123c0818560208601611c36565b80840191505092915050565b60006123d8828461239b565b915081905092915050565b7f44657669636552656769737472793a204e616d652063616e6e6f74206265206560008201527f6d70747900000000000000000000000000000000000000000000000000000000602082015250565b600061243f602483611ad2565b915061244a826123e3565b604082019050919050565b6000602082019050818103600083015261246e81612432565b9050919050565b7f44657669636552656769737472793a204e616d6520746f6f206c6f6e6720286d60008201527f6178203530206368617273290000000000000000000000000000000000000000602082015250565b60006124d1602c83611ad2565b91506124dc82612475565b604082019050919050565b60006020820190508181036000830152612500816124c4565b9050919050565b60008190508160005260206000209050919050565b60006020601f8301049050919050565b600082821b905092915050565b6000600883026125697fffffffffffffffffffffffffffffffffffffffffffffffffffffffffffffffff8261252c565b612573868361252c565b95508019841693508086168417925050509392505050565b6000819050919050565b60006125b06125ab6125a684611f9b565b61258b565b611f9b565b9050919050565b6000819050919050565b6125ca83612595565b6125de6125d6826125b7565b848454612539565b825550505050565b600090565b6125f36125e6565b6125fe8184846125c1565b505050565b5b81811015612622576126176000826125eb565b600181019050612604565b5050565b601f8211156126675761263881612507565b6126418461251c565b81016020851015612650578190505b61266461265c8561251c565b830182612603565b50505b505050565b600082821c905092915050565b600061268a6000198460080261266c565b1980831691505092915050565b60006126a38383612679565b9150826002028217905092915050565b6126bc82611c1a565b67ffffffffffffffff8111156126d5576126d4611d6c565b5b6126df825461235f565b6126ea828285612626565b600060209050601f83116001811461271d576000841561270b578287015190505b6127158582612697565b86555061277d565b601f19841661272b86612507565b60005b828110156127535784890151825560018201915060208501945060208101905061272e565b86831015612770578489015161276c601f891682612679565b8355505b6001600288020188555050505b505050505050565b6000604082019050818103600083015261279f8185611f0a565b90506127ae6020830184611fa5565b9392505050565b7f44657669636552656769737472793a20446576696365206e6f7420726567697360008201527f7465726564000000000000000000000000000000000000000000000000000000602082015250565b6000612811602583611ad2565b915061281c826127b5565b604082019050919050565b6000602082019050818103600083015261284081612804565b9050919050565b7f44657669636552656769737472793a204e6f7420617574686f72697a65640000600082015250565b600061287d601e83611ad2565b915061288882612847565b602082019050919050565b600060208201905081810360008301526128ac81612870565b9050919050565b7f44657669636552656769737472793a204f6e6c792070617469656e742063616e60008201527f20706572666f726d207468697320616374696f6e000000000000000000000000602082015250565b600061290f603483611ad2565b915061291a826128b3565b604082019050919050565b6000602082019050818103600083015261293e81612902565b9050919050565b7f44657669636552656769737472793a20496e76616c696420677561726469616e60008201527f2061646472657373000000000000000000000000000000000000000000000000602082015250565b60006129a1602883611ad2565b91506129ac82612945565b604082019050919050565b600060208201905081810360008301526129d081612994565b9050919050565b60006060820190506129ec6000830186611ee0565b6129f96020830185611ee0565b612a066040830184611fa5565b949350505050565b7f44657669636552656769737472793a2044657669636520616c7265616479207260008201527f6567697374657265640000000000000000000000000000000000000000000000602082015250565b6000612a6a602983611ad2565b9150612a7582612a0e565b604082019050919050565b60006020820190508181036000830152612a9981612a5d565b9050919050565b7f44657669636552656769737472793a20496e76616c69642070617469656e742060008201527f6164647265737300000000000000000000000000000000000000000000000000602082015250565b6000612afc602783611ad2565b9150612b0782612aa0565b604082019050919050565b60006020820190508181036000830152612b2b81612aef565b9050919050565b7f44657669636552656769737472793a2044657669636520494420746f6f20736860008201527f6f727420286d696e203820636861727329000000000000000000000000000000602082015250565b6000612b8e603183611ad2565b9150612b9982612b32565b604082019050919050565b60006020820190508181036000830152612bbd81612b81565b9050919050565b7f4e487b7100000000000000000000000000000000000000000000000000000000600052601160045260246000fd5b6000612bfe82611f9b565b91507fffffffffffffffffffffffffffffffffffffffffffffffffffffffffffffffff8203612c3057612c2f612bc4565b5b60018201905091905056fea2646970667358221220d20398472cbfa39a57234f9521983c0f14b7a7ac163d6b4189e238a5d2d2197064736f6c63430008140033",
  "linkReferences": {},
  "deployedLinkReferences": {}
}