{
  "_format": "hh-sol-artifact-1",
  "contractName": "PatientMonitor",
  "sourceName": "contracts/PatientMonitor.sol",
  "abi": [
    {
      "inputs": [],
      "stateMutability": "nonpayable",
      "type": "constructor"
    },
    {
      "anonymous": false,
      "inputs": [
        {
          "indexed": false,
          "internalType": "address",
          "name": "deviceRegistry",
          "type": "address"
        },
        {
          "indexed": false,
          "internalType": "address",
          "name": "eventLogger",
          "type": "address"
        },
        {
          "indexed": false,
          "internalType": "uint256",
          "name": "timestamp",
          "type": "uint256"
        }
      ],
      "name": "ContractsDeployed",
      "type": "event"
    },
    {
      "anonymous": false,
      "inputs": [
        {
          "indexed": true,
          "internalType": "address",
          "name": "previousOwner",
          "type": "address"
        },
        {
          "indexed": true,
          "internalType": "address",
          "name": "newOwner",
          "type": "address"
        },
        {
          "indexed": false,
          "internalType": "uint256",
          "name": "timestamp",
          "type": "uint256"
        }
      ],
      "name": "OwnershipTransferred",
      "type": "event"
    },
    {
      "inputs": [
        {
          "internalType": "string",
          "name": "deviceId",
          "type": "string"
        },
        {
          "internalType": "address",
          "name": "newGuardian",
          "type": "address"
        }
      ],
      "name": "changeGuardian",
      "outputs": [],
      "stateMutability": "nonpayable",
      "type": "function"
    },
    {
      "inputs": [
        {
          "internalType": "string",
          "name": "deviceId",
          "type": "string"
        }
      ],
      "name": "deactivateDevice",
      "outputs": [],
      "stateMutability": "nonpayable",
      "type": "function"
    },
    {
      "inputs": [],
      "name": "deviceRegistry",
      "outputs": [
        {
          "internalType": "contract DeviceRegistry",
          "name": "",
          "type": "address"
        }
      ],
      "stateMutability": "view",
      "type": "function"
    },
    {
      "inputs": [],
      "name": "eventLogger",
      "outputs": [
        {
          "internalType": "contract EventLogger",
          "name": "",
          "type": "address"
        }
      ],
      "stateMutability": "view",
      "type": "function"
    },
    {
      "inputs": [
        {
          "internalType": "uint256",
          "name": "offset",
          "type": "uint256"
        },
        {
          "internalType": "uint256",
          "name": "limit",
          "type": "uint256"
        }
      ],
      "name": "getAllEvents",
      "outputs": [
        {
          "components": [
            {
              "internalType": "string",
              "name": "deviceId",
              "type": "string"
            },
            {
              "internalType": "bytes32",
              "name": "dataHash",
              "type": "bytes32"
            },
            {
              "internalType": "address",
              "name": "guardian",
              "type": "address"
            },
            {
              "internalType": "string",
              "name": "eventType",
              "type": "string"
            },
            {
              "internalType": "uint256",
              "name": "timestamp",
              "type": "uint256"
            }
          ],
          "internalType": "struct IEventLogger.EventLog[]",
          "name": "",
          "type": "tuple[]"
        }
      ],
      "stateMutability": "view",
      "type": "function"
    },
    {
      "inputs": [],
      "name": "getContractAddresses",
      "outputs": [
        {
          "internalType": "address",
          "name": "",
          "type": "address"
        },
        {
          "internalType": "address",
          "name": "",
          "type": "address"
        }
      ],
      "stateMutability": "view",
      "type": "function"
    },
    {
      "inputs": [
        {
          "internalType": "string",
          "name": "deviceId",
          "type": "string"
        }
      ],
      "name": "getDevice",
      "outputs": [
        {
          "components": [
            {
              "internalType": "string",
              "name": "deviceId",
              "type": "string"
            },
            {
              "internalType": "address",
              "name": "patient",
              "type": "address"
            },
            {
              "internalType": "address",
              "name": "guardian",
              "type": "address"
            },
            {
              "internalType": "string",
              "name": "fullName",
              "type": "string"
            },
            {
              "internalType": "uint8",
              "name": "age",
              "type": "uint8"
            },
            {
              "internalType": "string",
              "name": "homeLocation",
              "type": "string"
            },
            {
              "internalType": "bool",
              "name": "isActive",
              "type": "bool"
            },
            {
              "internalType": "uint256",
              "name": "registeredAt",
              "type": "uint256"
            }
          ],
          "internalType": "struct IDeviceRegistry.Device",
          "name": "",
          "type": "tuple"
        }
      ],
      "stateMutability": "view",
      "type": "function"
    },
    {
      "inputs": [
        {
          "internalType": "string",
          "name": "deviceId",
          "type": "string"
        }
      ],
      "name": "getDeviceEventCount",
      "outputs": [
        {
          "internalType": "uint256",
          "name": "",
          "type": "uint256"
        }
      ],
      "stateMutability": "view",
      "type": "function"
    },
    {
      "inputs": [
        {
          "internalType": "string",
          "name": "deviceId",
          "type": "string"
        },
        {
          "internalType": "uint256",
          "name": "limit",
          "type": "uint256"
        }
      ],
      "name": "getDeviceEvents",
      "outputs": [
        {
          "components": [
            {
              "internalType": "string",
              "name": "deviceId",
              "type": "string"
            },
            {
              "internalType": "bytes32",
              "name": "dataHash",
              "type": "bytes32"
            },
            {
              "internalType": "address",
              "name": "guardian",
              "type": "address"
            },
            {
              "internalType": "string",
              "name": "eventType",
              "type": "string"
            },
            {
              "internalType": "uint256",
              "name": "timestamp",
              "type": "uint256"
            }
          ],
          "internalType": "struct IEventLogger.EventLog[]",
          "name": "",
          "type": "tuple[]"
        }
      ],
      "stateMutability": "view",
      "type": "function"
    },
    {
      "inputs": [
        {
          "internalType": "uint256",
          "name": "index",
          "type": "uint256"
        }
      ],
      "name": "getEvent",
      "outputs": [
        {
          "components": [
            {
              "internalType": "string",
              "name": "deviceId",
              "type": "string"
            },
            {
              "internalType": "bytes32",
              "name": "dataHash",
              "type": "bytes32"
            },
            {
              "internalType": "address",
              "name": "guardian",
              "type": "address"
            },
            {
              "internalType": "string",
              "name": "eventType",
              "type": "string"
            },
            {
              "internalType": "uint256",
              "name": "timestamp",
              "type": "uint256"
            }
          ],
          "internalType": "struct IEventLogger.EventLog",
          "name": "",
          "type": "tuple"
        }
      ],
      "stateMutability": "view",
      "type": "function"
    },
    {
      "inputs": [
        {
          "internalType": "address",
          "name": "guardian",
          "type": "address"
        }
      ],
      "name": "getGuardianDevices",
      "outputs": [
        {
          "internalType": "string[]",
          "name": "",
          "type": "string[]"
        }
      ],
      "stateMutability": "view",
      "type": "function"
    },
    {
      "inputs": [
        {
          "internalType": "address",
          "name": "patient",
          "type": "address"
        }
      ],
      "name": "getPatientDevices",
      "outputs": [
        {
          "internalType": "string[]",
          "name": "",
          "type": "string[]"
        }
      ],
      "stateMutability": "view",
      "type": "function"
    },
    {
      "inputs": [],
      "name": "getTotalDevices",
      "outputs": [
        {
          "internalType": "uint256",
          "name": "",
          "type": "uint256"
        }
      ],
      "stateMutability": "view",
      "type": "function"
    },
    {
      "inputs": [],
      "name": "getTotalEvents",
      "outputs": [
        {
          "internalType": "uint256",
          "name": "",
          "type": "uint256"
        }
      ],
      "stateMutability": "view",
      "type": "function"
    },
    {
      "inputs": [
        {
          "internalType": "string",
          "name": "deviceId",
          "type": "string"
        }
      ],
      "name": "isDeviceActive",
      "outputs": [
        {
          "internalType": "bool",
          "name": "",
          "type": "bool"
        }
      ],
      "stateMutability": "view",
      "type": "function"
    },
    {
      "inputs": [
        {
          "internalType": "string",
          "name": "deviceId",
          "type": "string"
        }
      ],
      "name": "isDeviceRegistered",
      "outputs": [
        {
          "internalType": "bool",
          "name": "",
          "type": "bool"
        }
      ],
      "stateMutability": "view",
      "type": "function"
    },
    {
      "inputs": [
        {
          "internalType": "string",
          "name": "deviceId",
          "type": "string"
        },
        {
          "internalType": "bytes32",
          "name": "dataHash",
          "type": "bytes32"
        },
        {
          "internalType": "string",
          "name": "eventType",
          "type": "string"
        }
      ],
      "name": "logEvent",
      "outputs": [],
      "stateMutability": "nonpayable",
      "type": "function"
    },
    {
      "inputs": [],
      "name": "owner",
      "outputs": [
        {
          "internalType": "address",
          "name": "",
          "type": "address"
        }
      ],
      "stateMutability": "view",
      "type": "function"
    },
    {
      "inputs": [
        {
          "internalType": "string",
          "name": "deviceId",
          "type": "string"
        },
        {
          "internalType": "address",
          "name": "guardian",
          "type": "address"
        },
        {
          "internalType": "string",
          "name": "fullName",
          "type": "string"
        },
        {
          "internalType": "uint8",
          "name": "age",
          "type": "uint8"
        },
        {
          "internalType": "string",
          "name": "homeLocation",
          "type": "string"
        }
      ],
      "name": "registerDevice",
      "outputs": [],
      "stateMutability": "nonpayable",
      "type": "function"
    },
    {
      "inputs": [
        {
          "internalType": "address",
          "name": "newOwner",
          "type": "address"
        }
      ],
      "name": "transferOwnership",
      "outputs": [],
      "stateMutability": "nonpayable",
      "type": "function"
    },
    {
      "stateMutability": "payable",
      "type": "receive"
    }
  ],
  "bytecode": "0x60806040523480156200001157600080fd5b5033600260006101000a81548173ffffffffffffffffffffffffffffffffffffffff021916908373ffffffffffffffffffffffffffffffffffffffff160217905550604051620000619062000302565b604051809103906000f0801580156200007e573d6000803e3d6000fd5b506000806101000a81548173ffffffffffffffffffffffffffffffffffffffff021916908373ffffffffffffffffffffffffffffffffffffffff160217905550600073ffffffffffffffffffffffffffffffffffffffff1660008054906101000a900473ffffffffffffffffffffffffffffffffffffffff1673ffffffffffffffffffffffffffffffffffffffff160362000150576040517f08c379a00000000000000000000000000000000000000000000000000000000081526004016200014790620003a5565b60405180910390fd5b60008054906101000a900473ffffffffffffffffffffffffffffffffffffffff166040516200017f9062000310565b6200018b91906200040c565b604051809103906000f080158015620001a8573d6000803e3d6000fd5b50600160006101000a81548173ffffffffffffffffffffffffffffffffffffffff021916908373ffffffffffffffffffffffffffffffffffffffff160217905550600073ffffffffffffffffffffffffffffffffffffffff16600160009054906101000a900473ffffffffffffffffffffffffffffffffffffffff1673ffffffffffffffffffffffffffffffffffffffff16036200027d576040517f08c379a000000000000000000000000000000000000000000000000000000000815260040162000274906200049f565b60405180910390fd5b7f80dee901bbda9b184c96364252d87d89a4d3ea81668162c18bbb306b9cd44a2160008054906101000a900473ffffffffffffffffffffffffffffffffffffffff16600160009054906101000a900473ffffffffffffffffffffffffffffffffffffffff1642604051620002f493929190620004dc565b60405180910390a162000519565b6127648062002c4483390190565b61296780620053a883390190565b600082825260208201905092915050565b7f50617469656e744d6f6e69746f723a204465766963655265676973747279206460008201527f65706c6f796d656e74206661696c656400000000000000000000000000000000602082015250565b60006200038d6030836200031e565b91506200039a826200032f565b604082019050919050565b60006020820190508181036000830152620003c0816200037e565b9050919050565b600073ffffffffffffffffffffffffffffffffffffffff82169050919050565b6000620003f482620003c7565b9050919050565b6200040681620003e7565b82525050565b6000602082019050620004236000830184620003fb565b92915050565b7f50617469656e744d6f6e69746f723a204576656e744c6f67676572206465706c60008201527f6f796d656e74206661696c656400000000000000000000000000000000000000602082015250565b600062000487602d836200031e565b9150620004948262000429565b604082019050919050565b60006020820190508181036000830152620004ba8162000478565b9050919050565b6000819050919050565b620004d681620004c1565b82525050565b6000606082019050620004f36000830186620003fb565b620005026020830185620003fb565b620005116040830184620004cb565b949350505050565b61271b80620005296000396000f3fe6080604052600436106101225760003560e01c806370094067116100a0578063b71a034611610064578063b71a034614610479578063d3548246146104b6578063dc61d161146104df578063f2fde38b1461050a578063fb2c6f221461053357610162565b806370094067146103935780638da5cb5b146103bc578063953874d2146103e7578063aa7f79e714610413578063b0337fe71461045057610162565b80635cd10dc1116100e75780635cd10dc1146102865780635efb870a146102c357806361606940146102ee57806368ba4eaf146103195780636d1884e01461035657610162565b8062dec0e41461016757806329991184146101a45780633209d3c1146101cf5780634ace288e1461020c578063533615021461024957610162565b36610162576040517f08c379a00000000000000000000000000000000000000000000000000000000081526004016101599061127a565b60405180910390fd5b600080fd5b34801561017357600080fd5b5061018e6004803603810190610189919061130c565b61055c565b60405161019b919061148b565b60405180910390f35b3480156101b057600080fd5b506101b9610603565b6040516101c6919061150c565b60405180910390f35b3480156101db57600080fd5b506101f660048036038101906101f1919061130c565b610629565b604051610203919061148b565b60405180910390f35b34801561021857600080fd5b50610233600480360381019061022e9190611692565b6106d1565b6040516102409190611864565b60405180910390f35b34801561025557600080fd5b50610270600480360381019061026b9190611886565b61077e565b60405161027d91906118de565b60405180910390f35b34801561029257600080fd5b506102ad60048036038101906102a89190611886565b610823565b6040516102ba9190611914565b60405180910390f35b3480156102cf57600080fd5b506102d86108c7565b6040516102e59190611950565b60405180910390f35b3480156102fa57600080fd5b506103036108eb565b60405161031091906118de565b60405180910390f35b34801561032557600080fd5b50610340600480360381019061033b9190611886565b610983565b60405161034d9190611914565b60405180910390f35b34801561036257600080fd5b5061037d6004803603810190610378919061196b565b610a27565b60405161038a9190611a15565b60405180910390f35b34801561039f57600080fd5b506103ba60048036038101906103b59190611886565b610ad7565b005b3480156103c857600080fd5b506103d1610b65565b6040516103de9190611a46565b60405180910390f35b3480156103f357600080fd5b506103fc610b8b565b60405161040a929190611a61565b60405180910390f35b34801561041f57600080fd5b5061043a60048036038101906104359190611a8a565b610bda565b6040516104479190611864565b60405180910390f35b34801561045c57600080fd5b5061047760048036038101906104729190611aca565b610c87565b005b34801561048557600080fd5b506104a0600480360381019061049b9190611886565b610d18565b6040516104ad9190611c0f565b60405180910390f35b3480156104c257600080fd5b506104dd60048036038101906104d89190611c5d565b610dc6565b005b3480156104eb57600080fd5b506104f4610e5c565b60405161050191906118de565b60405180910390f35b34801561051657600080fd5b50610531600480360381019061052c919061130c565b610ef3565b005b34801561053f57600080fd5b5061055a60048036038101906105559190611d14565b6110c3565b005b606060008054906101000a900473ffffffffffffffffffffffffffffffffffffffff1673ffffffffffffffffffffffffffffffffffffffff1662dec0e4836040518263ffffffff1660e01b81526004016105b69190611a46565b600060405180830381865afa1580156105d3573d6000803e3d6000fd5b505050506040513d6000823e3d601f19601f820116820180604052508101906105fc9190611f39565b9050919050565b600160009054906101000a900473ffffffffffffffffffffffffffffffffffffffff1681565b606060008054906101000a900473ffffffffffffffffffffffffffffffffffffffff1673ffffffffffffffffffffffffffffffffffffffff16633209d3c1836040518263ffffffff1660e01b81526004016106849190611a46565b600060405180830381865afa1580156106a1573d6000803e3d6000fd5b505050506040513d6000823e3d601f19601f820116820180604052508101906106ca9190611f39565b9050919050565b6060600160009054906101000a900473ffffffffffffffffffffffffffffffffffffffff1673ffffffffffffffffffffffffffffffffffffffff16634ace288e84846040518363ffffffff1660e01b8152600401610730929190611fbb565b600060405180830381865afa15801561074d573d6000803e3d6000fd5b505050506040513d6000823e3d601f19601f8201168201806040525081019061077691906121d9565b905092915050565b6000600160009054906101000a900473ffffffffffffffffffffffffffffffffffffffff1673ffffffffffffffffffffffffffffffffffffffff166353361502836040518263ffffffff1660e01b81526004016107db9190612222565b602060405180830381865afa1580156107f8573d6000803e3d6000fd5b505050506040513d601f19601f8201168201806040525081019061081c9190612244565b9050919050565b60008060009054906101000a900473ffffffffffffffffffffffffffffffffffffffff1673ffffffffffffffffffffffffffffffffffffffff16635cd10dc1836040518263ffffffff1660e01b815260040161087f9190612222565b602060405180830381865afa15801561089c573d6000803e3d6000fd5b505050506040513d601f19601f820116820180604052508101906108c0919061229d565b9050919050565b60008054906101000a900473ffffffffffffffffffffffffffffffffffffffff1681565b6000600160009054906101000a900473ffffffffffffffffffffffffffffffffffffffff1673ffffffffffffffffffffffffffffffffffffffff1663ba8706866040518163ffffffff1660e01b8152600401602060405180830381865afa15801561095a573d6000803e3d6000fd5b505050506040513d601f19601f8201168201806040525081019061097e9190612244565b905090565b60008060009054906101000a900473ffffffffffffffffffffffffffffffffffffffff1673ffffffffffffffffffffffffffffffffffffffff166368ba4eaf836040518263ffffffff1660e01b81526004016109df9190612222565b602060405180830381865afa1580156109fc573d6000803e3d6000fd5b505050506040513d601f19601f82011682018060405250810190610a20919061229d565b9050919050565b610a2f61115f565b600160009054906101000a900473ffffffffffffffffffffffffffffffffffffffff1673ffffffffffffffffffffffffffffffffffffffff16636d1884e0836040518263ffffffff1660e01b8152600401610a8a91906118de565b600060405180830381865afa158015610aa7573d6000803e3d6000fd5b505050506040513d6000823e3d601f19601f82011682018060405250810190610ad091906122ca565b9050919050565b60008054906101000a900473ffffffffffffffffffffffffffffffffffffffff1673ffffffffffffffffffffffffffffffffffffffff166370094067826040518263ffffffff1660e01b8152600401610b309190612222565b600060405180830381600087803b158015610b4a57600080fd5b505af1158015610b5e573d6000803e3d6000fd5b5050505050565b600260009054906101000a900473ffffffffffffffffffffffffffffffffffffffff1681565b60008060008054906101000a900473ffffffffffffffffffffffffffffffffffffffff16600160009054906101000a900473ffffffffffffffffffffffffffffffffffffffff16915091509091565b6060600160009054906101000a900473ffffffffffffffffffffffffffffffffffffffff1673ffffffffffffffffffffffffffffffffffffffff1663aa7f79e784846040518363ffffffff1660e01b8152600401610c39929190612313565b600060405180830381865afa158015610c56573d6000803e3d6000fd5b505050506040513d6000823e3d601f19601f82011682018060405250810190610c7f91906121d9565b905092915050565b60008054906101000a900473ffffffffffffffffffffffffffffffffffffffff1673ffffffffffffffffffffffffffffffffffffffff1663b0337fe783836040518363ffffffff1660e01b8152600401610ce292919061233c565b600060405180830381600087803b158015610cfc57600080fd5b505af1158015610d10573d6000803e3d6000fd5b505050505050565b610d206111a7565b60008054906101000a900473ffffffffffffffffffffffffffffffffffffffff1673ffffffffffffffffffffffffffffffffffffffff1663b71a0346836040518263ffffffff1660e01b8152600401610d799190612222565b600060405180830381865afa158015610d96573d6000803e3d6000fd5b505050506040513d6000823e3d601f19601f82011682018060405250810190610dbf919061249f565b9050919050565b600160009054906101000a900473ffffffffffffffffffffffffffffffffffffffff1673ffffffffffffffffffffffffffffffffffffffff1663d35482468484846040518463ffffffff1660e01b8152600401610e25939291906124f7565b600060405180830381600087803b158015610e3f57600080fd5b505af1158015610e53573d6000803e3d6000fd5b50505050505050565b60008060009054906101000a900473ffffffffffffffffffffffffffffffffffffffff1673ffffffffffffffffffffffffffffffffffffffff16636121898e6040518163ffffffff1660e01b8152600401602060405180830381865afa158015610eca573d6000803e3d6000fd5b505050506040513d601f19601f82011682018060405250810190610eee9190612244565b905090565b600260009054906101000a900473ffffffffffffffffffffffffffffffffffffffff1673ffffffffffffffffffffffffffffffffffffffff163373ffffffffffffffffffffffffffffffffffffffff1614610f83576040517f08c379a0000000000000000000000000000000000000000000000000000000008152600401610f7a906125ae565b60405180910390fd5b600073ffffffffffffffffffffffffffffffffffffffff168173ffffffffffffffffffffffffffffffffffffffff1603610ff2576040517f08c379a0000000000000000000000000000000000000000000000000000000008152600401610fe990612640565b60405180910390fd5b6000600260009054906101000a900473ffffffffffffffffffffffffffffffffffffffff16905081600260006101000a81548173ffffffffffffffffffffffffffffffffffffffff021916908373ffffffffffffffffffffffffffffffffffffffff1602179055508173ffffffffffffffffffffffffffffffffffffffff168173ffffffffffffffffffffffffffffffffffffffff167fc13a1166d81cd3b0b352a367aebab95f3a6f6bc695fdab8e9a9d335239c3861b426040516110b791906118de565b60405180910390a35050565b60008054906101000a900473ffffffffffffffffffffffffffffffffffffffff1673ffffffffffffffffffffffffffffffffffffffff166375d5a1748633878787876040518763ffffffff1660e01b81526004016111269695949392919061266f565b600060405180830381600087803b15801561114057600080fd5b505af1158015611154573d6000803e3d6000fd5b505050505050505050565b6040518060a001604052806060815260200160008019168152602001600073ffffffffffffffffffffffffffffffffffffffff16815260200160608152602001600081525090565b60405180610100016040528060608152602001600073ffffffffffffffffffffffffffffffffffffffff168152602001600073ffffffffffffffffffffffffffffffffffffffff16815260200160608152602001600060ff16815260200160608152602001600015158152602001600081525090565b600082825260208201905092915050565b7f50617469656e744d6f6e69746f723a20455448206e6f74206163636570746564600082015250565b600061126460208361121d565b915061126f8261122e565b602082019050919050565b6000602082019050818103600083015261129381611257565b9050919050565b6000604051905090565b600080fd5b600080fd5b600073ffffffffffffffffffffffffffffffffffffffff82169050919050565b60006112d9826112ae565b9050919050565b6112e9816112ce565b81146112f457600080fd5b50565b600081359050611306816112e0565b92915050565b600060208284031215611322576113216112a4565b5b6000611330848285016112f7565b91505092915050565b600081519050919050565b600082825260208201905092915050565b6000819050602082019050919050565b600081519050919050565b600082825260208201905092915050565b60005b8381101561139f578082015181840152602081019050611384565b60008484015250505050565b6000601f19601f8301169050919050565b60006113c782611365565b6113d18185611370565b93506113e1818560208601611381565b6113ea816113ab565b840191505092915050565b600061140183836113bc565b905092915050565b6000602082019050919050565b600061142182611339565b61142b8185611344565b93508360208202850161143d85611355565b8060005b85811015611479578484038952815161145a85826113f5565b945061146583611409565b925060208a01995050600181019050611441565b50829750879550505050505092915050565b600060208201905081810360008301526114a58184611416565b905092915050565b6000819050919050565b60006114d26114cd6114c8846112ae565b6114ad565b6112ae565b9050919050565b60006114e4826114b7565b9050919050565b60006114f6826114d9565b9050919050565b611506816114eb565b82525050565b600060208201905061152160008301846114fd565b92915050565b600080fd5b600080fd5b7f4e487b7100000000000000000000000000000000000000000000000000000000600052604160045260246000fd5b611569826113ab565b810181811067ffffffffffffffff8211171561158857611587611531565b5b80604052505050565b600061159b61129a565b90506115a78282611560565b919050565b600067ffffffffffffffff8211156115c7576115c6611531565b5b6115d0826113ab565b9050602081019050919050565b82818337600083830152505050565b60006115ff6115fa846115ac565b611591565b90508281526020810184848401111561161b5761161a61152c565b5b6116268482856115dd565b509392505050565b600082601f83011261164357611642611527565b5b81356116538482602086016115ec565b91505092915050565b6000819050919050565b61166f8161165c565b811461167a57600080fd5b50565b60008135905061168c81611666565b92915050565b600080604083850312156116a9576116a86112a4565b5b600083013567ffffffffffffffff8111156116c7576116c66112a9565b5b6116d38582860161162e565b92505060206116e48582860161167d565b9150509250929050565b600081519050919050565b600082825260208201905092915050565b6000819050602082019050919050565b6000819050919050565b61172d8161171a565b82525050565b61173c816112ce565b82525050565b61174b8161165c565b82525050565b600060a083016000830151848203600086015261176e82826113bc565b91505060208301516117836020860182611724565b5060408301516117966040860182611733565b50606083015184820360608601526117ae82826113bc565b91505060808301516117c36080860182611742565b508091505092915050565b60006117da8383611751565b905092915050565b6000602082019050919050565b60006117fa826116ee565b61180481856116f9565b9350836020820285016118168561170a565b8060005b85811015611852578484038952815161183385826117ce565b945061183e836117e2565b925060208a0199505060018101905061181a565b50829750879550505050505092915050565b6000602082019050818103600083015261187e81846117ef565b905092915050565b60006020828403121561189c5761189b6112a4565b5b600082013567ffffffffffffffff8111156118ba576118b96112a9565b5b6118c68482850161162e565b91505092915050565b6118d88161165c565b82525050565b60006020820190506118f360008301846118cf565b92915050565b60008115159050919050565b61190e816118f9565b82525050565b60006020820190506119296000830184611905565b92915050565b600061193a826114d9565b9050919050565b61194a8161192f565b82525050565b60006020820190506119656000830184611941565b92915050565b600060208284031215611981576119806112a4565b5b600061198f8482850161167d565b91505092915050565b600060a08301600083015184820360008601526119b582826113bc565b91505060208301516119ca6020860182611724565b5060408301516119dd6040860182611733565b50606083015184820360608601526119f582826113bc565b9150506080830151611a0a6080860182611742565b508091505092915050565b60006020820190508181036000830152611a2f8184611998565b905092915050565b611a40816112ce565b82525050565b6000602082019050611a5b6000830184611a37565b92915050565b6000604082019050611a766000830185611a37565b611a836020830184611a37565b9392505050565b60008060408385031215611aa157611aa06112a4565b5b6000611aaf8582860161167d565b9250506020611ac08582860161167d565b9150509250929050565b60008060408385031215611ae157611ae06112a4565b5b600083013567ffffffffffffffff811115611aff57611afe6112a9565b5b611b0b8582860161162e565b9250506020611b1c858286016112f7565b9150509250929050565b600060ff82169050919050565b611b3c81611b26565b82525050565b611b4b816118f9565b82525050565b6000610100830160008301518482036000860152611b6f82826113bc565b9150506020830151611b846020860182611733565b506040830151611b976040860182611733565b5060608301518482036060860152611baf82826113bc565b9150506080830151611bc46080860182611b33565b5060a083015184820360a0860152611bdc82826113bc565b91505060c0830151611bf160c0860182611b42565b5060e0830151611c0460e0860182611742565b508091505092915050565b60006020820190508181036000830152611c298184611b51565b905092915050565b611c3a8161171a565b8114611c4557600080fd5b50565b600081359050611c5781611c31565b92915050565b600080600060608486031215611c7657611c756112a4565b5b600084013567ffffffffffffffff811115611c9457611c936112a9565b5b611ca08682870161162e565b9350506020611cb186828701611c48565b925050604084013567ffffffffffffffff811115611cd257611cd16112a9565b5b611cde8682870161162e565b9150509250925092565b611cf181611b26565b8114611cfc57600080fd5b50565b600081359050611d0e81611ce8565b92915050565b600080600080600060a08688031215611d3057611d2f6112a4565b5b600086013567ffffffffffffffff811115611d4e57611d4d6112a9565b5b611d5a8882890161162e565b9550506020611d6b888289016112f7565b945050604086013567ffffffffffffffff811115611d8c57611d8b6112a9565b5b611d988882890161162e565b9350506060611da988828901611cff565b925050608086013567ffffffffffffffff811115611dca57611dc96112a9565b5b611dd68882890161162e565b9150509295509295909350565b600067ffffffffffffffff821115611dfe57611dfd611531565b5b602082029050602081019050919050565b600080fd5b6000611e27611e22846115ac565b611591565b905082815260208101848484011115611e4357611e4261152c565b5b611e4e848285611381565b509392505050565b600082601f830112611e6b57611e6a611527565b5b8151611e7b848260208601611e14565b91505092915050565b6000611e97611e9284611de3565b611591565b90508083825260208201905060208402830185811115611eba57611eb9611e0f565b5b835b81811015611f0157805167ffffffffffffffff811115611edf57611ede611527565b5b808601611eec8982611e56565b85526020850194505050602081019050611ebc565b5050509392505050565b600082601f830112611f2057611f1f611527565b5b8151611f30848260208601611e84565b91505092915050565b600060208284031215611f4f57611f4e6112a4565b5b600082015167ffffffffffffffff811115611f6d57611f6c6112a9565b5b611f7984828501611f0b565b91505092915050565b6000611f8d82611365565b611f97818561121d565b9350611fa7818560208601611381565b611fb0816113ab565b840191505092915050565b60006040820190508181036000830152611fd58185611f82565b9050611fe460208301846118cf565b9392505050565b600067ffffffffffffffff82111561200657612005611531565b5b602082029050602081019050919050565b600080fd5b600080fd5b60008151905061203081611c31565b92915050565b600081519050612045816112e0565b92915050565b60008151905061205a81611666565b92915050565b600060a0828403121561207657612075612017565b5b61208060a0611591565b9050600082015167ffffffffffffffff8111156120a05761209f61201c565b5b6120ac84828501611e56565b60008301525060206120c084828501612021565b60208301525060406120d484828501612036565b604083015250606082015167ffffffffffffffff8111156120f8576120f761201c565b5b61210484828501611e56565b60608301525060806121188482850161204b565b60808301525092915050565b600061213761213284611feb565b611591565b9050808382526020820190506020840283018581111561215a57612159611e0f565b5b835b818110156121a157805167ffffffffffffffff81111561217f5761217e611527565b5b80860161218c8982612060565b8552602085019450505060208101905061215c565b5050509392505050565b600082601f8301126121c0576121bf611527565b5b81516121d0848260208601612124565b91505092915050565b6000602082840312156121ef576121ee6112a4565b5b600082015167ffffffffffffffff81111561220d5761220c6112a9565b5b612219848285016121ab565b91505092915050565b6000602082019050818103600083015261223c8184611f82565b905092915050565b60006020828403121561225a576122596112a4565b5b60006122688482850161204b565b91505092915050565b61227a816118f9565b811461228557600080fd5b50565b60008151905061229781612271565b92915050565b6000602082840312156122b3576122b26112a4565b5b60006122c184828501612288565b91505092915050565b6000602082840312156122e0576122df6112a4565b5b600082015167ffffffffffffffff8111156122fe576122fd6112a9565b5b61230a84828501612060565b91505092915050565b600060408201905061232860008301856118cf565b61233560208301846118cf565b9392505050565b600060408201905081810360008301526123568185611f82565b90506123656020830184611a37565b9392505050565b60008151905061237b81611ce8565b92915050565b6000610100828403121561239857612397612017565b5b6123a3610100611591565b9050600082015167ffffffffffffffff8111156123c3576123c261201c565b5b6123cf84828501611e56565b60008301525060206123e384828501612036565b60208301525060406123f784828501612036565b604083015250606082015167ffffffffffffffff81111561241b5761241a61201c565b5b61242784828501611e56565b606083015250608061243b8482850161236c565b60808301525060a082015167ffffffffffffffff81111561245f5761245e61201c565b5b61246b84828501611e56565b60a08301525060c061247f84828501612288565b60c08301525060e06124938482850161204b565b60e08301525092915050565b6000602082840312156124b5576124b46112a4565b5b600082015167ffffffffffffffff8111156124d3576124d26112a9565b5b6124df84828501612381565b91505092915050565b6124f18161171a565b82525050565b600060608201905081810360008301526125118186611f82565b905061252060208301856124e8565b81810360408301526125328184611f82565b9050949350505050565b7f50617469656e744d6f6e69746f723a2043616c6c6572206973206e6f74206f7760008201527f6e65720000000000000000000000000000000000000000000000000000000000602082015250565b600061259860238361121d565b91506125a38261253c565b604082019050919050565b600060208201905081810360008301526125c78161258b565b9050919050565b7f50617469656e744d6f6e69746f723a20496e76616c6964206e6577206f776e6560008201527f7200000000000000000000000000000000000000000000000000000000000000602082015250565b600061262a60218361121d565b9150612635826125ce565b604082019050919050565b600060208201905081810360008301526126598161261d565b9050919050565b61266981611b26565b82525050565b600060c08201905081810360008301526126898189611f82565b90506126986020830188611a37565b6126a56040830187611a37565b81810360608301526126b78186611f82565b90506126c66080830185612660565b81810360a08301526126d88184611f82565b905097965050505050505056fea2646970667358221220dfd9dc28f72e2bc68761e46baa4c1d2b871bcb2b6ea7dfc79f408ac7b23066ad64736f6c63430008140033608060405234801561001057600080fd5b50612744806100206000396000f3fe6080604052600436106100aa5760003560e01c80637009406711610064578063700940671461024b57806375d5a17414610274578063b0337fe71461029d578063b71a0346146102c6578063e2ec6e4d14610303578063fb2c6f2214610340576100ea565b8062dec0e4146100ef5780633209d3c11461012c578063577d3ff6146101695780635cd10dc1146101a65780636121898e146101e357806368ba4eaf1461020e576100ea565b366100ea576040517f08c379a00000000000000000000000000000000000000000000000000000000081526004016100e1906117b1565b60405180910390fd5b600080fd5b3480156100fb57600080fd5b5061011660048036038101906101119190611843565b610369565b60405161012391906119c2565b60405180910390f35b34801561013857600080fd5b50610153600480360381019061014e9190611843565b610481565b60405161016091906119c2565b60405180910390f35b34801561017557600080fd5b50610190600480360381019061018b9190611b19565b610599565b60405161019d9190611b71565b60405180910390f35b3480156101b257600080fd5b506101cd60048036038101906101c89190611b19565b6105e3565b6040516101da9190611ba7565b60405180910390f35b3480156101ef57600080fd5b506101f861061a565b6040516102059190611bdb565b60405180910390f35b34801561021a57600080fd5b5061023560048036038101906102309190611b19565b610620565b6040516102429190611ba7565b60405180910390f35b34801561025757600080fd5b50610272600480360381019061026d9190611b19565b61069a565b005b34801561028057600080fd5b5061029b60048036038101906102969190611c2f565b610b53565b005b3480156102a957600080fd5b506102c460048036038101906102bf9190611d10565b610b69565b005b3480156102d257600080fd5b506102ed60048036038101906102e89190611b19565b610ea8565b6040516102fa9190611e66565b60405180910390f35b34801561030f57600080fd5b5061032a60048036038101906103259190611b19565b611185565b6040516103379190611b71565b60405180910390f35b34801561034c57600080fd5b5061036760048036038101906103629190611e88565b6111cf565b005b6060600160008373ffffffffffffffffffffffffffffffffffffffff1673ffffffffffffffffffffffffffffffffffffffff168152602001908152602001600020805480602002602001604051908101604052809291908181526020016000905b828210156104765783829060005260206000200180546103e990611f86565b80601f016020809104026020016040519081016040528092919081815260200182805461041590611f86565b80156104625780601f1061043757610100808354040283529160200191610462565b820191906000526020600020905b81548152906001019060200180831161044557829003601f168201915b5050505050815260200190600101906103ca565b505050509050919050565b6060600260008373ffffffffffffffffffffffffffffffffffffffff1673ffffffffffffffffffffffffffffffffffffffff168152602001908152602001600020805480602002602001604051908101604052809291908181526020016000905b8282101561058e57838290600052602060002001805461050190611f86565b80601f016020809104026020016040519081016040528092919081815260200182805461052d90611f86565b801561057a5780601f1061054f5761010080835404028352916020019161057a565b820191906000526020600020905b81548152906001019060200180831161055d57829003601f168201915b5050505050815260200190600101906104e2565b505050509050919050565b600080826040516105aa9190611ff3565b908152602001604051809103902060020160009054906101000a900473ffffffffffffffffffffffffffffffffffffffff169050919050565b600080826040516105f49190611ff3565b908152602001604051809103902060060160009054906101000a900460ff169050919050565b60035481565b60008073ffffffffffffffffffffffffffffffffffffffff166000836040516106499190611ff3565b908152602001604051809103902060010160009054906101000a900473ffffffffffffffffffffffffffffffffffffffff1673ffffffffffffffffffffffffffffffffffffffff1614159050919050565b80600073ffffffffffffffffffffffffffffffffffffffff166000826040516106c39190611ff3565b908152602001604051809103902060010160009054906101000a900473ffffffffffffffffffffffffffffffffffffffff1673ffffffffffffffffffffffffffffffffffffffff160361074b576040517f08c379a00000000000000000000000000000000000000000000000000000000081526004016107429061207c565b60405180910390fd5b6000808360405161075c9190611ff3565b90815260200160405180910390206040518061010001604052908160008201805461078690611f86565b80601f01602080910402602001604051908101604052809291908181526020018280546107b290611f86565b80156107ff5780601f106107d4576101008083540402835291602001916107ff565b820191906000526020600020905b8154815290600101906020018083116107e257829003601f168201915b505050505081526020016001820160009054906101000a900473ffffffffffffffffffffffffffffffffffffffff1673ffffffffffffffffffffffffffffffffffffffff1673ffffffffffffffffffffffffffffffffffffffff1681526020016002820160009054906101000a900473ffffffffffffffffffffffffffffffffffffffff1673ffffffffffffffffffffffffffffffffffffffff1673ffffffffffffffffffffffffffffffffffffffff1681526020016003820180546108c490611f86565b80601f01602080910402602001604051908101604052809291908181526020018280546108f090611f86565b801561093d5780601f106109125761010080835404028352916020019161093d565b820191906000526020600020905b81548152906001019060200180831161092057829003601f168201915b505050505081526020016004820160009054906101000a900460ff1660ff1660ff16815260200160058201805461097390611f86565b80601f016020809104026020016040519081016040528092919081815260200182805461099f90611f86565b80156109ec5780601f106109c1576101008083540402835291602001916109ec565b820191906000526020600020905b8154815290600101906020018083116109cf57829003601f168201915b505050505081526020016006820160009054906101000a900460ff1615151515815260200160078201548152505090503373ffffffffffffffffffffffffffffffffffffffff16816020015173ffffffffffffffffffffffffffffffffffffffff161480610a8957503373ffffffffffffffffffffffffffffffffffffffff16816040015173ffffffffffffffffffffffffffffffffffffffff16145b610ac8576040517f08c379a0000000000000000000000000000000000000000000000000000000008152600401610abf906120e8565b60405180910390fd5b60008084604051610ad99190611ff3565b908152602001604051809103902060060160006101000a81548160ff02191690831515021790555082604051610b0f9190611ff3565b60405180910390207f44741574c6d9100819aa13fd0926c49ceed3605e75f0854d17de2516bc14e2c842604051610b469190611bdb565b60405180910390a2505050565b610b618686868686866111e4565b505050505050565b813373ffffffffffffffffffffffffffffffffffffffff16600082604051610b919190611ff3565b908152602001604051809103902060010160009054906101000a900473ffffffffffffffffffffffffffffffffffffffff1673ffffffffffffffffffffffffffffffffffffffff1614610c19576040517f08c379a0000000000000000000000000000000000000000000000000000000008152600401610c109061217a565b60405180910390fd5b82600073ffffffffffffffffffffffffffffffffffffffff16600082604051610c429190611ff3565b908152602001604051809103902060010160009054906101000a900473ffffffffffffffffffffffffffffffffffffffff1673ffffffffffffffffffffffffffffffffffffffff1603610cca576040517f08c379a0000000000000000000000000000000000000000000000000000000008152600401610cc19061207c565b60405180910390fd5b600073ffffffffffffffffffffffffffffffffffffffff168373ffffffffffffffffffffffffffffffffffffffff1603610d39576040517f08c379a0000000000000000000000000000000000000000000000000000000008152600401610d309061220c565b60405180910390fd5b60008085604051610d4a9190611ff3565b908152602001604051809103902060020160009054906101000a900473ffffffffffffffffffffffffffffffffffffffff16905083600086604051610d8f9190611ff3565b908152602001604051809103902060020160006101000a81548173ffffffffffffffffffffffffffffffffffffffff021916908373ffffffffffffffffffffffffffffffffffffffff160217905550600160008573ffffffffffffffffffffffffffffffffffffffff1673ffffffffffffffffffffffffffffffffffffffff16815260200190815260200160002085908060018154018082558091505060019003906000526020600020016000909190919091509081610e4f91906123d8565b5084604051610e5e9190611ff3565b60405180910390207f8cf963b51c748320b05a970a2676e6ccfec208283664afabc9ded8022d19cbe2828642604051610e99939291906124aa565b60405180910390a25050505050565b610eb06116de565b600082604051610ec09190611ff3565b908152602001604051809103902060405180610100016040529081600082018054610eea90611f86565b80601f0160208091040260200160405190810160405280929190818152602001828054610f1690611f86565b8015610f635780601f10610f3857610100808354040283529160200191610f63565b820191906000526020600020905b815481529060010190602001808311610f4657829003601f168201915b505050505081526020016001820160009054906101000a900473ffffffffffffffffffffffffffffffffffffffff1673ffffffffffffffffffffffffffffffffffffffff1673ffffffffffffffffffffffffffffffffffffffff1681526020016002820160009054906101000a900473ffffffffffffffffffffffffffffffffffffffff1673ffffffffffffffffffffffffffffffffffffffff1673ffffffffffffffffffffffffffffffffffffffff16815260200160038201805461102890611f86565b80601f016020809104026020016040519081016040528092919081815260200182805461105490611f86565b80156110a15780601f10611076576101008083540402835291602001916110a1565b820191906000526020600020905b81548152906001019060200180831161108457829003601f168201915b505050505081526020016004820160009054906101000a900460ff1660ff1660ff1681526020016005820180546110d790611f86565b80601f016020809104026020016040519081016040528092919081815260200182805461110390611f86565b80156111505780601f1061112557610100808354040283529160200191611150565b820191906000526020600020905b81548152906001019060200180831161113357829003601f168201915b505050505081526020016006820160009054906101000a900460ff161515151581526020016007820154815250509050919050565b600080826040516111969190611ff3565b908152602001604051809103902060010160009054906101000a900473ffffffffffffffffffffffffffffffffffffffff169050919050565b6111dd8533868686866111e4565b5050505050565b600073ffffffffffffffffffffffffffffffffffffffff1660008760405161120c9190611ff3565b908152602001604051809103902060010160009054906101000a900473ffffffffffffffffffffffffffffffffffffffff1673ffffffffffffffffffffffffffffffffffffffff1614611294576040517f08c379a000000000000000000000000000000000000000000000000000000000815260040161128b90612553565b60405180910390fd5b600073ffffffffffffffffffffffffffffffffffffffff168473ffffffffffffffffffffffffffffffffffffffff1603611303576040517f08c379a00000000000000000000000000000000000000000000000000000000081526004016112fa9061220c565b60405180910390fd5b600073ffffffffffffffffffffffffffffffffffffffff168573ffffffffffffffffffffffffffffffffffffffff1603611372576040517f08c379a0000000000000000000000000000000000000000000000000000000008152600401611369906125e5565b60405180910390fd5b6008865110156113b7576040517f08c379a00000000000000000000000000000000000000000000000000000000081526004016113ae90612677565b60405180910390fd5b6040518061010001604052808781526020018673ffffffffffffffffffffffffffffffffffffffff1681526020018573ffffffffffffffffffffffffffffffffffffffff1681526020018481526020018360ff168152602001828152602001600115158152602001428152506000876040516114339190611ff3565b9081526020016040518091039020600082015181600001908161145691906123d8565b5060208201518160010160006101000a81548173ffffffffffffffffffffffffffffffffffffffff021916908373ffffffffffffffffffffffffffffffffffffffff16021790555060408201518160020160006101000a81548173ffffffffffffffffffffffffffffffffffffffff021916908373ffffffffffffffffffffffffffffffffffffffff16021790555060608201518160030190816114fa91906123d8565b5060808201518160040160006101000a81548160ff021916908360ff16021790555060a082015181600501908161153191906123d8565b5060c08201518160060160006101000a81548160ff02191690831515021790555060e08201518160070155905050600160008573ffffffffffffffffffffffffffffffffffffffff1673ffffffffffffffffffffffffffffffffffffffff168152602001908152602001600020869080600181540180825580915050600190039060005260206000200160009091909190915090816115d091906123d8565b50600260008673ffffffffffffffffffffffffffffffffffffffff1673ffffffffffffffffffffffffffffffffffffffff1681526020019081526020016000208690806001815401808255809150506001900390600052602060002001600090919091909150908161164291906123d8565b5060036000815480929190611656906126c6565b91905055508373ffffffffffffffffffffffffffffffffffffffff168573ffffffffffffffffffffffffffffffffffffffff16876040516116979190611ff3565b60405180910390207ff3ac2d70bb40c5c557b819df1497dd19d865383d3821b4c26e5729f63cc96307426040516116ce9190611bdb565b60405180910390a4505050505050565b60405180610100016040528060608152602001600073ffffffffffffffffffffffffffffffffffffffff168152602001600073ffffffffffffffffffffffffffffffffffffffff16815260200160608152602001600060ff16815260200160608152602001600015158152602001600081525090565b600082825260208201905092915050565b7f44657669636552656769737472793a20455448206e6f74206163636570746564600082015250565b600061179b602083611754565b91506117a682611765565b602082019050919050565b600060208201905081810360008301526117ca8161178e565b9050919050565b6000604051905090565b600080fd5b600080fd5b600073ffffffffffffffffffffffffffffffffffffffff82169050919050565b6000611810826117e5565b9050919050565b61182081611805565b811461182b57600080fd5b50565b60008135905061183d81611817565b92915050565b600060208284031215611859576118586117db565b5b60006118678482850161182e565b91505092915050565b600081519050919050565b600082825260208201905092915050565b6000819050602082019050919050565b600081519050919050565b600082825260208201905092915050565b60005b838110156118d65780820151818401526020810190506118bb565b60008484015250505050565b6000601f19601f8301169050919050565b60006118fe8261189c565b61190881856118a7565b93506119188185602086016118b8565b611921816118e2565b840191505092915050565b600061193883836118f3565b905092915050565b6000602082019050919050565b600061195882611870565b611962818561187b565b9350836020820285016119748561188c565b8060005b858110156119b05784840389528151611991858261192c565b945061199c83611940565b925060208a01995050600181019050611978565b50829750879550505050505092915050565b600060208201905081810360008301526119dc818461194d565b905092915050565b600080fd5b600080fd5b7f4e487b7100000000000000000000000000000000000000000000000000000000600052604160045260246000fd5b611a26826118e2565b810181811067ffffffffffffffff82111715611a4557611a446119ee565b5b80604052505050565b6000611a586117d1565b9050611a648282611a1d565b919050565b600067ffffffffffffffff821115611a8457611a836119ee565b5b611a8d826118e2565b9050602081019050919050565b82818337600083830152505050565b6000611abc611ab784611a69565b611a4e565b905082815260208101848484011115611ad857611ad76119e9565b5b611ae3848285611a9a565b509392505050565b600082601f830112611b0057611aff6119e4565b5b8135611b10848260208601611aa9565b91505092915050565b600060208284031215611b2f57611b2e6117db565b5b600082013567ffffffffffffffff811115611b4d57611b4c6117e0565b5b611b5984828501611aeb565b91505092915050565b611b6b81611805565b82525050565b6000602082019050611b866000830184611b62565b92915050565b60008115159050919050565b611ba181611b8c565b82525050565b6000602082019050611bbc6000830184611b98565b92915050565b6000819050919050565b611bd581611bc2565b82525050565b6000602082019050611bf06000830184611bcc565b92915050565b600060ff82169050919050565b611c0c81611bf6565b8114611c1757600080fd5b50565b600081359050611c2981611c03565b92915050565b60008060008060008060c08789031215611c4c57611c4b6117db565b5b600087013567ffffffffffffffff811115611c6a57611c696117e0565b5b611c7689828a01611aeb565b9650506020611c8789828a0161182e565b9550506040611c9889828a0161182e565b945050606087013567ffffffffffffffff811115611cb957611cb86117e0565b5b611cc589828a01611aeb565b9350506080611cd689828a01611c1a565b92505060a087013567ffffffffffffffff811115611cf757611cf66117e0565b5b611d0389828a01611aeb565b9150509295509295509295565b60008060408385031215611d2757611d266117db565b5b600083013567ffffffffffffffff811115611d4557611d446117e0565b5b611d5185828601611aeb565b9250506020611d628582860161182e565b9150509250929050565b611d7581611805565b82525050565b611d8481611bf6565b82525050565b611d9381611b8c565b82525050565b611da281611bc2565b82525050565b6000610100830160008301518482036000860152611dc682826118f3565b9150506020830151611ddb6020860182611d6c565b506040830151611dee6040860182611d6c565b5060608301518482036060860152611e0682826118f3565b9150506080830151611e1b6080860182611d7b565b5060a083015184820360a0860152611e3382826118f3565b91505060c0830151611e4860c0860182611d8a565b5060e0830151611e5b60e0860182611d99565b508091505092915050565b60006020820190508181036000830152611e808184611da8565b905092915050565b600080600080600060a08688031215611ea457611ea36117db565b5b600086013567ffffffffffffffff811115611ec257611ec16117e0565b5b611ece88828901611aeb565b9550506020611edf8882890161182e565b945050604086013567ffffffffffffffff811115611f0057611eff6117e0565b5b611f0c88828901611aeb565b9350506060611f1d88828901611c1a565b925050608086013567ffffffffffffffff811115611f3e57611f3d6117e0565b5b611f4a88828901611aeb565b9150509295509295909350565b7f4e487b7100000000000000000000000000000000000000000000000000000000600052602260045260246000fd5b60006002820490506001821680611f9e57607f821691505b602082108103611fb157611fb0611f57565b5b50919050565b600081905092915050565b6000611fcd8261189c565b611fd78185611fb7565b9350611fe78185602086016118b8565b80840191505092915050565b6000611fff8284611fc2565b915081905092915050565b7f44657669636552656769737472793a20446576696365206e6f7420726567697360008201527f7465726564000000000000000000000000000000000000000000000000000000602082015250565b6000612066602583611754565b91506120718261200a565b604082019050919050565b6000602082019050818103600083015261209581612059565b9050919050565b7f44657669636552656769737472793a204e6f7420617574686f72697a65640000600082015250565b60006120d2601e83611754565b91506120dd8261209c565b602082019050919050565b60006020820190508181036000830152612101816120c5565b9050919050565b7f44657669636552656769737472793a204f6e6c792070617469656e742063616e60008201527f20706572666f726d207468697320616374696f6e000000000000000000000000602082015250565b6000612164603483611754565b915061216f82612108565b604082019050919050565b6000602082019050818103600083015261219381612157565b9050919050565b7f44657669636552656769737472793a20496e76616c696420677561726469616e60008201527f2061646472657373000000000000000000000000000000000000000000000000602082015250565b60006121f6602883611754565b91506122018261219a565b604082019050919050565b60006020820190508181036000830152612225816121e9565b9050919050565b60008190508160005260206000209050919050565b60006020601f8301049050919050565b600082821b905092915050565b60006008830261228e7fffffffffffffffffffffffffffffffffffffffffffffffffffffffffffffffff82612251565b6122988683612251565b95508019841693508086168417925050509392505050565b6000819050919050565b60006122d56122d06122cb84611bc2565b6122b0565b611bc2565b9050919050565b6000819050919050565b6122ef836122ba565b6123036122fb826122dc565b84845461225e565b825550505050565b600090565b61231861230b565b6123238184846122e6565b505050565b5b818110156123475761233c600082612310565b600181019050612329565b5050565b601f82111561238c5761235d8161222c565b61236684612241565b81016020851015612375578190505b61238961238185612241565b830182612328565b50505b505050565b600082821c905092915050565b60006123af60001984600802612391565b1980831691505092915050565b60006123c8838361239e565b9150826002028217905092915050565b6123e18261189c565b67ffffffffffffffff8111156123fa576123f96119ee565b5b6124048254611f86565b61240f82828561234b565b600060209050601f8311600181146124425760008415612430578287015190505b61243a85826123bc565b8655506124a2565b601f1984166124508661222c565b60005b8281101561247857848901518255600182019150602085019450602081019050612453565b868310156124955784890151612491601f89168261239e565b8355505b6001600288020188555050505b505050505050565b60006060820190506124bf6000830186611b62565b6124cc6020830185611b62565b6124d96040830184611bcc565b949350505050565b7f44657669636552656769737472793a2044657669636520616c7265616479207260008201527f6567697374657265640000000000000000000000000000000000000000000000602082015250565b600061253d602983611754565b9150612548826124e1565b604082019050919050565b6000602082019050818103600083015261256c81612530565b9050919050565b7f44657669636552656769737472793a20496e76616c69642070617469656e742060008201527f6164647265737300000000000000000000000000000000000000000000000000602082015250565b60006125cf602783611754565b91506125da82612573565b604082019050919050565b600060208201905081810360008301526125fe816125c2565b9050919050565b7f44657669636552656769737472793a2044657669636520494420746f6f20736860008201527f6f727420286d696e203820636861727329000000000000000000000000000000602082015250565b6000612661603183611754565b915061266c82612605565b604082019050919050565b6000602082019050818103600083015261269081612654565b9050919050565b7f4e487b7100000000000000000000000000000000000000000000000000000000600052601160045260246000fd5b60006126d182611bc2565b91507fffffffffffffffffffffffffffffffffffffffffffffffffffffffffffffffff820361270357612702612697565b5b60018201905091905056fea264697066735822122042396352326454fc3d3e2cacefb8a22c0c62eb1159c9dae385952e406d1acf6464736f6c6343000814003360806040523480156200001157600080fd5b50604051620029673803806200296783398181016040528101906200003791906200015b565b600073ffffffffffffffffffffffffffffffffffffffff168173ffffffffffffffffffffffffffffffffffffffff1603620000a9576040517f08c379a0000000000000000000000000000000000000000000000000000000008152600401620000a09062000214565b60405180910390fd5b80600260006101000a81548173ffffffffffffffffffffffffffffffffffffffff021916908373ffffffffffffffffffffffffffffffffffffffff1602179055505062000236565b600080fd5b600073ffffffffffffffffffffffffffffffffffffffff82169050919050565b60006200012382620000f6565b9050919050565b620001358162000116565b81146200014157600080fd5b50565b60008151905062000155816200012a565b92915050565b600060208284031215620001745762000173620000f1565b5b6000620001848482850162000144565b91505092915050565b600082825260208201905092915050565b7f4576656e744c6f676765723a20496e76616c696420726567697374727920616460008201527f6472657373000000000000000000000000000000000000000000000000000000602082015250565b6000620001fc6025836200018d565b915062000209826200019e565b604082019050919050565b600060208201905081810360008301526200022f81620001ed565b9050919050565b61272180620002466000396000f3fe60806040526004361061008a5760003560e01c8063810ef11a11610059578063810ef11a146101b1578063aa7f79e7146101ee578063ba8706861461022b578063d354824614610256578063d590786a1461027f576100ca565b80634ace288e146100cf578063533615021461010c5780635efb870a146101495780636d1884e014610174576100ca565b366100ca576040517f08c379a00000000000000000000000000000000000000000000000000000000081526004016100c19061135c565b60405180910390fd5b600080fd5b3480156100db57600080fd5b506100f660048036038101906100f1919061150c565b6102bc565b604051610103919061178f565b60405180910390f35b34801561011857600080fd5b50610133600480360381019061012e91906117b1565b610628565b6040516101409190611809565b60405180910390f35b34801561015557600080fd5b5061015e610653565b60405161016b9190611883565b60405180910390f35b34801561018057600080fd5b5061019b6004803603810190610196919061189e565b610679565b6040516101a89190611948565b60405180910390f35b3480156101bd57600080fd5b506101d860048036038101906101d391906117b1565b61088a565b6040516101e59190611a19565b60405180910390f35b3480156101fa57600080fd5b5061021560048036038101906102109190611a3b565b610900565b604051610222919061178f565b60405180910390f35b34801561023757600080fd5b50610240610c36565b60405161024d9190611809565b60405180910390f35b34801561026257600080fd5b5061027d60048036038101906102789190611aa7565b610c3c565b005b34801561028b57600080fd5b506102a660048036038101906102a19190611b32565b61123f565b6040516102b39190611b8d565b60405180910390f35b60606000821180156102cf575060648211155b61030e576040517f08c379a000000000000000000000000000000000000000000000000000000000815260040161030590611bf4565b60405180910390fd5b60006001846040516103209190611c50565b908152602001604051809103902080548060200260200160405190810160405280929190818152602001828054801561037857602002820191906000526020600020905b815481526020019060010190808311610364575b50505050509050600083825111610390578151610392565b835b905060008167ffffffffffffffff8111156103b0576103af6113ab565b5b6040519080825280602002602001820160405280156103e957816020015b6103d66112b7565b8152602001906001900390816103ce5790505b50905060005b8281101561061b5760008482600187516104099190611c96565b6104139190611c96565b8151811061042457610423611cca565b5b602002602001015190506000818154811061044257610441611cca565b5b90600052602060002090600502016040518060a001604052908160008201805461046b90611d28565b80601f016020809104026020016040519081016040528092919081815260200182805461049790611d28565b80156104e45780601f106104b9576101008083540402835291602001916104e4565b820191906000526020600020905b8154815290600101906020018083116104c757829003601f168201915b50505050508152602001600182015481526020016002820160009054906101000a900473ffffffffffffffffffffffffffffffffffffffff1673ffffffffffffffffffffffffffffffffffffffff1673ffffffffffffffffffffffffffffffffffffffff16815260200160038201805461055d90611d28565b80601f016020809104026020016040519081016040528092919081815260200182805461058990611d28565b80156105d65780601f106105ab576101008083540402835291602001916105d6565b820191906000526020600020905b8154815290600101906020018083116105b957829003601f168201915b505050505081526020016004820154815250508383815181106105fc576105fb611cca565b5b602002602001018190525050808061061390611d59565b9150506103ef565b5080935050505092915050565b600060018260405161063a9190611c50565b9081526020016040518091039020805490509050919050565b600260009054906101000a900473ffffffffffffffffffffffffffffffffffffffff1681565b6106816112b7565b60008054905082106106c8576040517f08c379a00000000000000000000000000000000000000000000000000000000081526004016106bf90611e13565b60405180910390fd5b600082815481106106dc576106db611cca565b5b90600052602060002090600502016040518060a001604052908160008201805461070590611d28565b80601f016020809104026020016040519081016040528092919081815260200182805461073190611d28565b801561077e5780601f106107535761010080835404028352916020019161077e565b820191906000526020600020905b81548152906001019060200180831161076157829003601f168201915b50505050508152602001600182015481526020016002820160009054906101000a900473ffffffffffffffffffffffffffffffffffffffff1673ffffffffffffffffffffffffffffffffffffffff1673ffffffffffffffffffffffffffffffffffffffff1681526020016003820180546107f790611d28565b80601f016020809104026020016040519081016040528092919081815260200182805461082390611d28565b80156108705780601f1061084557610100808354040283529160200191610870565b820191906000526020600020905b81548152906001019060200180831161085357829003601f168201915b505050505081526020016004820154815250509050919050565b606060018260405161089c9190611c50565b90815260200160405180910390208054806020026020016040519081016040528092919081815260200182805480156108f457602002820191906000526020600020905b8154815260200190600101908083116108e0575b50505050509050919050565b60606000805490508310610949576040517f08c379a000000000000000000000000000000000000000000000000000000000815260040161094090611ea5565b60405180910390fd5b60008211801561095a575060648211155b610999576040517f08c379a000000000000000000000000000000000000000000000000000000000815260040161099090611bf4565b60405180910390fd5b600082846109a79190611ec5565b90506000805490508111156109bf5760008054905090505b600084826109cd9190611c96565b905060008167ffffffffffffffff8111156109eb576109ea6113ab565b5b604051908082528060200260200182016040528015610a2457816020015b610a116112b7565b815260200190600190039081610a095790505b50905060005b82811015610c295760008188610a409190611ec5565b81548110610a5157610a50611cca565b5b90600052602060002090600502016040518060a0016040529081600082018054610a7a90611d28565b80601f0160208091040260200160405190810160405280929190818152602001828054610aa690611d28565b8015610af35780601f10610ac857610100808354040283529160200191610af3565b820191906000526020600020905b815481529060010190602001808311610ad657829003601f168201915b50505050508152602001600182015481526020016002820160009054906101000a900473ffffffffffffffffffffffffffffffffffffffff1673ffffffffffffffffffffffffffffffffffffffff1673ffffffffffffffffffffffffffffffffffffffff168152602001600382018054610b6c90611d28565b80601f0160208091040260200160405190810160405280929190818152602001828054610b9890611d28565b8015610be55780601f10610bba57610100808354040283529160200191610be5565b820191906000526020600020905b815481529060010190602001808311610bc857829003601f168201915b50505050508152602001600482015481525050828281518110610c0b57610c0a611cca565b5b60200260200101819052508080610c2190611d59565b915050610a2a565b5080935050505092915050565b60035481565b82600260009054906101000a900473ffffffffffffffffffffffffffffffffffffffff1673ffffffffffffffffffffffffffffffffffffffff166368ba4eaf826040518263ffffffff1660e01b8152600401610c989190611f32565b602060405180830381865afa158015610cb5573d6000803e3d6000fd5b505050506040513d601f19601f82011682018060405250810190610cd99190611f80565b610d18576040517f08c379a0000000000000000000000000000000000000000000000000000000008152600401610d0f9061201f565b60405180910390fd5b83600260009054906101000a900473ffffffffffffffffffffffffffffffffffffffff1673ffffffffffffffffffffffffffffffffffffffff16635cd10dc1826040518263ffffffff1660e01b8152600401610d749190611f32565b602060405180830381865afa158015610d91573d6000803e3d6000fd5b505050506040513d601f19601f82011682018060405250810190610db59190611f80565b610df4576040517f08c379a0000000000000000000000000000000000000000000000000000000008152600401610deb906120b1565b60405180910390fd5b6000600260009054906101000a900473ffffffffffffffffffffffffffffffffffffffff1673ffffffffffffffffffffffffffffffffffffffff1663b71a0346876040518263ffffffff1660e01b8152600401610e519190611f32565b600060405180830381865afa158015610e6e573d6000803e3d6000fd5b505050506040513d6000823e3d601f19601f82011682018060405250810190610e9791906122e3565b9050806020015173ffffffffffffffffffffffffffffffffffffffff163373ffffffffffffffffffffffffffffffffffffffff161480610f065750806040015173ffffffffffffffffffffffffffffffffffffffff163373ffffffffffffffffffffffffffffffffffffffff16145b610f45576040517f08c379a0000000000000000000000000000000000000000000000000000000008152600401610f3c9061239e565b60405180910390fd5b6000848051906020012090506040518060400160405280600681526020017f6e6f726d616c000000000000000000000000000000000000000000000000000081525080519060200120811480610fd657506040518060400160405280600581526020017f616c6572740000000000000000000000000000000000000000000000000000008152508051906020012081145b8061101c57506040518060400160405280600881526020017f637269746963616c0000000000000000000000000000000000000000000000008152508051906020012081145b61105b576040517f08c379a00000000000000000000000000000000000000000000000000000000081526004016110529061240a565b60405180910390fd5b60006040518060a00160405280898152602001888152602001846040015173ffffffffffffffffffffffffffffffffffffffff168152602001878152602001428152509050600081908060018154018082558091505060019003906000526020600020906005020160009091909190915060008201518160000190816110e191906125cc565b506020820151816001015560408201518160020160006101000a81548173ffffffffffffffffffffffffffffffffffffffff021916908373ffffffffffffffffffffffffffffffffffffffff160217905550606082015181600301908161114891906125cc565b50608082015181600401555050600060016000805490506111699190611c96565b905060018960405161117b9190611c50565b9081526020016040518091039020819080600181540180825580915050600190039060005260206000200160009091909190915055600360008154809291906111c390611d59565b9190505550836040015173ffffffffffffffffffffffffffffffffffffffff16896040516111f19190611c50565b60405180910390207f3826f73ae69b3a7d4560d320a6c29c90bd452990ac0c9c559e6587286830d59d8a8a4260405161122c939291906126ad565b60405180910390a3505050505050505050565b600080805490508310611287576040517f08c379a000000000000000000000000000000000000000000000000000000000815260040161127e90611e13565b60405180910390fd5b816000848154811061129c5761129b611cca565b5b90600052602060002090600502016001015414905092915050565b6040518060a001604052806060815260200160008019168152602001600073ffffffffffffffffffffffffffffffffffffffff16815260200160608152602001600081525090565b600082825260208201905092915050565b7f4576656e744c6f676765723a20455448206e6f74206163636570746564000000600082015250565b6000611346601d836112ff565b915061135182611310565b602082019050919050565b6000602082019050818103600083015261137581611339565b9050919050565b6000604051905090565b600080fd5b600080fd5b600080fd5b600080fd5b6000601f19601f8301169050919050565b7f4e487b7100000000000000000000000000000000000000000000000000000000600052604160045260246000fd5b6113e38261139a565b810181811067ffffffffffffffff82111715611402576114016113ab565b5b80604052505050565b600061141561137c565b905061142182826113da565b919050565b600067ffffffffffffffff821115611441576114406113ab565b5b61144a8261139a565b9050602081019050919050565b82818337600083830152505050565b600061147961147484611426565b61140b565b90508281526020810184848401111561149557611494611395565b5b6114a0848285611457565b509392505050565b600082601f8301126114bd576114bc611390565b5b81356114cd848260208601611466565b91505092915050565b6000819050919050565b6114e9816114d6565b81146114f457600080fd5b50565b600081359050611506816114e0565b92915050565b6000806040838503121561152357611522611386565b5b600083013567ffffffffffffffff8111156115415761154061138b565b5b61154d858286016114a8565b925050602061155e858286016114f7565b9150509250929050565b600081519050919050565b600082825260208201905092915050565b6000819050602082019050919050565b600081519050919050565b600082825260208201905092915050565b60005b838110156115ce5780820151818401526020810190506115b3565b60008484015250505050565b60006115e582611594565b6115ef818561159f565b93506115ff8185602086016115b0565b6116088161139a565b840191505092915050565b6000819050919050565b61162681611613565b82525050565b600073ffffffffffffffffffffffffffffffffffffffff82169050919050565b60006116578261162c565b9050919050565b6116678161164c565b82525050565b611676816114d6565b82525050565b600060a083016000830151848203600086015261169982826115da565b91505060208301516116ae602086018261161d565b5060408301516116c1604086018261165e565b50606083015184820360608601526116d982826115da565b91505060808301516116ee608086018261166d565b508091505092915050565b6000611705838361167c565b905092915050565b6000602082019050919050565b600061172582611568565b61172f8185611573565b93508360208202850161174185611584565b8060005b8581101561177d578484038952815161175e85826116f9565b94506117698361170d565b925060208a01995050600181019050611745565b50829750879550505050505092915050565b600060208201905081810360008301526117a9818461171a565b905092915050565b6000602082840312156117c7576117c6611386565b5b600082013567ffffffffffffffff8111156117e5576117e461138b565b5b6117f1848285016114a8565b91505092915050565b611803816114d6565b82525050565b600060208201905061181e60008301846117fa565b92915050565b6000819050919050565b600061184961184461183f8461162c565b611824565b61162c565b9050919050565b600061185b8261182e565b9050919050565b600061186d82611850565b9050919050565b61187d81611862565b82525050565b60006020820190506118986000830184611874565b92915050565b6000602082840312156118b4576118b3611386565b5b60006118c2848285016114f7565b91505092915050565b600060a08301600083015184820360008601526118e882826115da565b91505060208301516118fd602086018261161d565b506040830151611910604086018261165e565b506060830151848203606086015261192882826115da565b915050608083015161193d608086018261166d565b508091505092915050565b6000602082019050818103600083015261196281846118cb565b905092915050565b600081519050919050565b600082825260208201905092915050565b6000819050602082019050919050565b60006119a2838361166d565b60208301905092915050565b6000602082019050919050565b60006119c68261196a565b6119d08185611975565b93506119db83611986565b8060005b83811015611a0c5781516119f38882611996565b97506119fe836119ae565b9250506001810190506119df565b5085935050505092915050565b60006020820190508181036000830152611a3381846119bb565b905092915050565b60008060408385031215611a5257611a51611386565b5b6000611a60858286016114f7565b9250506020611a71858286016114f7565b9150509250929050565b611a8481611613565b8114611a8f57600080fd5b50565b600081359050611aa181611a7b565b92915050565b600080600060608486031215611ac057611abf611386565b5b600084013567ffffffffffffffff811115611ade57611add61138b565b5b611aea868287016114a8565b9350506020611afb86828701611a92565b925050604084013567ffffffffffffffff811115611b1c57611b1b61138b565b5b611b28868287016114a8565b9150509250925092565b60008060408385031215611b4957611b48611386565b5b6000611b57858286016114f7565b9250506020611b6885828601611a92565b9150509250929050565b60008115159050919050565b611b8781611b72565b82525050565b6000602082019050611ba26000830184611b7e565b92915050565b7f4576656e744c6f676765723a204c696d6974206d75737420626520312d313030600082015250565b6000611bde6020836112ff565b9150611be982611ba8565b602082019050919050565b60006020820190508181036000830152611c0d81611bd1565b9050919050565b600081905092915050565b6000611c2a82611594565b611c348185611c14565b9350611c448185602086016115b0565b80840191505092915050565b6000611c5c8284611c1f565b915081905092915050565b7f4e487b7100000000000000000000000000000000000000000000000000000000600052601160045260246000fd5b6000611ca1826114d6565b9150611cac836114d6565b9250828203905081811115611cc457611cc3611c67565b5b92915050565b7f4e487b7100000000000000000000000000000000000000000000000000000000600052603260045260246000fd5b7f4e487b7100000000000000000000000000000000000000000000000000000000600052602260045260246000fd5b60006002820490506001821680611d4057607f821691505b602082108103611d5357611d52611cf9565b5b50919050565b6000611d64826114d6565b91507fffffffffffffffffffffffffffffffffffffffffffffffffffffffffffffffff8203611d9657611d95611c67565b5b600182019050919050565b7f4576656e744c6f676765723a204576656e7420696e646578206f7574206f662060008201527f626f756e64730000000000000000000000000000000000000000000000000000602082015250565b6000611dfd6026836112ff565b9150611e0882611da1565b604082019050919050565b60006020820190508181036000830152611e2c81611df0565b9050919050565b7f4576656e744c6f676765723a204f6666736574206f7574206f6620626f756e6460008201527f7300000000000000000000000000000000000000000000000000000000000000602082015250565b6000611e8f6021836112ff565b9150611e9a82611e33565b604082019050919050565b60006020820190508181036000830152611ebe81611e82565b9050919050565b6000611ed0826114d6565b9150611edb836114d6565b9250828201905080821115611ef357611ef2611c67565b5b92915050565b6000611f0482611594565b611f0e81856112ff565b9350611f1e8185602086016115b0565b611f278161139a565b840191505092915050565b60006020820190508181036000830152611f4c8184611ef9565b905092915050565b611f5d81611b72565b8114611f6857600080fd5b50565b600081519050611f7a81611f54565b92915050565b600060208284031215611f9657611f95611386565b5b6000611fa484828501611f6b565b91505092915050565b7f4576656e744c6f676765723a20446576696365206e6f7420726567697374657260008201527f6564000000000000000000000000000000000000000000000000000000000000602082015250565b60006120096022836112ff565b915061201482611fad565b604082019050919050565b6000602082019050818103600083015261203881611ffc565b9050919050565b7f4576656e744c6f676765723a20446576696365206973206e6f7420616374697660008201527f6500000000000000000000000000000000000000000000000000000000000000602082015250565b600061209b6021836112ff565b91506120a68261203f565b604082019050919050565b600060208201905081810360008301526120ca8161208e565b9050919050565b600080fd5b600080fd5b60006120ee6120e984611426565b61140b565b90508281526020810184848401111561210a57612109611395565b5b6121158482856115b0565b509392505050565b600082601f83011261213257612131611390565b5b81516121428482602086016120db565b91505092915050565b6121548161164c565b811461215f57600080fd5b50565b6000815190506121718161214b565b92915050565b600060ff82169050919050565b61218d81612177565b811461219857600080fd5b50565b6000815190506121aa81612184565b92915050565b6000815190506121bf816114e0565b92915050565b600061010082840312156121dc576121db6120d1565b5b6121e761010061140b565b9050600082015167ffffffffffffffff811115612207576122066120d6565b5b6122138482850161211d565b600083015250602061222784828501612162565b602083015250604061223b84828501612162565b604083015250606082015167ffffffffffffffff81111561225f5761225e6120d6565b5b61226b8482850161211d565b606083015250608061227f8482850161219b565b60808301525060a082015167ffffffffffffffff8111156122a3576122a26120d6565b5b6122af8482850161211d565b60a08301525060c06122c384828501611f6b565b60c08301525060e06122d7848285016121b0565b60e08301525092915050565b6000602082840312156122f9576122f8611386565b5b600082015167ffffffffffffffff8111156123175761231661138b565b5b612323848285016121c5565b91505092915050565b7f4576656e744c6f676765723a204f6e6c792070617469656e74206f722067756160008201527f726469616e2063616e206c6f67206576656e7473000000000000000000000000602082015250565b60006123886034836112ff565b91506123938261232c565b604082019050919050565b600060208201905081810360008301526123b78161237b565b9050919050565b7f4576656e744c6f676765723a20496e76616c6964206576656e74207479706500600082015250565b60006123f4601f836112ff565b91506123ff826123be565b602082019050919050565b60006020820190508181036000830152612423816123e7565b9050919050565b60008190508160005260206000209050919050565b60006020601f8301049050919050565b600082821b905092915050565b60006008830261248c7fffffffffffffffffffffffffffffffffffffffffffffffffffffffffffffffff8261244f565b612496868361244f565b95508019841693508086168417925050509392505050565b60006124c96124c46124bf846114d6565b611824565b6114d6565b9050919050565b6000819050919050565b6124e3836124ae565b6124f76124ef826124d0565b84845461245c565b825550505050565b600090565b61250c6124ff565b6125178184846124da565b505050565b5b8181101561253b57612530600082612504565b60018101905061251d565b5050565b601f821115612580576125518161242a565b61255a8461243f565b81016020851015612569578190505b61257d6125758561243f565b83018261251c565b50505b505050565b600082821c905092915050565b60006125a360001984600802612585565b1980831691505092915050565b60006125bc8383612592565b9150826002028217905092915050565b6125d582611594565b67ffffffffffffffff8111156125ee576125ed6113ab565b5b6125f88254611d28565b61260382828561253f565b600060209050601f8311600181146126365760008415612624578287015190505b61262e85826125b0565b865550612696565b601f1984166126448661242a565b60005b8281101561266c57848901518255600182019150602085019450602081019050612647565b868310156126895784890151612685601f891682612592565b8355505b6001600288020188555050505b505050505050565b6126a781611613565b82525050565b60006060820190506126c2600083018661269e565b81810360208301526126d48185611ef9565b90506126e360408301846117fa565b94935050505056fea264697066735822122044325ab896759075d8cd7b9d2799903af55c7986f5d225dbef5dcbb92ef3331b64736f6c63430008140033",
  "linkReferences": {},
  "deployedLinkReferences": {}
}