{
  "_format": "hh-sol-artifact-1",
  "contractName": "PatientMonitor",
  "sourceName": "contracts/PatientMonitor.sol",
  "abi": [
    {
      "inputs": [],
      "stateMutability": "nonpayable",
      "type": "constructor"
    },
    {
      "anonymous": false,
      "inputs": [
        {
          "indexed": false,
          "internalType": "address",
          "name": "deviceRegistry",
          "type": "address"
        },
        {
          "indexed": false,
          "internalType": "address",
          "name": "eventLogger",
          "type": "address"
        },
        {
          "indexed": false,
          "internalType": "uint256",
          "name": "timestamp",
          "type": "uint256"
        }
      ],
      "name": "ContractsDeployed",
      "type": "event"
    },
    {
      "anonymous": false,
      "inputs": [
        {
          "indexed": true,
          "internalType": "address",
          "name": "previousOwner",
          "type": "address"
        },
        {
          "indexed": true,
          "internalType": "address",
          "name": "newOwner",
          "type": "address"
        },
        {
          "indexed": false,
          "internalType": "uint256",
          "name": "timestamp",
          "type": "uint256"
        }
      ],
      "name": "OwnershipTransferred",
      "type": "event"
    },
    {
      "inputs": [
        {
          "internalType": "string",
          "name": "deviceId",
          "type": "string"
        },
        {
          "internalType": "address",
          "name": "newGuardian",
          "type": "address"
        }
      ],
      "name": "changeGuardian",
      "outputs": [],
      "stateMutability": "nonpayable",
      "type": "function"
    },
    {
      "inputs": [
        {
          "internalType": "string",
          "name": "deviceId",
          "type": "string"
        }
      ],
      "name": "deactivateDevice",
      "outputs": [],
      "stateMutability": "nonpayable",
      "type": "function"
    },
    {
      "inputs": [],
      "name": "deviceRegistry",
      "outputs": [
        {
          "internalType": "contract DeviceRegistry",
          "name": "",
          "type": "address"
        }
      ],
      "stateMutability": "view",
      "type": "function"
    },
    {
      "inputs": [],
      "name": "eventLogger",
      "outputs": [
        {
          "internalType": "contract EventLogger",
          "name": "",
          "type": "address"
        }
      ],
      "stateMutability": "view",
      "type": "function"
    },
    {
      "inputs": [
        {
          "internalType": "uint256",
          "name": "offset",
          "type": "uint256"
        },
        {
          "internalType": "uint256",
          "name": "limit",
          "type": "uint256"
        }
      ],
      "name": "getAllEvents",
      "outputs": [
        {
          "components": [
            {
              "internalType": "string",
              "name": "deviceId",
              "type": "string"
            },
            {
              "internalType": "bytes32",
              "name": "dataHash",
              "type": "bytes32"
            },
            {
              "internalType": "address",
              "name": "guardian",
              "type": "address"
            },
            {
              "internalType": "string",
              "name": "eventType",
              "type": "string"
            },
            {
              "internalType": "uint256",
              "name": "timestamp",
              "type": "uint256"
            }
          ],
          "internalType": "struct IEventLogger.EventLog[]",
          "name": "",
          "type": "tuple[]"
        }
      ],
      "stateMutability": "view",
      "type": "function"
    },
    {
      "inputs": [],
      "name": "getContractAddresses",
      "outputs": [
        {
          "internalType": "address",
          "name": "",
          "type": "address"
        },
        {
          "internalType": "address",
          "name": "",
          "type": "address"
        }
      ],
      "stateMutability": "view",
      "type": "function"
    },
    {
      "inputs": [
        {
          "internalType": "string",
          "name": "deviceId",
          "type": "string"
        }
      ],
      "name": "getDevice",
      "outputs": [
        {
          "components": [
            {
              "internalType": "string",
              "name": "deviceId",
              "type": "string"
            },
            {
              "internalType": "address",
              "name": "patient",
              "type": "address"
            },
            {
              "internalType": "address",
              "name": "guardian",
              "type": "address"
            },
            {
              "internalType": "string",
              "name": "fullName",
              "type": "string"
            },
            {
              "internalType": "uint8",
              "name": "age",
              "type": "uint8"
            },
            {
              "internalType": "string",
              "name": "homeLocation",
              "type": "string"
            },
            {
              "internalType": "bool",
              "name": "isActive",
              "type": "bool"
            },
            {
              "internalType": "uint256",
              "name": "registeredAt",
              "type": "uint256"
            }
          ],
          "internalType": "struct IDeviceRegistry.Device",
          "name": "",
          "type": "tuple"
        }
      ],
      "stateMutability": "view",
      "type": "function"
    },
    {
      "inputs": [
        {
          "internalType": "string",
          "name": "deviceId",
          "type": "string"
        }
      ],
      "name": "getDeviceEventCount",
      "outputs": [
        {
          "internalType": "uint256",
          "name": "",
          "type": "uint256"
        }
      ],
      "stateMutability": "view",
      "type": "function"
    },
    {
      "inputs": [
        {
          "internalType": "string",
          "name": "deviceId",
          "type": "string"
        },
        {
          "internalType": "uint256",
          "name": "limit",
          "type": "uint256"
        }
      ],
      "name": "getDeviceEvents",
      "outputs": [
        {
          "components": [
            {
              "internalType": "string",
              "name": "deviceId",
              "type": "string"
            },
            {
              "internalType": "bytes32",
              "name": "dataHash",
              "type": "bytes32"
            },
            {
              "internalType": "address",
              "name": "guardian",
              "type": "address"
            },
            {
              "internalType": "string",
              "name": "eventType",
              "type": "string"
            },
            {
              "internalType": "uint256",
              "name": "timestamp",
              "type": "uint256"
            }
          ],
          "internalType": "struct IEventLogger.EventLog[]",
          "name": "",
          "type": "tuple[]"
        }
      ],
      "stateMutability": "view",
      "type": "function"
    },
    {
      "inputs": [
        {
          "internalType": "uint256",
          "name": "index",
          "type": "uint256"
        }
      ],
      "name": "getEvent",
      "outputs": [
        {
          "components": [
            {
              "internalType": "string",
              "name": "deviceId",
              "type": "string"
            },
            {
              "internalType": "bytes32",
              "name": "dataHash",
              "type": "bytes32"
            },
            {
              "internalType": "address",
              "name": "guardian",
              "type": "address"
            },
            {
              "internalType": "string",
              "name": "eventType",
              "type": "string"
            },
            {
              "internalType": "uint256",
              "name": "timestamp",
              "type": "uint256"
            }
          ],
          "internalType": "struct IEventLogger.EventLog",
          "name": "",
          "type": "tuple"
        }
      ],
      "stateMutability": "view",
      "type": "function"
    },
    {
      "inputs": [
        {
          "internalType": "address",
          "name": "guardian",
          "type": "address"
        }
      ],
      "name": "getGuardianDevices",
      "outputs": [
        {
          "internalType": "string[]",
          "name": "",
          "type": "string[]"
        }
      ],
      "stateMutability": "view",
      "type": "function"
    },
    {
      "inputs": [
        {
          "internalType": "address",
          "name": "guardian",
          "type": "address"
        }
      ],
      "name": "getGuardianName",
      "outputs": [
        {
          "internalType": "string",
          "name": "",
          "type": "string"
        }
      ],
      "stateMutability": "view",
      "type": "function"
    },
    {
      "inputs": [
        {
          "internalType": "address",
          "name": "patient",
          "type": "address"
        }
      ],
      "name": "getPatientDevices",
      "outputs": [
        {
          "internalType": "string[]",
          "name": "",
          "type": "string[]"
        }
      ],
      "stateMutability": "view",
      "type": "function"
    },
    {
      "inputs": [],
      "name": "getTotalDevices",
      "outputs": [
        {
          "internalType": "uint256",
          "name": "",
          "type": "uint256"
        }
      ],
      "stateMutability": "view",
      "type": "function"
    },
    {
      "inputs": [],
      "name": "getTotalEvents",
      "outputs": [
        {
          "internalType": "uint256",
          "name": "",
          "type": "uint256"
        }
      ],
      "stateMutability": "view",
      "type": "function"
    },
    {
      "inputs": [
        {
          "internalType": "string",
          "name": "deviceId",
          "type": "string"
        }
      ],
      "name": "isDeviceActive",
      "outputs": [
        {
          "internalType": "bool",
          "name": "",
          "type": "bool"
        }
      ],
      "stateMutability": "view",
      "type": "function"
    },
    {
      "inputs": [
        {
          "internalType": "string",
          "name": "deviceId",
          "type": "string"
        }
      ],
      "name": "isDeviceRegistered",
      "outputs": [
        {
          "internalType": "bool",
          "name": "",
          "type": "bool"
        }
      ],
      "stateMutability": "view",
      "type": "function"
    },
    {
      "inputs": [
        {
          "internalType": "string",
          "name": "deviceId",
          "type": "string"
        },
        {
          "internalType": "bytes32",
          "name": "dataHash",
          "type": "bytes32"
        },
        {
          "internalType": "string",
          "name": "eventType",
          "type": "string"
        }
      ],
      "name": "logEvent",
      "outputs": [],
      "stateMutability": "nonpayable",
      "type": "function"
    },
    {
      "inputs": [],
      "name": "owner",
      "outputs": [
        {
          "internalType": "address",
          "name": "",
          "type": "address"
        }
      ],
      "stateMutability": "view",
      "type": "function"
    },
    {
      "inputs": [
        {
          "internalType": "string",
          "name": "deviceId",
          "type": "string"
        },
        {
          "internalType": "address",
          "name": "guardian",
          "type": "address"
        },
        {
          "internalType": "string",
          "name": "fullName",
          "type": "string"
        },
        {
          "internalType": "uint8",
          "name": "age",
          "type": "uint8"
        },
        {
          "internalType": "string",
          "name": "homeLocation",
          "type": "string"
        }
      ],
      "name": "registerDevice",
      "outputs": [],
      "stateMutability": "nonpayable",
      "type": "function"
    },
    {
      "inputs": [
        {
          "internalType": "string",
          "name": "name",
          "type": "string"
        }
      ],
      "name": "setGuardianName",
      "outputs": [],
      "stateMutability": "nonpayable",
      "type": "function"
    },
    {
      "inputs": [
        {
          "internalType": "address",
          "name": "newOwner",
          "type": "address"
        }
      ],
      "name": "transferOwnership",
      "outputs": [],
      "stateMutability": "nonpayable",
      "type": "function"
    },
    {
      "stateMutability": "payable",
      "type": "receive"
    }
  ],
  "bytecode": "0x60806040523480156200001157600080fd5b5033600260006101000a81548173ffffffffffffffffffffffffffffffffffffffff021916908373ffffffffffffffffffffffffffffffffffffffff160217905550604051620000619062000302565b604051809103906000f0801580156200007e573d6000803e3d6000fd5b506000806101000a81548173ffffffffffffffffffffffffffffffffffffffff021916908373ffffffffffffffffffffffffffffffffffffffff160217905550600073ffffffffffffffffffffffffffffffffffffffff1660008054906101000a900473ffffffffffffffffffffffffffffffffffffffff1673ffffffffffffffffffffffffffffffffffffffff160362000150576040517f08c379a00000000000000000000000000000000000000000000000000000000081526004016200014790620003a5565b60405180910390fd5b60008054906101000a900473ffffffffffffffffffffffffffffffffffffffff166040516200017f9062000310565b6200018b91906200040c565b604051809103906000f080158015620001a8573d6000803e3d6000fd5b50600160006101000a81548173ffffffffffffffffffffffffffffffffffffffff021916908373ffffffffffffffffffffffffffffffffffffffff160217905550600073ffffffffffffffffffffffffffffffffffffffff16600160009054906101000a900473ffffffffffffffffffffffffffffffffffffffff1673ffffffffffffffffffffffffffffffffffffffff16036200027d576040517f08c379a000000000000000000000000000000000000000000000000000000000815260040162000274906200049f565b60405180910390fd5b7f80dee901bbda9b184c96364252d87d89a4d3ea81668162c18bbb306b9cd44a2160008054906101000a900473ffffffffffffffffffffffffffffffffffffffff16600160009054906101000a900473ffffffffffffffffffffffffffffffffffffffff1642604051620002f493929190620004dc565b60405180910390a162000519565b612c918062002e4f83390190565b612c2d8062005ae083390190565b600082825260208201905092915050565b7f50617469656e744d6f6e69746f723a204465766963655265676973747279206460008201527f65706c6f796d656e74206661696c656400000000000000000000000000000000602082015250565b60006200038d6030836200031e565b91506200039a826200032f565b604082019050919050565b60006020820190508181036000830152620003c0816200037e565b9050919050565b600073ffffffffffffffffffffffffffffffffffffffff82169050919050565b6000620003f482620003c7565b9050919050565b6200040681620003e7565b82525050565b6000602082019050620004236000830184620003fb565b92915050565b7f50617469656e744d6f6e69746f723a204576656e744c6f67676572206465706c60008201527f6f796d656e74206661696c656400000000000000000000000000000000000000602082015250565b600062000487602d836200031e565b9150620004948262000429565b604082019050919050565b60006020820190508181036000830152620004ba8162000478565b9050919050565b6000819050919050565b620004d681620004c1565b82525050565b6000606082019050620004f36000830186620003fb565b620005026020830185620003fb565b620005116040830184620004cb565b949350505050565b61292680620005296000396000f3fe6080604052600436106101385760003560e01c806370094067116100ab578063b0337fe71161006f578063b0337fe7146104cc578063b71a0346146104f5578063d354824614610532578063dc61d1611461055b578063f2fde38b14610586578063fb2c6f22146105af57610178565b806370094067146103d25780638da5cb5b146103fb578063953874d2146104265780639ec98e6014610452578063aa7f79e71461048f57610178565b80635cd10dc1116100fd5780635cd10dc11461029c5780635efb870a146102d9578063616069401461030457806366b20a231461032f57806368ba4eaf146103585780636d1884e01461039557610178565b8062dec0e41461017d57806329991184146101ba5780633209d3c1146101e55780634ace288e14610222578063533615021461025f57610178565b36610178576040517f08c379a000000000000000000000000000000000000000000000000000000000815260040161016f9061142e565b60405180910390fd5b600080fd5b34801561018957600080fd5b506101a4600480360381019061019f91906114c0565b6105d8565b6040516101b1919061163f565b60405180910390f35b3480156101c657600080fd5b506101cf61067f565b6040516101dc91906116c0565b60405180910390f35b3480156101f157600080fd5b5061020c600480360381019061020791906114c0565b6106a5565b604051610219919061163f565b60405180910390f35b34801561022e57600080fd5b5061024960048036038101906102449190611846565b61074d565b6040516102569190611a18565b60405180910390f35b34801561026b57600080fd5b5061028660048036038101906102819190611a3a565b6107fa565b6040516102939190611a92565b60405180910390f35b3480156102a857600080fd5b506102c360048036038101906102be9190611a3a565b61089f565b6040516102d09190611ac8565b60405180910390f35b3480156102e557600080fd5b506102ee610943565b6040516102fb9190611b04565b60405180910390f35b34801561031057600080fd5b50610319610967565b6040516103269190611a92565b60405180910390f35b34801561033b57600080fd5b5061035660048036038101906103519190611a3a565b6109ff565b005b34801561036457600080fd5b5061037f600480360381019061037a9190611a3a565b610a8d565b60405161038c9190611ac8565b60405180910390f35b3480156103a157600080fd5b506103bc60048036038101906103b79190611b1f565b610b31565b6040516103c99190611bc9565b60405180910390f35b3480156103de57600080fd5b506103f960048036038101906103f49190611a3a565b610be1565b005b34801561040757600080fd5b50610410610c6f565b60405161041d9190611bfa565b60405180910390f35b34801561043257600080fd5b5061043b610c95565b604051610449929190611c15565b60405180910390f35b34801561045e57600080fd5b50610479600480360381019061047491906114c0565b610ce4565b6040516104869190611c77565b60405180910390f35b34801561049b57600080fd5b506104b660048036038101906104b19190611c99565b610d8c565b6040516104c39190611a18565b60405180910390f35b3480156104d857600080fd5b506104f360048036038101906104ee9190611cd9565b610e39565b005b34801561050157600080fd5b5061051c60048036038101906105179190611a3a565b610eca565b6040516105299190611e1e565b60405180910390f35b34801561053e57600080fd5b5061055960048036038101906105549190611e6c565b610f78565b005b34801561056757600080fd5b50610570611010565b60405161057d9190611a92565b60405180910390f35b34801561059257600080fd5b506105ad60048036038101906105a891906114c0565b6110a7565b005b3480156105bb57600080fd5b506105d660048036038101906105d19190611f23565b611277565b005b606060008054906101000a900473ffffffffffffffffffffffffffffffffffffffff1673ffffffffffffffffffffffffffffffffffffffff1662dec0e4836040518263ffffffff1660e01b81526004016106329190611bfa565b600060405180830381865afa15801561064f573d6000803e3d6000fd5b505050506040513d6000823e3d601f19601f820116820180604052508101906106789190612148565b9050919050565b600160009054906101000a900473ffffffffffffffffffffffffffffffffffffffff1681565b606060008054906101000a900473ffffffffffffffffffffffffffffffffffffffff1673ffffffffffffffffffffffffffffffffffffffff16633209d3c1836040518263ffffffff1660e01b81526004016107009190611bfa565b600060405180830381865afa15801561071d573d6000803e3d6000fd5b505050506040513d6000823e3d601f19601f820116820180604052508101906107469190612148565b9050919050565b6060600160009054906101000a900473ffffffffffffffffffffffffffffffffffffffff1673ffffffffffffffffffffffffffffffffffffffff16634ace288e84846040518363ffffffff1660e01b81526004016107ac929190612191565b600060405180830381865afa1580156107c9573d6000803e3d6000fd5b505050506040513d6000823e3d601f19601f820116820180604052508101906107f291906123af565b905092915050565b6000600160009054906101000a900473ffffffffffffffffffffffffffffffffffffffff1673ffffffffffffffffffffffffffffffffffffffff166353361502836040518263ffffffff1660e01b81526004016108579190611c77565b602060405180830381865afa158015610874573d6000803e3d6000fd5b505050506040513d601f19601f8201168201806040525081019061089891906123f8565b9050919050565b60008060009054906101000a900473ffffffffffffffffffffffffffffffffffffffff1673ffffffffffffffffffffffffffffffffffffffff16635cd10dc1836040518263ffffffff1660e01b81526004016108fb9190611c77565b602060405180830381865afa158015610918573d6000803e3d6000fd5b505050506040513d601f19601f8201168201806040525081019061093c9190612451565b9050919050565b60008054906101000a900473ffffffffffffffffffffffffffffffffffffffff1681565b6000600160009054906101000a900473ffffffffffffffffffffffffffffffffffffffff1673ffffffffffffffffffffffffffffffffffffffff1663ba8706866040518163ffffffff1660e01b8152600401602060405180830381865afa1580156109d6573d6000803e3d6000fd5b505050506040513d601f19601f820116820180604052508101906109fa91906123f8565b905090565b60008054906101000a900473ffffffffffffffffffffffffffffffffffffffff1673ffffffffffffffffffffffffffffffffffffffff166366b20a23826040518263ffffffff1660e01b8152600401610a589190611c77565b600060405180830381600087803b158015610a7257600080fd5b505af1158015610a86573d6000803e3d6000fd5b5050505050565b60008060009054906101000a900473ffffffffffffffffffffffffffffffffffffffff1673ffffffffffffffffffffffffffffffffffffffff166368ba4eaf836040518263ffffffff1660e01b8152600401610ae99190611c77565b602060405180830381865afa158015610b06573d6000803e3d6000fd5b505050506040513d601f19601f82011682018060405250810190610b2a9190612451565b9050919050565b610b39611313565b600160009054906101000a900473ffffffffffffffffffffffffffffffffffffffff1673ffffffffffffffffffffffffffffffffffffffff16636d1884e0836040518263ffffffff1660e01b8152600401610b949190611a92565b600060405180830381865afa158015610bb1573d6000803e3d6000fd5b505050506040513d6000823e3d601f19601f82011682018060405250810190610bda919061247e565b9050919050565b60008054906101000a900473ffffffffffffffffffffffffffffffffffffffff1673ffffffffffffffffffffffffffffffffffffffff166370094067826040518263ffffffff1660e01b8152600401610c3a9190611c77565b600060405180830381600087803b158015610c5457600080fd5b505af1158015610c68573d6000803e3d6000fd5b5050505050565b600260009054906101000a900473ffffffffffffffffffffffffffffffffffffffff1681565b60008060008054906101000a900473ffffffffffffffffffffffffffffffffffffffff16600160009054906101000a900473ffffffffffffffffffffffffffffffffffffffff16915091509091565b606060008054906101000a900473ffffffffffffffffffffffffffffffffffffffff1673ffffffffffffffffffffffffffffffffffffffff16639ec98e60836040518263ffffffff1660e01b8152600401610d3f9190611bfa565b600060405180830381865afa158015610d5c573d6000803e3d6000fd5b505050506040513d6000823e3d601f19601f82011682018060405250810190610d8591906124c7565b9050919050565b6060600160009054906101000a900473ffffffffffffffffffffffffffffffffffffffff1673ffffffffffffffffffffffffffffffffffffffff1663aa7f79e784846040518363ffffffff1660e01b8152600401610deb929190612510565b600060405180830381865afa158015610e08573d6000803e3d6000fd5b505050506040513d6000823e3d601f19601f82011682018060405250810190610e3191906123af565b905092915050565b60008054906101000a900473ffffffffffffffffffffffffffffffffffffffff1673ffffffffffffffffffffffffffffffffffffffff1663b0337fe783836040518363ffffffff1660e01b8152600401610e94929190612539565b600060405180830381600087803b158015610eae57600080fd5b505af1158015610ec2573d6000803e3d6000fd5b505050505050565b610ed261135b565b60008054906101000a900473ffffffffffffffffffffffffffffffffffffffff1673ffffffffffffffffffffffffffffffffffffffff1663b71a0346836040518263ffffffff1660e01b8152600401610f2b9190611c77565b600060405180830381865afa158015610f48573d6000803e3d6000fd5b505050506040513d6000823e3d601f19601f82011682018060405250810190610f71919061269c565b9050919050565b600160009054906101000a900473ffffffffffffffffffffffffffffffffffffffff1673ffffffffffffffffffffffffffffffffffffffff1663156ca235338585856040518563ffffffff1660e01b8152600401610fd994939291906126f4565b600060405180830381600087803b158015610ff357600080fd5b505af1158015611007573d6000803e3d6000fd5b50505050505050565b60008060009054906101000a900473ffffffffffffffffffffffffffffffffffffffff1673ffffffffffffffffffffffffffffffffffffffff16636121898e6040518163ffffffff1660e01b8152600401602060405180830381865afa15801561107e573d6000803e3d6000fd5b505050506040513d601f19601f820116820180604052508101906110a291906123f8565b905090565b600260009054906101000a900473ffffffffffffffffffffffffffffffffffffffff1673ffffffffffffffffffffffffffffffffffffffff163373ffffffffffffffffffffffffffffffffffffffff1614611137576040517f08c379a000000000000000000000000000000000000000000000000000000000815260040161112e906127b9565b60405180910390fd5b600073ffffffffffffffffffffffffffffffffffffffff168173ffffffffffffffffffffffffffffffffffffffff16036111a6576040517f08c379a000000000000000000000000000000000000000000000000000000000815260040161119d9061284b565b60405180910390fd5b6000600260009054906101000a900473ffffffffffffffffffffffffffffffffffffffff16905081600260006101000a81548173ffffffffffffffffffffffffffffffffffffffff021916908373ffffffffffffffffffffffffffffffffffffffff1602179055508173ffffffffffffffffffffffffffffffffffffffff168173ffffffffffffffffffffffffffffffffffffffff167fc13a1166d81cd3b0b352a367aebab95f3a6f6bc695fdab8e9a9d335239c3861b4260405161126b9190611a92565b60405180910390a35050565b60008054906101000a900473ffffffffffffffffffffffffffffffffffffffff1673ffffffffffffffffffffffffffffffffffffffff166375d5a1748633878787876040518763ffffffff1660e01b81526004016112da9695949392919061287a565b600060405180830381600087803b1580156112f457600080fd5b505af1158015611308573d6000803e3d6000fd5b505050505050505050565b6040518060a001604052806060815260200160008019168152602001600073ffffffffffffffffffffffffffffffffffffffff16815260200160608152602001600081525090565b60405180610100016040528060608152602001600073ffffffffffffffffffffffffffffffffffffffff168152602001600073ffffffffffffffffffffffffffffffffffffffff16815260200160608152602001600060ff16815260200160608152602001600015158152602001600081525090565b600082825260208201905092915050565b7f50617469656e744d6f6e69746f723a20455448206e6f74206163636570746564600082015250565b60006114186020836113d1565b9150611423826113e2565b602082019050919050565b600060208201905081810360008301526114478161140b565b9050919050565b6000604051905090565b600080fd5b600080fd5b600073ffffffffffffffffffffffffffffffffffffffff82169050919050565b600061148d82611462565b9050919050565b61149d81611482565b81146114a857600080fd5b50565b6000813590506114ba81611494565b92915050565b6000602082840312156114d6576114d5611458565b5b60006114e4848285016114ab565b91505092915050565b600081519050919050565b600082825260208201905092915050565b6000819050602082019050919050565b600081519050919050565b600082825260208201905092915050565b60005b83811015611553578082015181840152602081019050611538565b60008484015250505050565b6000601f19601f8301169050919050565b600061157b82611519565b6115858185611524565b9350611595818560208601611535565b61159e8161155f565b840191505092915050565b60006115b58383611570565b905092915050565b6000602082019050919050565b60006115d5826114ed565b6115df81856114f8565b9350836020820285016115f185611509565b8060005b8581101561162d578484038952815161160e85826115a9565b9450611619836115bd565b925060208a019950506001810190506115f5565b50829750879550505050505092915050565b6000602082019050818103600083015261165981846115ca565b905092915050565b6000819050919050565b600061168661168161167c84611462565b611661565b611462565b9050919050565b60006116988261166b565b9050919050565b60006116aa8261168d565b9050919050565b6116ba8161169f565b82525050565b60006020820190506116d560008301846116b1565b92915050565b600080fd5b600080fd5b7f4e487b7100000000000000000000000000000000000000000000000000000000600052604160045260246000fd5b61171d8261155f565b810181811067ffffffffffffffff8211171561173c5761173b6116e5565b5b80604052505050565b600061174f61144e565b905061175b8282611714565b919050565b600067ffffffffffffffff82111561177b5761177a6116e5565b5b6117848261155f565b9050602081019050919050565b82818337600083830152505050565b60006117b36117ae84611760565b611745565b9050828152602081018484840111156117cf576117ce6116e0565b5b6117da848285611791565b509392505050565b600082601f8301126117f7576117f66116db565b5b81356118078482602086016117a0565b91505092915050565b6000819050919050565b61182381611810565b811461182e57600080fd5b50565b6000813590506118408161181a565b92915050565b6000806040838503121561185d5761185c611458565b5b600083013567ffffffffffffffff81111561187b5761187a61145d565b5b611887858286016117e2565b925050602061189885828601611831565b9150509250929050565b600081519050919050565b600082825260208201905092915050565b6000819050602082019050919050565b6000819050919050565b6118e1816118ce565b82525050565b6118f081611482565b82525050565b6118ff81611810565b82525050565b600060a08301600083015184820360008601526119228282611570565b915050602083015161193760208601826118d8565b50604083015161194a60408601826118e7565b50606083015184820360608601526119628282611570565b915050608083015161197760808601826118f6565b508091505092915050565b600061198e8383611905565b905092915050565b6000602082019050919050565b60006119ae826118a2565b6119b881856118ad565b9350836020820285016119ca856118be565b8060005b85811015611a0657848403895281516119e78582611982565b94506119f283611996565b925060208a019950506001810190506119ce565b50829750879550505050505092915050565b60006020820190508181036000830152611a3281846119a3565b905092915050565b600060208284031215611a5057611a4f611458565b5b600082013567ffffffffffffffff811115611a6e57611a6d61145d565b5b611a7a848285016117e2565b91505092915050565b611a8c81611810565b82525050565b6000602082019050611aa76000830184611a83565b92915050565b60008115159050919050565b611ac281611aad565b82525050565b6000602082019050611add6000830184611ab9565b92915050565b6000611aee8261168d565b9050919050565b611afe81611ae3565b82525050565b6000602082019050611b196000830184611af5565b92915050565b600060208284031215611b3557611b34611458565b5b6000611b4384828501611831565b91505092915050565b600060a0830160008301518482036000860152611b698282611570565b9150506020830151611b7e60208601826118d8565b506040830151611b9160408601826118e7565b5060608301518482036060860152611ba98282611570565b9150506080830151611bbe60808601826118f6565b508091505092915050565b60006020820190508181036000830152611be38184611b4c565b905092915050565b611bf481611482565b82525050565b6000602082019050611c0f6000830184611beb565b92915050565b6000604082019050611c2a6000830185611beb565b611c376020830184611beb565b9392505050565b6000611c4982611519565b611c5381856113d1565b9350611c63818560208601611535565b611c6c8161155f565b840191505092915050565b60006020820190508181036000830152611c918184611c3e565b905092915050565b60008060408385031215611cb057611caf611458565b5b6000611cbe85828601611831565b9250506020611ccf85828601611831565b9150509250929050565b60008060408385031215611cf057611cef611458565b5b600083013567ffffffffffffffff811115611d0e57611d0d61145d565b5b611d1a858286016117e2565b9250506020611d2b858286016114ab565b9150509250929050565b600060ff82169050919050565b611d4b81611d35565b82525050565b611d5a81611aad565b82525050565b6000610100830160008301518482036000860152611d7e8282611570565b9150506020830151611d9360208601826118e7565b506040830151611da660408601826118e7565b5060608301518482036060860152611dbe8282611570565b9150506080830151611dd36080860182611d42565b5060a083015184820360a0860152611deb8282611570565b91505060c0830151611e0060c0860182611d51565b5060e0830151611e1360e08601826118f6565b508091505092915050565b60006020820190508181036000830152611e388184611d60565b905092915050565b611e49816118ce565b8114611e5457600080fd5b50565b600081359050611e6681611e40565b92915050565b600080600060608486031215611e8557611e84611458565b5b600084013567ffffffffffffffff811115611ea357611ea261145d565b5b611eaf868287016117e2565b9350506020611ec086828701611e57565b925050604084013567ffffffffffffffff811115611ee157611ee061145d565b5b611eed868287016117e2565b9150509250925092565b611f0081611d35565b8114611f0b57600080fd5b50565b600081359050611f1d81611ef7565b92915050565b600080600080600060a08688031215611f3f57611f3e611458565b5b600086013567ffffffffffffffff811115611f5d57611f5c61145d565b5b611f69888289016117e2565b9550506020611f7a888289016114ab565b945050604086013567ffffffffffffffff811115611f9b57611f9a61145d565b5b611fa7888289016117e2565b9350506060611fb888828901611f0e565b925050608086013567ffffffffffffffff811115611fd957611fd861145d565b5b611fe5888289016117e2565b9150509295509295909350565b600067ffffffffffffffff82111561200d5761200c6116e5565b5b602082029050602081019050919050565b600080fd5b600061203661203184611760565b611745565b905082815260208101848484011115612052576120516116e0565b5b61205d848285611535565b509392505050565b600082601f83011261207a576120796116db565b5b815161208a848260208601612023565b91505092915050565b60006120a66120a184611ff2565b611745565b905080838252602082019050602084028301858111156120c9576120c861201e565b5b835b8181101561211057805167ffffffffffffffff8111156120ee576120ed6116db565b5b8086016120fb8982612065565b855260208501945050506020810190506120cb565b5050509392505050565b600082601f83011261212f5761212e6116db565b5b815161213f848260208601612093565b91505092915050565b60006020828403121561215e5761215d611458565b5b600082015167ffffffffffffffff81111561217c5761217b61145d565b5b6121888482850161211a565b91505092915050565b600060408201905081810360008301526121ab8185611c3e565b90506121ba6020830184611a83565b9392505050565b600067ffffffffffffffff8211156121dc576121db6116e5565b5b602082029050602081019050919050565b600080fd5b600080fd5b60008151905061220681611e40565b92915050565b60008151905061221b81611494565b92915050565b6000815190506122308161181a565b92915050565b600060a0828403121561224c5761224b6121ed565b5b61225660a0611745565b9050600082015167ffffffffffffffff811115612276576122756121f2565b5b61228284828501612065565b6000830152506020612296848285016121f7565b60208301525060406122aa8482850161220c565b604083015250606082015167ffffffffffffffff8111156122ce576122cd6121f2565b5b6122da84828501612065565b60608301525060806122ee84828501612221565b60808301525092915050565b600061230d612308846121c1565b611745565b905080838252602082019050602084028301858111156123305761232f61201e565b5b835b8181101561237757805167ffffffffffffffff811115612355576123546116db565b5b8086016123628982612236565b85526020850194505050602081019050612332565b5050509392505050565b600082601f830112612396576123956116db565b5b81516123a68482602086016122fa565b91505092915050565b6000602082840312156123c5576123c4611458565b5b600082015167ffffffffffffffff8111156123e3576123e261145d565b5b6123ef84828501612381565b91505092915050565b60006020828403121561240e5761240d611458565b5b600061241c84828501612221565b91505092915050565b61242e81611aad565b811461243957600080fd5b50565b60008151905061244b81612425565b92915050565b60006020828403121561246757612466611458565b5b60006124758482850161243c565b91505092915050565b60006020828403121561249457612493611458565b5b600082015167ffffffffffffffff8111156124b2576124b161145d565b5b6124be84828501612236565b91505092915050565b6000602082840312156124dd576124dc611458565b5b600082015167ffffffffffffffff8111156124fb576124fa61145d565b5b61250784828501612065565b91505092915050565b60006040820190506125256000830185611a83565b6125326020830184611a83565b9392505050565b600060408201905081810360008301526125538185611c3e565b90506125626020830184611beb565b9392505050565b60008151905061257881611ef7565b92915050565b60006101008284031215612595576125946121ed565b5b6125a0610100611745565b9050600082015167ffffffffffffffff8111156125c0576125bf6121f2565b5b6125cc84828501612065565b60008301525060206125e08482850161220c565b60208301525060406125f48482850161220c565b604083015250606082015167ffffffffffffffff811115612618576126176121f2565b5b61262484828501612065565b606083015250608061263884828501612569565b60808301525060a082015167ffffffffffffffff81111561265c5761265b6121f2565b5b61266884828501612065565b60a08301525060c061267c8482850161243c565b60c08301525060e061269084828501612221565b60e08301525092915050565b6000602082840312156126b2576126b1611458565b5b600082015167ffffffffffffffff8111156126d0576126cf61145d565b5b6126dc8482850161257e565b91505092915050565b6126ee816118ce565b82525050565b60006080820190506127096000830187611beb565b818103602083015261271b8186611c3e565b905061272a60408301856126e5565b818103606083015261273c8184611c3e565b905095945050505050565b7f50617469656e744d6f6e69746f723a2043616c6c6572206973206e6f74206f7760008201527f6e65720000000000000000000000000000000000000000000000000000000000602082015250565b60006127a36023836113d1565b91506127ae82612747565b604082019050919050565b600060208201905081810360008301526127d281612796565b9050919050565b7f50617469656e744d6f6e69746f723a20496e76616c6964206e6577206f776e6560008201527f7200000000000000000000000000000000000000000000000000000000000000602082015250565b60006128356021836113d1565b9150612840826127d9565b604082019050919050565b6000602082019050818103600083015261286481612828565b9050919050565b61287481611d35565b82525050565b600060c08201905081810360008301526128948189611c3e565b90506128a36020830188611beb565b6128b06040830187611beb565b81810360608301526128c28186611c3e565b90506128d1608083018561286b565b81810360a08301526128e38184611c3e565b905097965050505050505056fea26469706673582212203dcafd97a7be6d5f1e8f898c3c45f73285c0ee2e1b0ce4bc3104ec73499a2b7064736f6c63430008140033608060405234801561001057600080fd5b50612c71806100206000396000f3fe6080604052600436106100eb5760003560e01c806368ba4eaf1161008a578063b0337fe711610059578063b0337fe714610381578063b71a0346146103aa578063e2ec6e4d146103e7578063fb2c6f22146104245761012b565b806368ba4eaf146102b557806370094067146102f257806375d5a1741461031b5780639ec98e60146103445761012b565b80635baa3f25116100c65780635baa3f25146101e75780635cd10dc1146102245780636121898e1461026157806366b20a231461028c5761012b565b8062dec0e4146101305780633209d3c11461016d578063577d3ff6146101aa5761012b565b3661012b576040517f08c379a000000000000000000000000000000000000000000000000000000000815260040161012290611b2f565b60405180910390fd5b600080fd5b34801561013c57600080fd5b5061015760048036038101906101529190611bc1565b61044d565b6040516101649190611d40565b60405180910390f35b34801561017957600080fd5b50610194600480360381019061018f9190611bc1565b610565565b6040516101a19190611d40565b60405180910390f35b3480156101b657600080fd5b506101d160048036038101906101cc9190611e97565b61067d565b6040516101de9190611eef565b60405180910390f35b3480156101f357600080fd5b5061020e60048036038101906102099190611bc1565b6106c7565b60405161021b9190611f43565b60405180910390f35b34801561023057600080fd5b5061024b60048036038101906102469190611e97565b610767565b6040516102589190611f80565b60405180910390f35b34801561026d57600080fd5b5061027661079e565b6040516102839190611fb4565b60405180910390f35b34801561029857600080fd5b506102b360048036038101906102ae9190611e97565b6107a4565b005b3480156102c157600080fd5b506102dc60048036038101906102d79190611e97565b6108cd565b6040516102e99190611f80565b60405180910390f35b3480156102fe57600080fd5b5061031960048036038101906103149190611e97565b610947565b005b34801561032757600080fd5b50610342600480360381019061033d9190612008565b610e00565b005b34801561035057600080fd5b5061036b60048036038101906103669190611bc1565b610e16565b6040516103789190611f43565b60405180910390f35b34801561038d57600080fd5b506103a860048036038101906103a391906120e9565b610ee7565b005b3480156103b657600080fd5b506103d160048036038101906103cc9190611e97565b611226565b6040516103de919061223f565b60405180910390f35b3480156103f357600080fd5b5061040e60048036038101906104099190611e97565b611503565b60405161041b9190611eef565b60405180910390f35b34801561043057600080fd5b5061044b60048036038101906104469190612261565b61154d565b005b6060600160008373ffffffffffffffffffffffffffffffffffffffff1673ffffffffffffffffffffffffffffffffffffffff168152602001908152602001600020805480602002602001604051908101604052809291908181526020016000905b8282101561055a5783829060005260206000200180546104cd9061235f565b80601f01602080910402602001604051908101604052809291908181526020018280546104f99061235f565b80156105465780601f1061051b57610100808354040283529160200191610546565b820191906000526020600020905b81548152906001019060200180831161052957829003601f168201915b5050505050815260200190600101906104ae565b505050509050919050565b6060600260008373ffffffffffffffffffffffffffffffffffffffff1673ffffffffffffffffffffffffffffffffffffffff168152602001908152602001600020805480602002602001604051908101604052809291908181526020016000905b828210156106725783829060005260206000200180546105e59061235f565b80601f01602080910402602001604051908101604052809291908181526020018280546106119061235f565b801561065e5780601f106106335761010080835404028352916020019161065e565b820191906000526020600020905b81548152906001019060200180831161064157829003601f168201915b5050505050815260200190600101906105c6565b505050509050919050565b6000808260405161068e91906123cc565b908152602001604051809103902060020160009054906101000a900473ffffffffffffffffffffffffffffffffffffffff169050919050565b600360205280600052604060002060009150905080546106e69061235f565b80601f01602080910402602001604051908101604052809291908181526020018280546107129061235f565b801561075f5780601f106107345761010080835404028352916020019161075f565b820191906000526020600020905b81548152906001019060200180831161074257829003601f168201915b505050505081565b6000808260405161077891906123cc565b908152602001604051809103902060060160009054906101000a900460ff169050919050565b60045481565b60008151116107e8576040517f08c379a00000000000000000000000000000000000000000000000000000000081526004016107df90612455565b60405180910390fd5b60328151111561082d576040517f08c379a0000000000000000000000000000000000000000000000000000000008152600401610824906124e7565b60405180910390fd5b80600360003373ffffffffffffffffffffffffffffffffffffffff1673ffffffffffffffffffffffffffffffffffffffff168152602001908152602001600020908161087991906126b3565b503373ffffffffffffffffffffffffffffffffffffffff167f7d7f167d425470ead7c40a566e85046c23f2481bae1aa9d3540824904a3fc48682426040516108c2929190612785565b60405180910390a250565b60008073ffffffffffffffffffffffffffffffffffffffff166000836040516108f691906123cc565b908152602001604051809103902060010160009054906101000a900473ffffffffffffffffffffffffffffffffffffffff1673ffffffffffffffffffffffffffffffffffffffff1614159050919050565b80600073ffffffffffffffffffffffffffffffffffffffff1660008260405161097091906123cc565b908152602001604051809103902060010160009054906101000a900473ffffffffffffffffffffffffffffffffffffffff1673ffffffffffffffffffffffffffffffffffffffff16036109f8576040517f08c379a00000000000000000000000000000000000000000000000000000000081526004016109ef90612827565b60405180910390fd5b60008083604051610a0991906123cc565b908152602001604051809103902060405180610100016040529081600082018054610a339061235f565b80601f0160208091040260200160405190810160405280929190818152602001828054610a5f9061235f565b8015610aac5780601f10610a8157610100808354040283529160200191610aac565b820191906000526020600020905b815481529060010190602001808311610a8f57829003601f168201915b505050505081526020016001820160009054906101000a900473ffffffffffffffffffffffffffffffffffffffff1673ffffffffffffffffffffffffffffffffffffffff1673ffffffffffffffffffffffffffffffffffffffff1681526020016002820160009054906101000a900473ffffffffffffffffffffffffffffffffffffffff1673ffffffffffffffffffffffffffffffffffffffff1673ffffffffffffffffffffffffffffffffffffffff168152602001600382018054610b719061235f565b80601f0160208091040260200160405190810160405280929190818152602001828054610b9d9061235f565b8015610bea5780601f10610bbf57610100808354040283529160200191610bea565b820191906000526020600020905b815481529060010190602001808311610bcd57829003601f168201915b505050505081526020016004820160009054906101000a900460ff1660ff1660ff168152602001600582018054610c209061235f565b80601f0160208091040260200160405190810160405280929190818152602001828054610c4c9061235f565b8015610c995780601f10610c6e57610100808354040283529160200191610c99565b820191906000526020600020905b815481529060010190602001808311610c7c57829003601f168201915b505050505081526020016006820160009054906101000a900460ff1615151515815260200160078201548152505090503373ffffffffffffffffffffffffffffffffffffffff16816020015173ffffffffffffffffffffffffffffffffffffffff161480610d3657503373ffffffffffffffffffffffffffffffffffffffff16816040015173ffffffffffffffffffffffffffffffffffffffff16145b610d75576040517f08c379a0000000000000000000000000000000000000000000000000000000008152600401610d6c90612893565b60405180910390fd5b60008084604051610d8691906123cc565b908152602001604051809103902060060160006101000a81548160ff02191690831515021790555082604051610dbc91906123cc565b60405180910390207f44741574c6d9100819aa13fd0926c49ceed3605e75f0854d17de2516bc14e2c842604051610df39190611fb4565b60405180910390a2505050565b610e0e868686868686611562565b505050505050565b6060600360008373ffffffffffffffffffffffffffffffffffffffff1673ffffffffffffffffffffffffffffffffffffffff1681526020019081526020016000208054610e629061235f565b80601f0160208091040260200160405190810160405280929190818152602001828054610e8e9061235f565b8015610edb5780601f10610eb057610100808354040283529160200191610edb565b820191906000526020600020905b815481529060010190602001808311610ebe57829003601f168201915b50505050509050919050565b813373ffffffffffffffffffffffffffffffffffffffff16600082604051610f0f91906123cc565b908152602001604051809103902060010160009054906101000a900473ffffffffffffffffffffffffffffffffffffffff1673ffffffffffffffffffffffffffffffffffffffff1614610f97576040517f08c379a0000000000000000000000000000000000000000000000000000000008152600401610f8e90612925565b60405180910390fd5b82600073ffffffffffffffffffffffffffffffffffffffff16600082604051610fc091906123cc565b908152602001604051809103902060010160009054906101000a900473ffffffffffffffffffffffffffffffffffffffff1673ffffffffffffffffffffffffffffffffffffffff1603611048576040517f08c379a000000000000000000000000000000000000000000000000000000000815260040161103f90612827565b60405180910390fd5b600073ffffffffffffffffffffffffffffffffffffffff168373ffffffffffffffffffffffffffffffffffffffff16036110b7576040517f08c379a00000000000000000000000000000000000000000000000000000000081526004016110ae906129b7565b60405180910390fd5b600080856040516110c891906123cc565b908152602001604051809103902060020160009054906101000a900473ffffffffffffffffffffffffffffffffffffffff1690508360008660405161110d91906123cc565b908152602001604051809103902060020160006101000a81548173ffffffffffffffffffffffffffffffffffffffff021916908373ffffffffffffffffffffffffffffffffffffffff160217905550600160008573ffffffffffffffffffffffffffffffffffffffff1673ffffffffffffffffffffffffffffffffffffffff168152602001908152602001600020859080600181540180825580915050600190039060005260206000200160009091909190915090816111cd91906126b3565b50846040516111dc91906123cc565b60405180910390207f8cf963b51c748320b05a970a2676e6ccfec208283664afabc9ded8022d19cbe2828642604051611217939291906129d7565b60405180910390a25050505050565b61122e611a5c565b60008260405161123e91906123cc565b9081526020016040518091039020604051806101000160405290816000820180546112689061235f565b80601f01602080910402602001604051908101604052809291908181526020018280546112949061235f565b80156112e15780601f106112b6576101008083540402835291602001916112e1565b820191906000526020600020905b8154815290600101906020018083116112c457829003601f168201915b505050505081526020016001820160009054906101000a900473ffffffffffffffffffffffffffffffffffffffff1673ffffffffffffffffffffffffffffffffffffffff1673ffffffffffffffffffffffffffffffffffffffff1681526020016002820160009054906101000a900473ffffffffffffffffffffffffffffffffffffffff1673ffffffffffffffffffffffffffffffffffffffff1673ffffffffffffffffffffffffffffffffffffffff1681526020016003820180546113a69061235f565b80601f01602080910402602001604051908101604052809291908181526020018280546113d29061235f565b801561141f5780601f106113f45761010080835404028352916020019161141f565b820191906000526020600020905b81548152906001019060200180831161140257829003601f168201915b505050505081526020016004820160009054906101000a900460ff1660ff1660ff1681526020016005820180546114559061235f565b80601f01602080910402602001604051908101604052809291908181526020018280546114819061235f565b80156114ce5780601f106114a3576101008083540402835291602001916114ce565b820191906000526020600020905b8154815290600101906020018083116114b157829003601f168201915b505050505081526020016006820160009054906101000a900460ff161515151581526020016007820154815250509050919050565b6000808260405161151491906123cc565b908152602001604051809103902060010160009054906101000a900473ffffffffffffffffffffffffffffffffffffffff169050919050565b61155b853386868686611562565b5050505050565b600073ffffffffffffffffffffffffffffffffffffffff1660008760405161158a91906123cc565b908152602001604051809103902060010160009054906101000a900473ffffffffffffffffffffffffffffffffffffffff1673ffffffffffffffffffffffffffffffffffffffff1614611612576040517f08c379a000000000000000000000000000000000000000000000000000000000815260040161160990612a80565b60405180910390fd5b600073ffffffffffffffffffffffffffffffffffffffff168473ffffffffffffffffffffffffffffffffffffffff1603611681576040517f08c379a0000000000000000000000000000000000000000000000000000000008152600401611678906129b7565b60405180910390fd5b600073ffffffffffffffffffffffffffffffffffffffff168573ffffffffffffffffffffffffffffffffffffffff16036116f0576040517f08c379a00000000000000000000000000000000000000000000000000000000081526004016116e790612b12565b60405180910390fd5b600886511015611735576040517f08c379a000000000000000000000000000000000000000000000000000000000815260040161172c90612ba4565b60405180910390fd5b6040518061010001604052808781526020018673ffffffffffffffffffffffffffffffffffffffff1681526020018573ffffffffffffffffffffffffffffffffffffffff1681526020018481526020018360ff168152602001828152602001600115158152602001428152506000876040516117b191906123cc565b908152602001604051809103902060008201518160000190816117d491906126b3565b5060208201518160010160006101000a81548173ffffffffffffffffffffffffffffffffffffffff021916908373ffffffffffffffffffffffffffffffffffffffff16021790555060408201518160020160006101000a81548173ffffffffffffffffffffffffffffffffffffffff021916908373ffffffffffffffffffffffffffffffffffffffff160217905550606082015181600301908161187891906126b3565b5060808201518160040160006101000a81548160ff021916908360ff16021790555060a08201518160050190816118af91906126b3565b5060c08201518160060160006101000a81548160ff02191690831515021790555060e08201518160070155905050600160008573ffffffffffffffffffffffffffffffffffffffff1673ffffffffffffffffffffffffffffffffffffffff1681526020019081526020016000208690806001815401808255809150506001900390600052602060002001600090919091909150908161194e91906126b3565b50600260008673ffffffffffffffffffffffffffffffffffffffff1673ffffffffffffffffffffffffffffffffffffffff168152602001908152602001600020869080600181540180825580915050600190039060005260206000200160009091909190915090816119c091906126b3565b50600460008154809291906119d490612bf3565b91905055508373ffffffffffffffffffffffffffffffffffffffff168573ffffffffffffffffffffffffffffffffffffffff1687604051611a1591906123cc565b60405180910390207ff3ac2d70bb40c5c557b819df1497dd19d865383d3821b4c26e5729f63cc9630742604051611a4c9190611fb4565b60405180910390a4505050505050565b60405180610100016040528060608152602001600073ffffffffffffffffffffffffffffffffffffffff168152602001600073ffffffffffffffffffffffffffffffffffffffff16815260200160608152602001600060ff16815260200160608152602001600015158152602001600081525090565b600082825260208201905092915050565b7f44657669636552656769737472793a20455448206e6f74206163636570746564600082015250565b6000611b19602083611ad2565b9150611b2482611ae3565b602082019050919050565b60006020820190508181036000830152611b4881611b0c565b9050919050565b6000604051905090565b600080fd5b600080fd5b600073ffffffffffffffffffffffffffffffffffffffff82169050919050565b6000611b8e82611b63565b9050919050565b611b9e81611b83565b8114611ba957600080fd5b50565b600081359050611bbb81611b95565b92915050565b600060208284031215611bd757611bd6611b59565b5b6000611be584828501611bac565b91505092915050565b600081519050919050565b600082825260208201905092915050565b6000819050602082019050919050565b600081519050919050565b600082825260208201905092915050565b60005b83811015611c54578082015181840152602081019050611c39565b60008484015250505050565b6000601f19601f8301169050919050565b6000611c7c82611c1a565b611c868185611c25565b9350611c96818560208601611c36565b611c9f81611c60565b840191505092915050565b6000611cb68383611c71565b905092915050565b6000602082019050919050565b6000611cd682611bee565b611ce08185611bf9565b935083602082028501611cf285611c0a565b8060005b85811015611d2e5784840389528151611d0f8582611caa565b9450611d1a83611cbe565b925060208a01995050600181019050611cf6565b50829750879550505050505092915050565b60006020820190508181036000830152611d5a8184611ccb565b905092915050565b600080fd5b600080fd5b7f4e487b7100000000000000000000000000000000000000000000000000000000600052604160045260246000fd5b611da482611c60565b810181811067ffffffffffffffff82111715611dc357611dc2611d6c565b5b80604052505050565b6000611dd6611b4f565b9050611de28282611d9b565b919050565b600067ffffffffffffffff821115611e0257611e01611d6c565b5b611e0b82611c60565b9050602081019050919050565b82818337600083830152505050565b6000611e3a611e3584611de7565b611dcc565b905082815260208101848484011115611e5657611e55611d67565b5b611e61848285611e18565b509392505050565b600082601f830112611e7e57611e7d611d62565b5b8135611e8e848260208601611e27565b91505092915050565b600060208284031215611ead57611eac611b59565b5b600082013567ffffffffffffffff811115611ecb57611eca611b5e565b5b611ed784828501611e69565b91505092915050565b611ee981611b83565b82525050565b6000602082019050611f046000830184611ee0565b92915050565b6000611f1582611c1a565b611f1f8185611ad2565b9350611f2f818560208601611c36565b611f3881611c60565b840191505092915050565b60006020820190508181036000830152611f5d8184611f0a565b905092915050565b60008115159050919050565b611f7a81611f65565b82525050565b6000602082019050611f956000830184611f71565b92915050565b6000819050919050565b611fae81611f9b565b82525050565b6000602082019050611fc96000830184611fa5565b92915050565b600060ff82169050919050565b611fe581611fcf565b8114611ff057600080fd5b50565b60008135905061200281611fdc565b92915050565b60008060008060008060c0878903121561202557612024611b59565b5b600087013567ffffffffffffffff81111561204357612042611b5e565b5b61204f89828a01611e69565b965050602061206089828a01611bac565b955050604061207189828a01611bac565b945050606087013567ffffffffffffffff81111561209257612091611b5e565b5b61209e89828a01611e69565b93505060806120af89828a01611ff3565b92505060a087013567ffffffffffffffff8111156120d0576120cf611b5e565b5b6120dc89828a01611e69565b9150509295509295509295565b60008060408385031215612100576120ff611b59565b5b600083013567ffffffffffffffff81111561211e5761211d611b5e565b5b61212a85828601611e69565b925050602061213b85828601611bac565b9150509250929050565b61214e81611b83565b82525050565b61215d81611fcf565b82525050565b61216c81611f65565b82525050565b61217b81611f9b565b82525050565b600061010083016000830151848203600086015261219f8282611c71565b91505060208301516121b46020860182612145565b5060408301516121c76040860182612145565b50606083015184820360608601526121df8282611c71565b91505060808301516121f46080860182612154565b5060a083015184820360a086015261220c8282611c71565b91505060c083015161222160c0860182612163565b5060e083015161223460e0860182612172565b508091505092915050565b600060208201905081810360008301526122598184612181565b905092915050565b600080600080600060a0868803121561227d5761227c611b59565b5b600086013567ffffffffffffffff81111561229b5761229a611b5e565b5b6122a788828901611e69565b95505060206122b888828901611bac565b945050604086013567ffffffffffffffff8111156122d9576122d8611b5e565b5b6122e588828901611e69565b93505060606122f688828901611ff3565b925050608086013567ffffffffffffffff81111561231757612316611b5e565b5b61232388828901611e69565b9150509295509295909350565b7f4e487b7100000000000000000000000000000000000000000000000000000000600052602260045260246000fd5b6000600282049050600182168061237757607f821691505b60208210810361238a57612389612330565b5b50919050565b600081905092915050565b60006123a682611c1a565b6123b08185612390565b93506123c0818560208601611c36565b80840191505092915050565b60006123d8828461239b565b915081905092915050565b7f44657669636552656769737472793a204e616d652063616e6e6f74206265206560008201527f6d70747900000000000000000000000000000000000000000000000000000000602082015250565b600061243f602483611ad2565b915061244a826123e3565b604082019050919050565b6000602082019050818103600083015261246e81612432565b9050919050565b7f44657669636552656769737472793a204e616d6520746f6f206c6f6e6720286d60008201527f6178203530206368617273290000000000000000000000000000000000000000602082015250565b60006124d1602c83611ad2565b91506124dc82612475565b604082019050919050565b60006020820190508181036000830152612500816124c4565b9050919050565b60008190508160005260206000209050919050565b60006020601f8301049050919050565b600082821b905092915050565b6000600883026125697fffffffffffffffffffffffffffffffffffffffffffffffffffffffffffffffff8261252c565b612573868361252c565b95508019841693508086168417925050509392505050565b6000819050919050565b60006125b06125ab6125a684611f9b565b61258b565b611f9b565b9050919050565b6000819050919050565b6125ca83612595565b6125de6125d6826125b7565b848454612539565b825550505050565b600090565b6125f36125e6565b6125fe8184846125c1565b505050565b5b81811015612622576126176000826125eb565b600181019050612604565b5050565b601f8211156126675761263881612507565b6126418461251c565b81016020851015612650578190505b61266461265c8561251c565b830182612603565b50505b505050565b600082821c905092915050565b600061268a6000198460080261266c565b1980831691505092915050565b60006126a38383612679565b9150826002028217905092915050565b6126bc82611c1a565b67ffffffffffffffff8111156126d5576126d4611d6c565b5b6126df825461235f565b6126ea828285612626565b600060209050601f83116001811461271d576000841561270b578287015190505b6127158582612697565b86555061277d565b601f19841661272b86612507565b60005b828110156127535784890151825560018201915060208501945060208101905061272e565b86831015612770578489015161276c601f891682612679565b8355505b6001600288020188555050505b505050505050565b6000604082019050818103600083015261279f8185611f0a565b90506127ae6020830184611fa5565b9392505050565b7f44657669636552656769737472793a20446576696365206e6f7420726567697360008201527f7465726564000000000000000000000000000000000000000000000000000000602082015250565b6000612811602583611ad2565b915061281c826127b5565b604082019050919050565b6000602082019050818103600083015261284081612804565b9050919050565b7f44657669636552656769737472793a204e6f7420617574686f72697a65640000600082015250565b600061287d601e83611ad2565b915061288882612847565b602082019050919050565b600060208201905081810360008301526128ac81612870565b9050919050565b7f44657669636552656769737472793a204f6e6c792070617469656e742063616e60008201527f20706572666f726d207468697320616374696f6e000000000000000000000000602082015250565b600061290f603483611ad2565b915061291a826128b3565b604082019050919050565b6000602082019050818103600083015261293e81612902565b9050919050565b7f44657669636552656769737472793a20496e76616c696420677561726469616e60008201527f2061646472657373000000000000000000000000000000000000000000000000602082015250565b60006129a1602883611ad2565b91506129ac82612945565b604082019050919050565b600060208201905081810360008301526129d081612994565b9050919050565b60006060820190506129ec6000830186611ee0565b6129f96020830185611ee0565b612a066040830184611fa5565b949350505050565b7f44657669636552656769737472793a2044657669636520616c7265616479207260008201527f6567697374657265640000000000000000000000000000000000000000000000602082015250565b6000612a6a602983611ad2565b9150612a7582612a0e565b604082019050919050565b60006020820190508181036000830152612a9981612a5d565b9050919050565b7f44657669636552656769737472793a20496e76616c69642070617469656e742060008201527f6164647265737300000000000000000000000000000000000000000000000000602082015250565b6000612afc602783611ad2565b9150612b0782612aa0565b604082019050919050565b60006020820190508181036000830152612b2b81612aef565b9050919050565b7f44657669636552656769737472793a2044657669636520494420746f6f20736860008201527f6f727420286d696e203820636861727329000000000000000000000000000000602082015250565b6000612b8e603183611ad2565b9150612b9982612b32565b604082019050919050565b60006020820190508181036000830152612bbd81612b81565b9050919050565b7f4e487b7100000000000000000000000000000000000000000000000000000000600052601160045260246000fd5b6000612bfe82611f9b565b91507fffffffffffffffffffffffffffffffffffffffffffffffffffffffffffffffff8203612c3057612c2f612bc4565b5b60018201905091905056fea2646970667358221220d20398472cbfa39a57234f9521983c0f14b7a7ac163d6b4189e238a5d2d2197064736f6c6343000814003360806040523480156200001157600080fd5b5060405162002c2d38038062002c2d83398181016040528101906200003791906200015b565b600073ffffffffffffffffffffffffffffffffffffffff168173ffffffffffffffffffffffffffffffffffffffff1603620000a9576040517f08c379a0000000000000000000000000000000000000000000000000000000008152600401620000a09062000214565b60405180910390fd5b80600260006101000a81548173ffffffffffffffffffffffffffffffffffffffff021916908373ffffffffffffffffffffffffffffffffffffffff1602179055505062000236565b600080fd5b600073ffffffffffffffffffffffffffffffffffffffff82169050919050565b60006200012382620000f6565b9050919050565b620001358162000116565b81146200014157600080fd5b50565b60008151905062000155816200012a565b92915050565b600060208284031215620001745762000173620000f1565b5b6000620001848482850162000144565b91505092915050565b600082825260208201905092915050565b7f4576656e744c6f676765723a20496e76616c696420726567697374727920616460008201527f6472657373000000000000000000000000000000000000000000000000000000602082015250565b6000620001fc6025836200018d565b915062000209826200019e565b604082019050919050565b600060208201905081810360008301526200022f81620001ed565b9050919050565b6129e780620002466000396000f3fe6080604052600436106100955760003560e01c8063810ef11a11610059578063810ef11a146101e5578063aa7f79e714610222578063ba8706861461025f578063d35482461461028a578063d590786a146102b3576100d5565b8063156ca235146100da5780634ace288e1461010357806353361502146101405780635efb870a1461017d5780636d1884e0146101a8576100d5565b366100d5576040517f08c379a00000000000000000000000000000000000000000000000000000000081526004016100cc9061156e565b60405180910390fd5b600080fd5b3480156100e657600080fd5b5061010160048036038101906100fc919061177c565b6102f0565b005b34801561010f57600080fd5b5061012a60048036038101906101259190611851565b6104bc565b6040516101379190611a98565b60405180910390f35b34801561014c57600080fd5b5061016760048036038101906101629190611aba565b610828565b6040516101749190611b12565b60405180910390f35b34801561018957600080fd5b50610192610853565b60405161019f9190611b8c565b60405180910390f35b3480156101b457600080fd5b506101cf60048036038101906101ca9190611ba7565b610879565b6040516101dc9190611c51565b60405180910390f35b3480156101f157600080fd5b5061020c60048036038101906102079190611aba565b610a8a565b6040516102199190611d22565b60405180910390f35b34801561022e57600080fd5b5061024960048036038101906102449190611d44565b610b00565b6040516102569190611a98565b60405180910390f35b34801561026b57600080fd5b50610274610e36565b6040516102819190611b12565b60405180910390f35b34801561029657600080fd5b506102b160048036038101906102ac9190611d84565b610e3c565b005b3480156102bf57600080fd5b506102da60048036038101906102d59190611e0f565b611007565b6040516102e79190611e6a565b60405180910390f35b82600260009054906101000a900473ffffffffffffffffffffffffffffffffffffffff1673ffffffffffffffffffffffffffffffffffffffff166368ba4eaf826040518263ffffffff1660e01b815260040161034c9190611ebe565b602060405180830381865afa158015610369573d6000803e3d6000fd5b505050506040513d601f19601f8201168201806040525081019061038d9190611f0c565b6103cc576040517f08c379a00000000000000000000000000000000000000000000000000000000081526004016103c390611fab565b60405180910390fd5b83600260009054906101000a900473ffffffffffffffffffffffffffffffffffffffff1673ffffffffffffffffffffffffffffffffffffffff16635cd10dc1826040518263ffffffff1660e01b81526004016104289190611ebe565b602060405180830381865afa158015610445573d6000803e3d6000fd5b505050506040513d601f19601f820116820180604052508101906104699190611f0c565b6104a8576040517f08c379a000000000000000000000000000000000000000000000000000000000815260040161049f9061203d565b60405180910390fd5b6104b48686868661107f565b505050505050565b60606000821180156104cf575060648211155b61050e576040517f08c379a0000000000000000000000000000000000000000000000000000000008152600401610505906120a9565b60405180910390fd5b60006001846040516105209190612105565b908152602001604051809103902080548060200260200160405190810160405280929190818152602001828054801561057857602002820191906000526020600020905b815481526020019060010190808311610564575b50505050509050600083825111610590578151610592565b835b905060008167ffffffffffffffff8111156105b0576105af61161b565b5b6040519080825280602002602001820160405280156105e957816020015b6105d66114c9565b8152602001906001900390816105ce5790505b50905060005b8281101561081b576000848260018751610609919061214b565b610613919061214b565b815181106106245761062361217f565b5b60200260200101519050600081815481106106425761064161217f565b5b90600052602060002090600502016040518060a001604052908160008201805461066b906121dd565b80601f0160208091040260200160405190810160405280929190818152602001828054610697906121dd565b80156106e45780601f106106b9576101008083540402835291602001916106e4565b820191906000526020600020905b8154815290600101906020018083116106c757829003601f168201915b50505050508152602001600182015481526020016002820160009054906101000a900473ffffffffffffffffffffffffffffffffffffffff1673ffffffffffffffffffffffffffffffffffffffff1673ffffffffffffffffffffffffffffffffffffffff16815260200160038201805461075d906121dd565b80601f0160208091040260200160405190810160405280929190818152602001828054610789906121dd565b80156107d65780601f106107ab576101008083540402835291602001916107d6565b820191906000526020600020905b8154815290600101906020018083116107b957829003601f168201915b505050505081526020016004820154815250508383815181106107fc576107fb61217f565b5b60200260200101819052505080806108139061220e565b9150506105ef565b5080935050505092915050565b600060018260405161083a9190612105565b9081526020016040518091039020805490509050919050565b600260009054906101000a900473ffffffffffffffffffffffffffffffffffffffff1681565b6108816114c9565b60008054905082106108c8576040517f08c379a00000000000000000000000000000000000000000000000000000000081526004016108bf906122c8565b60405180910390fd5b600082815481106108dc576108db61217f565b5b90600052602060002090600502016040518060a0016040529081600082018054610905906121dd565b80601f0160208091040260200160405190810160405280929190818152602001828054610931906121dd565b801561097e5780601f106109535761010080835404028352916020019161097e565b820191906000526020600020905b81548152906001019060200180831161096157829003601f168201915b50505050508152602001600182015481526020016002820160009054906101000a900473ffffffffffffffffffffffffffffffffffffffff1673ffffffffffffffffffffffffffffffffffffffff1673ffffffffffffffffffffffffffffffffffffffff1681526020016003820180546109f7906121dd565b80601f0160208091040260200160405190810160405280929190818152602001828054610a23906121dd565b8015610a705780601f10610a4557610100808354040283529160200191610a70565b820191906000526020600020905b815481529060010190602001808311610a5357829003601f168201915b505050505081526020016004820154815250509050919050565b6060600182604051610a9c9190612105565b9081526020016040518091039020805480602002602001604051908101604052809291908181526020018280548015610af457602002820191906000526020600020905b815481526020019060010190808311610ae0575b50505050509050919050565b60606000805490508310610b49576040517f08c379a0000000000000000000000000000000000000000000000000000000008152600401610b409061235a565b60405180910390fd5b600082118015610b5a575060648211155b610b99576040517f08c379a0000000000000000000000000000000000000000000000000000000008152600401610b90906120a9565b60405180910390fd5b60008284610ba7919061237a565b9050600080549050811115610bbf5760008054905090505b60008482610bcd919061214b565b905060008167ffffffffffffffff811115610beb57610bea61161b565b5b604051908082528060200260200182016040528015610c2457816020015b610c116114c9565b815260200190600190039081610c095790505b50905060005b82811015610e295760008188610c40919061237a565b81548110610c5157610c5061217f565b5b90600052602060002090600502016040518060a0016040529081600082018054610c7a906121dd565b80601f0160208091040260200160405190810160405280929190818152602001828054610ca6906121dd565b8015610cf35780601f10610cc857610100808354040283529160200191610cf3565b820191906000526020600020905b815481529060010190602001808311610cd657829003601f168201915b50505050508152602001600182015481526020016002820160009054906101000a900473ffffffffffffffffffffffffffffffffffffffff1673ffffffffffffffffffffffffffffffffffffffff1673ffffffffffffffffffffffffffffffffffffffff168152602001600382018054610d6c906121dd565b80601f0160208091040260200160405190810160405280929190818152602001828054610d98906121dd565b8015610de55780601f10610dba57610100808354040283529160200191610de5565b820191906000526020600020905b815481529060010190602001808311610dc857829003601f168201915b50505050508152602001600482015481525050828281518110610e0b57610e0a61217f565b5b60200260200101819052508080610e219061220e565b915050610c2a565b5080935050505092915050565b60035481565b82600260009054906101000a900473ffffffffffffffffffffffffffffffffffffffff1673ffffffffffffffffffffffffffffffffffffffff166368ba4eaf826040518263ffffffff1660e01b8152600401610e989190611ebe565b602060405180830381865afa158015610eb5573d6000803e3d6000fd5b505050506040513d601f19601f82011682018060405250810190610ed99190611f0c565b610f18576040517f08c379a0000000000000000000000000000000000000000000000000000000008152600401610f0f90611fab565b60405180910390fd5b83600260009054906101000a900473ffffffffffffffffffffffffffffffffffffffff1673ffffffffffffffffffffffffffffffffffffffff16635cd10dc1826040518263ffffffff1660e01b8152600401610f749190611ebe565b602060405180830381865afa158015610f91573d6000803e3d6000fd5b505050506040513d601f19601f82011682018060405250810190610fb59190611f0c565b610ff4576040517f08c379a0000000000000000000000000000000000000000000000000000000008152600401610feb9061203d565b60405180910390fd5b6110003386868661107f565b5050505050565b60008080549050831061104f576040517f08c379a0000000000000000000000000000000000000000000000000000000008152600401611046906122c8565b60405180910390fd5b81600084815481106110645761106361217f565b5b90600052602060002090600502016001015414905092915050565b6000600260009054906101000a900473ffffffffffffffffffffffffffffffffffffffff1673ffffffffffffffffffffffffffffffffffffffff1663b71a0346856040518263ffffffff1660e01b81526004016110dc9190611ebe565b600060405180830381865afa1580156110f9573d6000803e3d6000fd5b505050506040513d6000823e3d601f19601f8201168201806040525081019061112291906125a9565b9050806020015173ffffffffffffffffffffffffffffffffffffffff168573ffffffffffffffffffffffffffffffffffffffff1614806111915750806040015173ffffffffffffffffffffffffffffffffffffffff168573ffffffffffffffffffffffffffffffffffffffff16145b6111d0576040517f08c379a00000000000000000000000000000000000000000000000000000000081526004016111c790612664565b60405180910390fd5b6000828051906020012090506040518060400160405280600681526020017f6e6f726d616c00000000000000000000000000000000000000000000000000008152508051906020012081148061126157506040518060400160405280600581526020017f616c6572740000000000000000000000000000000000000000000000000000008152508051906020012081145b806112a757506040518060400160405280600881526020017f637269746963616c0000000000000000000000000000000000000000000000008152508051906020012081145b6112e6576040517f08c379a00000000000000000000000000000000000000000000000000000000081526004016112dd906126d0565b60405180910390fd5b60006040518060a00160405280878152602001868152602001846040015173ffffffffffffffffffffffffffffffffffffffff1681526020018581526020014281525090506000819080600181540180825580915050600190039060005260206000209060050201600090919091909150600082015181600001908161136c9190612892565b506020820151816001015560408201518160020160006101000a81548173ffffffffffffffffffffffffffffffffffffffff021916908373ffffffffffffffffffffffffffffffffffffffff16021790555060608201518160030190816113d39190612892565b50608082015181600401555050600060016000805490506113f4919061214b565b90506001876040516114069190612105565b90815260200160405180910390208190806001815401808255809150506001900390600052602060002001600090919091909150556003600081548092919061144e9061220e565b9190505550836040015173ffffffffffffffffffffffffffffffffffffffff168760405161147c9190612105565b60405180910390207f3826f73ae69b3a7d4560d320a6c29c90bd452990ac0c9c559e6587286830d59d8888426040516114b793929190612973565b60405180910390a35050505050505050565b6040518060a001604052806060815260200160008019168152602001600073ffffffffffffffffffffffffffffffffffffffff16815260200160608152602001600081525090565b600082825260208201905092915050565b7f4576656e744c6f676765723a20455448206e6f74206163636570746564000000600082015250565b6000611558601d83611511565b915061156382611522565b602082019050919050565b600060208201905081810360008301526115878161154b565b9050919050565b6000604051905090565b600080fd5b600080fd5b600073ffffffffffffffffffffffffffffffffffffffff82169050919050565b60006115cd826115a2565b9050919050565b6115dd816115c2565b81146115e857600080fd5b50565b6000813590506115fa816115d4565b92915050565b600080fd5b600080fd5b6000601f19601f8301169050919050565b7f4e487b7100000000000000000000000000000000000000000000000000000000600052604160045260246000fd5b6116538261160a565b810181811067ffffffffffffffff821117156116725761167161161b565b5b80604052505050565b600061168561158e565b9050611691828261164a565b919050565b600067ffffffffffffffff8211156116b1576116b061161b565b5b6116ba8261160a565b9050602081019050919050565b82818337600083830152505050565b60006116e96116e484611696565b61167b565b90508281526020810184848401111561170557611704611605565b5b6117108482856116c7565b509392505050565b600082601f83011261172d5761172c611600565b5b813561173d8482602086016116d6565b91505092915050565b6000819050919050565b61175981611746565b811461176457600080fd5b50565b60008135905061177681611750565b92915050565b6000806000806080858703121561179657611795611598565b5b60006117a4878288016115eb565b945050602085013567ffffffffffffffff8111156117c5576117c461159d565b5b6117d187828801611718565b93505060406117e287828801611767565b925050606085013567ffffffffffffffff8111156118035761180261159d565b5b61180f87828801611718565b91505092959194509250565b6000819050919050565b61182e8161181b565b811461183957600080fd5b50565b60008135905061184b81611825565b92915050565b6000806040838503121561186857611867611598565b5b600083013567ffffffffffffffff8111156118865761188561159d565b5b61189285828601611718565b92505060206118a38582860161183c565b9150509250929050565b600081519050919050565b600082825260208201905092915050565b6000819050602082019050919050565b600081519050919050565b600082825260208201905092915050565b60005b838110156119135780820151818401526020810190506118f8565b60008484015250505050565b600061192a826118d9565b61193481856118e4565b93506119448185602086016118f5565b61194d8161160a565b840191505092915050565b61196181611746565b82525050565b611970816115c2565b82525050565b61197f8161181b565b82525050565b600060a08301600083015184820360008601526119a2828261191f565b91505060208301516119b76020860182611958565b5060408301516119ca6040860182611967565b50606083015184820360608601526119e2828261191f565b91505060808301516119f76080860182611976565b508091505092915050565b6000611a0e8383611985565b905092915050565b6000602082019050919050565b6000611a2e826118ad565b611a3881856118b8565b935083602082028501611a4a856118c9565b8060005b85811015611a865784840389528151611a678582611a02565b9450611a7283611a16565b925060208a01995050600181019050611a4e565b50829750879550505050505092915050565b60006020820190508181036000830152611ab28184611a23565b905092915050565b600060208284031215611ad057611acf611598565b5b600082013567ffffffffffffffff811115611aee57611aed61159d565b5b611afa84828501611718565b91505092915050565b611b0c8161181b565b82525050565b6000602082019050611b276000830184611b03565b92915050565b6000819050919050565b6000611b52611b4d611b48846115a2565b611b2d565b6115a2565b9050919050565b6000611b6482611b37565b9050919050565b6000611b7682611b59565b9050919050565b611b8681611b6b565b82525050565b6000602082019050611ba16000830184611b7d565b92915050565b600060208284031215611bbd57611bbc611598565b5b6000611bcb8482850161183c565b91505092915050565b600060a0830160008301518482036000860152611bf1828261191f565b9150506020830151611c066020860182611958565b506040830151611c196040860182611967565b5060608301518482036060860152611c31828261191f565b9150506080830151611c466080860182611976565b508091505092915050565b60006020820190508181036000830152611c6b8184611bd4565b905092915050565b600081519050919050565b600082825260208201905092915050565b6000819050602082019050919050565b6000611cab8383611976565b60208301905092915050565b6000602082019050919050565b6000611ccf82611c73565b611cd98185611c7e565b9350611ce483611c8f565b8060005b83811015611d15578151611cfc8882611c9f565b9750611d0783611cb7565b925050600181019050611ce8565b5085935050505092915050565b60006020820190508181036000830152611d3c8184611cc4565b905092915050565b60008060408385031215611d5b57611d5a611598565b5b6000611d698582860161183c565b9250506020611d7a8582860161183c565b9150509250929050565b600080600060608486031215611d9d57611d9c611598565b5b600084013567ffffffffffffffff811115611dbb57611dba61159d565b5b611dc786828701611718565b9350506020611dd886828701611767565b925050604084013567ffffffffffffffff811115611df957611df861159d565b5b611e0586828701611718565b9150509250925092565b60008060408385031215611e2657611e25611598565b5b6000611e348582860161183c565b9250506020611e4585828601611767565b9150509250929050565b60008115159050919050565b611e6481611e4f565b82525050565b6000602082019050611e7f6000830184611e5b565b92915050565b6000611e90826118d9565b611e9a8185611511565b9350611eaa8185602086016118f5565b611eb38161160a565b840191505092915050565b60006020820190508181036000830152611ed88184611e85565b905092915050565b611ee981611e4f565b8114611ef457600080fd5b50565b600081519050611f0681611ee0565b92915050565b600060208284031215611f2257611f21611598565b5b6000611f3084828501611ef7565b91505092915050565b7f4576656e744c6f676765723a20446576696365206e6f7420726567697374657260008201527f6564000000000000000000000000000000000000000000000000000000000000602082015250565b6000611f95602283611511565b9150611fa082611f39565b604082019050919050565b60006020820190508181036000830152611fc481611f88565b9050919050565b7f4576656e744c6f676765723a20446576696365206973206e6f7420616374697660008201527f6500000000000000000000000000000000000000000000000000000000000000602082015250565b6000612027602183611511565b915061203282611fcb565b604082019050919050565b600060208201905081810360008301526120568161201a565b9050919050565b7f4576656e744c6f676765723a204c696d6974206d75737420626520312d313030600082015250565b6000612093602083611511565b915061209e8261205d565b602082019050919050565b600060208201905081810360008301526120c281612086565b9050919050565b600081905092915050565b60006120df826118d9565b6120e981856120c9565b93506120f98185602086016118f5565b80840191505092915050565b600061211182846120d4565b915081905092915050565b7f4e487b7100000000000000000000000000000000000000000000000000000000600052601160045260246000fd5b60006121568261181b565b91506121618361181b565b92508282039050818111156121795761217861211c565b5b92915050565b7f4e487b7100000000000000000000000000000000000000000000000000000000600052603260045260246000fd5b7f4e487b7100000000000000000000000000000000000000000000000000000000600052602260045260246000fd5b600060028204905060018216806121f557607f821691505b602082108103612208576122076121ae565b5b50919050565b60006122198261181b565b91507fffffffffffffffffffffffffffffffffffffffffffffffffffffffffffffffff820361224b5761224a61211c565b5b600182019050919050565b7f4576656e744c6f676765723a204576656e7420696e646578206f7574206f662060008201527f626f756e64730000000000000000000000000000000000000000000000000000602082015250565b60006122b2602683611511565b91506122bd82612256565b604082019050919050565b600060208201905081810360008301526122e1816122a5565b9050919050565b7f4576656e744c6f676765723a204f6666736574206f7574206f6620626f756e6460008201527f7300000000000000000000000000000000000000000000000000000000000000602082015250565b6000612344602183611511565b915061234f826122e8565b604082019050919050565b6000602082019050818103600083015261237381612337565b9050919050565b60006123858261181b565b91506123908361181b565b92508282019050808211156123a8576123a761211c565b5b92915050565b600080fd5b600080fd5b60006123cb6123c684611696565b61167b565b9050828152602081018484840111156123e7576123e6611605565b5b6123f28482856118f5565b509392505050565b600082601f83011261240f5761240e611600565b5b815161241f8482602086016123b8565b91505092915050565b600081519050612437816115d4565b92915050565b600060ff82169050919050565b6124538161243d565b811461245e57600080fd5b50565b6000815190506124708161244a565b92915050565b60008151905061248581611825565b92915050565b600061010082840312156124a2576124a16123ae565b5b6124ad61010061167b565b9050600082015167ffffffffffffffff8111156124cd576124cc6123b3565b5b6124d9848285016123fa565b60008301525060206124ed84828501612428565b602083015250604061250184828501612428565b604083015250606082015167ffffffffffffffff811115612525576125246123b3565b5b612531848285016123fa565b606083015250608061254584828501612461565b60808301525060a082015167ffffffffffffffff811115612569576125686123b3565b5b612575848285016123fa565b60a08301525060c061258984828501611ef7565b60c08301525060e061259d84828501612476565b60e08301525092915050565b6000602082840312156125bf576125be611598565b5b600082015167ffffffffffffffff8111156125dd576125dc61159d565b5b6125e98482850161248b565b91505092915050565b7f4576656e744c6f676765723a204f6e6c792070617469656e74206f722067756160008201527f726469616e2063616e206c6f67206576656e7473000000000000000000000000602082015250565b600061264e603483611511565b9150612659826125f2565b604082019050919050565b6000602082019050818103600083015261267d81612641565b9050919050565b7f4576656e744c6f676765723a20496e76616c6964206576656e74207479706500600082015250565b60006126ba601f83611511565b91506126c582612684565b602082019050919050565b600060208201905081810360008301526126e9816126ad565b9050919050565b60008190508160005260206000209050919050565b60006020601f8301049050919050565b600082821b905092915050565b6000600883026127527fffffffffffffffffffffffffffffffffffffffffffffffffffffffffffffffff82612715565b61275c8683612715565b95508019841693508086168417925050509392505050565b600061278f61278a6127858461181b565b611b2d565b61181b565b9050919050565b6000819050919050565b6127a983612774565b6127bd6127b582612796565b848454612722565b825550505050565b600090565b6127d26127c5565b6127dd8184846127a0565b505050565b5b81811015612801576127f66000826127ca565b6001810190506127e3565b5050565b601f82111561284657612817816126f0565b61282084612705565b8101602085101561282f578190505b61284361283b85612705565b8301826127e2565b50505b505050565b600082821c905092915050565b60006128696000198460080261284b565b1980831691505092915050565b60006128828383612858565b9150826002028217905092915050565b61289b826118d9565b67ffffffffffffffff8111156128b4576128b361161b565b5b6128be82546121dd565b6128c9828285612805565b600060209050601f8311600181146128fc57600084156128ea578287015190505b6128f48582612876565b86555061295c565b601f19841661290a866126f0565b60005b828110156129325784890151825560018201915060208501945060208101905061290d565b8683101561294f578489015161294b601f891682612858565b8355505b6001600288020188555050505b505050505050565b61296d81611746565b82525050565b60006060820190506129886000830186612964565b818103602083015261299a8185611e85565b90506129a96040830184611b03565b94935050505056fea264697066735822122041a22267f0235e3b4460a7d2dee1e9497ff4d6c3e112289fcc1cdf4584782ee564736f6c63430008140033",
  "linkReferences": {},
  "deployedLinkReferences": {}
}