{
  "_format": "hh-sol-artifact-1",
  "contractName": "PatientMonitor",
  "sourceName": "contracts/PatientMonitor.sol",
  "abi": [
    {
      "inputs": [],
      "stateMutability": "nonpayable",
      "type": "constructor"
    },
    {
      "anonymous": false,
      "inputs": [
        {
          "indexed": false,
          "internalType": "address",
          "name": "deviceRegistry",
          "type": "address"
        },
        {
          "indexed": false,
          "internalType": "address",
          "name": "eventLogger",
          "type": "address"
        },
        {
          "indexed": false,
          "internalType": "uint256",
          "name": "timestamp",
          "type": "uint256"
        }
      ],
      "name": "ContractsDeployed",
      "type": "event"
    },
    {
      "anonymous": false,
      "inputs": [
        {
          "indexed": true,
          "internalType": "address",
          "name": "previousOwner",
          "type": "address"
        },
        {
          "indexed": true,
          "internalType": "address",
          "name": "newOwner",
          "type": "address"
        },
        {
          "indexed": false,
          "internalType": "uint256",
          "name": "timestamp",
          "type": "uint256"
        }
      ],
      "name": "OwnershipTransferred",
      "type": "event"
    },
    {
      "inputs": [
        {
          "internalType": "string",
          "name": "deviceId",
          "type": "string"
        },
        {
          "internalType": "address",
          "name": "newGuardian",
          "type": "address"
        }
      ],
      "name": "changeGuardian",
      "outputs": [],
      "stateMutability": "nonpayable",
      "type": "function"
    },
    {
      "inputs": [
        {
          "internalType": "string",
          "name": "deviceId",
          "type": "string"
        }
      ],
      "name": "deactivateDevice",
      "outputs": [],
      "stateMutability": "nonpayable",
      "type": "function"
    },
    {
      "inputs": [],
      "name": "deviceRegistry",
      "outputs": [
        {
          "internalType": "contract DeviceRegistry",
          "name": "",
          "type": "address"
        }
      ],
      "stateMutability": "view",
      "type": "function"
    },
    {
      "inputs": [],
      "name": "eventLogger",
      "outputs": [
        {
          "internalType": "contract EventLogger",
          "name": "",
          "type": "address"
        }
      ],
      "stateMutability": "view",
      "type": "function"
    },
    {
      "inputs": [
        {
          "internalType": "uint256",
          "name": "offset",
          "type": "uint256"
        },
        {
          "internalType": "uint256",
          "name": "limit",
          "type": "uint256"
        }
      ],
      "name": "getAllEvents",
      "outputs": [
        {
          "components": [
            {
              "internalType": "string",
              "name": "deviceId",
              "type": "string"
            },
            {
              "internalType": "bytes32",
              "name": "dataHash",
              "type": "bytes32"
            },
            {
              "internalType": "address",
              "name": "guardian",
              "type": "address"
            },
            {
              "internalType": "string",
              "name": "eventType",
              "type": "string"
            },
            {
              "internalType": "uint256",
              "name": "timestamp",
              "type": "uint256"
            }
          ],
          "internalType": "struct IEventLogger.EventLog[]",
          "name": "",
          "type": "tuple[]"
        }
      ],
      "stateMutability": "view",
      "type": "function"
    },
    {
      "inputs": [],
      "name": "getContractAddresses",
      "outputs": [
        {
          "internalType": "address",
          "name": "",
          "type": "address"
        },
        {
          "internalType": "address",
          "name": "",
          "type": "address"
        }
      ],
      "stateMutability": "view",
      "type": "function"
    },
    {
      "inputs": [
        {
          "internalType": "string",
          "name": "deviceId",
          "type": "string"
        }
      ],
      "name": "getDevice",
      "outputs": [
        {
          "components": [
            {
              "internalType": "string",
              "name": "deviceId",
              "type": "string"
            },
            {
              "internalType": "address",
              "name": "patient",
              "type": "address"
            },
            {
              "internalType": "address",
              "name": "guardian",
              "type": "address"
            },
            {
              "internalType": "string",
              "name": "fullName",
              "type": "string"
            },
            {
              "internalType": "uint8",
              "name": "age",
              "type": "uint8"
            },
            {
              "internalType": "string",
              "name": "homeLocation",
              "type": "string"
            },
            {
              "internalType": "bool",
              "name": "isActive",
              "type": "bool"
            },
            {
              "internalType": "uint256",
              "name": "registeredAt",
              "type": "uint256"
            }
          ],
          "internalType": "struct IDeviceRegistry.Device",
          "name": "",
          "type": "tuple"
        }
      ],
      "stateMutability": "view",
      "type": "function"
    },
    {
      "inputs": [
        {
          "internalType": "string",
          "name": "deviceId",
          "type": "string"
        }
      ],
      "name": "getDeviceEventCount",
      "outputs": [
        {
          "internalType": "uint256",
          "name": "",
          "type": "uint256"
        }
      ],
      "stateMutability": "view",
      "type": "function"
    },
    {
      "inputs": [
        {
          "internalType": "string",
          "name": "deviceId",
          "type": "string"
        },
        {
          "internalType": "uint256",
          "name": "limit",
          "type": "uint256"
        }
      ],
      "name": "getDeviceEvents",
      "outputs": [
        {
          "components": [
            {
              "internalType": "string",
              "name": "deviceId",
              "type": "string"
            },
            {
              "internalType": "bytes32",
              "name": "dataHash",
              "type": "bytes32"
            },
            {
              "internalType": "address",
              "name": "guardian",
              "type": "address"
            },
            {
              "internalType": "string",
              "name": "eventType",
              "type": "string"
            },
            {
              "internalType": "uint256",
              "name": "timestamp",
              "type": "uint256"
            }
          ],
          "internalType": "struct IEventLogger.EventLog[]",
          "name": "",
          "type": "tuple[]"
        }
      ],
      "stateMutability": "view",
      "type": "function"
    },
    {
      "inputs": [
        {
          "internalType": "uint256",
          "name": "index",
          "type": "uint256"
        }
      ],
      "name": "getEvent",
      "outputs": [
        {
          "components": [
            {
              "internalType": "string",
              "name": "deviceId",
              "type": "string"
            },
            {
              "internalType": "bytes32",
              "name": "dataHash",
              "type": "bytes32"
            },
            {
              "internalType": "address",
              "name": "guardian",
              "type": "address"
            },
            {
              "internalType": "string",
              "name": "eventType",
              "type": "string"
            },
            {
              "internalType": "uint256",
              "name": "timestamp",
              "type": "uint256"
            }
          ],
          "internalType": "struct IEventLogger.EventLog",
          "name": "",
          "type": "tuple"
        }
      ],
      "stateMutability": "view",
      "type": "function"
    },
    {
      "inputs": [
        {
          "internalType": "address",
          "name": "guardian",
          "type": "address"
        }
      ],
      "name": "getGuardianDevices",
      "outputs": [
        {
          "internalType": "string[]",
          "name": "",
          "type": "string[]"
        }
      ],
      "stateMutability": "view",
      "type": "function"
    },
    {
      "inputs": [
        {
          "internalType": "address",
          "name": "guardian",
          "type": "address"
        }
      ],
      "name": "getGuardianName",
      "outputs": [
        {
          "internalType": "string",
          "name": "",
          "type": "string"
        }
      ],
      "stateMutability": "view",
      "type": "function"
    },
    {
      "inputs": [
        {
          "internalType": "address",
          "name": "patient",
          "type": "address"
        }
      ],
      "name": "getPatientDevices",
      "outputs": [
        {
          "internalType": "string[]",
          "name": "",
          "type": "string[]"
        }
      ],
      "stateMutability": "view",
      "type": "function"
    },
    {
      "inputs": [],
      "name": "getTotalDevices",
      "outputs": [
        {
          "internalType": "uint256",
          "name": "",
          "type": "uint256"
        }
      ],
      "stateMutability": "view",
      "type": "function"
    },
    {
      "inputs": [],
      "name": "getTotalEvents",
      "outputs": [
        {
          "internalType": "uint256",
          "name": "",
          "type": "uint256"
        }
      ],
      "stateMutability": "view",
      "type": "function"
    },
    {
      "inputs": [
        {
          "internalType": "string",
          "name": "deviceId",
          "type": "string"
        }
      ],
      "name": "isDeviceActive",
      "outputs": [
        {
          "internalType": "bool",
          "name": "",
          "type": "bool"
        }
      ],
      "stateMutability": "view",
      "type": "function"
    },
    {
      "inputs": [
        {
          "internalType": "string",
          "name": "deviceId",
          "type": "string"
        }
      ],
      "name": "isDeviceRegistered",
      "outputs": [
        {
          "internalType": "bool",
          "name": "",
          "type": "bool"
        }
      ],
      "stateMutability": "view",
      "type": "function"
    },
    {
      "inputs": [
        {
          "internalType": "string",
          "name": "deviceId",
          "type": "string"
        },
        {
          "internalType": "bytes32",
          "name": "dataHash",
          "type": "bytes32"
        },
        {
          "internalType": "string",
          "name": "eventType",
          "type": "string"
        }
      ],
      "name": "logEvent",
      "outputs": [],
      "stateMutability": "nonpayable",
      "type": "function"
    },
    {
      "inputs": [],
      "name": "owner",
      "outputs": [
        {
          "internalType": "address",
          "name": "",
          "type": "address"
        }
      ],
      "stateMutability": "view",
      "type": "function"
    },
    {
      "inputs": [
        {
          "internalType": "string",
          "name": "deviceId",
          "type": "string"
        },
        {
          "internalType": "address",
          "name": "guardian",
          "type": "address"
        },
        {
          "internalType": "string",
          "name": "fullName",
          "type": "string"
        },
        {
          "internalType": "uint8",
          "name": "age",
          "type": "uint8"
        },
        {
          "internalType": "string",
          "name": "homeLocation",
          "type": "string"
        }
      ],
      "name": "registerDevice",
      "outputs": [],
      "stateMutability": "nonpayable",
      "type": "function"
    },
    {
      "inputs": [
        {
          "internalType": "string",
          "name": "name",
          "type": "string"
        }
      ],
      "name": "setGuardianName",
      "outputs": [],
      "stateMutability": "nonpayable",
      "type": "function"
    },
    {
      "inputs": [
        {
          "internalType": "address",
          "name": "newOwner",
          "type": "address"
        }
      ],
      "name": "transferOwnership",
      "outputs": [],
      "stateMutability": "nonpayable",
      "type": "function"
    },
    {
      "stateMutability": "payable",
      "type": "receive"
    }
  ],
  "bytecode": "0x60806040523480156200001157600080fd5b5033600260006101000a81548173ffffffffffffffffffffffffffffffffffffffff021916908373ffffffffffffffffffffffffffffffffffffffff160217905550604051620000619062000302565b604051809103906000f0801580156200007e573d6000803e3d6000fd5b506000806101000a81548173ffffffffffffffffffffffffffffffffffffffff021916908373ffffffffffffffffffffffffffffffffffffffff160217905550600073ffffffffffffffffffffffffffffffffffffffff1660008054906101000a900473ffffffffffffffffffffffffffffffffffffffff1673ffffffffffffffffffffffffffffffffffffffff160362000150576040517f08c379a00000000000000000000000000000000000000000000000000000000081526004016200014790620003a5565b60405180910390fd5b60008054906101000a900473ffffffffffffffffffffffffffffffffffffffff166040516200017f9062000310565b6200018b91906200040c565b604051809103906000f080158015620001a8573d6000803e3d6000fd5b50600160006101000a81548173ffffffffffffffffffffffffffffffffffffffff021916908373ffffffffffffffffffffffffffffffffffffffff160217905550600073ffffffffffffffffffffffffffffffffffffffff16600160009054906101000a900473ffffffffffffffffffffffffffffffffffffffff1673ffffffffffffffffffffffffffffffffffffffff16036200027d576040517f08c379a000000000000000000000000000000000000000000000000000000000815260040162000274906200049f565b60405180910390fd5b7f80dee901bbda9b184c96364252d87d89a4d3ea81668162c18bbb306b9cd44a2160008054906101000a900473ffffffffffffffffffffffffffffffffffffffff16600160009054906101000a900473ffffffffffffffffffffffffffffffffffffffff1642604051620002f493929190620004dc565b60405180910390a162000519565b6131048062002e5f83390190565b612c2d8062005f6383390190565b600082825260208201905092915050565b7f50617469656e744d6f6e69746f723a204465766963655265676973747279206460008201527f65706c6f796d656e74206661696c656400000000000000000000000000000000602082015250565b60006200038d6030836200031e565b91506200039a826200032f565b604082019050919050565b60006020820190508181036000830152620003c0816200037e565b9050919050565b600073ffffffffffffffffffffffffffffffffffffffff82169050919050565b6000620003f482620003c7565b9050919050565b6200040681620003e7565b82525050565b6000602082019050620004236000830184620003fb565b92915050565b7f50617469656e744d6f6e69746f723a204576656e744c6f67676572206465706c60008201527f6f796d656e74206661696c656400000000000000000000000000000000000000602082015250565b600062000487602d836200031e565b9150620004948262000429565b604082019050919050565b60006020820190508181036000830152620004ba8162000478565b9050919050565b6000819050919050565b620004d681620004c1565b82525050565b6000606082019050620004f36000830186620003fb565b620005026020830185620003fb565b620005116040830184620004cb565b949350505050565b61293680620005296000396000f3fe6080604052600436106101385760003560e01c806370094067116100ab578063b0337fe71161006f578063b0337fe7146104cc578063b71a0346146104f5578063d354824614610532578063dc61d1611461055b578063f2fde38b14610586578063fb2c6f22146105af57610178565b806370094067146103d25780638da5cb5b146103fb578063953874d2146104265780639ec98e6014610452578063aa7f79e71461048f57610178565b80635cd10dc1116100fd5780635cd10dc11461029c5780635efb870a146102d9578063616069401461030457806366b20a231461032f57806368ba4eaf146103585780636d1884e01461039557610178565b8062dec0e41461017d57806329991184146101ba5780633209d3c1146101e55780634ace288e14610222578063533615021461025f57610178565b36610178576040517f08c379a000000000000000000000000000000000000000000000000000000000815260040161016f90611430565b60405180910390fd5b600080fd5b34801561018957600080fd5b506101a4600480360381019061019f91906114c2565b6105d8565b6040516101b19190611641565b60405180910390f35b3480156101c657600080fd5b506101cf61067f565b6040516101dc91906116c2565b60405180910390f35b3480156101f157600080fd5b5061020c600480360381019061020791906114c2565b6106a5565b6040516102199190611641565b60405180910390f35b34801561022e57600080fd5b5061024960048036038101906102449190611848565b61074d565b6040516102569190611a1a565b60405180910390f35b34801561026b57600080fd5b5061028660048036038101906102819190611a3c565b6107fa565b6040516102939190611a94565b60405180910390f35b3480156102a857600080fd5b506102c360048036038101906102be9190611a3c565b61089f565b6040516102d09190611aca565b60405180910390f35b3480156102e557600080fd5b506102ee610943565b6040516102fb9190611b06565b60405180910390f35b34801561031057600080fd5b50610319610967565b6040516103269190611a94565b60405180910390f35b34801561033b57600080fd5b5061035660048036038101906103519190611a3c565b6109ff565b005b34801561036457600080fd5b5061037f600480360381019061037a9190611a3c565b610a8d565b60405161038c9190611aca565b60405180910390f35b3480156103a157600080fd5b506103bc60048036038101906103b79190611b21565b610b31565b6040516103c99190611bcb565b60405180910390f35b3480156103de57600080fd5b506103f960048036038101906103f49190611a3c565b610be1565b005b34801561040757600080fd5b50610410610c6f565b60405161041d9190611bfc565b60405180910390f35b34801561043257600080fd5b5061043b610c95565b604051610449929190611c17565b60405180910390f35b34801561045e57600080fd5b50610479600480360381019061047491906114c2565b610ce4565b6040516104869190611c79565b60405180910390f35b34801561049b57600080fd5b506104b660048036038101906104b19190611c9b565b610d8c565b6040516104c39190611a1a565b60405180910390f35b3480156104d857600080fd5b506104f360048036038101906104ee9190611cdb565b610e39565b005b34801561050157600080fd5b5061051c60048036038101906105179190611a3c565b610ecc565b6040516105299190611e20565b60405180910390f35b34801561053e57600080fd5b5061055960048036038101906105549190611e6e565b610f7a565b005b34801561056757600080fd5b50610570611012565b60405161057d9190611a94565b60405180910390f35b34801561059257600080fd5b506105ad60048036038101906105a891906114c2565b6110a9565b005b3480156105bb57600080fd5b506105d660048036038101906105d19190611f25565b611279565b005b606060008054906101000a900473ffffffffffffffffffffffffffffffffffffffff1673ffffffffffffffffffffffffffffffffffffffff1662dec0e4836040518263ffffffff1660e01b81526004016106329190611bfc565b600060405180830381865afa15801561064f573d6000803e3d6000fd5b505050506040513d6000823e3d601f19601f82011682018060405250810190610678919061214a565b9050919050565b600160009054906101000a900473ffffffffffffffffffffffffffffffffffffffff1681565b606060008054906101000a900473ffffffffffffffffffffffffffffffffffffffff1673ffffffffffffffffffffffffffffffffffffffff16633209d3c1836040518263ffffffff1660e01b81526004016107009190611bfc565b600060405180830381865afa15801561071d573d6000803e3d6000fd5b505050506040513d6000823e3d601f19601f82011682018060405250810190610746919061214a565b9050919050565b6060600160009054906101000a900473ffffffffffffffffffffffffffffffffffffffff1673ffffffffffffffffffffffffffffffffffffffff16634ace288e84846040518363ffffffff1660e01b81526004016107ac929190612193565b600060405180830381865afa1580156107c9573d6000803e3d6000fd5b505050506040513d6000823e3d601f19601f820116820180604052508101906107f291906123b1565b905092915050565b6000600160009054906101000a900473ffffffffffffffffffffffffffffffffffffffff1673ffffffffffffffffffffffffffffffffffffffff166353361502836040518263ffffffff1660e01b81526004016108579190611c79565b602060405180830381865afa158015610874573d6000803e3d6000fd5b505050506040513d601f19601f8201168201806040525081019061089891906123fa565b9050919050565b60008060009054906101000a900473ffffffffffffffffffffffffffffffffffffffff1673ffffffffffffffffffffffffffffffffffffffff16635cd10dc1836040518263ffffffff1660e01b81526004016108fb9190611c79565b602060405180830381865afa158015610918573d6000803e3d6000fd5b505050506040513d601f19601f8201168201806040525081019061093c9190612453565b9050919050565b60008054906101000a900473ffffffffffffffffffffffffffffffffffffffff1681565b6000600160009054906101000a900473ffffffffffffffffffffffffffffffffffffffff1673ffffffffffffffffffffffffffffffffffffffff1663ba8706866040518163ffffffff1660e01b8152600401602060405180830381865afa1580156109d6573d6000803e3d6000fd5b505050506040513d601f19601f820116820180604052508101906109fa91906123fa565b905090565b60008054906101000a900473ffffffffffffffffffffffffffffffffffffffff1673ffffffffffffffffffffffffffffffffffffffff166366b20a23826040518263ffffffff1660e01b8152600401610a589190611c79565b600060405180830381600087803b158015610a7257600080fd5b505af1158015610a86573d6000803e3d6000fd5b5050505050565b60008060009054906101000a900473ffffffffffffffffffffffffffffffffffffffff1673ffffffffffffffffffffffffffffffffffffffff166368ba4eaf836040518263ffffffff1660e01b8152600401610ae99190611c79565b602060405180830381865afa158015610b06573d6000803e3d6000fd5b505050506040513d601f19601f82011682018060405250810190610b2a9190612453565b9050919050565b610b39611315565b600160009054906101000a900473ffffffffffffffffffffffffffffffffffffffff1673ffffffffffffffffffffffffffffffffffffffff16636d1884e0836040518263ffffffff1660e01b8152600401610b949190611a94565b600060405180830381865afa158015610bb1573d6000803e3d6000fd5b505050506040513d6000823e3d601f19601f82011682018060405250810190610bda9190612480565b9050919050565b60008054906101000a900473ffffffffffffffffffffffffffffffffffffffff1673ffffffffffffffffffffffffffffffffffffffff166370094067826040518263ffffffff1660e01b8152600401610c3a9190611c79565b600060405180830381600087803b158015610c5457600080fd5b505af1158015610c68573d6000803e3d6000fd5b5050505050565b600260009054906101000a900473ffffffffffffffffffffffffffffffffffffffff1681565b60008060008054906101000a900473ffffffffffffffffffffffffffffffffffffffff16600160009054906101000a900473ffffffffffffffffffffffffffffffffffffffff16915091509091565b606060008054906101000a900473ffffffffffffffffffffffffffffffffffffffff1673ffffffffffffffffffffffffffffffffffffffff16639ec98e60836040518263ffffffff1660e01b8152600401610d3f9190611bfc565b600060405180830381865afa158015610d5c573d6000803e3d6000fd5b505050506040513d6000823e3d601f19601f82011682018060405250810190610d8591906124c9565b9050919050565b6060600160009054906101000a900473ffffffffffffffffffffffffffffffffffffffff1673ffffffffffffffffffffffffffffffffffffffff1663aa7f79e784846040518363ffffffff1660e01b8152600401610deb929190612512565b600060405180830381865afa158015610e08573d6000803e3d6000fd5b505050506040513d6000823e3d601f19601f82011682018060405250810190610e3191906123b1565b905092915050565b60008054906101000a900473ffffffffffffffffffffffffffffffffffffffff1673ffffffffffffffffffffffffffffffffffffffff16639ada42f98383336040518463ffffffff1660e01b8152600401610e969392919061253b565b600060405180830381600087803b158015610eb057600080fd5b505af1158015610ec4573d6000803e3d6000fd5b505050505050565b610ed461135d565b60008054906101000a900473ffffffffffffffffffffffffffffffffffffffff1673ffffffffffffffffffffffffffffffffffffffff1663b71a0346836040518263ffffffff1660e01b8152600401610f2d9190611c79565b600060405180830381865afa158015610f4a573d6000803e3d6000fd5b505050506040513d6000823e3d601f19601f82011682018060405250810190610f7391906126ac565b9050919050565b600160009054906101000a900473ffffffffffffffffffffffffffffffffffffffff1673ffffffffffffffffffffffffffffffffffffffff1663156ca235338585856040518563ffffffff1660e01b8152600401610fdb9493929190612704565b600060405180830381600087803b158015610ff557600080fd5b505af1158015611009573d6000803e3d6000fd5b50505050505050565b60008060009054906101000a900473ffffffffffffffffffffffffffffffffffffffff1673ffffffffffffffffffffffffffffffffffffffff16636121898e6040518163ffffffff1660e01b8152600401602060405180830381865afa158015611080573d6000803e3d6000fd5b505050506040513d601f19601f820116820180604052508101906110a491906123fa565b905090565b600260009054906101000a900473ffffffffffffffffffffffffffffffffffffffff1673ffffffffffffffffffffffffffffffffffffffff163373ffffffffffffffffffffffffffffffffffffffff1614611139576040517f08c379a0000000000000000000000000000000000000000000000000000000008152600401611130906127c9565b60405180910390fd5b600073ffffffffffffffffffffffffffffffffffffffff168173ffffffffffffffffffffffffffffffffffffffff16036111a8576040517f08c379a000000000000000000000000000000000000000000000000000000000815260040161119f9061285b565b60405180910390fd5b6000600260009054906101000a900473ffffffffffffffffffffffffffffffffffffffff16905081600260006101000a81548173ffffffffffffffffffffffffffffffffffffffff021916908373ffffffffffffffffffffffffffffffffffffffff1602179055508173ffffffffffffffffffffffffffffffffffffffff168173ffffffffffffffffffffffffffffffffffffffff167fc13a1166d81cd3b0b352a367aebab95f3a6f6bc695fdab8e9a9d335239c3861b4260405161126d9190611a94565b60405180910390a35050565b60008054906101000a900473ffffffffffffffffffffffffffffffffffffffff1673ffffffffffffffffffffffffffffffffffffffff166375d5a1748633878787876040518763ffffffff1660e01b81526004016112dc9695949392919061288a565b600060405180830381600087803b1580156112f657600080fd5b505af115801561130a573d6000803e3d6000fd5b505050505050505050565b6040518060a001604052806060815260200160008019168152602001600073ffffffffffffffffffffffffffffffffffffffff16815260200160608152602001600081525090565b60405180610100016040528060608152602001600073ffffffffffffffffffffffffffffffffffffffff168152602001600073ffffffffffffffffffffffffffffffffffffffff16815260200160608152602001600060ff16815260200160608152602001600015158152602001600081525090565b600082825260208201905092915050565b7f50617469656e744d6f6e69746f723a20455448206e6f74206163636570746564600082015250565b600061141a6020836113d3565b9150611425826113e4565b602082019050919050565b600060208201905081810360008301526114498161140d565b9050919050565b6000604051905090565b600080fd5b600080fd5b600073ffffffffffffffffffffffffffffffffffffffff82169050919050565b600061148f82611464565b9050919050565b61149f81611484565b81146114aa57600080fd5b50565b6000813590506114bc81611496565b92915050565b6000602082840312156114d8576114d761145a565b5b60006114e6848285016114ad565b91505092915050565b600081519050919050565b600082825260208201905092915050565b6000819050602082019050919050565b600081519050919050565b600082825260208201905092915050565b60005b8381101561155557808201518184015260208101905061153a565b60008484015250505050565b6000601f19601f8301169050919050565b600061157d8261151b565b6115878185611526565b9350611597818560208601611537565b6115a081611561565b840191505092915050565b60006115b78383611572565b905092915050565b6000602082019050919050565b60006115d7826114ef565b6115e181856114fa565b9350836020820285016115f38561150b565b8060005b8581101561162f578484038952815161161085826115ab565b945061161b836115bf565b925060208a019950506001810190506115f7565b50829750879550505050505092915050565b6000602082019050818103600083015261165b81846115cc565b905092915050565b6000819050919050565b600061168861168361167e84611464565b611663565b611464565b9050919050565b600061169a8261166d565b9050919050565b60006116ac8261168f565b9050919050565b6116bc816116a1565b82525050565b60006020820190506116d760008301846116b3565b92915050565b600080fd5b600080fd5b7f4e487b7100000000000000000000000000000000000000000000000000000000600052604160045260246000fd5b61171f82611561565b810181811067ffffffffffffffff8211171561173e5761173d6116e7565b5b80604052505050565b6000611751611450565b905061175d8282611716565b919050565b600067ffffffffffffffff82111561177d5761177c6116e7565b5b61178682611561565b9050602081019050919050565b82818337600083830152505050565b60006117b56117b084611762565b611747565b9050828152602081018484840111156117d1576117d06116e2565b5b6117dc848285611793565b509392505050565b600082601f8301126117f9576117f86116dd565b5b81356118098482602086016117a2565b91505092915050565b6000819050919050565b61182581611812565b811461183057600080fd5b50565b6000813590506118428161181c565b92915050565b6000806040838503121561185f5761185e61145a565b5b600083013567ffffffffffffffff81111561187d5761187c61145f565b5b611889858286016117e4565b925050602061189a85828601611833565b9150509250929050565b600081519050919050565b600082825260208201905092915050565b6000819050602082019050919050565b6000819050919050565b6118e3816118d0565b82525050565b6118f281611484565b82525050565b61190181611812565b82525050565b600060a08301600083015184820360008601526119248282611572565b915050602083015161193960208601826118da565b50604083015161194c60408601826118e9565b50606083015184820360608601526119648282611572565b915050608083015161197960808601826118f8565b508091505092915050565b60006119908383611907565b905092915050565b6000602082019050919050565b60006119b0826118a4565b6119ba81856118af565b9350836020820285016119cc856118c0565b8060005b85811015611a0857848403895281516119e98582611984565b94506119f483611998565b925060208a019950506001810190506119d0565b50829750879550505050505092915050565b60006020820190508181036000830152611a3481846119a5565b905092915050565b600060208284031215611a5257611a5161145a565b5b600082013567ffffffffffffffff811115611a7057611a6f61145f565b5b611a7c848285016117e4565b91505092915050565b611a8e81611812565b82525050565b6000602082019050611aa96000830184611a85565b92915050565b60008115159050919050565b611ac481611aaf565b82525050565b6000602082019050611adf6000830184611abb565b92915050565b6000611af08261168f565b9050919050565b611b0081611ae5565b82525050565b6000602082019050611b1b6000830184611af7565b92915050565b600060208284031215611b3757611b3661145a565b5b6000611b4584828501611833565b91505092915050565b600060a0830160008301518482036000860152611b6b8282611572565b9150506020830151611b8060208601826118da565b506040830151611b9360408601826118e9565b5060608301518482036060860152611bab8282611572565b9150506080830151611bc060808601826118f8565b508091505092915050565b60006020820190508181036000830152611be58184611b4e565b905092915050565b611bf681611484565b82525050565b6000602082019050611c116000830184611bed565b92915050565b6000604082019050611c2c6000830185611bed565b611c396020830184611bed565b9392505050565b6000611c4b8261151b565b611c5581856113d3565b9350611c65818560208601611537565b611c6e81611561565b840191505092915050565b60006020820190508181036000830152611c938184611c40565b905092915050565b60008060408385031215611cb257611cb161145a565b5b6000611cc085828601611833565b9250506020611cd185828601611833565b9150509250929050565b60008060408385031215611cf257611cf161145a565b5b600083013567ffffffffffffffff811115611d1057611d0f61145f565b5b611d1c858286016117e4565b9250506020611d2d858286016114ad565b9150509250929050565b600060ff82169050919050565b611d4d81611d37565b82525050565b611d5c81611aaf565b82525050565b6000610100830160008301518482036000860152611d808282611572565b9150506020830151611d9560208601826118e9565b506040830151611da860408601826118e9565b5060608301518482036060860152611dc08282611572565b9150506080830151611dd56080860182611d44565b5060a083015184820360a0860152611ded8282611572565b91505060c0830151611e0260c0860182611d53565b5060e0830151611e1560e08601826118f8565b508091505092915050565b60006020820190508181036000830152611e3a8184611d62565b905092915050565b611e4b816118d0565b8114611e5657600080fd5b50565b600081359050611e6881611e42565b92915050565b600080600060608486031215611e8757611e8661145a565b5b600084013567ffffffffffffffff811115611ea557611ea461145f565b5b611eb1868287016117e4565b9350506020611ec286828701611e59565b925050604084013567ffffffffffffffff811115611ee357611ee261145f565b5b611eef868287016117e4565b9150509250925092565b611f0281611d37565b8114611f0d57600080fd5b50565b600081359050611f1f81611ef9565b92915050565b600080600080600060a08688031215611f4157611f4061145a565b5b600086013567ffffffffffffffff811115611f5f57611f5e61145f565b5b611f6b888289016117e4565b9550506020611f7c888289016114ad565b945050604086013567ffffffffffffffff811115611f9d57611f9c61145f565b5b611fa9888289016117e4565b9350506060611fba88828901611f10565b925050608086013567ffffffffffffffff811115611fdb57611fda61145f565b5b611fe7888289016117e4565b9150509295509295909350565b600067ffffffffffffffff82111561200f5761200e6116e7565b5b602082029050602081019050919050565b600080fd5b600061203861203384611762565b611747565b905082815260208101848484011115612054576120536116e2565b5b61205f848285611537565b509392505050565b600082601f83011261207c5761207b6116dd565b5b815161208c848260208601612025565b91505092915050565b60006120a86120a384611ff4565b611747565b905080838252602082019050602084028301858111156120cb576120ca612020565b5b835b8181101561211257805167ffffffffffffffff8111156120f0576120ef6116dd565b5b8086016120fd8982612067565b855260208501945050506020810190506120cd565b5050509392505050565b600082601f830112612131576121306116dd565b5b8151612141848260208601612095565b91505092915050565b6000602082840312156121605761215f61145a565b5b600082015167ffffffffffffffff81111561217e5761217d61145f565b5b61218a8482850161211c565b91505092915050565b600060408201905081810360008301526121ad8185611c40565b90506121bc6020830184611a85565b9392505050565b600067ffffffffffffffff8211156121de576121dd6116e7565b5b602082029050602081019050919050565b600080fd5b600080fd5b60008151905061220881611e42565b92915050565b60008151905061221d81611496565b92915050565b6000815190506122328161181c565b92915050565b600060a0828403121561224e5761224d6121ef565b5b61225860a0611747565b9050600082015167ffffffffffffffff811115612278576122776121f4565b5b61228484828501612067565b6000830152506020612298848285016121f9565b60208301525060406122ac8482850161220e565b604083015250606082015167ffffffffffffffff8111156122d0576122cf6121f4565b5b6122dc84828501612067565b60608301525060806122f084828501612223565b60808301525092915050565b600061230f61230a846121c3565b611747565b9050808382526020820190506020840283018581111561233257612331612020565b5b835b8181101561237957805167ffffffffffffffff811115612357576123566116dd565b5b8086016123648982612238565b85526020850194505050602081019050612334565b5050509392505050565b600082601f830112612398576123976116dd565b5b81516123a88482602086016122fc565b91505092915050565b6000602082840312156123c7576123c661145a565b5b600082015167ffffffffffffffff8111156123e5576123e461145f565b5b6123f184828501612383565b91505092915050565b6000602082840312156124105761240f61145a565b5b600061241e84828501612223565b91505092915050565b61243081611aaf565b811461243b57600080fd5b50565b60008151905061244d81612427565b92915050565b6000602082840312156124695761246861145a565b5b60006124778482850161243e565b91505092915050565b6000602082840312156124965761249561145a565b5b600082015167ffffffffffffffff8111156124b4576124b361145f565b5b6124c084828501612238565b91505092915050565b6000602082840312156124df576124de61145a565b5b600082015167ffffffffffffffff8111156124fd576124fc61145f565b5b61250984828501612067565b91505092915050565b60006040820190506125276000830185611a85565b6125346020830184611a85565b9392505050565b600060608201905081810360008301526125558186611c40565b90506125646020830185611bed565b6125716040830184611bed565b949350505050565b60008151905061258881611ef9565b92915050565b600061010082840312156125a5576125a46121ef565b5b6125b0610100611747565b9050600082015167ffffffffffffffff8111156125d0576125cf6121f4565b5b6125dc84828501612067565b60008301525060206125f08482850161220e565b60208301525060406126048482850161220e565b604083015250606082015167ffffffffffffffff811115612628576126276121f4565b5b61263484828501612067565b606083015250608061264884828501612579565b60808301525060a082015167ffffffffffffffff81111561266c5761266b6121f4565b5b61267884828501612067565b60a08301525060c061268c8482850161243e565b60c08301525060e06126a084828501612223565b60e08301525092915050565b6000602082840312156126c2576126c161145a565b5b600082015167ffffffffffffffff8111156126e0576126df61145f565b5b6126ec8482850161258e565b91505092915050565b6126fe816118d0565b82525050565b60006080820190506127196000830187611bed565b818103602083015261272b8186611c40565b905061273a60408301856126f5565b818103606083015261274c8184611c40565b905095945050505050565b7f50617469656e744d6f6e69746f723a2043616c6c6572206973206e6f74206f7760008201527f6e65720000000000000000000000000000000000000000000000000000000000602082015250565b60006127b36023836113d3565b91506127be82612757565b604082019050919050565b600060208201905081810360008301526127e2816127a6565b9050919050565b7f50617469656e744d6f6e69746f723a20496e76616c6964206e6577206f776e6560008201527f7200000000000000000000000000000000000000000000000000000000000000602082015250565b60006128456021836113d3565b9150612850826127e9565b604082019050919050565b6000602082019050818103600083015261287481612838565b9050919050565b61288481611d37565b82525050565b600060c08201905081810360008301526128a48189611c40565b90506128b36020830188611bed565b6128c06040830187611bed565b81810360608301526128d28186611c40565b90506128e1608083018561287b565b81810360a08301526128f38184611c40565b905097965050505050505056fea264697066735822122026c98c6debeeb7ae675689705676789ea568531ef287669f168404b45f89e44d64736f6c63430008140033608060405234801561001057600080fd5b506130e4806100206000396000f3fe6080604052600436106100f65760003560e01c8063700940671161008a578063b0337fe711610059578063b0337fe7146103b5578063b71a0346146103de578063e2ec6e4d1461041b578063fb2c6f221461045857610136565b806370094067146102fd57806375d5a174146103265780639ada42f91461034f5780639ec98e601461037857610136565b80635cd10dc1116100c65780635cd10dc11461022f5780636121898e1461026c57806366b20a231461029757806368ba4eaf146102c057610136565b8062dec0e41461013b5780633209d3c114610178578063577d3ff6146101b55780635baa3f25146101f257610136565b36610136576040517f08c379a000000000000000000000000000000000000000000000000000000000815260040161012d90611ea1565b60405180910390fd5b600080fd5b34801561014757600080fd5b50610162600480360381019061015d9190611f33565b610481565b60405161016f91906120b2565b60405180910390f35b34801561018457600080fd5b5061019f600480360381019061019a9190611f33565b610599565b6040516101ac91906120b2565b60405180910390f35b3480156101c157600080fd5b506101dc60048036038101906101d79190612209565b6106b1565b6040516101e99190612261565b60405180910390f35b3480156101fe57600080fd5b5061021960048036038101906102149190611f33565b6106fb565b60405161022691906122b5565b60405180910390f35b34801561023b57600080fd5b5061025660048036038101906102519190612209565b61079b565b60405161026391906122f2565b60405180910390f35b34801561027857600080fd5b506102816107d2565b60405161028e9190612326565b60405180910390f35b3480156102a357600080fd5b506102be60048036038101906102b99190612209565b6107d8565b005b3480156102cc57600080fd5b506102e760048036038101906102e29190612209565b610901565b6040516102f491906122f2565b60405180910390f35b34801561030957600080fd5b50610324600480360381019061031f9190612209565b61097b565b005b34801561033257600080fd5b5061034d6004803603810190610348919061237a565b610e34565b005b34801561035b57600080fd5b506103766004803603810190610371919061245b565b610e4a565b005b34801561038457600080fd5b5061039f600480360381019061039a9190611f33565b611188565b6040516103ac91906122b5565b60405180910390f35b3480156103c157600080fd5b506103dc60048036038101906103d791906124ca565b611259565b005b3480156103ea57600080fd5b5061040560048036038101906104009190612209565b611598565b6040516104129190612620565b60405180910390f35b34801561042757600080fd5b50610442600480360381019061043d9190612209565b611875565b60405161044f9190612261565b60405180910390f35b34801561046457600080fd5b5061047f600480360381019061047a9190612642565b6118bf565b005b6060600160008373ffffffffffffffffffffffffffffffffffffffff1673ffffffffffffffffffffffffffffffffffffffff168152602001908152602001600020805480602002602001604051908101604052809291908181526020016000905b8282101561058e57838290600052602060002001805461050190612740565b80601f016020809104026020016040519081016040528092919081815260200182805461052d90612740565b801561057a5780601f1061054f5761010080835404028352916020019161057a565b820191906000526020600020905b81548152906001019060200180831161055d57829003601f168201915b5050505050815260200190600101906104e2565b505050509050919050565b6060600260008373ffffffffffffffffffffffffffffffffffffffff1673ffffffffffffffffffffffffffffffffffffffff168152602001908152602001600020805480602002602001604051908101604052809291908181526020016000905b828210156106a657838290600052602060002001805461061990612740565b80601f016020809104026020016040519081016040528092919081815260200182805461064590612740565b80156106925780601f1061066757610100808354040283529160200191610692565b820191906000526020600020905b81548152906001019060200180831161067557829003601f168201915b5050505050815260200190600101906105fa565b505050509050919050565b600080826040516106c291906127ad565b908152602001604051809103902060020160009054906101000a900473ffffffffffffffffffffffffffffffffffffffff169050919050565b6003602052806000526040600020600091509050805461071a90612740565b80601f016020809104026020016040519081016040528092919081815260200182805461074690612740565b80156107935780601f1061076857610100808354040283529160200191610793565b820191906000526020600020905b81548152906001019060200180831161077657829003601f168201915b505050505081565b600080826040516107ac91906127ad565b908152602001604051809103902060060160009054906101000a900460ff169050919050565b60045481565b600081511161081c576040517f08c379a000000000000000000000000000000000000000000000000000000000815260040161081390612836565b60405180910390fd5b603281511115610861576040517f08c379a0000000000000000000000000000000000000000000000000000000008152600401610858906128c8565b60405180910390fd5b80600360003373ffffffffffffffffffffffffffffffffffffffff1673ffffffffffffffffffffffffffffffffffffffff16815260200190815260200160002090816108ad9190612a94565b503373ffffffffffffffffffffffffffffffffffffffff167f7d7f167d425470ead7c40a566e85046c23f2481bae1aa9d3540824904a3fc48682426040516108f6929190612b66565b60405180910390a250565b60008073ffffffffffffffffffffffffffffffffffffffff1660008360405161092a91906127ad565b908152602001604051809103902060010160009054906101000a900473ffffffffffffffffffffffffffffffffffffffff1673ffffffffffffffffffffffffffffffffffffffff1614159050919050565b80600073ffffffffffffffffffffffffffffffffffffffff166000826040516109a491906127ad565b908152602001604051809103902060010160009054906101000a900473ffffffffffffffffffffffffffffffffffffffff1673ffffffffffffffffffffffffffffffffffffffff1603610a2c576040517f08c379a0000000000000000000000000000000000000000000000000000000008152600401610a2390612c08565b60405180910390fd5b60008083604051610a3d91906127ad565b908152602001604051809103902060405180610100016040529081600082018054610a6790612740565b80601f0160208091040260200160405190810160405280929190818152602001828054610a9390612740565b8015610ae05780601f10610ab557610100808354040283529160200191610ae0565b820191906000526020600020905b815481529060010190602001808311610ac357829003601f168201915b505050505081526020016001820160009054906101000a900473ffffffffffffffffffffffffffffffffffffffff1673ffffffffffffffffffffffffffffffffffffffff1673ffffffffffffffffffffffffffffffffffffffff1681526020016002820160009054906101000a900473ffffffffffffffffffffffffffffffffffffffff1673ffffffffffffffffffffffffffffffffffffffff1673ffffffffffffffffffffffffffffffffffffffff168152602001600382018054610ba590612740565b80601f0160208091040260200160405190810160405280929190818152602001828054610bd190612740565b8015610c1e5780601f10610bf357610100808354040283529160200191610c1e565b820191906000526020600020905b815481529060010190602001808311610c0157829003601f168201915b505050505081526020016004820160009054906101000a900460ff1660ff1660ff168152602001600582018054610c5490612740565b80601f0160208091040260200160405190810160405280929190818152602001828054610c8090612740565b8015610ccd5780601f10610ca257610100808354040283529160200191610ccd565b820191906000526020600020905b815481529060010190602001808311610cb057829003601f168201915b505050505081526020016006820160009054906101000a900460ff1615151515815260200160078201548152505090503373ffffffffffffffffffffffffffffffffffffffff16816020015173ffffffffffffffffffffffffffffffffffffffff161480610d6a57503373ffffffffffffffffffffffffffffffffffffffff16816040015173ffffffffffffffffffffffffffffffffffffffff16145b610da9576040517f08c379a0000000000000000000000000000000000000000000000000000000008152600401610da090612c74565b60405180910390fd5b60008084604051610dba91906127ad565b908152602001604051809103902060060160006101000a81548160ff02191690831515021790555082604051610df091906127ad565b60405180910390207f44741574c6d9100819aa13fd0926c49ceed3605e75f0854d17de2516bc14e2c842604051610e279190612326565b60405180910390a2505050565b610e428686868686866118d4565b505050505050565b82600073ffffffffffffffffffffffffffffffffffffffff16600082604051610e7391906127ad565b908152602001604051809103902060010160009054906101000a900473ffffffffffffffffffffffffffffffffffffffff1673ffffffffffffffffffffffffffffffffffffffff1603610efb576040517f08c379a0000000000000000000000000000000000000000000000000000000008152600401610ef290612c08565b60405180910390fd5b8173ffffffffffffffffffffffffffffffffffffffff16600085604051610f2291906127ad565b908152602001604051809103902060010160009054906101000a900473ffffffffffffffffffffffffffffffffffffffff1673ffffffffffffffffffffffffffffffffffffffff1614610faa576040517f08c379a0000000000000000000000000000000000000000000000000000000008152600401610fa190612d06565b60405180910390fd5b600073ffffffffffffffffffffffffffffffffffffffff168373ffffffffffffffffffffffffffffffffffffffff1603611019576040517f08c379a000000000000000000000000000000000000000000000000000000000815260040161101090612d98565b60405180910390fd5b6000808560405161102a91906127ad565b908152602001604051809103902060020160009054906101000a900473ffffffffffffffffffffffffffffffffffffffff1690508360008660405161106f91906127ad565b908152602001604051809103902060020160006101000a81548173ffffffffffffffffffffffffffffffffffffffff021916908373ffffffffffffffffffffffffffffffffffffffff160217905550600160008573ffffffffffffffffffffffffffffffffffffffff1673ffffffffffffffffffffffffffffffffffffffff1681526020019081526020016000208590806001815401808255809150506001900390600052602060002001600090919091909150908161112f9190612a94565b508460405161113e91906127ad565b60405180910390207f8cf963b51c748320b05a970a2676e6ccfec208283664afabc9ded8022d19cbe282864260405161117993929190612db8565b60405180910390a25050505050565b6060600360008373ffffffffffffffffffffffffffffffffffffffff1673ffffffffffffffffffffffffffffffffffffffff16815260200190815260200160002080546111d490612740565b80601f016020809104026020016040519081016040528092919081815260200182805461120090612740565b801561124d5780601f106112225761010080835404028352916020019161124d565b820191906000526020600020905b81548152906001019060200180831161123057829003601f168201915b50505050509050919050565b813373ffffffffffffffffffffffffffffffffffffffff1660008260405161128191906127ad565b908152602001604051809103902060010160009054906101000a900473ffffffffffffffffffffffffffffffffffffffff1673ffffffffffffffffffffffffffffffffffffffff1614611309576040517f08c379a000000000000000000000000000000000000000000000000000000000815260040161130090612e61565b60405180910390fd5b82600073ffffffffffffffffffffffffffffffffffffffff1660008260405161133291906127ad565b908152602001604051809103902060010160009054906101000a900473ffffffffffffffffffffffffffffffffffffffff1673ffffffffffffffffffffffffffffffffffffffff16036113ba576040517f08c379a00000000000000000000000000000000000000000000000000000000081526004016113b190612c08565b60405180910390fd5b600073ffffffffffffffffffffffffffffffffffffffff168373ffffffffffffffffffffffffffffffffffffffff1603611429576040517f08c379a000000000000000000000000000000000000000000000000000000000815260040161142090612d98565b60405180910390fd5b6000808560405161143a91906127ad565b908152602001604051809103902060020160009054906101000a900473ffffffffffffffffffffffffffffffffffffffff1690508360008660405161147f91906127ad565b908152602001604051809103902060020160006101000a81548173ffffffffffffffffffffffffffffffffffffffff021916908373ffffffffffffffffffffffffffffffffffffffff160217905550600160008573ffffffffffffffffffffffffffffffffffffffff1673ffffffffffffffffffffffffffffffffffffffff1681526020019081526020016000208590806001815401808255809150506001900390600052602060002001600090919091909150908161153f9190612a94565b508460405161154e91906127ad565b60405180910390207f8cf963b51c748320b05a970a2676e6ccfec208283664afabc9ded8022d19cbe282864260405161158993929190612db8565b60405180910390a25050505050565b6115a0611dce565b6000826040516115b091906127ad565b9081526020016040518091039020604051806101000160405290816000820180546115da90612740565b80601f016020809104026020016040519081016040528092919081815260200182805461160690612740565b80156116535780601f1061162857610100808354040283529160200191611653565b820191906000526020600020905b81548152906001019060200180831161163657829003601f168201915b505050505081526020016001820160009054906101000a900473ffffffffffffffffffffffffffffffffffffffff1673ffffffffffffffffffffffffffffffffffffffff1673ffffffffffffffffffffffffffffffffffffffff1681526020016002820160009054906101000a900473ffffffffffffffffffffffffffffffffffffffff1673ffffffffffffffffffffffffffffffffffffffff1673ffffffffffffffffffffffffffffffffffffffff16815260200160038201805461171890612740565b80601f016020809104026020016040519081016040528092919081815260200182805461174490612740565b80156117915780601f1061176657610100808354040283529160200191611791565b820191906000526020600020905b81548152906001019060200180831161177457829003601f168201915b505050505081526020016004820160009054906101000a900460ff1660ff1660ff1681526020016005820180546117c790612740565b80601f01602080910402602001604051908101604052809291908181526020018280546117f390612740565b80156118405780601f1061181557610100808354040283529160200191611840565b820191906000526020600020905b81548152906001019060200180831161182357829003601f168201915b505050505081526020016006820160009054906101000a900460ff161515151581526020016007820154815250509050919050565b6000808260405161188691906127ad565b908152602001604051809103902060010160009054906101000a900473ffffffffffffffffffffffffffffffffffffffff169050919050565b6118cd8533868686866118d4565b5050505050565b600073ffffffffffffffffffffffffffffffffffffffff166000876040516118fc91906127ad565b908152602001604051809103902060010160009054906101000a900473ffffffffffffffffffffffffffffffffffffffff1673ffffffffffffffffffffffffffffffffffffffff1614611984576040517f08c379a000000000000000000000000000000000000000000000000000000000815260040161197b90612ef3565b60405180910390fd5b600073ffffffffffffffffffffffffffffffffffffffff168473ffffffffffffffffffffffffffffffffffffffff16036119f3576040517f08c379a00000000000000000000000000000000000000000000000000000000081526004016119ea90612d98565b60405180910390fd5b600073ffffffffffffffffffffffffffffffffffffffff168573ffffffffffffffffffffffffffffffffffffffff1603611a62576040517f08c379a0000000000000000000000000000000000000000000000000000000008152600401611a5990612f85565b60405180910390fd5b600886511015611aa7576040517f08c379a0000000000000000000000000000000000000000000000000000000008152600401611a9e90613017565b60405180910390fd5b6040518061010001604052808781526020018673ffffffffffffffffffffffffffffffffffffffff1681526020018573ffffffffffffffffffffffffffffffffffffffff1681526020018481526020018360ff16815260200182815260200160011515815260200142815250600087604051611b2391906127ad565b90815260200160405180910390206000820151816000019081611b469190612a94565b5060208201518160010160006101000a81548173ffffffffffffffffffffffffffffffffffffffff021916908373ffffffffffffffffffffffffffffffffffffffff16021790555060408201518160020160006101000a81548173ffffffffffffffffffffffffffffffffffffffff021916908373ffffffffffffffffffffffffffffffffffffffff1602179055506060820151816003019081611bea9190612a94565b5060808201518160040160006101000a81548160ff021916908360ff16021790555060a0820151816005019081611c219190612a94565b5060c08201518160060160006101000a81548160ff02191690831515021790555060e08201518160070155905050600160008573ffffffffffffffffffffffffffffffffffffffff1673ffffffffffffffffffffffffffffffffffffffff16815260200190815260200160002086908060018154018082558091505060019003906000526020600020016000909190919091509081611cc09190612a94565b50600260008673ffffffffffffffffffffffffffffffffffffffff1673ffffffffffffffffffffffffffffffffffffffff16815260200190815260200160002086908060018154018082558091505060019003906000526020600020016000909190919091509081611d329190612a94565b5060046000815480929190611d4690613066565b91905055508373ffffffffffffffffffffffffffffffffffffffff168573ffffffffffffffffffffffffffffffffffffffff1687604051611d8791906127ad565b60405180910390207ff3ac2d70bb40c5c557b819df1497dd19d865383d3821b4c26e5729f63cc9630742604051611dbe9190612326565b60405180910390a4505050505050565b60405180610100016040528060608152602001600073ffffffffffffffffffffffffffffffffffffffff168152602001600073ffffffffffffffffffffffffffffffffffffffff16815260200160608152602001600060ff16815260200160608152602001600015158152602001600081525090565b600082825260208201905092915050565b7f44657669636552656769737472793a20455448206e6f74206163636570746564600082015250565b6000611e8b602083611e44565b9150611e9682611e55565b602082019050919050565b60006020820190508181036000830152611eba81611e7e565b9050919050565b6000604051905090565b600080fd5b600080fd5b600073ffffffffffffffffffffffffffffffffffffffff82169050919050565b6000611f0082611ed5565b9050919050565b611f1081611ef5565b8114611f1b57600080fd5b50565b600081359050611f2d81611f07565b92915050565b600060208284031215611f4957611f48611ecb565b5b6000611f5784828501611f1e565b91505092915050565b600081519050919050565b600082825260208201905092915050565b6000819050602082019050919050565b600081519050919050565b600082825260208201905092915050565b60005b83811015611fc6578082015181840152602081019050611fab565b60008484015250505050565b6000601f19601f8301169050919050565b6000611fee82611f8c565b611ff88185611f97565b9350612008818560208601611fa8565b61201181611fd2565b840191505092915050565b60006120288383611fe3565b905092915050565b6000602082019050919050565b600061204882611f60565b6120528185611f6b565b93508360208202850161206485611f7c565b8060005b858110156120a05784840389528151612081858261201c565b945061208c83612030565b925060208a01995050600181019050612068565b50829750879550505050505092915050565b600060208201905081810360008301526120cc818461203d565b905092915050565b600080fd5b600080fd5b7f4e487b7100000000000000000000000000000000000000000000000000000000600052604160045260246000fd5b61211682611fd2565b810181811067ffffffffffffffff82111715612135576121346120de565b5b80604052505050565b6000612148611ec1565b9050612154828261210d565b919050565b600067ffffffffffffffff821115612174576121736120de565b5b61217d82611fd2565b9050602081019050919050565b82818337600083830152505050565b60006121ac6121a784612159565b61213e565b9050828152602081018484840111156121c8576121c76120d9565b5b6121d384828561218a565b509392505050565b600082601f8301126121f0576121ef6120d4565b5b8135612200848260208601612199565b91505092915050565b60006020828403121561221f5761221e611ecb565b5b600082013567ffffffffffffffff81111561223d5761223c611ed0565b5b612249848285016121db565b91505092915050565b61225b81611ef5565b82525050565b60006020820190506122766000830184612252565b92915050565b600061228782611f8c565b6122918185611e44565b93506122a1818560208601611fa8565b6122aa81611fd2565b840191505092915050565b600060208201905081810360008301526122cf818461227c565b905092915050565b60008115159050919050565b6122ec816122d7565b82525050565b600060208201905061230760008301846122e3565b92915050565b6000819050919050565b6123208161230d565b82525050565b600060208201905061233b6000830184612317565b92915050565b600060ff82169050919050565b61235781612341565b811461236257600080fd5b50565b6000813590506123748161234e565b92915050565b60008060008060008060c0878903121561239757612396611ecb565b5b600087013567ffffffffffffffff8111156123b5576123b4611ed0565b5b6123c189828a016121db565b96505060206123d289828a01611f1e565b95505060406123e389828a01611f1e565b945050606087013567ffffffffffffffff81111561240457612403611ed0565b5b61241089828a016121db565b935050608061242189828a01612365565b92505060a087013567ffffffffffffffff81111561244257612441611ed0565b5b61244e89828a016121db565b9150509295509295509295565b60008060006060848603121561247457612473611ecb565b5b600084013567ffffffffffffffff81111561249257612491611ed0565b5b61249e868287016121db565b93505060206124af86828701611f1e565b92505060406124c086828701611f1e565b9150509250925092565b600080604083850312156124e1576124e0611ecb565b5b600083013567ffffffffffffffff8111156124ff576124fe611ed0565b5b61250b858286016121db565b925050602061251c85828601611f1e565b9150509250929050565b61252f81611ef5565b82525050565b61253e81612341565b82525050565b61254d816122d7565b82525050565b61255c8161230d565b82525050565b60006101008301600083015184820360008601526125808282611fe3565b91505060208301516125956020860182612526565b5060408301516125a86040860182612526565b50606083015184820360608601526125c08282611fe3565b91505060808301516125d56080860182612535565b5060a083015184820360a08601526125ed8282611fe3565b91505060c083015161260260c0860182612544565b5060e083015161261560e0860182612553565b508091505092915050565b6000602082019050818103600083015261263a8184612562565b905092915050565b600080600080600060a0868803121561265e5761265d611ecb565b5b600086013567ffffffffffffffff81111561267c5761267b611ed0565b5b612688888289016121db565b955050602061269988828901611f1e565b945050604086013567ffffffffffffffff8111156126ba576126b9611ed0565b5b6126c6888289016121db565b93505060606126d788828901612365565b925050608086013567ffffffffffffffff8111156126f8576126f7611ed0565b5b612704888289016121db565b9150509295509295909350565b7f4e487b7100000000000000000000000000000000000000000000000000000000600052602260045260246000fd5b6000600282049050600182168061275857607f821691505b60208210810361276b5761276a612711565b5b50919050565b600081905092915050565b600061278782611f8c565b6127918185612771565b93506127a1818560208601611fa8565b80840191505092915050565b60006127b9828461277c565b915081905092915050565b7f44657669636552656769737472793a204e616d652063616e6e6f74206265206560008201527f6d70747900000000000000000000000000000000000000000000000000000000602082015250565b6000612820602483611e44565b915061282b826127c4565b604082019050919050565b6000602082019050818103600083015261284f81612813565b9050919050565b7f44657669636552656769737472793a204e616d6520746f6f206c6f6e6720286d60008201527f6178203530206368617273290000000000000000000000000000000000000000602082015250565b60006128b2602c83611e44565b91506128bd82612856565b604082019050919050565b600060208201905081810360008301526128e1816128a5565b9050919050565b60008190508160005260206000209050919050565b60006020601f8301049050919050565b600082821b905092915050565b60006008830261294a7fffffffffffffffffffffffffffffffffffffffffffffffffffffffffffffffff8261290d565b612954868361290d565b95508019841693508086168417925050509392505050565b6000819050919050565b600061299161298c6129878461230d565b61296c565b61230d565b9050919050565b6000819050919050565b6129ab83612976565b6129bf6129b782612998565b84845461291a565b825550505050565b600090565b6129d46129c7565b6129df8184846129a2565b505050565b5b81811015612a03576129f86000826129cc565b6001810190506129e5565b5050565b601f821115612a4857612a19816128e8565b612a22846128fd565b81016020851015612a31578190505b612a45612a3d856128fd565b8301826129e4565b50505b505050565b600082821c905092915050565b6000612a6b60001984600802612a4d565b1980831691505092915050565b6000612a848383612a5a565b9150826002028217905092915050565b612a9d82611f8c565b67ffffffffffffffff811115612ab657612ab56120de565b5b612ac08254612740565b612acb828285612a07565b600060209050601f831160018114612afe5760008415612aec578287015190505b612af68582612a78565b865550612b5e565b601f198416612b0c866128e8565b60005b82811015612b3457848901518255600182019150602085019450602081019050612b0f565b86831015612b515784890151612b4d601f891682612a5a565b8355505b6001600288020188555050505b505050505050565b60006040820190508181036000830152612b80818561227c565b9050612b8f6020830184612317565b9392505050565b7f44657669636552656769737472793a20446576696365206e6f7420726567697360008201527f7465726564000000000000000000000000000000000000000000000000000000602082015250565b6000612bf2602583611e44565b9150612bfd82612b96565b604082019050919050565b60006020820190508181036000830152612c2181612be5565b9050919050565b7f44657669636552656769737472793a204e6f7420617574686f72697a65640000600082015250565b6000612c5e601e83611e44565b9150612c6982612c28565b602082019050919050565b60006020820190508181036000830152612c8d81612c51565b9050919050565b7f44657669636552656769737472793a204f6e6c792070617469656e742063616e60008201527f206368616e676520677561726469616e00000000000000000000000000000000602082015250565b6000612cf0603083611e44565b9150612cfb82612c94565b604082019050919050565b60006020820190508181036000830152612d1f81612ce3565b9050919050565b7f44657669636552656769737472793a20496e76616c696420677561726469616e60008201527f2061646472657373000000000000000000000000000000000000000000000000602082015250565b6000612d82602883611e44565b9150612d8d82612d26565b604082019050919050565b60006020820190508181036000830152612db181612d75565b9050919050565b6000606082019050612dcd6000830186612252565b612dda6020830185612252565b612de76040830184612317565b949350505050565b7f44657669636552656769737472793a204f6e6c792070617469656e742063616e60008201527f20706572666f726d207468697320616374696f6e000000000000000000000000602082015250565b6000612e4b603483611e44565b9150612e5682612def565b604082019050919050565b60006020820190508181036000830152612e7a81612e3e565b9050919050565b7f44657669636552656769737472793a2044657669636520616c7265616479207260008201527f6567697374657265640000000000000000000000000000000000000000000000602082015250565b6000612edd602983611e44565b9150612ee882612e81565b604082019050919050565b60006020820190508181036000830152612f0c81612ed0565b9050919050565b7f44657669636552656769737472793a20496e76616c69642070617469656e742060008201527f6164647265737300000000000000000000000000000000000000000000000000602082015250565b6000612f6f602783611e44565b9150612f7a82612f13565b604082019050919050565b60006020820190508181036000830152612f9e81612f62565b9050919050565b7f44657669636552656769737472793a2044657669636520494420746f6f20736860008201527f6f727420286d696e203820636861727329000000000000000000000000000000602082015250565b6000613001603183611e44565b915061300c82612fa5565b604082019050919050565b6000602082019050818103600083015261303081612ff4565b9050919050565b7f4e487b7100000000000000000000000000000000000000000000000000000000600052601160045260246000fd5b60006130718261230d565b91507fffffffffffffffffffffffffffffffffffffffffffffffffffffffffffffffff82036130a3576130a2613037565b5b60018201905091905056fea264697066735822122035ad76b00f4be454fb78a9619db4df77b1021b3b7d11dce87653d99fdbbdb17a64736f6c6343000814003360806040523480156200001157600080fd5b5060405162002c2d38038062002c2d83398181016040528101906200003791906200015b565b600073ffffffffffffffffffffffffffffffffffffffff168173ffffffffffffffffffffffffffffffffffffffff1603620000a9576040517f08c379a0000000000000000000000000000000000000000000000000000000008152600401620000a09062000214565b60405180910390fd5b80600260006101000a81548173ffffffffffffffffffffffffffffffffffffffff021916908373ffffffffffffffffffffffffffffffffffffffff1602179055505062000236565b600080fd5b600073ffffffffffffffffffffffffffffffffffffffff82169050919050565b60006200012382620000f6565b9050919050565b620001358162000116565b81146200014157600080fd5b50565b60008151905062000155816200012a565b92915050565b600060208284031215620001745762000173620000f1565b5b6000620001848482850162000144565b91505092915050565b600082825260208201905092915050565b7f4576656e744c6f676765723a20496e76616c696420726567697374727920616460008201527f6472657373000000000000000000000000000000000000000000000000000000602082015250565b6000620001fc6025836200018d565b915062000209826200019e565b604082019050919050565b600060208201905081810360008301526200022f81620001ed565b9050919050565b6129e780620002466000396000f3fe6080604052600436106100955760003560e01c8063810ef11a11610059578063810ef11a146101e5578063aa7f79e714610222578063ba8706861461025f578063d35482461461028a578063d590786a146102b3576100d5565b8063156ca235146100da5780634ace288e1461010357806353361502146101405780635efb870a1461017d5780636d1884e0146101a8576100d5565b366100d5576040517f08c379a00000000000000000000000000000000000000000000000000000000081526004016100cc9061156e565b60405180910390fd5b600080fd5b3480156100e657600080fd5b5061010160048036038101906100fc919061177c565b6102f0565b005b34801561010f57600080fd5b5061012a60048036038101906101259190611851565b6104bc565b6040516101379190611a98565b60405180910390f35b34801561014c57600080fd5b5061016760048036038101906101629190611aba565b610828565b6040516101749190611b12565b60405180910390f35b34801561018957600080fd5b50610192610853565b60405161019f9190611b8c565b60405180910390f35b3480156101b457600080fd5b506101cf60048036038101906101ca9190611ba7565b610879565b6040516101dc9190611c51565b60405180910390f35b3480156101f157600080fd5b5061020c60048036038101906102079190611aba565b610a8a565b6040516102199190611d22565b60405180910390f35b34801561022e57600080fd5b5061024960048036038101906102449190611d44565b610b00565b6040516102569190611a98565b60405180910390f35b34801561026b57600080fd5b50610274610e36565b6040516102819190611b12565b60405180910390f35b34801561029657600080fd5b506102b160048036038101906102ac9190611d84565b610e3c565b005b3480156102bf57600080fd5b506102da60048036038101906102d59190611e0f565b611007565b6040516102e79190611e6a565b60405180910390f35b82600260009054906101000a900473ffffffffffffffffffffffffffffffffffffffff1673ffffffffffffffffffffffffffffffffffffffff166368ba4eaf826040518263ffffffff1660e01b815260040161034c9190611ebe565b602060405180830381865afa158015610369573d6000803e3d6000fd5b505050506040513d601f19601f8201168201806040525081019061038d9190611f0c565b6103cc576040517f08c379a00000000000000000000000000000000000000000000000000000000081526004016103c390611fab565b60405180910390fd5b83600260009054906101000a900473ffffffffffffffffffffffffffffffffffffffff1673ffffffffffffffffffffffffffffffffffffffff16635cd10dc1826040518263ffffffff1660e01b81526004016104289190611ebe565b602060405180830381865afa158015610445573d6000803e3d6000fd5b505050506040513d601f19601f820116820180604052508101906104699190611f0c565b6104a8576040517f08c379a000000000000000000000000000000000000000000000000000000000815260040161049f9061203d565b60405180910390fd5b6104b48686868661107f565b505050505050565b60606000821180156104cf575060648211155b61050e576040517f08c379a0000000000000000000000000000000000000000000000000000000008152600401610505906120a9565b60405180910390fd5b60006001846040516105209190612105565b908152602001604051809103902080548060200260200160405190810160405280929190818152602001828054801561057857602002820191906000526020600020905b815481526020019060010190808311610564575b50505050509050600083825111610590578151610592565b835b905060008167ffffffffffffffff8111156105b0576105af61161b565b5b6040519080825280602002602001820160405280156105e957816020015b6105d66114c9565b8152602001906001900390816105ce5790505b50905060005b8281101561081b576000848260018751610609919061214b565b610613919061214b565b815181106106245761062361217f565b5b60200260200101519050600081815481106106425761064161217f565b5b90600052602060002090600502016040518060a001604052908160008201805461066b906121dd565b80601f0160208091040260200160405190810160405280929190818152602001828054610697906121dd565b80156106e45780601f106106b9576101008083540402835291602001916106e4565b820191906000526020600020905b8154815290600101906020018083116106c757829003601f168201915b50505050508152602001600182015481526020016002820160009054906101000a900473ffffffffffffffffffffffffffffffffffffffff1673ffffffffffffffffffffffffffffffffffffffff1673ffffffffffffffffffffffffffffffffffffffff16815260200160038201805461075d906121dd565b80601f0160208091040260200160405190810160405280929190818152602001828054610789906121dd565b80156107d65780601f106107ab576101008083540402835291602001916107d6565b820191906000526020600020905b8154815290600101906020018083116107b957829003601f168201915b505050505081526020016004820154815250508383815181106107fc576107fb61217f565b5b60200260200101819052505080806108139061220e565b9150506105ef565b5080935050505092915050565b600060018260405161083a9190612105565b9081526020016040518091039020805490509050919050565b600260009054906101000a900473ffffffffffffffffffffffffffffffffffffffff1681565b6108816114c9565b60008054905082106108c8576040517f08c379a00000000000000000000000000000000000000000000000000000000081526004016108bf906122c8565b60405180910390fd5b600082815481106108dc576108db61217f565b5b90600052602060002090600502016040518060a0016040529081600082018054610905906121dd565b80601f0160208091040260200160405190810160405280929190818152602001828054610931906121dd565b801561097e5780601f106109535761010080835404028352916020019161097e565b820191906000526020600020905b81548152906001019060200180831161096157829003601f168201915b50505050508152602001600182015481526020016002820160009054906101000a900473ffffffffffffffffffffffffffffffffffffffff1673ffffffffffffffffffffffffffffffffffffffff1673ffffffffffffffffffffffffffffffffffffffff1681526020016003820180546109f7906121dd565b80601f0160208091040260200160405190810160405280929190818152602001828054610a23906121dd565b8015610a705780601f10610a4557610100808354040283529160200191610a70565b820191906000526020600020905b815481529060010190602001808311610a5357829003601f168201915b505050505081526020016004820154815250509050919050565b6060600182604051610a9c9190612105565b9081526020016040518091039020805480602002602001604051908101604052809291908181526020018280548015610af457602002820191906000526020600020905b815481526020019060010190808311610ae0575b50505050509050919050565b60606000805490508310610b49576040517f08c379a0000000000000000000000000000000000000000000000000000000008152600401610b409061235a565b60405180910390fd5b600082118015610b5a575060648211155b610b99576040517f08c379a0000000000000000000000000000000000000000000000000000000008152600401610b90906120a9565b60405180910390fd5b60008284610ba7919061237a565b9050600080549050811115610bbf5760008054905090505b60008482610bcd919061214b565b905060008167ffffffffffffffff811115610beb57610bea61161b565b5b604051908082528060200260200182016040528015610c2457816020015b610c116114c9565b815260200190600190039081610c095790505b50905060005b82811015610e295760008188610c40919061237a565b81548110610c5157610c5061217f565b5b90600052602060002090600502016040518060a0016040529081600082018054610c7a906121dd565b80601f0160208091040260200160405190810160405280929190818152602001828054610ca6906121dd565b8015610cf35780601f10610cc857610100808354040283529160200191610cf3565b820191906000526020600020905b815481529060010190602001808311610cd657829003601f168201915b50505050508152602001600182015481526020016002820160009054906101000a900473ffffffffffffffffffffffffffffffffffffffff1673ffffffffffffffffffffffffffffffffffffffff1673ffffffffffffffffffffffffffffffffffffffff168152602001600382018054610d6c906121dd565b80601f0160208091040260200160405190810160405280929190818152602001828054610d98906121dd565b8015610de55780601f10610dba57610100808354040283529160200191610de5565b820191906000526020600020905b815481529060010190602001808311610dc857829003601f168201915b50505050508152602001600482015481525050828281518110610e0b57610e0a61217f565b5b60200260200101819052508080610e219061220e565b915050610c2a565b5080935050505092915050565b60035481565b82600260009054906101000a900473ffffffffffffffffffffffffffffffffffffffff1673ffffffffffffffffffffffffffffffffffffffff166368ba4eaf826040518263ffffffff1660e01b8152600401610e989190611ebe565b602060405180830381865afa158015610eb5573d6000803e3d6000fd5b505050506040513d601f19601f82011682018060405250810190610ed99190611f0c565b610f18576040517f08c379a0000000000000000000000000000000000000000000000000000000008152600401610f0f90611fab565b60405180910390fd5b83600260009054906101000a900473ffffffffffffffffffffffffffffffffffffffff1673ffffffffffffffffffffffffffffffffffffffff16635cd10dc1826040518263ffffffff1660e01b8152600401610f749190611ebe565b602060405180830381865afa158015610f91573d6000803e3d6000fd5b505050506040513d601f19601f82011682018060405250810190610fb59190611f0c565b610ff4576040517f08c379a0000000000000000000000000000000000000000000000000000000008152600401610feb9061203d565b60405180910390fd5b6110003386868661107f565b5050505050565b60008080549050831061104f576040517f08c379a0000000000000000000000000000000000000000000000000000000008152600401611046906122c8565b60405180910390fd5b81600084815481106110645761106361217f565b5b90600052602060002090600502016001015414905092915050565b6000600260009054906101000a900473ffffffffffffffffffffffffffffffffffffffff1673ffffffffffffffffffffffffffffffffffffffff1663b71a0346856040518263ffffffff1660e01b81526004016110dc9190611ebe565b600060405180830381865afa1580156110f9573d6000803e3d6000fd5b505050506040513d6000823e3d601f19601f8201168201806040525081019061112291906125a9565b9050806020015173ffffffffffffffffffffffffffffffffffffffff168573ffffffffffffffffffffffffffffffffffffffff1614806111915750806040015173ffffffffffffffffffffffffffffffffffffffff168573ffffffffffffffffffffffffffffffffffffffff16145b6111d0576040517f08c379a00000000000000000000000000000000000000000000000000000000081526004016111c790612664565b60405180910390fd5b6000828051906020012090506040518060400160405280600681526020017f6e6f726d616c00000000000000000000000000000000000000000000000000008152508051906020012081148061126157506040518060400160405280600581526020017f616c6572740000000000000000000000000000000000000000000000000000008152508051906020012081145b806112a757506040518060400160405280600881526020017f637269746963616c0000000000000000000000000000000000000000000000008152508051906020012081145b6112e6576040517f08c379a00000000000000000000000000000000000000000000000000000000081526004016112dd906126d0565b60405180910390fd5b60006040518060a00160405280878152602001868152602001846040015173ffffffffffffffffffffffffffffffffffffffff1681526020018581526020014281525090506000819080600181540180825580915050600190039060005260206000209060050201600090919091909150600082015181600001908161136c9190612892565b506020820151816001015560408201518160020160006101000a81548173ffffffffffffffffffffffffffffffffffffffff021916908373ffffffffffffffffffffffffffffffffffffffff16021790555060608201518160030190816113d39190612892565b50608082015181600401555050600060016000805490506113f4919061214b565b90506001876040516114069190612105565b90815260200160405180910390208190806001815401808255809150506001900390600052602060002001600090919091909150556003600081548092919061144e9061220e565b9190505550836040015173ffffffffffffffffffffffffffffffffffffffff168760405161147c9190612105565b60405180910390207f3826f73ae69b3a7d4560d320a6c29c90bd452990ac0c9c559e6587286830d59d8888426040516114b793929190612973565b60405180910390a35050505050505050565b6040518060a001604052806060815260200160008019168152602001600073ffffffffffffffffffffffffffffffffffffffff16815260200160608152602001600081525090565b600082825260208201905092915050565b7f4576656e744c6f676765723a20455448206e6f74206163636570746564000000600082015250565b6000611558601d83611511565b915061156382611522565b602082019050919050565b600060208201905081810360008301526115878161154b565b9050919050565b6000604051905090565b600080fd5b600080fd5b600073ffffffffffffffffffffffffffffffffffffffff82169050919050565b60006115cd826115a2565b9050919050565b6115dd816115c2565b81146115e857600080fd5b50565b6000813590506115fa816115d4565b92915050565b600080fd5b600080fd5b6000601f19601f8301169050919050565b7f4e487b7100000000000000000000000000000000000000000000000000000000600052604160045260246000fd5b6116538261160a565b810181811067ffffffffffffffff821117156116725761167161161b565b5b80604052505050565b600061168561158e565b9050611691828261164a565b919050565b600067ffffffffffffffff8211156116b1576116b061161b565b5b6116ba8261160a565b9050602081019050919050565b82818337600083830152505050565b60006116e96116e484611696565b61167b565b90508281526020810184848401111561170557611704611605565b5b6117108482856116c7565b509392505050565b600082601f83011261172d5761172c611600565b5b813561173d8482602086016116d6565b91505092915050565b6000819050919050565b61175981611746565b811461176457600080fd5b50565b60008135905061177681611750565b92915050565b6000806000806080858703121561179657611795611598565b5b60006117a4878288016115eb565b945050602085013567ffffffffffffffff8111156117c5576117c461159d565b5b6117d187828801611718565b93505060406117e287828801611767565b925050606085013567ffffffffffffffff8111156118035761180261159d565b5b61180f87828801611718565b91505092959194509250565b6000819050919050565b61182e8161181b565b811461183957600080fd5b50565b60008135905061184b81611825565b92915050565b6000806040838503121561186857611867611598565b5b600083013567ffffffffffffffff8111156118865761188561159d565b5b61189285828601611718565b92505060206118a38582860161183c565b9150509250929050565b600081519050919050565b600082825260208201905092915050565b6000819050602082019050919050565b600081519050919050565b600082825260208201905092915050565b60005b838110156119135780820151818401526020810190506118f8565b60008484015250505050565b600061192a826118d9565b61193481856118e4565b93506119448185602086016118f5565b61194d8161160a565b840191505092915050565b61196181611746565b82525050565b611970816115c2565b82525050565b61197f8161181b565b82525050565b600060a08301600083015184820360008601526119a2828261191f565b91505060208301516119b76020860182611958565b5060408301516119ca6040860182611967565b50606083015184820360608601526119e2828261191f565b91505060808301516119f76080860182611976565b508091505092915050565b6000611a0e8383611985565b905092915050565b6000602082019050919050565b6000611a2e826118ad565b611a3881856118b8565b935083602082028501611a4a856118c9565b8060005b85811015611a865784840389528151611a678582611a02565b9450611a7283611a16565b925060208a01995050600181019050611a4e565b50829750879550505050505092915050565b60006020820190508181036000830152611ab28184611a23565b905092915050565b600060208284031215611ad057611acf611598565b5b600082013567ffffffffffffffff811115611aee57611aed61159d565b5b611afa84828501611718565b91505092915050565b611b0c8161181b565b82525050565b6000602082019050611b276000830184611b03565b92915050565b6000819050919050565b6000611b52611b4d611b48846115a2565b611b2d565b6115a2565b9050919050565b6000611b6482611b37565b9050919050565b6000611b7682611b59565b9050919050565b611b8681611b6b565b82525050565b6000602082019050611ba16000830184611b7d565b92915050565b600060208284031215611bbd57611bbc611598565b5b6000611bcb8482850161183c565b91505092915050565b600060a0830160008301518482036000860152611bf1828261191f565b9150506020830151611c066020860182611958565b506040830151611c196040860182611967565b5060608301518482036060860152611c31828261191f565b9150506080830151611c466080860182611976565b508091505092915050565b60006020820190508181036000830152611c6b8184611bd4565b905092915050565b600081519050919050565b600082825260208201905092915050565b6000819050602082019050919050565b6000611cab8383611976565b60208301905092915050565b6000602082019050919050565b6000611ccf82611c73565b611cd98185611c7e565b9350611ce483611c8f565b8060005b83811015611d15578151611cfc8882611c9f565b9750611d0783611cb7565b925050600181019050611ce8565b5085935050505092915050565b60006020820190508181036000830152611d3c8184611cc4565b905092915050565b60008060408385031215611d5b57611d5a611598565b5b6000611d698582860161183c565b9250506020611d7a8582860161183c565b9150509250929050565b600080600060608486031215611d9d57611d9c611598565b5b600084013567ffffffffffffffff811115611dbb57611dba61159d565b5b611dc786828701611718565b9350506020611dd886828701611767565b925050604084013567ffffffffffffffff811115611df957611df861159d565b5b611e0586828701611718565b9150509250925092565b60008060408385031215611e2657611e25611598565b5b6000611e348582860161183c565b9250506020611e4585828601611767565b9150509250929050565b60008115159050919050565b611e6481611e4f565b82525050565b6000602082019050611e7f6000830184611e5b565b92915050565b6000611e90826118d9565b611e9a8185611511565b9350611eaa8185602086016118f5565b611eb38161160a565b840191505092915050565b60006020820190508181036000830152611ed88184611e85565b905092915050565b611ee981611e4f565b8114611ef457600080fd5b50565b600081519050611f0681611ee0565b92915050565b600060208284031215611f2257611f21611598565b5b6000611f3084828501611ef7565b91505092915050565b7f4576656e744c6f676765723a20446576696365206e6f7420726567697374657260008201527f6564000000000000000000000000000000000000000000000000000000000000602082015250565b6000611f95602283611511565b9150611fa082611f39565b604082019050919050565b60006020820190508181036000830152611fc481611f88565b9050919050565b7f4576656e744c6f676765723a20446576696365206973206e6f7420616374697660008201527f6500000000000000000000000000000000000000000000000000000000000000602082015250565b6000612027602183611511565b915061203282611fcb565b604082019050919050565b600060208201905081810360008301526120568161201a565b9050919050565b7f4576656e744c6f676765723a204c696d6974206d75737420626520312d313030600082015250565b6000612093602083611511565b915061209e8261205d565b602082019050919050565b600060208201905081810360008301526120c281612086565b9050919050565b600081905092915050565b60006120df826118d9565b6120e981856120c9565b93506120f98185602086016118f5565b80840191505092915050565b600061211182846120d4565b915081905092915050565b7f4e487b7100000000000000000000000000000000000000000000000000000000600052601160045260246000fd5b60006121568261181b565b91506121618361181b565b92508282039050818111156121795761217861211c565b5b92915050565b7f4e487b7100000000000000000000000000000000000000000000000000000000600052603260045260246000fd5b7f4e487b7100000000000000000000000000000000000000000000000000000000600052602260045260246000fd5b600060028204905060018216806121f557607f821691505b602082108103612208576122076121ae565b5b50919050565b60006122198261181b565b91507fffffffffffffffffffffffffffffffffffffffffffffffffffffffffffffffff820361224b5761224a61211c565b5b600182019050919050565b7f4576656e744c6f676765723a204576656e7420696e646578206f7574206f662060008201527f626f756e64730000000000000000000000000000000000000000000000000000602082015250565b60006122b2602683611511565b91506122bd82612256565b604082019050919050565b600060208201905081810360008301526122e1816122a5565b9050919050565b7f4576656e744c6f676765723a204f6666736574206f7574206f6620626f756e6460008201527f7300000000000000000000000000000000000000000000000000000000000000602082015250565b6000612344602183611511565b915061234f826122e8565b604082019050919050565b6000602082019050818103600083015261237381612337565b9050919050565b60006123858261181b565b91506123908361181b565b92508282019050808211156123a8576123a761211c565b5b92915050565b600080fd5b600080fd5b60006123cb6123c684611696565b61167b565b9050828152602081018484840111156123e7576123e6611605565b5b6123f28482856118f5565b509392505050565b600082601f83011261240f5761240e611600565b5b815161241f8482602086016123b8565b91505092915050565b600081519050612437816115d4565b92915050565b600060ff82169050919050565b6124538161243d565b811461245e57600080fd5b50565b6000815190506124708161244a565b92915050565b60008151905061248581611825565b92915050565b600061010082840312156124a2576124a16123ae565b5b6124ad61010061167b565b9050600082015167ffffffffffffffff8111156124cd576124cc6123b3565b5b6124d9848285016123fa565b60008301525060206124ed84828501612428565b602083015250604061250184828501612428565b604083015250606082015167ffffffffffffffff811115612525576125246123b3565b5b612531848285016123fa565b606083015250608061254584828501612461565b60808301525060a082015167ffffffffffffffff811115612569576125686123b3565b5b612575848285016123fa565b60a08301525060c061258984828501611ef7565b60c08301525060e061259d84828501612476565b60e08301525092915050565b6000602082840312156125bf576125be611598565b5b600082015167ffffffffffffffff8111156125dd576125dc61159d565b5b6125e98482850161248b565b91505092915050565b7f4576656e744c6f676765723a204f6e6c792070617469656e74206f722067756160008201527f726469616e2063616e206c6f67206576656e7473000000000000000000000000602082015250565b600061264e603483611511565b9150612659826125f2565b604082019050919050565b6000602082019050818103600083015261267d81612641565b9050919050565b7f4576656e744c6f676765723a20496e76616c6964206576656e74207479706500600082015250565b60006126ba601f83611511565b91506126c582612684565b602082019050919050565b600060208201905081810360008301526126e9816126ad565b9050919050565b60008190508160005260206000209050919050565b60006020601f8301049050919050565b600082821b905092915050565b6000600883026127527fffffffffffffffffffffffffffffffffffffffffffffffffffffffffffffffff82612715565b61275c8683612715565b95508019841693508086168417925050509392505050565b600061278f61278a6127858461181b565b611b2d565b61181b565b9050919050565b6000819050919050565b6127a983612774565b6127bd6127b582612796565b848454612722565b825550505050565b600090565b6127d26127c5565b6127dd8184846127a0565b505050565b5b81811015612801576127f66000826127ca565b6001810190506127e3565b5050565b601f82111561284657612817816126f0565b61282084612705565b8101602085101561282f578190505b61284361283b85612705565b8301826127e2565b50505b505050565b600082821c905092915050565b60006128696000198460080261284b565b1980831691505092915050565b60006128828383612858565b9150826002028217905092915050565b61289b826118d9565b67ffffffffffffffff8111156128b4576128b361161b565b5b6128be82546121dd565b6128c9828285612805565b600060209050601f8311600181146128fc57600084156128ea578287015190505b6128f48582612876565b86555061295c565b601f19841661290a866126f0565b60005b828110156129325784890151825560018201915060208501945060208101905061290d565b8683101561294f578489015161294b601f891682612858565b8355505b6001600288020188555050505b505050505050565b61296d81611746565b82525050565b60006060820190506129886000830186612964565b818103602083015261299a8185611e85565b90506129a96040830184611b03565b94935050505056fea264697066735822122041a22267f0235e3b4460a7d2dee1e9497ff4d6c3e112289fcc1cdf4584782ee564736f6c63430008140033",
  "linkReferences": {},
  "deployedLinkReferences": {}
}